{
	"HelloWorld.sol": {
		"HelloWorld": {
			"abi": [
				{
					"inputs": [
						{
							"internalType": "uint256",
							"name": "newInt",
							"type": "uint256"
						}
					],
					"stateMutability": "nonpayable",
					"type": "constructor"
				},
				{
					"inputs": [
						{
							"internalType": "address",
							"name": "addr",
							"type": "address"
						},
						{
							"internalType": "uint256",
							"name": "a",
							"type": "uint256"
						},
						{
							"internalType": "uint256",
							"name": "b",
							"type": "uint256"
						}
					],
					"name": "MyError",
					"type": "error"
				},
				{
					"inputs": [
						{
							"internalType": "uint256",
							"name": "a",
							"type": "uint256"
						},
						{
							"internalType": "uint256",
							"name": "b",
							"type": "uint256"
						}
					],
					"name": "add",
					"outputs": [
						{
							"internalType": "uint256",
							"name": "",
							"type": "uint256"
						}
					],
					"stateMutability": "view",
					"type": "function"
				},
				{
					"inputs": [
						{
							"internalType": "uint256[]",
							"name": "tests",
							"type": "uint256[]"
						}
					],
					"name": "foo",
					"outputs": [
						{
							"internalType": "uint256",
							"name": "",
							"type": "uint256"
						}
					],
					"stateMutability": "view",
					"type": "function"
				},
				{
					"inputs": [],
					"name": "myString",
					"outputs": [
						{
							"internalType": "string",
							"name": "",
							"type": "string"
						}
					],
					"stateMutability": "view",
					"type": "function"
				},
				{
					"inputs": [
						{
							"internalType": "uint256",
							"name": "",
							"type": "uint256"
						}
					],
					"name": "nums",
					"outputs": [
						{
							"internalType": "uint256",
							"name": "",
							"type": "uint256"
						}
					],
					"stateMutability": "view",
					"type": "function"
				},
				{
					"inputs": [],
					"name": "order",
					"outputs": [
						{
							"internalType": "string",
							"name": "name",
							"type": "string"
						},
						{
							"internalType": "string",
							"name": "creationDate",
							"type": "string"
						}
					],
					"stateMutability": "view",
					"type": "function"
				},
				{
					"inputs": [
						{
							"internalType": "uint256",
							"name": "",
							"type": "uint256"
						}
					],
					"name": "orders",
					"outputs": [
						{
							"internalType": "string",
							"name": "name",
							"type": "string"
						},
						{
							"internalType": "string",
							"name": "creationDate",
							"type": "string"
						}
					],
					"stateMutability": "view",
					"type": "function"
				},
				{
					"inputs": [
						{
							"internalType": "address",
							"name": "",
							"type": "address"
						},
						{
							"internalType": "uint256",
							"name": "",
							"type": "uint256"
						}
					],
					"name": "ordersByOwner",
					"outputs": [
						{
							"internalType": "string",
							"name": "name",
							"type": "string"
						},
						{
							"internalType": "string",
							"name": "creationDate",
							"type": "string"
						}
					],
					"stateMutability": "view",
					"type": "function"
				},
				{
					"inputs": [
						{
							"internalType": "uint256",
							"name": "a",
							"type": "uint256"
						},
						{
							"internalType": "uint256",
							"name": "b",
							"type": "uint256"
						}
					],
					"name": "sub",
					"outputs": [
						{
							"internalType": "uint256",
							"name": "",
							"type": "uint256"
						}
					],
					"stateMutability": "view",
					"type": "function"
				}
			],
			"devdoc": {
				"kind": "dev",
				"methods": {},
				"version": 1
			},
			"evm": {
				"assembly": "    /* \"HelloWorld.sol\":117:1113  contract HelloWorld {... */\n  mstore(0x40, 0x80)\n    /* \"HelloWorld.sol\":143:181  string public myString = \"Hello World\" */\n  mload(0x40)\n  dup1\n  0x40\n  add\n  0x40\n  mstore\n  dup1\n  0x0b\n  dup2\n  mstore\n  0x20\n  add\n  0x48656c6c6f20576f726c64000000000000000000000000000000000000000000\n  dup2\n  mstore\n  pop\n  0x00\n  swap1\n  dup2\n  tag_1\n  swap2\n  swap1\n  tag_2\n  jump\t// in\ntag_1:\n  pop\n    /* \"HelloWorld.sol\":214:240  uint[] public nums = [1,2] */\n  mload(0x40)\n  dup1\n  0x40\n  add\n  0x40\n  mstore\n  dup1\n    /* \"HelloWorld.sol\":236:237  1 */\n  0x01\n    /* \"HelloWorld.sol\":214:240  uint[] public nums = [1,2] */\n  0xff\n  and\n  dup2\n  mstore\n  0x20\n  add\n    /* \"HelloWorld.sol\":238:239  2 */\n  0x02\n    /* \"HelloWorld.sol\":214:240  uint[] public nums = [1,2] */\n  0xff\n  and\n  dup2\n  mstore\n  pop\n  0x02\n  swap1\n  0x02\n  tag_3\n  swap3\n  swap2\n  swap1\n  tag_4\n  jump\t// in\ntag_3:\n  pop\n    /* \"HelloWorld.sol\":355:412  constructor(uint newInt) {... */\n  callvalue\n  dup1\n  iszero\n  tag_5\n  jumpi\n  0x00\n  dup1\n  revert\ntag_5:\n  pop\n  mload(0x40)\n  sub(codesize, bytecodeSize)\n  dup1\n  bytecodeSize\n  dup4\n  codecopy\n  dup2\n  dup2\n  add\n  0x40\n  mstore\n  dup2\n  add\n  swap1\n  tag_6\n  swap2\n  swap1\n  tag_7\n  jump\t// in\ntag_6:\n    /* \"HelloWorld.sol\":399:405  newInt */\n  dup1\n    /* \"HelloWorld.sol\":390:396  myUint */\n  0x01\n    /* \"HelloWorld.sol\":390:405  myUint = newInt */\n  dup2\n  swap1\n  sstore\n  pop\n    /* \"HelloWorld.sol\":355:412  constructor(uint newInt) {... */\n  pop\n    /* \"HelloWorld.sol\":117:1113  contract HelloWorld {... */\n  jump(tag_10)\ntag_4:\n  dup3\n  dup1\n  sload\n  dup3\n  dup3\n  sstore\n  swap1\n  0x00\n  mstore\n  keccak256(0x00, 0x20)\n  swap1\n  dup2\n  add\n  swap3\n  dup3\n  iszero\n  tag_11\n  jumpi\n  swap2\n  0x20\n  mul\n  dup3\n  add\ntag_12:\n  dup3\n  dup2\n  gt\n  iszero\n  tag_13\n  jumpi\n  dup3\n  mload\n  dup3\n  swap1\n  0xff\n  and\n  swap1\n  sstore\n  swap2\n  0x20\n  add\n  swap2\n  swap1\n  0x01\n  add\n  swap1\n  jump(tag_12)\ntag_13:\ntag_11:\n  pop\n  swap1\n  pop\n  tag_14\n  swap2\n  swap1\n  tag_15\n  jump\t// in\ntag_14:\n  pop\n  swap1\n  jump\t// out\ntag_15:\ntag_16:\n  dup1\n  dup3\n  gt\n  iszero\n  tag_17\n  jumpi\n  0x00\n  dup2\n  0x00\n  swap1\n  sstore\n  pop\n  0x01\n  add\n  jump(tag_16)\ntag_17:\n  pop\n  swap1\n  jump\t// out\n    /* \"#utility.yul\":7:106   */\ntag_18:\n    /* \"#utility.yul\":59:65   */\n  0x00\n    /* \"#utility.yul\":93:98   */\n  dup2\n    /* \"#utility.yul\":87:99   */\n  mload\n    /* \"#utility.yul\":77:99   */\n  swap1\n  pop\n    /* \"#utility.yul\":7:106   */\n  swap2\n  swap1\n  pop\n  jump\t// out\n    /* \"#utility.yul\":112:292   */\ntag_19:\n    /* \"#utility.yul\":160:237   */\n  0x4e487b7100000000000000000000000000000000000000000000000000000000\n    /* \"#utility.yul\":157:158   */\n  0x00\n    /* \"#utility.yul\":150:238   */\n  mstore\n    /* \"#utility.yul\":257:261   */\n  0x41\n    /* \"#utility.yul\":254:255   */\n  0x04\n    /* \"#utility.yul\":247:262   */\n  mstore\n    /* \"#utility.yul\":281:285   */\n  0x24\n    /* \"#utility.yul\":278:279   */\n  0x00\n    /* \"#utility.yul\":271:286   */\n  revert\n    /* \"#utility.yul\":298:478   */\ntag_20:\n    /* \"#utility.yul\":346:423   */\n  0x4e487b7100000000000000000000000000000000000000000000000000000000\n    /* \"#utility.yul\":343:344   */\n  0x00\n    /* \"#utility.yul\":336:424   */\n  mstore\n    /* \"#utility.yul\":443:447   */\n  0x22\n    /* \"#utility.yul\":440:441   */\n  0x04\n    /* \"#utility.yul\":433:448   */\n  mstore\n    /* \"#utility.yul\":467:471   */\n  0x24\n    /* \"#utility.yul\":464:465   */\n  0x00\n    /* \"#utility.yul\":457:472   */\n  revert\n    /* \"#utility.yul\":484:804   */\ntag_21:\n    /* \"#utility.yul\":528:534   */\n  0x00\n    /* \"#utility.yul\":565:566   */\n  0x02\n    /* \"#utility.yul\":559:563   */\n  dup3\n    /* \"#utility.yul\":555:567   */\n  div\n    /* \"#utility.yul\":545:567   */\n  swap1\n  pop\n    /* \"#utility.yul\":612:613   */\n  0x01\n    /* \"#utility.yul\":606:610   */\n  dup3\n    /* \"#utility.yul\":602:614   */\n  and\n    /* \"#utility.yul\":633:651   */\n  dup1\n    /* \"#utility.yul\":623:704   */\n  tag_48\n  jumpi\n    /* \"#utility.yul\":689:693   */\n  0x7f\n    /* \"#utility.yul\":681:687   */\n  dup3\n    /* \"#utility.yul\":677:694   */\n  and\n    /* \"#utility.yul\":667:694   */\n  swap2\n  pop\n    /* \"#utility.yul\":623:704   */\ntag_48:\n    /* \"#utility.yul\":751:753   */\n  0x20\n    /* \"#utility.yul\":743:749   */\n  dup3\n    /* \"#utility.yul\":740:754   */\n  lt\n    /* \"#utility.yul\":720:738   */\n  dup2\n    /* \"#utility.yul\":717:755   */\n  sub\n    /* \"#utility.yul\":714:798   */\n  tag_49\n  jumpi\n    /* \"#utility.yul\":770:788   */\n  tag_50\n  tag_20\n  jump\t// in\ntag_50:\n    /* \"#utility.yul\":714:798   */\ntag_49:\n    /* \"#utility.yul\":535:804   */\n  pop\n    /* \"#utility.yul\":484:804   */\n  swap2\n  swap1\n  pop\n  jump\t// out\n    /* \"#utility.yul\":810:951   */\ntag_22:\n    /* \"#utility.yul\":859:863   */\n  0x00\n    /* \"#utility.yul\":882:885   */\n  dup2\n    /* \"#utility.yul\":874:885   */\n  swap1\n  pop\n    /* \"#utility.yul\":905:908   */\n  dup2\n    /* \"#utility.yul\":902:903   */\n  0x00\n    /* \"#utility.yul\":895:909   */\n  mstore\n    /* \"#utility.yul\":939:943   */\n  0x20\n    /* \"#utility.yul\":936:937   */\n  0x00\n    /* \"#utility.yul\":926:944   */\n  keccak256\n    /* \"#utility.yul\":918:944   */\n  swap1\n  pop\n    /* \"#utility.yul\":810:951   */\n  swap2\n  swap1\n  pop\n  jump\t// out\n    /* \"#utility.yul\":957:1050   */\ntag_23:\n    /* \"#utility.yul\":994:1000   */\n  0x00\n    /* \"#utility.yul\":1041:1043   */\n  0x20\n    /* \"#utility.yul\":1036:1038   */\n  0x1f\n    /* \"#utility.yul\":1029:1034   */\n  dup4\n    /* \"#utility.yul\":1025:1039   */\n  add\n    /* \"#utility.yul\":1021:1044   */\n  div\n    /* \"#utility.yul\":1011:1044   */\n  swap1\n  pop\n    /* \"#utility.yul\":957:1050   */\n  swap2\n  swap1\n  pop\n  jump\t// out\n    /* \"#utility.yul\":1056:1163   */\ntag_24:\n    /* \"#utility.yul\":1100:1108   */\n  0x00\n    /* \"#utility.yul\":1150:1155   */\n  dup3\n    /* \"#utility.yul\":1144:1148   */\n  dup3\n    /* \"#utility.yul\":1140:1156   */\n  shl\n    /* \"#utility.yul\":1119:1156   */\n  swap1\n  pop\n    /* \"#utility.yul\":1056:1163   */\n  swap3\n  swap2\n  pop\n  pop\n  jump\t// out\n    /* \"#utility.yul\":1169:1562   */\ntag_25:\n    /* \"#utility.yul\":1238:1244   */\n  0x00\n    /* \"#utility.yul\":1288:1289   */\n  0x08\n    /* \"#utility.yul\":1276:1286   */\n  dup4\n    /* \"#utility.yul\":1272:1290   */\n  mul\n    /* \"#utility.yul\":1311:1408   */\n  tag_55\n    /* \"#utility.yul\":1341:1407   */\n  0xffffffffffffffffffffffffffffffffffffffffffffffffffffffffffffffff\n    /* \"#utility.yul\":1330:1339   */\n  dup3\n    /* \"#utility.yul\":1311:1408   */\n  tag_24\n  jump\t// in\ntag_55:\n    /* \"#utility.yul\":1429:1468   */\n  tag_56\n    /* \"#utility.yul\":1459:1467   */\n  dup7\n    /* \"#utility.yul\":1448:1457   */\n  dup4\n    /* \"#utility.yul\":1429:1468   */\n  tag_24\n  jump\t// in\ntag_56:\n    /* \"#utility.yul\":1417:1468   */\n  swap6\n  pop\n    /* \"#utility.yul\":1501:1505   */\n  dup1\n    /* \"#utility.yul\":1497:1506   */\n  not\n    /* \"#utility.yul\":1490:1495   */\n  dup5\n    /* \"#utility.yul\":1486:1507   */\n  and\n    /* \"#utility.yul\":1477:1507   */\n  swap4\n  pop\n    /* \"#utility.yul\":1550:1554   */\n  dup1\n    /* \"#utility.yul\":1540:1548   */\n  dup7\n    /* \"#utility.yul\":1536:1555   */\n  and\n    /* \"#utility.yul\":1529:1534   */\n  dup5\n    /* \"#utility.yul\":1526:1556   */\n  or\n    /* \"#utility.yul\":1516:1556   */\n  swap3\n  pop\n    /* \"#utility.yul\":1245:1562   */\n  pop\n  pop\n    /* \"#utility.yul\":1169:1562   */\n  swap4\n  swap3\n  pop\n  pop\n  pop\n  jump\t// out\n    /* \"#utility.yul\":1568:1645   */\ntag_26:\n    /* \"#utility.yul\":1605:1612   */\n  0x00\n    /* \"#utility.yul\":1634:1639   */\n  dup2\n    /* \"#utility.yul\":1623:1639   */\n  swap1\n  pop\n    /* \"#utility.yul\":1568:1645   */\n  swap2\n  swap1\n  pop\n  jump\t// out\n    /* \"#utility.yul\":1651:1711   */\ntag_27:\n    /* \"#utility.yul\":1679:1682   */\n  0x00\n    /* \"#utility.yul\":1700:1705   */\n  dup2\n    /* \"#utility.yul\":1693:1705   */\n  swap1\n  pop\n    /* \"#utility.yul\":1651:1711   */\n  swap2\n  swap1\n  pop\n  jump\t// out\n    /* \"#utility.yul\":1717:1859   */\ntag_28:\n    /* \"#utility.yul\":1767:1776   */\n  0x00\n    /* \"#utility.yul\":1800:1853   */\n  tag_60\n    /* \"#utility.yul\":1818:1852   */\n  tag_61\n    /* \"#utility.yul\":1827:1851   */\n  tag_62\n    /* \"#utility.yul\":1845:1850   */\n  dup5\n    /* \"#utility.yul\":1827:1851   */\n  tag_26\n  jump\t// in\ntag_62:\n    /* \"#utility.yul\":1818:1852   */\n  tag_27\n  jump\t// in\ntag_61:\n    /* \"#utility.yul\":1800:1853   */\n  tag_26\n  jump\t// in\ntag_60:\n    /* \"#utility.yul\":1787:1853   */\n  swap1\n  pop\n    /* \"#utility.yul\":1717:1859   */\n  swap2\n  swap1\n  pop\n  jump\t// out\n    /* \"#utility.yul\":1865:1940   */\ntag_29:\n    /* \"#utility.yul\":1908:1911   */\n  0x00\n    /* \"#utility.yul\":1929:1934   */\n  dup2\n    /* \"#utility.yul\":1922:1934   */\n  swap1\n  pop\n    /* \"#utility.yul\":1865:1940   */\n  swap2\n  swap1\n  pop\n  jump\t// out\n    /* \"#utility.yul\":1946:2215   */\ntag_30:\n    /* \"#utility.yul\":2056:2095   */\n  tag_65\n    /* \"#utility.yul\":2087:2094   */\n  dup4\n    /* \"#utility.yul\":2056:2095   */\n  tag_28\n  jump\t// in\ntag_65:\n    /* \"#utility.yul\":2117:2208   */\n  tag_66\n    /* \"#utility.yul\":2166:2207   */\n  tag_67\n    /* \"#utility.yul\":2190:2206   */\n  dup3\n    /* \"#utility.yul\":2166:2207   */\n  tag_29\n  jump\t// in\ntag_67:\n    /* \"#utility.yul\":2158:2164   */\n  dup5\n    /* \"#utility.yul\":2151:2155   */\n  dup5\n    /* \"#utility.yul\":2145:2156   */\n  sload\n    /* \"#utility.yul\":2117:2208   */\n  tag_25\n  jump\t// in\ntag_66:\n    /* \"#utility.yul\":2111:2115   */\n  dup3\n    /* \"#utility.yul\":2104:2209   */\n  sstore\n    /* \"#utility.yul\":2022:2215   */\n  pop\n    /* \"#utility.yul\":1946:2215   */\n  pop\n  pop\n  pop\n  jump\t// out\n    /* \"#utility.yul\":2221:2294   */\ntag_31:\n    /* \"#utility.yul\":2266:2269   */\n  0x00\n    /* \"#utility.yul\":2221:2294   */\n  swap1\n  jump\t// out\n    /* \"#utility.yul\":2300:2489   */\ntag_32:\n    /* \"#utility.yul\":2377:2409   */\n  tag_70\n  tag_31\n  jump\t// in\ntag_70:\n    /* \"#utility.yul\":2418:2483   */\n  tag_71\n    /* \"#utility.yul\":2476:2482   */\n  dup2\n    /* \"#utility.yul\":2468:2474   */\n  dup5\n    /* \"#utility.yul\":2462:2466   */\n  dup5\n    /* \"#utility.yul\":2418:2483   */\n  tag_30\n  jump\t// in\ntag_71:\n    /* \"#utility.yul\":2353:2489   */\n  pop\n    /* \"#utility.yul\":2300:2489   */\n  pop\n  pop\n  jump\t// out\n    /* \"#utility.yul\":2495:2681   */\ntag_33:\n    /* \"#utility.yul\":2555:2675   */\ntag_73:\n    /* \"#utility.yul\":2572:2575   */\n  dup2\n    /* \"#utility.yul\":2565:2570   */\n  dup2\n    /* \"#utility.yul\":2562:2576   */\n  lt\n    /* \"#utility.yul\":2555:2675   */\n  iszero\n  tag_75\n  jumpi\n    /* \"#utility.yul\":2626:2665   */\n  tag_76\n    /* \"#utility.yul\":2663:2664   */\n  0x00\n    /* \"#utility.yul\":2656:2661   */\n  dup3\n    /* \"#utility.yul\":2626:2665   */\n  tag_32\n  jump\t// in\ntag_76:\n    /* \"#utility.yul\":2599:2600   */\n  0x01\n    /* \"#utility.yul\":2592:2597   */\n  dup2\n    /* \"#utility.yul\":2588:2601   */\n  add\n    /* \"#utility.yul\":2579:2601   */\n  swap1\n  pop\n    /* \"#utility.yul\":2555:2675   */\n  jump(tag_73)\ntag_75:\n    /* \"#utility.yul\":2495:2681   */\n  pop\n  pop\n  jump\t// out\n    /* \"#utility.yul\":2687:3230   */\ntag_34:\n    /* \"#utility.yul\":2788:2790   */\n  0x1f\n    /* \"#utility.yul\":2783:2786   */\n  dup3\n    /* \"#utility.yul\":2780:2791   */\n  gt\n    /* \"#utility.yul\":2777:3223   */\n  iszero\n  tag_78\n  jumpi\n    /* \"#utility.yul\":2822:2860   */\n  tag_79\n    /* \"#utility.yul\":2854:2859   */\n  dup2\n    /* \"#utility.yul\":2822:2860   */\n  tag_22\n  jump\t// in\ntag_79:\n    /* \"#utility.yul\":2906:2935   */\n  tag_80\n    /* \"#utility.yul\":2924:2934   */\n  dup5\n    /* \"#utility.yul\":2906:2935   */\n  tag_23\n  jump\t// in\ntag_80:\n    /* \"#utility.yul\":2896:2904   */\n  dup2\n    /* \"#utility.yul\":2892:2936   */\n  add\n    /* \"#utility.yul\":3089:3091   */\n  0x20\n    /* \"#utility.yul\":3077:3087   */\n  dup6\n    /* \"#utility.yul\":3074:3092   */\n  lt\n    /* \"#utility.yul\":3071:3120   */\n  iszero\n  tag_81\n  jumpi\n    /* \"#utility.yul\":3110:3118   */\n  dup2\n    /* \"#utility.yul\":3095:3118   */\n  swap1\n  pop\n    /* \"#utility.yul\":3071:3120   */\ntag_81:\n    /* \"#utility.yul\":3133:3213   */\n  tag_82\n    /* \"#utility.yul\":3189:3211   */\n  tag_83\n    /* \"#utility.yul\":3207:3210   */\n  dup6\n    /* \"#utility.yul\":3189:3211   */\n  tag_23\n  jump\t// in\ntag_83:\n    /* \"#utility.yul\":3179:3187   */\n  dup4\n    /* \"#utility.yul\":3175:3212   */\n  add\n    /* \"#utility.yul\":3162:3173   */\n  dup3\n    /* \"#utility.yul\":3133:3213   */\n  tag_33\n  jump\t// in\ntag_82:\n    /* \"#utility.yul\":2792:3223   */\n  pop\n  pop\n    /* \"#utility.yul\":2777:3223   */\ntag_78:\n    /* \"#utility.yul\":2687:3230   */\n  pop\n  pop\n  pop\n  jump\t// out\n    /* \"#utility.yul\":3236:3353   */\ntag_35:\n    /* \"#utility.yul\":3290:3298   */\n  0x00\n    /* \"#utility.yul\":3340:3345   */\n  dup3\n    /* \"#utility.yul\":3334:3338   */\n  dup3\n    /* \"#utility.yul\":3330:3346   */\n  shr\n    /* \"#utility.yul\":3309:3346   */\n  swap1\n  pop\n    /* \"#utility.yul\":3236:3353   */\n  swap3\n  swap2\n  pop\n  pop\n  jump\t// out\n    /* \"#utility.yul\":3359:3528   */\ntag_36:\n    /* \"#utility.yul\":3403:3409   */\n  0x00\n    /* \"#utility.yul\":3436:3487   */\n  tag_86\n    /* \"#utility.yul\":3484:3485   */\n  0x00\n    /* \"#utility.yul\":3480:3486   */\n  not\n    /* \"#utility.yul\":3472:3477   */\n  dup5\n    /* \"#utility.yul\":3469:3470   */\n  0x08\n    /* \"#utility.yul\":3465:3478   */\n  mul\n    /* \"#utility.yul\":3436:3487   */\n  tag_35\n  jump\t// in\ntag_86:\n    /* \"#utility.yul\":3432:3488   */\n  not\n    /* \"#utility.yul\":3517:3521   */\n  dup1\n    /* \"#utility.yul\":3511:3515   */\n  dup4\n    /* \"#utility.yul\":3507:3522   */\n  and\n    /* \"#utility.yul\":3497:3522   */\n  swap2\n  pop\n    /* \"#utility.yul\":3410:3528   */\n  pop\n    /* \"#utility.yul\":3359:3528   */\n  swap3\n  swap2\n  pop\n  pop\n  jump\t// out\n    /* \"#utility.yul\":3533:3828   */\ntag_37:\n    /* \"#utility.yul\":3609:3613   */\n  0x00\n    /* \"#utility.yul\":3755:3784   */\n  tag_88\n    /* \"#utility.yul\":3780:3783   */\n  dup4\n    /* \"#utility.yul\":3774:3778   */\n  dup4\n    /* \"#utility.yul\":3755:3784   */\n  tag_36\n  jump\t// in\ntag_88:\n    /* \"#utility.yul\":3747:3784   */\n  swap2\n  pop\n    /* \"#utility.yul\":3817:3820   */\n  dup3\n    /* \"#utility.yul\":3814:3815   */\n  0x02\n    /* \"#utility.yul\":3810:3821   */\n  mul\n    /* \"#utility.yul\":3804:3808   */\n  dup3\n    /* \"#utility.yul\":3801:3822   */\n  or\n    /* \"#utility.yul\":3793:3822   */\n  swap1\n  pop\n    /* \"#utility.yul\":3533:3828   */\n  swap3\n  swap2\n  pop\n  pop\n  jump\t// out\n    /* \"#utility.yul\":3833:5228   */\ntag_2:\n    /* \"#utility.yul\":3950:3987   */\n  tag_90\n    /* \"#utility.yul\":3983:3986   */\n  dup3\n    /* \"#utility.yul\":3950:3987   */\n  tag_18\n  jump\t// in\ntag_90:\n    /* \"#utility.yul\":4052:4070   */\n  0xffffffffffffffff\n    /* \"#utility.yul\":4044:4050   */\n  dup2\n    /* \"#utility.yul\":4041:4071   */\n  gt\n    /* \"#utility.yul\":4038:4094   */\n  iszero\n  tag_91\n  jumpi\n    /* \"#utility.yul\":4074:4092   */\n  tag_92\n  tag_19\n  jump\t// in\ntag_92:\n    /* \"#utility.yul\":4038:4094   */\ntag_91:\n    /* \"#utility.yul\":4118:4156   */\n  tag_93\n    /* \"#utility.yul\":4150:4154   */\n  dup3\n    /* \"#utility.yul\":4144:4155   */\n  sload\n    /* \"#utility.yul\":4118:4156   */\n  tag_21\n  jump\t// in\ntag_93:\n    /* \"#utility.yul\":4203:4270   */\n  tag_94\n    /* \"#utility.yul\":4263:4269   */\n  dup3\n    /* \"#utility.yul\":4255:4261   */\n  dup3\n    /* \"#utility.yul\":4249:4253   */\n  dup6\n    /* \"#utility.yul\":4203:4270   */\n  tag_34\n  jump\t// in\ntag_94:\n    /* \"#utility.yul\":4297:4298   */\n  0x00\n    /* \"#utility.yul\":4321:4325   */\n  0x20\n    /* \"#utility.yul\":4308:4325   */\n  swap1\n  pop\n    /* \"#utility.yul\":4353:4355   */\n  0x1f\n    /* \"#utility.yul\":4345:4351   */\n  dup4\n    /* \"#utility.yul\":4342:4356   */\n  gt\n    /* \"#utility.yul\":4370:4371   */\n  0x01\n    /* \"#utility.yul\":4365:4983   */\n  dup2\n  eq\n  tag_96\n  jumpi\n    /* \"#utility.yul\":5027:5028   */\n  0x00\n    /* \"#utility.yul\":5044:5050   */\n  dup5\n    /* \"#utility.yul\":5041:5118   */\n  iszero\n  tag_97\n  jumpi\n    /* \"#utility.yul\":5093:5102   */\n  dup3\n    /* \"#utility.yul\":5088:5091   */\n  dup8\n    /* \"#utility.yul\":5084:5103   */\n  add\n    /* \"#utility.yul\":5078:5104   */\n  mload\n    /* \"#utility.yul\":5069:5104   */\n  swap1\n  pop\n    /* \"#utility.yul\":5041:5118   */\ntag_97:\n    /* \"#utility.yul\":5144:5211   */\n  tag_98\n    /* \"#utility.yul\":5204:5210   */\n  dup6\n    /* \"#utility.yul\":5197:5202   */\n  dup3\n    /* \"#utility.yul\":5144:5211   */\n  tag_37\n  jump\t// in\ntag_98:\n    /* \"#utility.yul\":5138:5142   */\n  dup7\n    /* \"#utility.yul\":5131:5212   */\n  sstore\n    /* \"#utility.yul\":5000:5222   */\n  pop\n    /* \"#utility.yul\":4335:5222   */\n  jump(tag_95)\n    /* \"#utility.yul\":4365:4983   */\ntag_96:\n    /* \"#utility.yul\":4417:4421   */\n  0x1f\n    /* \"#utility.yul\":4413:4422   */\n  not\n    /* \"#utility.yul\":4405:4411   */\n  dup5\n    /* \"#utility.yul\":4401:4423   */\n  and\n    /* \"#utility.yul\":4451:4488   */\n  tag_99\n    /* \"#utility.yul\":4483:4487   */\n  dup7\n    /* \"#utility.yul\":4451:4488   */\n  tag_22\n  jump\t// in\ntag_99:\n    /* \"#utility.yul\":4510:4511   */\n  0x00\n    /* \"#utility.yul\":4524:4732   */\ntag_100:\n    /* \"#utility.yul\":4538:4545   */\n  dup3\n    /* \"#utility.yul\":4535:4536   */\n  dup2\n    /* \"#utility.yul\":4532:4546   */\n  lt\n    /* \"#utility.yul\":4524:4732   */\n  iszero\n  tag_102\n  jumpi\n    /* \"#utility.yul\":4617:4626   */\n  dup5\n    /* \"#utility.yul\":4612:4615   */\n  dup10\n    /* \"#utility.yul\":4608:4627   */\n  add\n    /* \"#utility.yul\":4602:4628   */\n  mload\n    /* \"#utility.yul\":4594:4600   */\n  dup3\n    /* \"#utility.yul\":4587:4629   */\n  sstore\n    /* \"#utility.yul\":4668:4669   */\n  0x01\n    /* \"#utility.yul\":4660:4666   */\n  dup3\n    /* \"#utility.yul\":4656:4670   */\n  add\n    /* \"#utility.yul\":4646:4670   */\n  swap2\n  pop\n    /* \"#utility.yul\":4715:4717   */\n  0x20\n    /* \"#utility.yul\":4704:4713   */\n  dup6\n    /* \"#utility.yul\":4700:4718   */\n  add\n    /* \"#utility.yul\":4687:4718   */\n  swap5\n  pop\n    /* \"#utility.yul\":4561:4565   */\n  0x20\n    /* \"#utility.yul\":4558:4559   */\n  dup2\n    /* \"#utility.yul\":4554:4566   */\n  add\n    /* \"#utility.yul\":4549:4566   */\n  swap1\n  pop\n    /* \"#utility.yul\":4524:4732   */\n  jump(tag_100)\ntag_102:\n    /* \"#utility.yul\":4760:4766   */\n  dup7\n    /* \"#utility.yul\":4751:4758   */\n  dup4\n    /* \"#utility.yul\":4748:4767   */\n  lt\n    /* \"#utility.yul\":4745:4924   */\n  iszero\n  tag_103\n  jumpi\n    /* \"#utility.yul\":4818:4827   */\n  dup5\n    /* \"#utility.yul\":4813:4816   */\n  dup10\n    /* \"#utility.yul\":4809:4828   */\n  add\n    /* \"#utility.yul\":4803:4829   */\n  mload\n    /* \"#utility.yul\":4861:4909   */\n  tag_104\n    /* \"#utility.yul\":4903:4907   */\n  0x1f\n    /* \"#utility.yul\":4895:4901   */\n  dup10\n    /* \"#utility.yul\":4891:4908   */\n  and\n    /* \"#utility.yul\":4880:4889   */\n  dup3\n    /* \"#utility.yul\":4861:4909   */\n  tag_36\n  jump\t// in\ntag_104:\n    /* \"#utility.yul\":4853:4859   */\n  dup4\n    /* \"#utility.yul\":4846:4910   */\n  sstore\n    /* \"#utility.yul\":4768:4924   */\n  pop\n    /* \"#utility.yul\":4745:4924   */\ntag_103:\n    /* \"#utility.yul\":4970:4971   */\n  0x01\n    /* \"#utility.yul\":4966:4967   */\n  0x02\n    /* \"#utility.yul\":4958:4964   */\n  dup9\n    /* \"#utility.yul\":4954:4968   */\n  mul\n    /* \"#utility.yul\":4950:4972   */\n  add\n    /* \"#utility.yul\":4944:4948   */\n  dup9\n    /* \"#utility.yul\":4937:4973   */\n  sstore\n    /* \"#utility.yul\":4372:4983   */\n  pop\n  pop\n  pop\n    /* \"#utility.yul\":4335:5222   */\ntag_95:\n  pop\n    /* \"#utility.yul\":3925:5228   */\n  pop\n  pop\n  pop\n    /* \"#utility.yul\":3833:5228   */\n  pop\n  pop\n  jump\t// out\n    /* \"#utility.yul\":5315:5432   */\ntag_39:\n    /* \"#utility.yul\":5424:5425   */\n  0x00\n    /* \"#utility.yul\":5421:5422   */\n  dup1\n    /* \"#utility.yul\":5414:5426   */\n  revert\n    /* \"#utility.yul\":5561:5683   */\ntag_41:\n    /* \"#utility.yul\":5634:5658   */\n  tag_109\n    /* \"#utility.yul\":5652:5657   */\n  dup2\n    /* \"#utility.yul\":5634:5658   */\n  tag_26\n  jump\t// in\ntag_109:\n    /* \"#utility.yul\":5627:5632   */\n  dup2\n    /* \"#utility.yul\":5624:5659   */\n  eq\n    /* \"#utility.yul\":5614:5677   */\n  tag_110\n  jumpi\n    /* \"#utility.yul\":5673:5674   */\n  0x00\n    /* \"#utility.yul\":5670:5671   */\n  dup1\n    /* \"#utility.yul\":5663:5675   */\n  revert\n    /* \"#utility.yul\":5614:5677   */\ntag_110:\n    /* \"#utility.yul\":5561:5683   */\n  pop\n  jump\t// out\n    /* \"#utility.yul\":5689:5832   */\ntag_42:\n    /* \"#utility.yul\":5746:5751   */\n  0x00\n    /* \"#utility.yul\":5777:5783   */\n  dup2\n    /* \"#utility.yul\":5771:5784   */\n  mload\n    /* \"#utility.yul\":5762:5784   */\n  swap1\n  pop\n    /* \"#utility.yul\":5793:5826   */\n  tag_112\n    /* \"#utility.yul\":5820:5825   */\n  dup2\n    /* \"#utility.yul\":5793:5826   */\n  tag_41\n  jump\t// in\ntag_112:\n    /* \"#utility.yul\":5689:5832   */\n  swap3\n  swap2\n  pop\n  pop\n  jump\t// out\n    /* \"#utility.yul\":5838:6189   */\ntag_7:\n    /* \"#utility.yul\":5908:5914   */\n  0x00\n    /* \"#utility.yul\":5957:5959   */\n  0x20\n    /* \"#utility.yul\":5945:5954   */\n  dup3\n    /* \"#utility.yul\":5936:5943   */\n  dup5\n    /* \"#utility.yul\":5932:5955   */\n  sub\n    /* \"#utility.yul\":5928:5960   */\n  slt\n    /* \"#utility.yul\":5925:6044   */\n  iszero\n  tag_114\n  jumpi\n    /* \"#utility.yul\":5963:6042   */\n  tag_115\n  tag_39\n  jump\t// in\ntag_115:\n    /* \"#utility.yul\":5925:6044   */\ntag_114:\n    /* \"#utility.yul\":6083:6084   */\n  0x00\n    /* \"#utility.yul\":6108:6172   */\n  tag_116\n    /* \"#utility.yul\":6164:6171   */\n  dup5\n    /* \"#utility.yul\":6155:6161   */\n  dup3\n    /* \"#utility.yul\":6144:6153   */\n  dup6\n    /* \"#utility.yul\":6140:6162   */\n  add\n    /* \"#utility.yul\":6108:6172   */\n  tag_42\n  jump\t// in\ntag_116:\n    /* \"#utility.yul\":6098:6172   */\n  swap2\n  pop\n    /* \"#utility.yul\":6054:6182   */\n  pop\n    /* \"#utility.yul\":5838:6189   */\n  swap3\n  swap2\n  pop\n  pop\n  jump\t// out\n    /* \"HelloWorld.sol\":117:1113  contract HelloWorld {... */\ntag_10:\n  dataSize(sub_0)\n  dup1\n  dataOffset(sub_0)\n  0x00\n  codecopy\n  0x00\n  return\nstop\n\nsub_0: assembly {\n        /* \"HelloWorld.sol\":117:1113  contract HelloWorld {... */\n      mstore(0x40, 0x80)\n      callvalue\n      dup1\n      iszero\n      tag_1\n      jumpi\n      0x00\n      dup1\n      revert\n    tag_1:\n      pop\n      jumpi(tag_2, lt(calldatasize, 0x04))\n      shr(0xe0, calldataload(0x00))\n      dup1\n      0xa85c38ef\n      gt\n      tag_11\n      jumpi\n      dup1\n      0xa85c38ef\n      eq\n      tag_7\n      jumpi\n      dup1\n      0xb67d77c5\n      eq\n      tag_8\n      jumpi\n      dup1\n      0xbf15071d\n      eq\n      tag_9\n      jumpi\n      dup1\n      0xfd1ee54c\n      eq\n      tag_10\n      jumpi\n      jump(tag_2)\n    tag_11:\n      dup1\n      0x492bfa18\n      eq\n      tag_3\n      jumpi\n      dup1\n      0x4a562471\n      eq\n      tag_4\n      jumpi\n      dup1\n      0x771602f7\n      eq\n      tag_5\n      jumpi\n      dup1\n      0x8b44cef1\n      eq\n      tag_6\n      jumpi\n    tag_2:\n      0x00\n      dup1\n      revert\n        /* \"HelloWorld.sol\":143:181  string public myString = \"Hello World\" */\n    tag_3:\n      tag_12\n      tag_13\n      jump\t// in\n    tag_12:\n      mload(0x40)\n      tag_14\n      swap2\n      swap1\n      tag_15\n      jump\t// in\n    tag_14:\n      mload(0x40)\n      dup1\n      swap2\n      sub\n      swap1\n      return\n        /* \"HelloWorld.sol\":298:347  mapping (address => Order[]) public ordersByOwner */\n    tag_4:\n      tag_16\n      0x04\n      dup1\n      calldatasize\n      sub\n      dup2\n      add\n      swap1\n      tag_17\n      swap2\n      swap1\n      tag_18\n      jump\t// in\n    tag_17:\n      tag_19\n      jump\t// in\n    tag_16:\n      mload(0x40)\n      tag_20\n      swap3\n      swap2\n      swap1\n      tag_21\n      jump\t// in\n    tag_20:\n      mload(0x40)\n      dup1\n      swap2\n      sub\n      swap1\n      return\n        /* \"HelloWorld.sol\":590:831  function add(uint a, uint b) external view returns (uint) {... */\n    tag_5:\n      tag_22\n      0x04\n      dup1\n      calldatasize\n      sub\n      dup2\n      add\n      swap1\n      tag_23\n      swap2\n      swap1\n      tag_24\n      jump\t// in\n    tag_23:\n      tag_25\n      jump\t// in\n    tag_22:\n      mload(0x40)\n      tag_26\n      swap2\n      swap1\n      tag_27\n      jump\t// in\n    tag_26:\n      mload(0x40)\n      dup1\n      swap2\n      sub\n      swap1\n      return\n        /* \"HelloWorld.sol\":418:584  function foo(uint[] memory tests) public view returns (uint)  {... */\n    tag_6:\n      tag_28\n      0x04\n      dup1\n      calldatasize\n      sub\n      dup2\n      add\n      swap1\n      tag_29\n      swap2\n      swap1\n      tag_30\n      jump\t// in\n    tag_29:\n      tag_31\n      jump\t// in\n    tag_28:\n      mload(0x40)\n      tag_32\n      swap2\n      swap1\n      tag_27\n      jump\t// in\n    tag_32:\n      mload(0x40)\n      dup1\n      swap2\n      sub\n      swap1\n      return\n        /* \"HelloWorld.sol\":271:292  Order[] public orders */\n    tag_7:\n      tag_33\n      0x04\n      dup1\n      calldatasize\n      sub\n      dup2\n      add\n      swap1\n      tag_34\n      swap2\n      swap1\n      tag_35\n      jump\t// in\n    tag_34:\n      tag_36\n      jump\t// in\n    tag_33:\n      mload(0x40)\n      tag_37\n      swap3\n      swap2\n      swap1\n      tag_21\n      jump\t// in\n    tag_37:\n      mload(0x40)\n      dup1\n      swap2\n      sub\n      swap1\n      return\n        /* \"HelloWorld.sol\":887:1111  function sub(uint a, uint b) external view returns (uint) {... */\n    tag_8:\n      tag_38\n      0x04\n      dup1\n      calldatasize\n      sub\n      dup2\n      add\n      swap1\n      tag_39\n      swap2\n      swap1\n      tag_24\n      jump\t// in\n    tag_39:\n      tag_40\n      jump\t// in\n    tag_38:\n      mload(0x40)\n      tag_41\n      swap2\n      swap1\n      tag_27\n      jump\t// in\n    tag_41:\n      mload(0x40)\n      dup1\n      swap2\n      sub\n      swap1\n      return\n        /* \"HelloWorld.sol\":247:265  Order public order */\n    tag_9:\n      tag_42\n      tag_43\n      jump\t// in\n    tag_42:\n      mload(0x40)\n      tag_44\n      swap3\n      swap2\n      swap1\n      tag_21\n      jump\t// in\n    tag_44:\n      mload(0x40)\n      dup1\n      swap2\n      sub\n      swap1\n      return\n        /* \"HelloWorld.sol\":214:240  uint[] public nums = [1,2] */\n    tag_10:\n      tag_45\n      0x04\n      dup1\n      calldatasize\n      sub\n      dup2\n      add\n      swap1\n      tag_46\n      swap2\n      swap1\n      tag_35\n      jump\t// in\n    tag_46:\n      tag_47\n      jump\t// in\n    tag_45:\n      mload(0x40)\n      tag_48\n      swap2\n      swap1\n      tag_27\n      jump\t// in\n    tag_48:\n      mload(0x40)\n      dup1\n      swap2\n      sub\n      swap1\n      return\n        /* \"HelloWorld.sol\":143:181  string public myString = \"Hello World\" */\n    tag_13:\n      0x00\n      dup1\n      sload\n      tag_49\n      swap1\n      tag_50\n      jump\t// in\n    tag_49:\n      dup1\n      0x1f\n      add\n      0x20\n      dup1\n      swap2\n      div\n      mul\n      0x20\n      add\n      mload(0x40)\n      swap1\n      dup2\n      add\n      0x40\n      mstore\n      dup1\n      swap3\n      swap2\n      swap1\n      dup2\n      dup2\n      mstore\n      0x20\n      add\n      dup3\n      dup1\n      sload\n      tag_51\n      swap1\n      tag_50\n      jump\t// in\n    tag_51:\n      dup1\n      iszero\n      tag_52\n      jumpi\n      dup1\n      0x1f\n      lt\n      tag_53\n      jumpi\n      0x0100\n      dup1\n      dup4\n      sload\n      div\n      mul\n      dup4\n      mstore\n      swap2\n      0x20\n      add\n      swap2\n      jump(tag_52)\n    tag_53:\n      dup3\n      add\n      swap2\n      swap1\n      0x00\n      mstore\n      keccak256(0x00, 0x20)\n      swap1\n    tag_54:\n      dup2\n      sload\n      dup2\n      mstore\n      swap1\n      0x01\n      add\n      swap1\n      0x20\n      add\n      dup1\n      dup4\n      gt\n      tag_54\n      jumpi\n      dup3\n      swap1\n      sub\n      0x1f\n      and\n      dup3\n      add\n      swap2\n    tag_52:\n      pop\n      pop\n      pop\n      pop\n      pop\n      dup2\n      jump\t// out\n        /* \"HelloWorld.sol\":298:347  mapping (address => Order[]) public ordersByOwner */\n    tag_19:\n      mstore(0x20, 0x06)\n      dup2\n      0x00\n      mstore\n      keccak256(0x00, 0x40)\n      dup2\n      dup2\n      sload\n      dup2\n      lt\n      tag_55\n      jumpi\n      0x00\n      dup1\n      revert\n    tag_55:\n      swap1\n      0x00\n      mstore\n      keccak256(0x00, 0x20)\n      swap1\n      0x02\n      mul\n      add\n      0x00\n      swap2\n      pop\n      swap2\n      pop\n      pop\n      dup1\n      0x00\n      add\n      dup1\n      sload\n      tag_57\n      swap1\n      tag_50\n      jump\t// in\n    tag_57:\n      dup1\n      0x1f\n      add\n      0x20\n      dup1\n      swap2\n      div\n      mul\n      0x20\n      add\n      mload(0x40)\n      swap1\n      dup2\n      add\n      0x40\n      mstore\n      dup1\n      swap3\n      swap2\n      swap1\n      dup2\n      dup2\n      mstore\n      0x20\n      add\n      dup3\n      dup1\n      sload\n      tag_58\n      swap1\n      tag_50\n      jump\t// in\n    tag_58:\n      dup1\n      iszero\n      tag_59\n      jumpi\n      dup1\n      0x1f\n      lt\n      tag_60\n      jumpi\n      0x0100\n      dup1\n      dup4\n      sload\n      div\n      mul\n      dup4\n      mstore\n      swap2\n      0x20\n      add\n      swap2\n      jump(tag_59)\n    tag_60:\n      dup3\n      add\n      swap2\n      swap1\n      0x00\n      mstore\n      keccak256(0x00, 0x20)\n      swap1\n    tag_61:\n      dup2\n      sload\n      dup2\n      mstore\n      swap1\n      0x01\n      add\n      swap1\n      0x20\n      add\n      dup1\n      dup4\n      gt\n      tag_61\n      jumpi\n      dup3\n      swap1\n      sub\n      0x1f\n      and\n      dup3\n      add\n      swap2\n    tag_59:\n      pop\n      pop\n      pop\n      pop\n      pop\n      swap1\n      dup1\n      0x01\n      add\n      dup1\n      sload\n      tag_62\n      swap1\n      tag_50\n      jump\t// in\n    tag_62:\n      dup1\n      0x1f\n      add\n      0x20\n      dup1\n      swap2\n      div\n      mul\n      0x20\n      add\n      mload(0x40)\n      swap1\n      dup2\n      add\n      0x40\n      mstore\n      dup1\n      swap3\n      swap2\n      swap1\n      dup2\n      dup2\n      mstore\n      0x20\n      add\n      dup3\n      dup1\n      sload\n      tag_63\n      swap1\n      tag_50\n      jump\t// in\n    tag_63:\n      dup1\n      iszero\n      tag_64\n      jumpi\n      dup1\n      0x1f\n      lt\n      tag_65\n      jumpi\n      0x0100\n      dup1\n      dup4\n      sload\n      div\n      mul\n      dup4\n      mstore\n      swap2\n      0x20\n      add\n      swap2\n      jump(tag_64)\n    tag_65:\n      dup3\n      add\n      swap2\n      swap1\n      0x00\n      mstore\n      keccak256(0x00, 0x20)\n      swap1\n    tag_66:\n      dup2\n      sload\n      dup2\n      mstore\n      swap1\n      0x01\n      add\n      swap1\n      0x20\n      add\n      dup1\n      dup4\n      gt\n      tag_66\n      jumpi\n      dup3\n      swap1\n      sub\n      0x1f\n      and\n      dup3\n      add\n      swap2\n    tag_64:\n      pop\n      pop\n      pop\n      pop\n      pop\n      swap1\n      pop\n      dup3\n      jump\t// out\n        /* \"HelloWorld.sol\":590:831  function add(uint a, uint b) external view returns (uint) {... */\n    tag_25:\n        /* \"HelloWorld.sol\":642:646  uint */\n      0x00\n        /* \"HelloWorld.sol\":666:668  10 */\n      0x0a\n        /* \"HelloWorld.sol\":662:663  a */\n      dup4\n        /* \"HelloWorld.sol\":662:668  a > 10 */\n      gt\n        /* \"HelloWorld.sol\":658:793  if (a > 10) {... */\n      iszero\n      tag_68\n      jumpi\n        /* \"HelloWorld.sol\":684:702  uint[] memory tabs */\n      0x00\n        /* \"HelloWorld.sol\":716:717  3 */\n      0x03\n        /* \"HelloWorld.sol\":705:718  new uint[](3) */\n      0xffffffffffffffff\n      dup2\n      gt\n      iszero\n      tag_69\n      jumpi\n      tag_70\n      tag_71\n      jump\t// in\n    tag_70:\n    tag_69:\n      mload(0x40)\n      swap1\n      dup1\n      dup3\n      mstore\n      dup1\n      0x20\n      mul\n      0x20\n      add\n      dup3\n      add\n      0x40\n      mstore\n      dup1\n      iszero\n      tag_72\n      jumpi\n      dup2\n      0x20\n      add\n      0x20\n      dup3\n      mul\n      dup1\n      calldatasize\n      dup4\n      calldatacopy\n      dup1\n      dup3\n      add\n      swap2\n      pop\n      pop\n      swap1\n      pop\n    tag_72:\n      pop\n        /* \"HelloWorld.sol\":684:718  uint[] memory tabs = new uint[](3) */\n      swap1\n      pop\n        /* \"HelloWorld.sol\":742:746  1000 */\n      0x03e8\n        /* \"HelloWorld.sol\":732:736  tabs */\n      dup2\n        /* \"HelloWorld.sol\":737:738  0 */\n      0x00\n        /* \"HelloWorld.sol\":732:739  tabs[0] */\n      dup2\n      mload\n      dup2\n      lt\n      tag_73\n      jumpi\n      tag_74\n      tag_75\n      jump\t// in\n    tag_74:\n    tag_73:\n      0x20\n      mul\n      0x20\n      add\n      add\n        /* \"HelloWorld.sol\":732:746  tabs[0] = 1000 */\n      dup2\n      dup2\n      mstore\n      pop\n      pop\n        /* \"HelloWorld.sol\":768:772  this */\n      address\n        /* \"HelloWorld.sol\":768:776  this.foo */\n      0xffffffffffffffffffffffffffffffffffffffff\n      and\n      0x8b44cef1\n        /* \"HelloWorld.sol\":777:781  tabs */\n      dup3\n        /* \"HelloWorld.sol\":768:782  this.foo(tabs) */\n      mload(0x40)\n      dup3\n      0xffffffff\n      and\n      0xe0\n      shl\n      dup2\n      mstore\n      0x04\n      add\n      tag_76\n      swap2\n      swap1\n      tag_77\n      jump\t// in\n    tag_76:\n      0x20\n      mload(0x40)\n      dup1\n      dup4\n      sub\n      dup2\n      dup7\n      gas\n      staticcall\n      iszero\n      dup1\n      iszero\n      tag_79\n      jumpi\n      returndatasize\n      0x00\n      dup1\n      returndatacopy\n      revert(0x00, returndatasize)\n    tag_79:\n      pop\n      pop\n      pop\n      pop\n      mload(0x40)\n      returndatasize\n      not(0x1f)\n      0x1f\n      dup3\n      add\n      and\n      dup3\n      add\n      dup1\n      0x40\n      mstore\n      pop\n      dup2\n      add\n      swap1\n      tag_80\n      swap2\n      swap1\n      tag_81\n      jump\t// in\n    tag_80:\n        /* \"HelloWorld.sol\":761:782  return this.foo(tabs) */\n      swap2\n      pop\n      pop\n      jump(tag_67)\n        /* \"HelloWorld.sol\":658:793  if (a > 10) {... */\n    tag_68:\n        /* \"HelloWorld.sol\":823:824  b */\n      dup2\n        /* \"HelloWorld.sol\":819:820  a */\n      dup4\n        /* \"HelloWorld.sol\":810:816  myUint */\n      sload(0x01)\n        /* \"HelloWorld.sol\":810:820  myUint + a */\n      tag_82\n      swap2\n      swap1\n      tag_83\n      jump\t// in\n    tag_82:\n        /* \"HelloWorld.sol\":810:824  myUint + a + b */\n      tag_84\n      swap2\n      swap1\n      tag_83\n      jump\t// in\n    tag_84:\n        /* \"HelloWorld.sol\":803:824  return myUint + a + b */\n      swap1\n      pop\n        /* \"HelloWorld.sol\":590:831  function add(uint a, uint b) external view returns (uint) {... */\n    tag_67:\n      swap3\n      swap2\n      pop\n      pop\n      jump\t// out\n        /* \"HelloWorld.sol\":418:584  function foo(uint[] memory tests) public view returns (uint)  {... */\n    tag_31:\n        /* \"HelloWorld.sol\":473:477  uint */\n      0x00\n        /* \"HelloWorld.sol\":490:500  uint myVar */\n      dup1\n        /* \"HelloWorld.sol\":503:506  123 */\n      0x7b\n        /* \"HelloWorld.sol\":490:506  uint myVar = 123 */\n      swap1\n      pop\n        /* \"HelloWorld.sol\":528:532  2000 */\n      0x07d0\n        /* \"HelloWorld.sol\":517:522  tests */\n      dup4\n        /* \"HelloWorld.sol\":523:524  0 */\n      0x00\n        /* \"HelloWorld.sol\":517:525  tests[0] */\n      dup2\n      mload\n      dup2\n      lt\n      tag_86\n      jumpi\n      tag_87\n      tag_75\n      jump\t// in\n    tag_87:\n    tag_86:\n      0x20\n      mul\n      0x20\n      add\n      add\n        /* \"HelloWorld.sol\":517:532  tests[0] = 2000 */\n      dup2\n      dup2\n      mstore\n      pop\n      pop\n        /* \"HelloWorld.sol\":568:573  tests */\n      dup3\n        /* \"HelloWorld.sol\":574:575  0 */\n      0x00\n        /* \"HelloWorld.sol\":568:576  tests[0] */\n      dup2\n      mload\n      dup2\n      lt\n      tag_88\n      jumpi\n      tag_89\n      tag_75\n      jump\t// in\n    tag_89:\n    tag_88:\n      0x20\n      mul\n      0x20\n      add\n      add\n      mload\n        /* \"HelloWorld.sol\":560:565  myVar */\n      dup2\n        /* \"HelloWorld.sol\":551:557  myUint */\n      sload(0x01)\n        /* \"HelloWorld.sol\":551:565  myUint + myVar */\n      tag_90\n      swap2\n      swap1\n      tag_83\n      jump\t// in\n    tag_90:\n        /* \"HelloWorld.sol\":551:576  myUint + myVar + tests[0] */\n      tag_91\n      swap2\n      swap1\n      tag_83\n      jump\t// in\n    tag_91:\n        /* \"HelloWorld.sol\":544:576  return myUint + myVar + tests[0] */\n      swap2\n      pop\n      pop\n        /* \"HelloWorld.sol\":418:584  function foo(uint[] memory tests) public view returns (uint)  {... */\n      swap2\n      swap1\n      pop\n      jump\t// out\n        /* \"HelloWorld.sol\":271:292  Order[] public orders */\n    tag_36:\n      0x05\n      dup2\n      dup2\n      sload\n      dup2\n      lt\n      tag_92\n      jumpi\n      0x00\n      dup1\n      revert\n    tag_92:\n      swap1\n      0x00\n      mstore\n      keccak256(0x00, 0x20)\n      swap1\n      0x02\n      mul\n      add\n      0x00\n      swap2\n      pop\n      swap1\n      pop\n      dup1\n      0x00\n      add\n      dup1\n      sload\n      tag_94\n      swap1\n      tag_50\n      jump\t// in\n    tag_94:\n      dup1\n      0x1f\n      add\n      0x20\n      dup1\n      swap2\n      div\n      mul\n      0x20\n      add\n      mload(0x40)\n      swap1\n      dup2\n      add\n      0x40\n      mstore\n      dup1\n      swap3\n      swap2\n      swap1\n      dup2\n      dup2\n      mstore\n      0x20\n      add\n      dup3\n      dup1\n      sload\n      tag_95\n      swap1\n      tag_50\n      jump\t// in\n    tag_95:\n      dup1\n      iszero\n      tag_96\n      jumpi\n      dup1\n      0x1f\n      lt\n      tag_97\n      jumpi\n      0x0100\n      dup1\n      dup4\n      sload\n      div\n      mul\n      dup4\n      mstore\n      swap2\n      0x20\n      add\n      swap2\n      jump(tag_96)\n    tag_97:\n      dup3\n      add\n      swap2\n      swap1\n      0x00\n      mstore\n      keccak256(0x00, 0x20)\n      swap1\n    tag_98:\n      dup2\n      sload\n      dup2\n      mstore\n      swap1\n      0x01\n      add\n      swap1\n      0x20\n      add\n      dup1\n      dup4\n      gt\n      tag_98\n      jumpi\n      dup3\n      swap1\n      sub\n      0x1f\n      and\n      dup3\n      add\n      swap2\n    tag_96:\n      pop\n      pop\n      pop\n      pop\n      pop\n      swap1\n      dup1\n      0x01\n      add\n      dup1\n      sload\n      tag_99\n      swap1\n      tag_50\n      jump\t// in\n    tag_99:\n      dup1\n      0x1f\n      add\n      0x20\n      dup1\n      swap2\n      div\n      mul\n      0x20\n      add\n      mload(0x40)\n      swap1\n      dup2\n      add\n      0x40\n      mstore\n      dup1\n      swap3\n      swap2\n      swap1\n      dup2\n      dup2\n      mstore\n      0x20\n      add\n      dup3\n      dup1\n      sload\n      tag_100\n      swap1\n      tag_50\n      jump\t// in\n    tag_100:\n      dup1\n      iszero\n      tag_101\n      jumpi\n      dup1\n      0x1f\n      lt\n      tag_102\n      jumpi\n      0x0100\n      dup1\n      dup4\n      sload\n      div\n      mul\n      dup4\n      mstore\n      swap2\n      0x20\n      add\n      swap2\n      jump(tag_101)\n    tag_102:\n      dup3\n      add\n      swap2\n      swap1\n      0x00\n      mstore\n      keccak256(0x00, 0x20)\n      swap1\n    tag_103:\n      dup2\n      sload\n      dup2\n      mstore\n      swap1\n      0x01\n      add\n      swap1\n      0x20\n      add\n      dup1\n      dup4\n      gt\n      tag_103\n      jumpi\n      dup3\n      swap1\n      sub\n      0x1f\n      and\n      dup3\n      add\n      swap2\n    tag_101:\n      pop\n      pop\n      pop\n      pop\n      pop\n      swap1\n      pop\n      dup3\n      jump\t// out\n        /* \"HelloWorld.sol\":887:1111  function sub(uint a, uint b) external view returns (uint) {... */\n    tag_40:\n        /* \"HelloWorld.sol\":939:943  uint */\n      0x00\n        /* \"HelloWorld.sol\":967:969  10 */\n      0x0a\n        /* \"HelloWorld.sol\":963:964  a */\n      dup4\n        /* \"HelloWorld.sol\":963:969  a > 10 */\n      gt\n        /* \"HelloWorld.sol\":955:980  require(a > 10, \"a > 10\") */\n      tag_105\n      jumpi\n      mload(0x40)\n      0x08c379a000000000000000000000000000000000000000000000000000000000\n      dup2\n      mstore\n      0x04\n      add\n      tag_106\n      swap1\n      tag_107\n      jump\t// in\n    tag_106:\n      mload(0x40)\n      dup1\n      swap2\n      sub\n      swap1\n      revert\n    tag_105:\n        /* \"HelloWorld.sol\":1001:1002  1 */\n      0x01\n        /* \"HelloWorld.sol\":997:998  b */\n      dup3\n        /* \"HelloWorld.sol\":997:1002  b > 1 */\n      gt\n        /* \"HelloWorld.sol\":990:1003  assert(b > 1) */\n      tag_108\n      jumpi\n      tag_109\n      tag_110\n      jump\t// in\n    tag_109:\n    tag_108:\n        /* \"HelloWorld.sol\":1021:1022  b */\n      dup2\n        /* \"HelloWorld.sol\":1017:1018  a */\n      dup4\n        /* \"HelloWorld.sol\":1017:1022  a < b */\n      lt\n        /* \"HelloWorld.sol\":1013:1081  if (a < b) {... */\n      iszero\n      tag_111\n      jumpi\n        /* \"HelloWorld.sol\":1053:1063  msg.sender */\n      caller\n        /* \"HelloWorld.sol\":1065:1066  a */\n      dup4\n        /* \"HelloWorld.sol\":1068:1069  b */\n      dup4\n        /* \"HelloWorld.sol\":1045:1070  MyError(msg.sender, a, b) */\n      mload(0x40)\n      0x83f7b88900000000000000000000000000000000000000000000000000000000\n      dup2\n      mstore\n      0x04\n      add\n      tag_112\n      swap4\n      swap3\n      swap2\n      swap1\n      tag_113\n      jump\t// in\n    tag_112:\n      mload(0x40)\n      dup1\n      swap2\n      sub\n      swap1\n      revert\n        /* \"HelloWorld.sol\":1013:1081  if (a < b) {... */\n    tag_111:\n        /* \"HelloWorld.sol\":1103:1104  b */\n      dup2\n        /* \"HelloWorld.sol\":1099:1100  a */\n      dup4\n        /* \"HelloWorld.sol\":1099:1104  a - b */\n      tag_114\n      swap2\n      swap1\n      tag_115\n      jump\t// in\n    tag_114:\n        /* \"HelloWorld.sol\":1092:1104  return a - b */\n      swap1\n      pop\n        /* \"HelloWorld.sol\":887:1111  function sub(uint a, uint b) external view returns (uint) {... */\n      swap3\n      swap2\n      pop\n      pop\n      jump\t// out\n        /* \"HelloWorld.sol\":247:265  Order public order */\n    tag_43:\n      0x03\n      dup1\n      0x00\n      add\n      dup1\n      sload\n      tag_116\n      swap1\n      tag_50\n      jump\t// in\n    tag_116:\n      dup1\n      0x1f\n      add\n      0x20\n      dup1\n      swap2\n      div\n      mul\n      0x20\n      add\n      mload(0x40)\n      swap1\n      dup2\n      add\n      0x40\n      mstore\n      dup1\n      swap3\n      swap2\n      swap1\n      dup2\n      dup2\n      mstore\n      0x20\n      add\n      dup3\n      dup1\n      sload\n      tag_117\n      swap1\n      tag_50\n      jump\t// in\n    tag_117:\n      dup1\n      iszero\n      tag_118\n      jumpi\n      dup1\n      0x1f\n      lt\n      tag_119\n      jumpi\n      0x0100\n      dup1\n      dup4\n      sload\n      div\n      mul\n      dup4\n      mstore\n      swap2\n      0x20\n      add\n      swap2\n      jump(tag_118)\n    tag_119:\n      dup3\n      add\n      swap2\n      swap1\n      0x00\n      mstore\n      keccak256(0x00, 0x20)\n      swap1\n    tag_120:\n      dup2\n      sload\n      dup2\n      mstore\n      swap1\n      0x01\n      add\n      swap1\n      0x20\n      add\n      dup1\n      dup4\n      gt\n      tag_120\n      jumpi\n      dup3\n      swap1\n      sub\n      0x1f\n      and\n      dup3\n      add\n      swap2\n    tag_118:\n      pop\n      pop\n      pop\n      pop\n      pop\n      swap1\n      dup1\n      0x01\n      add\n      dup1\n      sload\n      tag_121\n      swap1\n      tag_50\n      jump\t// in\n    tag_121:\n      dup1\n      0x1f\n      add\n      0x20\n      dup1\n      swap2\n      div\n      mul\n      0x20\n      add\n      mload(0x40)\n      swap1\n      dup2\n      add\n      0x40\n      mstore\n      dup1\n      swap3\n      swap2\n      swap1\n      dup2\n      dup2\n      mstore\n      0x20\n      add\n      dup3\n      dup1\n      sload\n      tag_122\n      swap1\n      tag_50\n      jump\t// in\n    tag_122:\n      dup1\n      iszero\n      tag_123\n      jumpi\n      dup1\n      0x1f\n      lt\n      tag_124\n      jumpi\n      0x0100\n      dup1\n      dup4\n      sload\n      div\n      mul\n      dup4\n      mstore\n      swap2\n      0x20\n      add\n      swap2\n      jump(tag_123)\n    tag_124:\n      dup3\n      add\n      swap2\n      swap1\n      0x00\n      mstore\n      keccak256(0x00, 0x20)\n      swap1\n    tag_125:\n      dup2\n      sload\n      dup2\n      mstore\n      swap1\n      0x01\n      add\n      swap1\n      0x20\n      add\n      dup1\n      dup4\n      gt\n      tag_125\n      jumpi\n      dup3\n      swap1\n      sub\n      0x1f\n      and\n      dup3\n      add\n      swap2\n    tag_123:\n      pop\n      pop\n      pop\n      pop\n      pop\n      swap1\n      pop\n      dup3\n      jump\t// out\n        /* \"HelloWorld.sol\":214:240  uint[] public nums = [1,2] */\n    tag_47:\n      0x02\n      dup2\n      dup2\n      sload\n      dup2\n      lt\n      tag_126\n      jumpi\n      0x00\n      dup1\n      revert\n    tag_126:\n      swap1\n      0x00\n      mstore\n      keccak256(0x00, 0x20)\n      add\n      0x00\n      swap2\n      pop\n      swap1\n      pop\n      sload\n      dup2\n      jump\t// out\n        /* \"#utility.yul\":7:106   */\n    tag_128:\n        /* \"#utility.yul\":59:65   */\n      0x00\n        /* \"#utility.yul\":93:98   */\n      dup2\n        /* \"#utility.yul\":87:99   */\n      mload\n        /* \"#utility.yul\":77:99   */\n      swap1\n      pop\n        /* \"#utility.yul\":7:106   */\n      swap2\n      swap1\n      pop\n      jump\t// out\n        /* \"#utility.yul\":112:281   */\n    tag_129:\n        /* \"#utility.yul\":196:207   */\n      0x00\n        /* \"#utility.yul\":230:236   */\n      dup3\n        /* \"#utility.yul\":225:228   */\n      dup3\n        /* \"#utility.yul\":218:237   */\n      mstore\n        /* \"#utility.yul\":270:274   */\n      0x20\n        /* \"#utility.yul\":265:268   */\n      dup3\n        /* \"#utility.yul\":261:275   */\n      add\n        /* \"#utility.yul\":246:275   */\n      swap1\n      pop\n        /* \"#utility.yul\":112:281   */\n      swap3\n      swap2\n      pop\n      pop\n      jump\t// out\n        /* \"#utility.yul\":287:426   */\n    tag_130:\n        /* \"#utility.yul\":376:382   */\n      dup3\n        /* \"#utility.yul\":371:374   */\n      dup2\n        /* \"#utility.yul\":366:369   */\n      dup4\n        /* \"#utility.yul\":360:383   */\n      mcopy\n        /* \"#utility.yul\":417:418   */\n      0x00\n        /* \"#utility.yul\":408:414   */\n      dup4\n        /* \"#utility.yul\":403:406   */\n      dup4\n        /* \"#utility.yul\":399:415   */\n      add\n        /* \"#utility.yul\":392:419   */\n      mstore\n        /* \"#utility.yul\":287:426   */\n      pop\n      pop\n      pop\n      jump\t// out\n        /* \"#utility.yul\":432:534   */\n    tag_131:\n        /* \"#utility.yul\":473:479   */\n      0x00\n        /* \"#utility.yul\":524:526   */\n      0x1f\n        /* \"#utility.yul\":520:527   */\n      not\n        /* \"#utility.yul\":515:517   */\n      0x1f\n        /* \"#utility.yul\":508:513   */\n      dup4\n        /* \"#utility.yul\":504:518   */\n      add\n        /* \"#utility.yul\":500:528   */\n      and\n        /* \"#utility.yul\":490:528   */\n      swap1\n      pop\n        /* \"#utility.yul\":432:534   */\n      swap2\n      swap1\n      pop\n      jump\t// out\n        /* \"#utility.yul\":540:917   */\n    tag_132:\n        /* \"#utility.yul\":628:631   */\n      0x00\n        /* \"#utility.yul\":656:695   */\n      tag_170\n        /* \"#utility.yul\":689:694   */\n      dup3\n        /* \"#utility.yul\":656:695   */\n      tag_128\n      jump\t// in\n    tag_170:\n        /* \"#utility.yul\":711:782   */\n      tag_171\n        /* \"#utility.yul\":775:781   */\n      dup2\n        /* \"#utility.yul\":770:773   */\n      dup6\n        /* \"#utility.yul\":711:782   */\n      tag_129\n      jump\t// in\n    tag_171:\n        /* \"#utility.yul\":704:782   */\n      swap4\n      pop\n        /* \"#utility.yul\":791:856   */\n      tag_172\n        /* \"#utility.yul\":849:855   */\n      dup2\n        /* \"#utility.yul\":844:847   */\n      dup6\n        /* \"#utility.yul\":837:841   */\n      0x20\n        /* \"#utility.yul\":830:835   */\n      dup7\n        /* \"#utility.yul\":826:842   */\n      add\n        /* \"#utility.yul\":791:856   */\n      tag_130\n      jump\t// in\n    tag_172:\n        /* \"#utility.yul\":881:910   */\n      tag_173\n        /* \"#utility.yul\":903:909   */\n      dup2\n        /* \"#utility.yul\":881:910   */\n      tag_131\n      jump\t// in\n    tag_173:\n        /* \"#utility.yul\":876:879   */\n      dup5\n        /* \"#utility.yul\":872:911   */\n      add\n        /* \"#utility.yul\":865:911   */\n      swap2\n      pop\n        /* \"#utility.yul\":632:917   */\n      pop\n        /* \"#utility.yul\":540:917   */\n      swap3\n      swap2\n      pop\n      pop\n      jump\t// out\n        /* \"#utility.yul\":923:1236   */\n    tag_15:\n        /* \"#utility.yul\":1036:1040   */\n      0x00\n        /* \"#utility.yul\":1074:1076   */\n      0x20\n        /* \"#utility.yul\":1063:1072   */\n      dup3\n        /* \"#utility.yul\":1059:1077   */\n      add\n        /* \"#utility.yul\":1051:1077   */\n      swap1\n      pop\n        /* \"#utility.yul\":1123:1132   */\n      dup2\n        /* \"#utility.yul\":1117:1121   */\n      dup2\n        /* \"#utility.yul\":1113:1133   */\n      sub\n        /* \"#utility.yul\":1109:1110   */\n      0x00\n        /* \"#utility.yul\":1098:1107   */\n      dup4\n        /* \"#utility.yul\":1094:1111   */\n      add\n        /* \"#utility.yul\":1087:1134   */\n      mstore\n        /* \"#utility.yul\":1151:1229   */\n      tag_175\n        /* \"#utility.yul\":1224:1228   */\n      dup2\n        /* \"#utility.yul\":1215:1221   */\n      dup5\n        /* \"#utility.yul\":1151:1229   */\n      tag_132\n      jump\t// in\n    tag_175:\n        /* \"#utility.yul\":1143:1229   */\n      swap1\n      pop\n        /* \"#utility.yul\":923:1236   */\n      swap3\n      swap2\n      pop\n      pop\n      jump\t// out\n        /* \"#utility.yul\":1242:1317   */\n    tag_133:\n        /* \"#utility.yul\":1275:1281   */\n      0x00\n        /* \"#utility.yul\":1308:1310   */\n      0x40\n        /* \"#utility.yul\":1302:1311   */\n      mload\n        /* \"#utility.yul\":1292:1311   */\n      swap1\n      pop\n        /* \"#utility.yul\":1242:1317   */\n      swap1\n      jump\t// out\n        /* \"#utility.yul\":1323:1440   */\n    tag_134:\n        /* \"#utility.yul\":1432:1433   */\n      0x00\n        /* \"#utility.yul\":1429:1430   */\n      dup1\n        /* \"#utility.yul\":1422:1434   */\n      revert\n        /* \"#utility.yul\":1446:1563   */\n    tag_135:\n        /* \"#utility.yul\":1555:1556   */\n      0x00\n        /* \"#utility.yul\":1552:1553   */\n      dup1\n        /* \"#utility.yul\":1545:1557   */\n      revert\n        /* \"#utility.yul\":1569:1695   */\n    tag_136:\n        /* \"#utility.yul\":1606:1613   */\n      0x00\n        /* \"#utility.yul\":1646:1688   */\n      0xffffffffffffffffffffffffffffffffffffffff\n        /* \"#utility.yul\":1639:1644   */\n      dup3\n        /* \"#utility.yul\":1635:1689   */\n      and\n        /* \"#utility.yul\":1624:1689   */\n      swap1\n      pop\n        /* \"#utility.yul\":1569:1695   */\n      swap2\n      swap1\n      pop\n      jump\t// out\n        /* \"#utility.yul\":1701:1797   */\n    tag_137:\n        /* \"#utility.yul\":1738:1745   */\n      0x00\n        /* \"#utility.yul\":1767:1791   */\n      tag_181\n        /* \"#utility.yul\":1785:1790   */\n      dup3\n        /* \"#utility.yul\":1767:1791   */\n      tag_136\n      jump\t// in\n    tag_181:\n        /* \"#utility.yul\":1756:1791   */\n      swap1\n      pop\n        /* \"#utility.yul\":1701:1797   */\n      swap2\n      swap1\n      pop\n      jump\t// out\n        /* \"#utility.yul\":1803:1925   */\n    tag_138:\n        /* \"#utility.yul\":1876:1900   */\n      tag_183\n        /* \"#utility.yul\":1894:1899   */\n      dup2\n        /* \"#utility.yul\":1876:1900   */\n      tag_137\n      jump\t// in\n    tag_183:\n        /* \"#utility.yul\":1869:1874   */\n      dup2\n        /* \"#utility.yul\":1866:1901   */\n      eq\n        /* \"#utility.yul\":1856:1919   */\n      tag_184\n      jumpi\n        /* \"#utility.yul\":1915:1916   */\n      0x00\n        /* \"#utility.yul\":1912:1913   */\n      dup1\n        /* \"#utility.yul\":1905:1917   */\n      revert\n        /* \"#utility.yul\":1856:1919   */\n    tag_184:\n        /* \"#utility.yul\":1803:1925   */\n      pop\n      jump\t// out\n        /* \"#utility.yul\":1931:2070   */\n    tag_139:\n        /* \"#utility.yul\":1977:1982   */\n      0x00\n        /* \"#utility.yul\":2015:2021   */\n      dup2\n        /* \"#utility.yul\":2002:2022   */\n      calldataload\n        /* \"#utility.yul\":1993:2022   */\n      swap1\n      pop\n        /* \"#utility.yul\":2031:2064   */\n      tag_186\n        /* \"#utility.yul\":2058:2063   */\n      dup2\n        /* \"#utility.yul\":2031:2064   */\n      tag_138\n      jump\t// in\n    tag_186:\n        /* \"#utility.yul\":1931:2070   */\n      swap3\n      swap2\n      pop\n      pop\n      jump\t// out\n        /* \"#utility.yul\":2076:2153   */\n    tag_140:\n        /* \"#utility.yul\":2113:2120   */\n      0x00\n        /* \"#utility.yul\":2142:2147   */\n      dup2\n        /* \"#utility.yul\":2131:2147   */\n      swap1\n      pop\n        /* \"#utility.yul\":2076:2153   */\n      swap2\n      swap1\n      pop\n      jump\t// out\n        /* \"#utility.yul\":2159:2281   */\n    tag_141:\n        /* \"#utility.yul\":2232:2256   */\n      tag_189\n        /* \"#utility.yul\":2250:2255   */\n      dup2\n        /* \"#utility.yul\":2232:2256   */\n      tag_140\n      jump\t// in\n    tag_189:\n        /* \"#utility.yul\":2225:2230   */\n      dup2\n        /* \"#utility.yul\":2222:2257   */\n      eq\n        /* \"#utility.yul\":2212:2275   */\n      tag_190\n      jumpi\n        /* \"#utility.yul\":2271:2272   */\n      0x00\n        /* \"#utility.yul\":2268:2269   */\n      dup1\n        /* \"#utility.yul\":2261:2273   */\n      revert\n        /* \"#utility.yul\":2212:2275   */\n    tag_190:\n        /* \"#utility.yul\":2159:2281   */\n      pop\n      jump\t// out\n        /* \"#utility.yul\":2287:2426   */\n    tag_142:\n        /* \"#utility.yul\":2333:2338   */\n      0x00\n        /* \"#utility.yul\":2371:2377   */\n      dup2\n        /* \"#utility.yul\":2358:2378   */\n      calldataload\n        /* \"#utility.yul\":2349:2378   */\n      swap1\n      pop\n        /* \"#utility.yul\":2387:2420   */\n      tag_192\n        /* \"#utility.yul\":2414:2419   */\n      dup2\n        /* \"#utility.yul\":2387:2420   */\n      tag_141\n      jump\t// in\n    tag_192:\n        /* \"#utility.yul\":2287:2426   */\n      swap3\n      swap2\n      pop\n      pop\n      jump\t// out\n        /* \"#utility.yul\":2432:2906   */\n    tag_18:\n        /* \"#utility.yul\":2500:2506   */\n      0x00\n        /* \"#utility.yul\":2508:2514   */\n      dup1\n        /* \"#utility.yul\":2557:2559   */\n      0x40\n        /* \"#utility.yul\":2545:2554   */\n      dup4\n        /* \"#utility.yul\":2536:2543   */\n      dup6\n        /* \"#utility.yul\":2532:2555   */\n      sub\n        /* \"#utility.yul\":2528:2560   */\n      slt\n        /* \"#utility.yul\":2525:2644   */\n      iszero\n      tag_194\n      jumpi\n        /* \"#utility.yul\":2563:2642   */\n      tag_195\n      tag_134\n      jump\t// in\n    tag_195:\n        /* \"#utility.yul\":2525:2644   */\n    tag_194:\n        /* \"#utility.yul\":2683:2684   */\n      0x00\n        /* \"#utility.yul\":2708:2761   */\n      tag_196\n        /* \"#utility.yul\":2753:2760   */\n      dup6\n        /* \"#utility.yul\":2744:2750   */\n      dup3\n        /* \"#utility.yul\":2733:2742   */\n      dup7\n        /* \"#utility.yul\":2729:2751   */\n      add\n        /* \"#utility.yul\":2708:2761   */\n      tag_139\n      jump\t// in\n    tag_196:\n        /* \"#utility.yul\":2698:2761   */\n      swap3\n      pop\n        /* \"#utility.yul\":2654:2771   */\n      pop\n        /* \"#utility.yul\":2810:2812   */\n      0x20\n        /* \"#utility.yul\":2836:2889   */\n      tag_197\n        /* \"#utility.yul\":2881:2888   */\n      dup6\n        /* \"#utility.yul\":2872:2878   */\n      dup3\n        /* \"#utility.yul\":2861:2870   */\n      dup7\n        /* \"#utility.yul\":2857:2879   */\n      add\n        /* \"#utility.yul\":2836:2889   */\n      tag_142\n      jump\t// in\n    tag_197:\n        /* \"#utility.yul\":2826:2889   */\n      swap2\n      pop\n        /* \"#utility.yul\":2781:2899   */\n      pop\n        /* \"#utility.yul\":2432:2906   */\n      swap3\n      pop\n      swap3\n      swap1\n      pop\n      jump\t// out\n        /* \"#utility.yul\":2912:3426   */\n    tag_21:\n        /* \"#utility.yul\":3073:3077   */\n      0x00\n        /* \"#utility.yul\":3111:3113   */\n      0x40\n        /* \"#utility.yul\":3100:3109   */\n      dup3\n        /* \"#utility.yul\":3096:3114   */\n      add\n        /* \"#utility.yul\":3088:3114   */\n      swap1\n      pop\n        /* \"#utility.yul\":3160:3169   */\n      dup2\n        /* \"#utility.yul\":3154:3158   */\n      dup2\n        /* \"#utility.yul\":3150:3170   */\n      sub\n        /* \"#utility.yul\":3146:3147   */\n      0x00\n        /* \"#utility.yul\":3135:3144   */\n      dup4\n        /* \"#utility.yul\":3131:3148   */\n      add\n        /* \"#utility.yul\":3124:3171   */\n      mstore\n        /* \"#utility.yul\":3188:3266   */\n      tag_199\n        /* \"#utility.yul\":3261:3265   */\n      dup2\n        /* \"#utility.yul\":3252:3258   */\n      dup6\n        /* \"#utility.yul\":3188:3266   */\n      tag_132\n      jump\t// in\n    tag_199:\n        /* \"#utility.yul\":3180:3266   */\n      swap1\n      pop\n        /* \"#utility.yul\":3313:3322   */\n      dup2\n        /* \"#utility.yul\":3307:3311   */\n      dup2\n        /* \"#utility.yul\":3303:3323   */\n      sub\n        /* \"#utility.yul\":3298:3300   */\n      0x20\n        /* \"#utility.yul\":3287:3296   */\n      dup4\n        /* \"#utility.yul\":3283:3301   */\n      add\n        /* \"#utility.yul\":3276:3324   */\n      mstore\n        /* \"#utility.yul\":3341:3419   */\n      tag_200\n        /* \"#utility.yul\":3414:3418   */\n      dup2\n        /* \"#utility.yul\":3405:3411   */\n      dup5\n        /* \"#utility.yul\":3341:3419   */\n      tag_132\n      jump\t// in\n    tag_200:\n        /* \"#utility.yul\":3333:3419   */\n      swap1\n      pop\n        /* \"#utility.yul\":2912:3426   */\n      swap4\n      swap3\n      pop\n      pop\n      pop\n      jump\t// out\n        /* \"#utility.yul\":3432:3906   */\n    tag_24:\n        /* \"#utility.yul\":3500:3506   */\n      0x00\n        /* \"#utility.yul\":3508:3514   */\n      dup1\n        /* \"#utility.yul\":3557:3559   */\n      0x40\n        /* \"#utility.yul\":3545:3554   */\n      dup4\n        /* \"#utility.yul\":3536:3543   */\n      dup6\n        /* \"#utility.yul\":3532:3555   */\n      sub\n        /* \"#utility.yul\":3528:3560   */\n      slt\n        /* \"#utility.yul\":3525:3644   */\n      iszero\n      tag_202\n      jumpi\n        /* \"#utility.yul\":3563:3642   */\n      tag_203\n      tag_134\n      jump\t// in\n    tag_203:\n        /* \"#utility.yul\":3525:3644   */\n    tag_202:\n        /* \"#utility.yul\":3683:3684   */\n      0x00\n        /* \"#utility.yul\":3708:3761   */\n      tag_204\n        /* \"#utility.yul\":3753:3760   */\n      dup6\n        /* \"#utility.yul\":3744:3750   */\n      dup3\n        /* \"#utility.yul\":3733:3742   */\n      dup7\n        /* \"#utility.yul\":3729:3751   */\n      add\n        /* \"#utility.yul\":3708:3761   */\n      tag_142\n      jump\t// in\n    tag_204:\n        /* \"#utility.yul\":3698:3761   */\n      swap3\n      pop\n        /* \"#utility.yul\":3654:3771   */\n      pop\n        /* \"#utility.yul\":3810:3812   */\n      0x20\n        /* \"#utility.yul\":3836:3889   */\n      tag_205\n        /* \"#utility.yul\":3881:3888   */\n      dup6\n        /* \"#utility.yul\":3872:3878   */\n      dup3\n        /* \"#utility.yul\":3861:3870   */\n      dup7\n        /* \"#utility.yul\":3857:3879   */\n      add\n        /* \"#utility.yul\":3836:3889   */\n      tag_142\n      jump\t// in\n    tag_205:\n        /* \"#utility.yul\":3826:3889   */\n      swap2\n      pop\n        /* \"#utility.yul\":3781:3899   */\n      pop\n        /* \"#utility.yul\":3432:3906   */\n      swap3\n      pop\n      swap3\n      swap1\n      pop\n      jump\t// out\n        /* \"#utility.yul\":3912:4030   */\n    tag_143:\n        /* \"#utility.yul\":3999:4023   */\n      tag_207\n        /* \"#utility.yul\":4017:4022   */\n      dup2\n        /* \"#utility.yul\":3999:4023   */\n      tag_140\n      jump\t// in\n    tag_207:\n        /* \"#utility.yul\":3994:3997   */\n      dup3\n        /* \"#utility.yul\":3987:4024   */\n      mstore\n        /* \"#utility.yul\":3912:4030   */\n      pop\n      pop\n      jump\t// out\n        /* \"#utility.yul\":4036:4258   */\n    tag_27:\n        /* \"#utility.yul\":4129:4133   */\n      0x00\n        /* \"#utility.yul\":4167:4169   */\n      0x20\n        /* \"#utility.yul\":4156:4165   */\n      dup3\n        /* \"#utility.yul\":4152:4170   */\n      add\n        /* \"#utility.yul\":4144:4170   */\n      swap1\n      pop\n        /* \"#utility.yul\":4180:4251   */\n      tag_209\n        /* \"#utility.yul\":4248:4249   */\n      0x00\n        /* \"#utility.yul\":4237:4246   */\n      dup4\n        /* \"#utility.yul\":4233:4250   */\n      add\n        /* \"#utility.yul\":4224:4230   */\n      dup5\n        /* \"#utility.yul\":4180:4251   */\n      tag_143\n      jump\t// in\n    tag_209:\n        /* \"#utility.yul\":4036:4258   */\n      swap3\n      swap2\n      pop\n      pop\n      jump\t// out\n        /* \"#utility.yul\":4264:4381   */\n    tag_144:\n        /* \"#utility.yul\":4373:4374   */\n      0x00\n        /* \"#utility.yul\":4370:4371   */\n      dup1\n        /* \"#utility.yul\":4363:4375   */\n      revert\n        /* \"#utility.yul\":4387:4567   */\n    tag_71:\n        /* \"#utility.yul\":4435:4512   */\n      0x4e487b7100000000000000000000000000000000000000000000000000000000\n        /* \"#utility.yul\":4432:4433   */\n      0x00\n        /* \"#utility.yul\":4425:4513   */\n      mstore\n        /* \"#utility.yul\":4532:4536   */\n      0x41\n        /* \"#utility.yul\":4529:4530   */\n      0x04\n        /* \"#utility.yul\":4522:4537   */\n      mstore\n        /* \"#utility.yul\":4556:4560   */\n      0x24\n        /* \"#utility.yul\":4553:4554   */\n      0x00\n        /* \"#utility.yul\":4546:4561   */\n      revert\n        /* \"#utility.yul\":4573:4854   */\n    tag_145:\n        /* \"#utility.yul\":4656:4683   */\n      tag_213\n        /* \"#utility.yul\":4678:4682   */\n      dup3\n        /* \"#utility.yul\":4656:4683   */\n      tag_131\n      jump\t// in\n    tag_213:\n        /* \"#utility.yul\":4648:4654   */\n      dup2\n        /* \"#utility.yul\":4644:4684   */\n      add\n        /* \"#utility.yul\":4786:4792   */\n      dup2\n        /* \"#utility.yul\":4774:4784   */\n      dup2\n        /* \"#utility.yul\":4771:4793   */\n      lt\n        /* \"#utility.yul\":4750:4768   */\n      0xffffffffffffffff\n        /* \"#utility.yul\":4738:4748   */\n      dup3\n        /* \"#utility.yul\":4735:4769   */\n      gt\n        /* \"#utility.yul\":4732:4794   */\n      or\n        /* \"#utility.yul\":4729:4817   */\n      iszero\n      tag_214\n      jumpi\n        /* \"#utility.yul\":4797:4815   */\n      tag_215\n      tag_71\n      jump\t// in\n    tag_215:\n        /* \"#utility.yul\":4729:4817   */\n    tag_214:\n        /* \"#utility.yul\":4837:4847   */\n      dup1\n        /* \"#utility.yul\":4833:4835   */\n      0x40\n        /* \"#utility.yul\":4826:4848   */\n      mstore\n        /* \"#utility.yul\":4616:4854   */\n      pop\n        /* \"#utility.yul\":4573:4854   */\n      pop\n      pop\n      jump\t// out\n        /* \"#utility.yul\":4860:4989   */\n    tag_146:\n        /* \"#utility.yul\":4894:4900   */\n      0x00\n        /* \"#utility.yul\":4921:4941   */\n      tag_217\n      tag_133\n      jump\t// in\n    tag_217:\n        /* \"#utility.yul\":4911:4941   */\n      swap1\n      pop\n        /* \"#utility.yul\":4950:4983   */\n      tag_218\n        /* \"#utility.yul\":4978:4982   */\n      dup3\n        /* \"#utility.yul\":4970:4976   */\n      dup3\n        /* \"#utility.yul\":4950:4983   */\n      tag_145\n      jump\t// in\n    tag_218:\n        /* \"#utility.yul\":4860:4989   */\n      swap2\n      swap1\n      pop\n      jump\t// out\n        /* \"#utility.yul\":4995:5306   */\n    tag_147:\n        /* \"#utility.yul\":5072:5076   */\n      0x00\n        /* \"#utility.yul\":5162:5180   */\n      0xffffffffffffffff\n        /* \"#utility.yul\":5154:5160   */\n      dup3\n        /* \"#utility.yul\":5151:5181   */\n      gt\n        /* \"#utility.yul\":5148:5204   */\n      iszero\n      tag_220\n      jumpi\n        /* \"#utility.yul\":5184:5202   */\n      tag_221\n      tag_71\n      jump\t// in\n    tag_221:\n        /* \"#utility.yul\":5148:5204   */\n    tag_220:\n        /* \"#utility.yul\":5234:5238   */\n      0x20\n        /* \"#utility.yul\":5226:5232   */\n      dup3\n        /* \"#utility.yul\":5222:5239   */\n      mul\n        /* \"#utility.yul\":5214:5239   */\n      swap1\n      pop\n        /* \"#utility.yul\":5294:5298   */\n      0x20\n        /* \"#utility.yul\":5288:5292   */\n      dup2\n        /* \"#utility.yul\":5284:5299   */\n      add\n        /* \"#utility.yul\":5276:5299   */\n      swap1\n      pop\n        /* \"#utility.yul\":4995:5306   */\n      swap2\n      swap1\n      pop\n      jump\t// out\n        /* \"#utility.yul\":5312:5429   */\n    tag_148:\n        /* \"#utility.yul\":5421:5422   */\n      0x00\n        /* \"#utility.yul\":5418:5419   */\n      dup1\n        /* \"#utility.yul\":5411:5423   */\n      revert\n        /* \"#utility.yul\":5452:6162   */\n    tag_149:\n        /* \"#utility.yul\":5548:5553   */\n      0x00\n        /* \"#utility.yul\":5573:5654   */\n      tag_224\n        /* \"#utility.yul\":5589:5653   */\n      tag_225\n        /* \"#utility.yul\":5646:5652   */\n      dup5\n        /* \"#utility.yul\":5589:5653   */\n      tag_147\n      jump\t// in\n    tag_225:\n        /* \"#utility.yul\":5573:5654   */\n      tag_146\n      jump\t// in\n    tag_224:\n        /* \"#utility.yul\":5564:5654   */\n      swap1\n      pop\n        /* \"#utility.yul\":5674:5679   */\n      dup1\n        /* \"#utility.yul\":5703:5709   */\n      dup4\n        /* \"#utility.yul\":5696:5701   */\n      dup3\n        /* \"#utility.yul\":5689:5710   */\n      mstore\n        /* \"#utility.yul\":5737:5741   */\n      0x20\n        /* \"#utility.yul\":5730:5735   */\n      dup3\n        /* \"#utility.yul\":5726:5742   */\n      add\n        /* \"#utility.yul\":5719:5742   */\n      swap1\n      pop\n        /* \"#utility.yul\":5790:5794   */\n      0x20\n        /* \"#utility.yul\":5782:5788   */\n      dup5\n        /* \"#utility.yul\":5778:5795   */\n      mul\n        /* \"#utility.yul\":5770:5776   */\n      dup4\n        /* \"#utility.yul\":5766:5796   */\n      add\n        /* \"#utility.yul\":5819:5822   */\n      dup6\n        /* \"#utility.yul\":5811:5817   */\n      dup2\n        /* \"#utility.yul\":5808:5823   */\n      gt\n        /* \"#utility.yul\":5805:5927   */\n      iszero\n      tag_226\n      jumpi\n        /* \"#utility.yul\":5838:5917   */\n      tag_227\n      tag_148\n      jump\t// in\n    tag_227:\n        /* \"#utility.yul\":5805:5927   */\n    tag_226:\n        /* \"#utility.yul\":5953:5959   */\n      dup4\n        /* \"#utility.yul\":5936:6156   */\n    tag_228:\n        /* \"#utility.yul\":5970:5976   */\n      dup2\n        /* \"#utility.yul\":5965:5968   */\n      dup2\n        /* \"#utility.yul\":5962:5977   */\n      lt\n        /* \"#utility.yul\":5936:6156   */\n      iszero\n      tag_230\n      jumpi\n        /* \"#utility.yul\":6045:6048   */\n      dup1\n        /* \"#utility.yul\":6074:6111   */\n      tag_231\n        /* \"#utility.yul\":6107:6110   */\n      dup9\n        /* \"#utility.yul\":6095:6105   */\n      dup3\n        /* \"#utility.yul\":6074:6111   */\n      tag_142\n      jump\t// in\n    tag_231:\n        /* \"#utility.yul\":6069:6072   */\n      dup5\n        /* \"#utility.yul\":6062:6112   */\n      mstore\n        /* \"#utility.yul\":6141:6145   */\n      0x20\n        /* \"#utility.yul\":6136:6139   */\n      dup5\n        /* \"#utility.yul\":6132:6146   */\n      add\n        /* \"#utility.yul\":6125:6146   */\n      swap4\n      pop\n        /* \"#utility.yul\":6012:6156   */\n      pop\n        /* \"#utility.yul\":5996:6000   */\n      0x20\n        /* \"#utility.yul\":5991:5994   */\n      dup2\n        /* \"#utility.yul\":5987:6001   */\n      add\n        /* \"#utility.yul\":5980:6001   */\n      swap1\n      pop\n        /* \"#utility.yul\":5936:6156   */\n      jump(tag_228)\n    tag_230:\n        /* \"#utility.yul\":5940:5961   */\n      pop\n        /* \"#utility.yul\":5554:6162   */\n      pop\n      pop\n        /* \"#utility.yul\":5452:6162   */\n      swap4\n      swap3\n      pop\n      pop\n      pop\n      jump\t// out\n        /* \"#utility.yul\":6185:6555   */\n    tag_150:\n        /* \"#utility.yul\":6256:6261   */\n      0x00\n        /* \"#utility.yul\":6305:6308   */\n      dup3\n        /* \"#utility.yul\":6298:6302   */\n      0x1f\n        /* \"#utility.yul\":6290:6296   */\n      dup4\n        /* \"#utility.yul\":6286:6303   */\n      add\n        /* \"#utility.yul\":6282:6309   */\n      slt\n        /* \"#utility.yul\":6272:6394   */\n      tag_233\n      jumpi\n        /* \"#utility.yul\":6313:6392   */\n      tag_234\n      tag_144\n      jump\t// in\n    tag_234:\n        /* \"#utility.yul\":6272:6394   */\n    tag_233:\n        /* \"#utility.yul\":6430:6436   */\n      dup2\n        /* \"#utility.yul\":6417:6437   */\n      calldataload\n        /* \"#utility.yul\":6455:6549   */\n      tag_235\n        /* \"#utility.yul\":6545:6548   */\n      dup5\n        /* \"#utility.yul\":6537:6543   */\n      dup3\n        /* \"#utility.yul\":6530:6534   */\n      0x20\n        /* \"#utility.yul\":6522:6528   */\n      dup7\n        /* \"#utility.yul\":6518:6535   */\n      add\n        /* \"#utility.yul\":6455:6549   */\n      tag_149\n      jump\t// in\n    tag_235:\n        /* \"#utility.yul\":6446:6549   */\n      swap2\n      pop\n        /* \"#utility.yul\":6262:6555   */\n      pop\n        /* \"#utility.yul\":6185:6555   */\n      swap3\n      swap2\n      pop\n      pop\n      jump\t// out\n        /* \"#utility.yul\":6561:7100   */\n    tag_30:\n        /* \"#utility.yul\":6645:6651   */\n      0x00\n        /* \"#utility.yul\":6694:6696   */\n      0x20\n        /* \"#utility.yul\":6682:6691   */\n      dup3\n        /* \"#utility.yul\":6673:6680   */\n      dup5\n        /* \"#utility.yul\":6669:6692   */\n      sub\n        /* \"#utility.yul\":6665:6697   */\n      slt\n        /* \"#utility.yul\":6662:6781   */\n      iszero\n      tag_237\n      jumpi\n        /* \"#utility.yul\":6700:6779   */\n      tag_238\n      tag_134\n      jump\t// in\n    tag_238:\n        /* \"#utility.yul\":6662:6781   */\n    tag_237:\n        /* \"#utility.yul\":6848:6849   */\n      0x00\n        /* \"#utility.yul\":6837:6846   */\n      dup3\n        /* \"#utility.yul\":6833:6850   */\n      add\n        /* \"#utility.yul\":6820:6851   */\n      calldataload\n        /* \"#utility.yul\":6878:6896   */\n      0xffffffffffffffff\n        /* \"#utility.yul\":6870:6876   */\n      dup2\n        /* \"#utility.yul\":6867:6897   */\n      gt\n        /* \"#utility.yul\":6864:6981   */\n      iszero\n      tag_239\n      jumpi\n        /* \"#utility.yul\":6900:6979   */\n      tag_240\n      tag_135\n      jump\t// in\n    tag_240:\n        /* \"#utility.yul\":6864:6981   */\n    tag_239:\n        /* \"#utility.yul\":7005:7083   */\n      tag_241\n        /* \"#utility.yul\":7075:7082   */\n      dup5\n        /* \"#utility.yul\":7066:7072   */\n      dup3\n        /* \"#utility.yul\":7055:7064   */\n      dup6\n        /* \"#utility.yul\":7051:7073   */\n      add\n        /* \"#utility.yul\":7005:7083   */\n      tag_150\n      jump\t// in\n    tag_241:\n        /* \"#utility.yul\":6995:7083   */\n      swap2\n      pop\n        /* \"#utility.yul\":6791:7093   */\n      pop\n        /* \"#utility.yul\":6561:7100   */\n      swap3\n      swap2\n      pop\n      pop\n      jump\t// out\n        /* \"#utility.yul\":7106:7435   */\n    tag_35:\n        /* \"#utility.yul\":7165:7171   */\n      0x00\n        /* \"#utility.yul\":7214:7216   */\n      0x20\n        /* \"#utility.yul\":7202:7211   */\n      dup3\n        /* \"#utility.yul\":7193:7200   */\n      dup5\n        /* \"#utility.yul\":7189:7212   */\n      sub\n        /* \"#utility.yul\":7185:7217   */\n      slt\n        /* \"#utility.yul\":7182:7301   */\n      iszero\n      tag_243\n      jumpi\n        /* \"#utility.yul\":7220:7299   */\n      tag_244\n      tag_134\n      jump\t// in\n    tag_244:\n        /* \"#utility.yul\":7182:7301   */\n    tag_243:\n        /* \"#utility.yul\":7340:7341   */\n      0x00\n        /* \"#utility.yul\":7365:7418   */\n      tag_245\n        /* \"#utility.yul\":7410:7417   */\n      dup5\n        /* \"#utility.yul\":7401:7407   */\n      dup3\n        /* \"#utility.yul\":7390:7399   */\n      dup6\n        /* \"#utility.yul\":7386:7408   */\n      add\n        /* \"#utility.yul\":7365:7418   */\n      tag_142\n      jump\t// in\n    tag_245:\n        /* \"#utility.yul\":7355:7418   */\n      swap2\n      pop\n        /* \"#utility.yul\":7311:7428   */\n      pop\n        /* \"#utility.yul\":7106:7435   */\n      swap3\n      swap2\n      pop\n      pop\n      jump\t// out\n        /* \"#utility.yul\":7441:7621   */\n    tag_151:\n        /* \"#utility.yul\":7489:7566   */\n      0x4e487b7100000000000000000000000000000000000000000000000000000000\n        /* \"#utility.yul\":7486:7487   */\n      0x00\n        /* \"#utility.yul\":7479:7567   */\n      mstore\n        /* \"#utility.yul\":7586:7590   */\n      0x22\n        /* \"#utility.yul\":7583:7584   */\n      0x04\n        /* \"#utility.yul\":7576:7591   */\n      mstore\n        /* \"#utility.yul\":7610:7614   */\n      0x24\n        /* \"#utility.yul\":7607:7608   */\n      0x00\n        /* \"#utility.yul\":7600:7615   */\n      revert\n        /* \"#utility.yul\":7627:7947   */\n    tag_50:\n        /* \"#utility.yul\":7671:7677   */\n      0x00\n        /* \"#utility.yul\":7708:7709   */\n      0x02\n        /* \"#utility.yul\":7702:7706   */\n      dup3\n        /* \"#utility.yul\":7698:7710   */\n      div\n        /* \"#utility.yul\":7688:7710   */\n      swap1\n      pop\n        /* \"#utility.yul\":7755:7756   */\n      0x01\n        /* \"#utility.yul\":7749:7753   */\n      dup3\n        /* \"#utility.yul\":7745:7757   */\n      and\n        /* \"#utility.yul\":7776:7794   */\n      dup1\n        /* \"#utility.yul\":7766:7847   */\n      tag_248\n      jumpi\n        /* \"#utility.yul\":7832:7836   */\n      0x7f\n        /* \"#utility.yul\":7824:7830   */\n      dup3\n        /* \"#utility.yul\":7820:7837   */\n      and\n        /* \"#utility.yul\":7810:7837   */\n      swap2\n      pop\n        /* \"#utility.yul\":7766:7847   */\n    tag_248:\n        /* \"#utility.yul\":7894:7896   */\n      0x20\n        /* \"#utility.yul\":7886:7892   */\n      dup3\n        /* \"#utility.yul\":7883:7897   */\n      lt\n        /* \"#utility.yul\":7863:7881   */\n      dup2\n        /* \"#utility.yul\":7860:7898   */\n      sub\n        /* \"#utility.yul\":7857:7941   */\n      tag_249\n      jumpi\n        /* \"#utility.yul\":7913:7931   */\n      tag_250\n      tag_151\n      jump\t// in\n    tag_250:\n        /* \"#utility.yul\":7857:7941   */\n    tag_249:\n        /* \"#utility.yul\":7678:7947   */\n      pop\n        /* \"#utility.yul\":7627:7947   */\n      swap2\n      swap1\n      pop\n      jump\t// out\n        /* \"#utility.yul\":7953:8133   */\n    tag_75:\n        /* \"#utility.yul\":8001:8078   */\n      0x4e487b7100000000000000000000000000000000000000000000000000000000\n        /* \"#utility.yul\":7998:7999   */\n      0x00\n        /* \"#utility.yul\":7991:8079   */\n      mstore\n        /* \"#utility.yul\":8098:8102   */\n      0x32\n        /* \"#utility.yul\":8095:8096   */\n      0x04\n        /* \"#utility.yul\":8088:8103   */\n      mstore\n        /* \"#utility.yul\":8122:8126   */\n      0x24\n        /* \"#utility.yul\":8119:8120   */\n      0x00\n        /* \"#utility.yul\":8112:8127   */\n      revert\n        /* \"#utility.yul\":8139:8253   */\n    tag_152:\n        /* \"#utility.yul\":8206:8212   */\n      0x00\n        /* \"#utility.yul\":8240:8245   */\n      dup2\n        /* \"#utility.yul\":8234:8246   */\n      mload\n        /* \"#utility.yul\":8224:8246   */\n      swap1\n      pop\n        /* \"#utility.yul\":8139:8253   */\n      swap2\n      swap1\n      pop\n      jump\t// out\n        /* \"#utility.yul\":8259:8443   */\n    tag_153:\n        /* \"#utility.yul\":8358:8369   */\n      0x00\n        /* \"#utility.yul\":8392:8398   */\n      dup3\n        /* \"#utility.yul\":8387:8390   */\n      dup3\n        /* \"#utility.yul\":8380:8399   */\n      mstore\n        /* \"#utility.yul\":8432:8436   */\n      0x20\n        /* \"#utility.yul\":8427:8430   */\n      dup3\n        /* \"#utility.yul\":8423:8437   */\n      add\n        /* \"#utility.yul\":8408:8437   */\n      swap1\n      pop\n        /* \"#utility.yul\":8259:8443   */\n      swap3\n      swap2\n      pop\n      pop\n      jump\t// out\n        /* \"#utility.yul\":8449:8581   */\n    tag_154:\n        /* \"#utility.yul\":8516:8520   */\n      0x00\n        /* \"#utility.yul\":8539:8542   */\n      dup2\n        /* \"#utility.yul\":8531:8542   */\n      swap1\n      pop\n        /* \"#utility.yul\":8569:8573   */\n      0x20\n        /* \"#utility.yul\":8564:8567   */\n      dup3\n        /* \"#utility.yul\":8560:8574   */\n      add\n        /* \"#utility.yul\":8552:8574   */\n      swap1\n      pop\n        /* \"#utility.yul\":8449:8581   */\n      swap2\n      swap1\n      pop\n      jump\t// out\n        /* \"#utility.yul\":8587:8695   */\n    tag_155:\n        /* \"#utility.yul\":8664:8688   */\n      tag_256\n        /* \"#utility.yul\":8682:8687   */\n      dup2\n        /* \"#utility.yul\":8664:8688   */\n      tag_140\n      jump\t// in\n    tag_256:\n        /* \"#utility.yul\":8659:8662   */\n      dup3\n        /* \"#utility.yul\":8652:8689   */\n      mstore\n        /* \"#utility.yul\":8587:8695   */\n      pop\n      pop\n      jump\t// out\n        /* \"#utility.yul\":8701:8880   */\n    tag_156:\n        /* \"#utility.yul\":8770:8780   */\n      0x00\n        /* \"#utility.yul\":8791:8837   */\n      tag_258\n        /* \"#utility.yul\":8833:8836   */\n      dup4\n        /* \"#utility.yul\":8825:8831   */\n      dup4\n        /* \"#utility.yul\":8791:8837   */\n      tag_155\n      jump\t// in\n    tag_258:\n        /* \"#utility.yul\":8869:8873   */\n      0x20\n        /* \"#utility.yul\":8864:8867   */\n      dup4\n        /* \"#utility.yul\":8860:8874   */\n      add\n        /* \"#utility.yul\":8846:8874   */\n      swap1\n      pop\n        /* \"#utility.yul\":8701:8880   */\n      swap3\n      swap2\n      pop\n      pop\n      jump\t// out\n        /* \"#utility.yul\":8886:8999   */\n    tag_157:\n        /* \"#utility.yul\":8956:8960   */\n      0x00\n        /* \"#utility.yul\":8988:8992   */\n      0x20\n        /* \"#utility.yul\":8983:8986   */\n      dup3\n        /* \"#utility.yul\":8979:8993   */\n      add\n        /* \"#utility.yul\":8971:8993   */\n      swap1\n      pop\n        /* \"#utility.yul\":8886:8999   */\n      swap2\n      swap1\n      pop\n      jump\t// out\n        /* \"#utility.yul\":9035:9767   */\n    tag_158:\n        /* \"#utility.yul\":9154:9157   */\n      0x00\n        /* \"#utility.yul\":9183:9237   */\n      tag_261\n        /* \"#utility.yul\":9231:9236   */\n      dup3\n        /* \"#utility.yul\":9183:9237   */\n      tag_152\n      jump\t// in\n    tag_261:\n        /* \"#utility.yul\":9253:9339   */\n      tag_262\n        /* \"#utility.yul\":9332:9338   */\n      dup2\n        /* \"#utility.yul\":9327:9330   */\n      dup6\n        /* \"#utility.yul\":9253:9339   */\n      tag_153\n      jump\t// in\n    tag_262:\n        /* \"#utility.yul\":9246:9339   */\n      swap4\n      pop\n        /* \"#utility.yul\":9363:9419   */\n      tag_263\n        /* \"#utility.yul\":9413:9418   */\n      dup4\n        /* \"#utility.yul\":9363:9419   */\n      tag_154\n      jump\t// in\n    tag_263:\n        /* \"#utility.yul\":9442:9449   */\n      dup1\n        /* \"#utility.yul\":9473:9474   */\n      0x00\n        /* \"#utility.yul\":9458:9742   */\n    tag_264:\n        /* \"#utility.yul\":9483:9489   */\n      dup4\n        /* \"#utility.yul\":9480:9481   */\n      dup2\n        /* \"#utility.yul\":9477:9490   */\n      lt\n        /* \"#utility.yul\":9458:9742   */\n      iszero\n      tag_266\n      jumpi\n        /* \"#utility.yul\":9559:9565   */\n      dup2\n        /* \"#utility.yul\":9553:9566   */\n      mload\n        /* \"#utility.yul\":9586:9649   */\n      tag_267\n        /* \"#utility.yul\":9645:9648   */\n      dup9\n        /* \"#utility.yul\":9630:9643   */\n      dup3\n        /* \"#utility.yul\":9586:9649   */\n      tag_156\n      jump\t// in\n    tag_267:\n        /* \"#utility.yul\":9579:9649   */\n      swap8\n      pop\n        /* \"#utility.yul\":9672:9732   */\n      tag_268\n        /* \"#utility.yul\":9725:9731   */\n      dup4\n        /* \"#utility.yul\":9672:9732   */\n      tag_157\n      jump\t// in\n    tag_268:\n        /* \"#utility.yul\":9662:9732   */\n      swap3\n      pop\n        /* \"#utility.yul\":9518:9742   */\n      pop\n        /* \"#utility.yul\":9505:9506   */\n      0x01\n        /* \"#utility.yul\":9502:9503   */\n      dup2\n        /* \"#utility.yul\":9498:9507   */\n      add\n        /* \"#utility.yul\":9493:9507   */\n      swap1\n      pop\n        /* \"#utility.yul\":9458:9742   */\n      jump(tag_264)\n    tag_266:\n        /* \"#utility.yul\":9462:9476   */\n      pop\n        /* \"#utility.yul\":9758:9761   */\n      dup6\n        /* \"#utility.yul\":9751:9761   */\n      swap4\n      pop\n        /* \"#utility.yul\":9159:9767   */\n      pop\n      pop\n      pop\n        /* \"#utility.yul\":9035:9767   */\n      swap3\n      swap2\n      pop\n      pop\n      jump\t// out\n        /* \"#utility.yul\":9773:10146   */\n    tag_77:\n        /* \"#utility.yul\":9916:9920   */\n      0x00\n        /* \"#utility.yul\":9954:9956   */\n      0x20\n        /* \"#utility.yul\":9943:9952   */\n      dup3\n        /* \"#utility.yul\":9939:9957   */\n      add\n        /* \"#utility.yul\":9931:9957   */\n      swap1\n      pop\n        /* \"#utility.yul\":10003:10012   */\n      dup2\n        /* \"#utility.yul\":9997:10001   */\n      dup2\n        /* \"#utility.yul\":9993:10013   */\n      sub\n        /* \"#utility.yul\":9989:9990   */\n      0x00\n        /* \"#utility.yul\":9978:9987   */\n      dup4\n        /* \"#utility.yul\":9974:9991   */\n      add\n        /* \"#utility.yul\":9967:10014   */\n      mstore\n        /* \"#utility.yul\":10031:10139   */\n      tag_270\n        /* \"#utility.yul\":10134:10138   */\n      dup2\n        /* \"#utility.yul\":10125:10131   */\n      dup5\n        /* \"#utility.yul\":10031:10139   */\n      tag_158\n      jump\t// in\n    tag_270:\n        /* \"#utility.yul\":10023:10139   */\n      swap1\n      pop\n        /* \"#utility.yul\":9773:10146   */\n      swap3\n      swap2\n      pop\n      pop\n      jump\t// out\n        /* \"#utility.yul\":10152:10295   */\n    tag_159:\n        /* \"#utility.yul\":10209:10214   */\n      0x00\n        /* \"#utility.yul\":10240:10246   */\n      dup2\n        /* \"#utility.yul\":10234:10247   */\n      mload\n        /* \"#utility.yul\":10225:10247   */\n      swap1\n      pop\n        /* \"#utility.yul\":10256:10289   */\n      tag_272\n        /* \"#utility.yul\":10283:10288   */\n      dup2\n        /* \"#utility.yul\":10256:10289   */\n      tag_141\n      jump\t// in\n    tag_272:\n        /* \"#utility.yul\":10152:10295   */\n      swap3\n      swap2\n      pop\n      pop\n      jump\t// out\n        /* \"#utility.yul\":10301:10652   */\n    tag_81:\n        /* \"#utility.yul\":10371:10377   */\n      0x00\n        /* \"#utility.yul\":10420:10422   */\n      0x20\n        /* \"#utility.yul\":10408:10417   */\n      dup3\n        /* \"#utility.yul\":10399:10406   */\n      dup5\n        /* \"#utility.yul\":10395:10418   */\n      sub\n        /* \"#utility.yul\":10391:10423   */\n      slt\n        /* \"#utility.yul\":10388:10507   */\n      iszero\n      tag_274\n      jumpi\n        /* \"#utility.yul\":10426:10505   */\n      tag_275\n      tag_134\n      jump\t// in\n    tag_275:\n        /* \"#utility.yul\":10388:10507   */\n    tag_274:\n        /* \"#utility.yul\":10546:10547   */\n      0x00\n        /* \"#utility.yul\":10571:10635   */\n      tag_276\n        /* \"#utility.yul\":10627:10634   */\n      dup5\n        /* \"#utility.yul\":10618:10624   */\n      dup3\n        /* \"#utility.yul\":10607:10616   */\n      dup6\n        /* \"#utility.yul\":10603:10625   */\n      add\n        /* \"#utility.yul\":10571:10635   */\n      tag_159\n      jump\t// in\n    tag_276:\n        /* \"#utility.yul\":10561:10635   */\n      swap2\n      pop\n        /* \"#utility.yul\":10517:10645   */\n      pop\n        /* \"#utility.yul\":10301:10652   */\n      swap3\n      swap2\n      pop\n      pop\n      jump\t// out\n        /* \"#utility.yul\":10658:10838   */\n    tag_160:\n        /* \"#utility.yul\":10706:10783   */\n      0x4e487b7100000000000000000000000000000000000000000000000000000000\n        /* \"#utility.yul\":10703:10704   */\n      0x00\n        /* \"#utility.yul\":10696:10784   */\n      mstore\n        /* \"#utility.yul\":10803:10807   */\n      0x11\n        /* \"#utility.yul\":10800:10801   */\n      0x04\n        /* \"#utility.yul\":10793:10808   */\n      mstore\n        /* \"#utility.yul\":10827:10831   */\n      0x24\n        /* \"#utility.yul\":10824:10825   */\n      0x00\n        /* \"#utility.yul\":10817:10832   */\n      revert\n        /* \"#utility.yul\":10844:11035   */\n    tag_83:\n        /* \"#utility.yul\":10884:10887   */\n      0x00\n        /* \"#utility.yul\":10903:10923   */\n      tag_279\n        /* \"#utility.yul\":10921:10922   */\n      dup3\n        /* \"#utility.yul\":10903:10923   */\n      tag_140\n      jump\t// in\n    tag_279:\n        /* \"#utility.yul\":10898:10923   */\n      swap2\n      pop\n        /* \"#utility.yul\":10937:10957   */\n      tag_280\n        /* \"#utility.yul\":10955:10956   */\n      dup4\n        /* \"#utility.yul\":10937:10957   */\n      tag_140\n      jump\t// in\n    tag_280:\n        /* \"#utility.yul\":10932:10957   */\n      swap3\n      pop\n        /* \"#utility.yul\":10980:10981   */\n      dup3\n        /* \"#utility.yul\":10977:10978   */\n      dup3\n        /* \"#utility.yul\":10973:10982   */\n      add\n        /* \"#utility.yul\":10966:10982   */\n      swap1\n      pop\n        /* \"#utility.yul\":11001:11004   */\n      dup1\n        /* \"#utility.yul\":10998:10999   */\n      dup3\n        /* \"#utility.yul\":10995:11005   */\n      gt\n        /* \"#utility.yul\":10992:11028   */\n      iszero\n      tag_281\n      jumpi\n        /* \"#utility.yul\":11008:11026   */\n      tag_282\n      tag_160\n      jump\t// in\n    tag_282:\n        /* \"#utility.yul\":10992:11028   */\n    tag_281:\n        /* \"#utility.yul\":10844:11035   */\n      swap3\n      swap2\n      pop\n      pop\n      jump\t// out\n        /* \"#utility.yul\":11041:11197   */\n    tag_161:\n        /* \"#utility.yul\":11181:11189   */\n      0x61203e2031300000000000000000000000000000000000000000000000000000\n        /* \"#utility.yul\":11177:11178   */\n      0x00\n        /* \"#utility.yul\":11169:11175   */\n      dup3\n        /* \"#utility.yul\":11165:11179   */\n      add\n        /* \"#utility.yul\":11158:11190   */\n      mstore\n        /* \"#utility.yul\":11041:11197   */\n      pop\n      jump\t// out\n        /* \"#utility.yul\":11203:11568   */\n    tag_162:\n        /* \"#utility.yul\":11345:11348   */\n      0x00\n        /* \"#utility.yul\":11366:11432   */\n      tag_285\n        /* \"#utility.yul\":11430:11431   */\n      0x06\n        /* \"#utility.yul\":11425:11428   */\n      dup4\n        /* \"#utility.yul\":11366:11432   */\n      tag_129\n      jump\t// in\n    tag_285:\n        /* \"#utility.yul\":11359:11432   */\n      swap2\n      pop\n        /* \"#utility.yul\":11441:11534   */\n      tag_286\n        /* \"#utility.yul\":11530:11533   */\n      dup3\n        /* \"#utility.yul\":11441:11534   */\n      tag_161\n      jump\t// in\n    tag_286:\n        /* \"#utility.yul\":11559:11561   */\n      0x20\n        /* \"#utility.yul\":11554:11557   */\n      dup3\n        /* \"#utility.yul\":11550:11562   */\n      add\n        /* \"#utility.yul\":11543:11562   */\n      swap1\n      pop\n        /* \"#utility.yul\":11203:11568   */\n      swap2\n      swap1\n      pop\n      jump\t// out\n        /* \"#utility.yul\":11574:11993   */\n    tag_107:\n        /* \"#utility.yul\":11740:11744   */\n      0x00\n        /* \"#utility.yul\":11778:11780   */\n      0x20\n        /* \"#utility.yul\":11767:11776   */\n      dup3\n        /* \"#utility.yul\":11763:11781   */\n      add\n        /* \"#utility.yul\":11755:11781   */\n      swap1\n      pop\n        /* \"#utility.yul\":11827:11836   */\n      dup2\n        /* \"#utility.yul\":11821:11825   */\n      dup2\n        /* \"#utility.yul\":11817:11837   */\n      sub\n        /* \"#utility.yul\":11813:11814   */\n      0x00\n        /* \"#utility.yul\":11802:11811   */\n      dup4\n        /* \"#utility.yul\":11798:11815   */\n      add\n        /* \"#utility.yul\":11791:11838   */\n      mstore\n        /* \"#utility.yul\":11855:11986   */\n      tag_288\n        /* \"#utility.yul\":11981:11985   */\n      dup2\n        /* \"#utility.yul\":11855:11986   */\n      tag_162\n      jump\t// in\n    tag_288:\n        /* \"#utility.yul\":11847:11986   */\n      swap1\n      pop\n        /* \"#utility.yul\":11574:11993   */\n      swap2\n      swap1\n      pop\n      jump\t// out\n        /* \"#utility.yul\":11999:12179   */\n    tag_110:\n        /* \"#utility.yul\":12047:12124   */\n      0x4e487b7100000000000000000000000000000000000000000000000000000000\n        /* \"#utility.yul\":12044:12045   */\n      0x00\n        /* \"#utility.yul\":12037:12125   */\n      mstore\n        /* \"#utility.yul\":12144:12148   */\n      0x01\n        /* \"#utility.yul\":12141:12142   */\n      0x04\n        /* \"#utility.yul\":12134:12149   */\n      mstore\n        /* \"#utility.yul\":12168:12172   */\n      0x24\n        /* \"#utility.yul\":12165:12166   */\n      0x00\n        /* \"#utility.yul\":12158:12173   */\n      revert\n        /* \"#utility.yul\":12185:12303   */\n    tag_163:\n        /* \"#utility.yul\":12272:12296   */\n      tag_291\n        /* \"#utility.yul\":12290:12295   */\n      dup2\n        /* \"#utility.yul\":12272:12296   */\n      tag_137\n      jump\t// in\n    tag_291:\n        /* \"#utility.yul\":12267:12270   */\n      dup3\n        /* \"#utility.yul\":12260:12297   */\n      mstore\n        /* \"#utility.yul\":12185:12303   */\n      pop\n      pop\n      jump\t// out\n        /* \"#utility.yul\":12309:12751   */\n    tag_113:\n        /* \"#utility.yul\":12458:12462   */\n      0x00\n        /* \"#utility.yul\":12496:12498   */\n      0x60\n        /* \"#utility.yul\":12485:12494   */\n      dup3\n        /* \"#utility.yul\":12481:12499   */\n      add\n        /* \"#utility.yul\":12473:12499   */\n      swap1\n      pop\n        /* \"#utility.yul\":12509:12580   */\n      tag_293\n        /* \"#utility.yul\":12577:12578   */\n      0x00\n        /* \"#utility.yul\":12566:12575   */\n      dup4\n        /* \"#utility.yul\":12562:12579   */\n      add\n        /* \"#utility.yul\":12553:12559   */\n      dup7\n        /* \"#utility.yul\":12509:12580   */\n      tag_163\n      jump\t// in\n    tag_293:\n        /* \"#utility.yul\":12590:12662   */\n      tag_294\n        /* \"#utility.yul\":12658:12660   */\n      0x20\n        /* \"#utility.yul\":12647:12656   */\n      dup4\n        /* \"#utility.yul\":12643:12661   */\n      add\n        /* \"#utility.yul\":12634:12640   */\n      dup6\n        /* \"#utility.yul\":12590:12662   */\n      tag_143\n      jump\t// in\n    tag_294:\n        /* \"#utility.yul\":12672:12744   */\n      tag_295\n        /* \"#utility.yul\":12740:12742   */\n      0x40\n        /* \"#utility.yul\":12729:12738   */\n      dup4\n        /* \"#utility.yul\":12725:12743   */\n      add\n        /* \"#utility.yul\":12716:12722   */\n      dup5\n        /* \"#utility.yul\":12672:12744   */\n      tag_143\n      jump\t// in\n    tag_295:\n        /* \"#utility.yul\":12309:12751   */\n      swap5\n      swap4\n      pop\n      pop\n      pop\n      pop\n      jump\t// out\n        /* \"#utility.yul\":12757:12951   */\n    tag_115:\n        /* \"#utility.yul\":12797:12801   */\n      0x00\n        /* \"#utility.yul\":12817:12837   */\n      tag_297\n        /* \"#utility.yul\":12835:12836   */\n      dup3\n        /* \"#utility.yul\":12817:12837   */\n      tag_140\n      jump\t// in\n    tag_297:\n        /* \"#utility.yul\":12812:12837   */\n      swap2\n      pop\n        /* \"#utility.yul\":12851:12871   */\n      tag_298\n        /* \"#utility.yul\":12869:12870   */\n      dup4\n        /* \"#utility.yul\":12851:12871   */\n      tag_140\n      jump\t// in\n    tag_298:\n        /* \"#utility.yul\":12846:12871   */\n      swap3\n      pop\n        /* \"#utility.yul\":12895:12896   */\n      dup3\n        /* \"#utility.yul\":12892:12893   */\n      dup3\n        /* \"#utility.yul\":12888:12897   */\n      sub\n        /* \"#utility.yul\":12880:12897   */\n      swap1\n      pop\n        /* \"#utility.yul\":12919:12920   */\n      dup2\n        /* \"#utility.yul\":12913:12917   */\n      dup2\n        /* \"#utility.yul\":12910:12921   */\n      gt\n        /* \"#utility.yul\":12907:12944   */\n      iszero\n      tag_299\n      jumpi\n        /* \"#utility.yul\":12924:12942   */\n      tag_300\n      tag_160\n      jump\t// in\n    tag_300:\n        /* \"#utility.yul\":12907:12944   */\n    tag_299:\n        /* \"#utility.yul\":12757:12951   */\n      swap3\n      swap2\n      pop\n      pop\n      jump\t// out\n\n    auxdata: 0xa26469706673582212204658811491efc29aa6795778b5a0c447ede49fd8bcb872dbbb7ef05b4f2b25f064736f6c634300081a0033\n}\n",
				"bytecode": {
					"linkReferences": {},
					"object": "60806040526040518060400160405280600b81526020017f48656c6c6f20576f726c640000000000000000000000000000000000000000008152505f90816100479190610355565b506040518060400160405280600160ff168152602001600260ff1681525060029060026100759291906100b0565b50348015610081575f80fd5b506040516113e73803806113e783398181016040528101906100a39190610452565b806001819055505061047d565b828054828255905f5260205f209081019282156100ef579160200282015b828111156100ee578251829060ff169055916020019190600101906100ce565b5b5090506100fc9190610100565b5090565b5b80821115610117575f815f905550600101610101565b5090565b5f81519050919050565b7f4e487b71000000000000000000000000000000000000000000000000000000005f52604160045260245ffd5b7f4e487b71000000000000000000000000000000000000000000000000000000005f52602260045260245ffd5b5f600282049050600182168061019657607f821691505b6020821081036101a9576101a8610152565b5b50919050565b5f819050815f5260205f209050919050565b5f6020601f8301049050919050565b5f82821b905092915050565b5f6008830261020b7fffffffffffffffffffffffffffffffffffffffffffffffffffffffffffffffff826101d0565b61021586836101d0565b95508019841693508086168417925050509392505050565b5f819050919050565b5f819050919050565b5f61025961025461024f8461022d565b610236565b61022d565b9050919050565b5f819050919050565b6102728361023f565b61028661027e82610260565b8484546101dc565b825550505050565b5f90565b61029a61028e565b6102a5818484610269565b505050565b5b818110156102c8576102bd5f82610292565b6001810190506102ab565b5050565b601f82111561030d576102de816101af565b6102e7846101c1565b810160208510156102f6578190505b61030a610302856101c1565b8301826102aa565b50505b505050565b5f82821c905092915050565b5f61032d5f1984600802610312565b1980831691505092915050565b5f610345838361031e565b9150826002028217905092915050565b61035e8261011b565b67ffffffffffffffff81111561037757610376610125565b5b610381825461017f565b61038c8282856102cc565b5f60209050601f8311600181146103bd575f84156103ab578287015190505b6103b5858261033a565b86555061041c565b601f1984166103cb866101af565b5f5b828110156103f2578489015182556001820191506020850194506020810190506103cd565b8683101561040f578489015161040b601f89168261031e565b8355505b6001600288020188555050505b505050505050565b5f80fd5b6104318161022d565b811461043b575f80fd5b50565b5f8151905061044c81610428565b92915050565b5f6020828403121561046757610466610424565b5b5f6104748482850161043e565b91505092915050565b610f5d8061048a5f395ff3fe608060405234801561000f575f80fd5b5060043610610086575f3560e01c8063a85c38ef11610059578063a85c38ef14610139578063b67d77c51461016a578063bf15071d1461019a578063fd1ee54c146101b957610086565b8063492bfa181461008a5780634a562471146100a8578063771602f7146100d95780638b44cef114610109575b5f80fd5b6100926101e9565b60405161009f91906108d2565b60405180910390f35b6100c260048036038101906100bd9190610990565b610274565b6040516100d09291906109ce565b60405180910390f35b6100f360048036038101906100ee9190610a03565b6103ba565b6040516101009190610a50565b60405180910390f35b610123600480360381019061011e9190610ba9565b6104d5565b6040516101309190610a50565b60405180910390f35b610153600480360381019061014e9190610bf0565b610538565b6040516101619291906109ce565b60405180910390f35b610184600480360381019061017f9190610a03565b610673565b6040516101919190610a50565b60405180910390f35b6101a2610725565b6040516101b09291906109ce565b60405180910390f35b6101d360048036038101906101ce9190610bf0565b610842565b6040516101e09190610a50565b60405180910390f35b5f80546101f590610c48565b80601f016020809104026020016040519081016040528092919081815260200182805461022190610c48565b801561026c5780601f106102435761010080835404028352916020019161026c565b820191905f5260205f20905b81548152906001019060200180831161024f57829003601f168201915b505050505081565b6006602052815f5260405f20818154811061028d575f80fd5b905f5260205f2090600202015f9150915050805f0180546102ad90610c48565b80601f01602080910402602001604051908101604052809291908181526020018280546102d990610c48565b80156103245780601f106102fb57610100808354040283529160200191610324565b820191905f5260205f20905b81548152906001019060200180831161030757829003601f168201915b50505050509080600101805461033990610c48565b80601f016020809104026020016040519081016040528092919081815260200182805461036590610c48565b80156103b05780601f10610387576101008083540402835291602001916103b0565b820191905f5260205f20905b81548152906001019060200180831161039357829003601f168201915b5050505050905082565b5f600a8311156104b3575f600367ffffffffffffffff8111156103e0576103df610a6d565b5b60405190808252806020026020018201604052801561040e5781602001602082028036833780820191505090505b5090506103e8815f8151811061042757610426610c78565b5b6020026020010181815250503073ffffffffffffffffffffffffffffffffffffffff16638b44cef1826040518263ffffffff1660e01b815260040161046c9190610d5c565b602060405180830381865afa158015610487573d5f803e3d5ffd5b505050506040513d601f19601f820116820180604052508101906104ab9190610d90565b9150506104cf565b81836001546104c29190610de8565b6104cc9190610de8565b90505b92915050565b5f80607b90506107d0835f815181106104f1576104f0610c78565b5b602002602001018181525050825f815181106105105761050f610c78565b5b6020026020010151816001546105269190610de8565b6105309190610de8565b915050919050565b60058181548110610547575f80fd5b905f5260205f2090600202015f91509050805f01805461056690610c48565b80601f016020809104026020016040519081016040528092919081815260200182805461059290610c48565b80156105dd5780601f106105b4576101008083540402835291602001916105dd565b820191905f5260205f20905b8154815290600101906020018083116105c057829003601f168201915b5050505050908060010180546105f290610c48565b80601f016020809104026020016040519081016040528092919081815260200182805461061e90610c48565b80156106695780601f1061064057610100808354040283529160200191610669565b820191905f5260205f20905b81548152906001019060200180831161064c57829003601f168201915b5050505050905082565b5f600a83116106b7576040517f08c379a00000000000000000000000000000000000000000000000000000000081526004016106ae90610e65565b60405180910390fd5b600182116106c8576106c7610e83565b5b81831015610711573383836040517f83f7b88900000000000000000000000000000000000000000000000000000000815260040161070893929190610ebf565b60405180910390fd5b818361071d9190610ef4565b905092915050565b6003805f01805461073590610c48565b80601f016020809104026020016040519081016040528092919081815260200182805461076190610c48565b80156107ac5780601f10610783576101008083540402835291602001916107ac565b820191905f5260205f20905b81548152906001019060200180831161078f57829003601f168201915b5050505050908060010180546107c190610c48565b80601f01602080910402602001604051908101604052809291908181526020018280546107ed90610c48565b80156108385780601f1061080f57610100808354040283529160200191610838565b820191905f5260205f20905b81548152906001019060200180831161081b57829003601f168201915b5050505050905082565b60028181548110610851575f80fd5b905f5260205f20015f915090505481565b5f81519050919050565b5f82825260208201905092915050565b8281835e5f83830152505050565b5f601f19601f8301169050919050565b5f6108a482610862565b6108ae818561086c565b93506108be81856020860161087c565b6108c78161088a565b840191505092915050565b5f6020820190508181035f8301526108ea818461089a565b905092915050565b5f604051905090565b5f80fd5b5f80fd5b5f73ffffffffffffffffffffffffffffffffffffffff82169050919050565b5f61092c82610903565b9050919050565b61093c81610922565b8114610946575f80fd5b50565b5f8135905061095781610933565b92915050565b5f819050919050565b61096f8161095d565b8114610979575f80fd5b50565b5f8135905061098a81610966565b92915050565b5f80604083850312156109a6576109a56108fb565b5b5f6109b385828601610949565b92505060206109c48582860161097c565b9150509250929050565b5f6040820190508181035f8301526109e6818561089a565b905081810360208301526109fa818461089a565b90509392505050565b5f8060408385031215610a1957610a186108fb565b5b5f610a268582860161097c565b9250506020610a378582860161097c565b9150509250929050565b610a4a8161095d565b82525050565b5f602082019050610a635f830184610a41565b92915050565b5f80fd5b7f4e487b71000000000000000000000000000000000000000000000000000000005f52604160045260245ffd5b610aa38261088a565b810181811067ffffffffffffffff82111715610ac257610ac1610a6d565b5b80604052505050565b5f610ad46108f2565b9050610ae08282610a9a565b919050565b5f67ffffffffffffffff821115610aff57610afe610a6d565b5b602082029050602081019050919050565b5f80fd5b5f610b26610b2184610ae5565b610acb565b90508083825260208201905060208402830185811115610b4957610b48610b10565b5b835b81811015610b725780610b5e888261097c565b845260208401935050602081019050610b4b565b5050509392505050565b5f82601f830112610b9057610b8f610a69565b5b8135610ba0848260208601610b14565b91505092915050565b5f60208284031215610bbe57610bbd6108fb565b5b5f82013567ffffffffffffffff811115610bdb57610bda6108ff565b5b610be784828501610b7c565b91505092915050565b5f60208284031215610c0557610c046108fb565b5b5f610c128482850161097c565b91505092915050565b7f4e487b71000000000000000000000000000000000000000000000000000000005f52602260045260245ffd5b5f6002820490506001821680610c5f57607f821691505b602082108103610c7257610c71610c1b565b5b50919050565b7f4e487b71000000000000000000000000000000000000000000000000000000005f52603260045260245ffd5b5f81519050919050565b5f82825260208201905092915050565b5f819050602082019050919050565b610cd78161095d565b82525050565b5f610ce88383610cce565b60208301905092915050565b5f602082019050919050565b5f610d0a82610ca5565b610d148185610caf565b9350610d1f83610cbf565b805f5b83811015610d4f578151610d368882610cdd565b9750610d4183610cf4565b925050600181019050610d22565b5085935050505092915050565b5f6020820190508181035f830152610d748184610d00565b905092915050565b5f81519050610d8a81610966565b92915050565b5f60208284031215610da557610da46108fb565b5b5f610db284828501610d7c565b91505092915050565b7f4e487b71000000000000000000000000000000000000000000000000000000005f52601160045260245ffd5b5f610df28261095d565b9150610dfd8361095d565b9250828201905080821115610e1557610e14610dbb565b5b92915050565b7f61203e20313000000000000000000000000000000000000000000000000000005f82015250565b5f610e4f60068361086c565b9150610e5a82610e1b565b602082019050919050565b5f6020820190508181035f830152610e7c81610e43565b9050919050565b7f4e487b71000000000000000000000000000000000000000000000000000000005f52600160045260245ffd5b610eb981610922565b82525050565b5f606082019050610ed25f830186610eb0565b610edf6020830185610a41565b610eec6040830184610a41565b949350505050565b5f610efe8261095d565b9150610f098361095d565b9250828203905081811115610f2157610f20610dbb565b5b9291505056fea26469706673582212204658811491efc29aa6795778b5a0c447ede49fd8bcb872dbbb7ef05b4f2b25f064736f6c634300081a0033",
					"opcodes": "PUSH1 0x80 PUSH1 0x40 MSTORE PUSH1 0x40 MLOAD DUP1 PUSH1 0x40 ADD PUSH1 0x40 MSTORE DUP1 PUSH1 0xB DUP2 MSTORE PUSH1 0x20 ADD PUSH32 0x48656C6C6F20576F726C64000000000000000000000000000000000000000000 DUP2 MSTORE POP PUSH0 SWAP1 DUP2 PUSH2 0x47 SWAP2 SWAP1 PUSH2 0x355 JUMP JUMPDEST POP PUSH1 0x40 MLOAD DUP1 PUSH1 0x40 ADD PUSH1 0x40 MSTORE DUP1 PUSH1 0x1 PUSH1 0xFF AND DUP2 MSTORE PUSH1 0x20 ADD PUSH1 0x2 PUSH1 0xFF AND DUP2 MSTORE POP PUSH1 0x2 SWAP1 PUSH1 0x2 PUSH2 0x75 SWAP3 SWAP2 SWAP1 PUSH2 0xB0 JUMP JUMPDEST POP CALLVALUE DUP1 ISZERO PUSH2 0x81 JUMPI PUSH0 DUP1 REVERT JUMPDEST POP PUSH1 0x40 MLOAD PUSH2 0x13E7 CODESIZE SUB DUP1 PUSH2 0x13E7 DUP4 CODECOPY DUP2 DUP2 ADD PUSH1 0x40 MSTORE DUP2 ADD SWAP1 PUSH2 0xA3 SWAP2 SWAP1 PUSH2 0x452 JUMP JUMPDEST DUP1 PUSH1 0x1 DUP2 SWAP1 SSTORE POP POP PUSH2 0x47D JUMP JUMPDEST DUP3 DUP1 SLOAD DUP3 DUP3 SSTORE SWAP1 PUSH0 MSTORE PUSH1 0x20 PUSH0 KECCAK256 SWAP1 DUP2 ADD SWAP3 DUP3 ISZERO PUSH2 0xEF JUMPI SWAP2 PUSH1 0x20 MUL DUP3 ADD JUMPDEST DUP3 DUP2 GT ISZERO PUSH2 0xEE JUMPI DUP3 MLOAD DUP3 SWAP1 PUSH1 0xFF AND SWAP1 SSTORE SWAP2 PUSH1 0x20 ADD SWAP2 SWAP1 PUSH1 0x1 ADD SWAP1 PUSH2 0xCE JUMP JUMPDEST JUMPDEST POP SWAP1 POP PUSH2 0xFC SWAP2 SWAP1 PUSH2 0x100 JUMP JUMPDEST POP SWAP1 JUMP JUMPDEST JUMPDEST DUP1 DUP3 GT ISZERO PUSH2 0x117 JUMPI PUSH0 DUP2 PUSH0 SWAP1 SSTORE POP PUSH1 0x1 ADD PUSH2 0x101 JUMP JUMPDEST POP SWAP1 JUMP JUMPDEST PUSH0 DUP2 MLOAD SWAP1 POP SWAP2 SWAP1 POP JUMP JUMPDEST PUSH32 0x4E487B7100000000000000000000000000000000000000000000000000000000 PUSH0 MSTORE PUSH1 0x41 PUSH1 0x4 MSTORE PUSH1 0x24 PUSH0 REVERT JUMPDEST PUSH32 0x4E487B7100000000000000000000000000000000000000000000000000000000 PUSH0 MSTORE PUSH1 0x22 PUSH1 0x4 MSTORE PUSH1 0x24 PUSH0 REVERT JUMPDEST PUSH0 PUSH1 0x2 DUP3 DIV SWAP1 POP PUSH1 0x1 DUP3 AND DUP1 PUSH2 0x196 JUMPI PUSH1 0x7F DUP3 AND SWAP2 POP JUMPDEST PUSH1 0x20 DUP3 LT DUP2 SUB PUSH2 0x1A9 JUMPI PUSH2 0x1A8 PUSH2 0x152 JUMP JUMPDEST JUMPDEST POP SWAP2 SWAP1 POP JUMP JUMPDEST PUSH0 DUP2 SWAP1 POP DUP2 PUSH0 MSTORE PUSH1 0x20 PUSH0 KECCAK256 SWAP1 POP SWAP2 SWAP1 POP JUMP JUMPDEST PUSH0 PUSH1 0x20 PUSH1 0x1F DUP4 ADD DIV SWAP1 POP SWAP2 SWAP1 POP JUMP JUMPDEST PUSH0 DUP3 DUP3 SHL SWAP1 POP SWAP3 SWAP2 POP POP JUMP JUMPDEST PUSH0 PUSH1 0x8 DUP4 MUL PUSH2 0x20B PUSH32 0xFFFFFFFFFFFFFFFFFFFFFFFFFFFFFFFFFFFFFFFFFFFFFFFFFFFFFFFFFFFFFFFF DUP3 PUSH2 0x1D0 JUMP JUMPDEST PUSH2 0x215 DUP7 DUP4 PUSH2 0x1D0 JUMP JUMPDEST SWAP6 POP DUP1 NOT DUP5 AND SWAP4 POP DUP1 DUP7 AND DUP5 OR SWAP3 POP POP POP SWAP4 SWAP3 POP POP POP JUMP JUMPDEST PUSH0 DUP2 SWAP1 POP SWAP2 SWAP1 POP JUMP JUMPDEST PUSH0 DUP2 SWAP1 POP SWAP2 SWAP1 POP JUMP JUMPDEST PUSH0 PUSH2 0x259 PUSH2 0x254 PUSH2 0x24F DUP5 PUSH2 0x22D JUMP JUMPDEST PUSH2 0x236 JUMP JUMPDEST PUSH2 0x22D JUMP JUMPDEST SWAP1 POP SWAP2 SWAP1 POP JUMP JUMPDEST PUSH0 DUP2 SWAP1 POP SWAP2 SWAP1 POP JUMP JUMPDEST PUSH2 0x272 DUP4 PUSH2 0x23F JUMP JUMPDEST PUSH2 0x286 PUSH2 0x27E DUP3 PUSH2 0x260 JUMP JUMPDEST DUP5 DUP5 SLOAD PUSH2 0x1DC JUMP JUMPDEST DUP3 SSTORE POP POP POP POP JUMP JUMPDEST PUSH0 SWAP1 JUMP JUMPDEST PUSH2 0x29A PUSH2 0x28E JUMP JUMPDEST PUSH2 0x2A5 DUP2 DUP5 DUP5 PUSH2 0x269 JUMP JUMPDEST POP POP POP JUMP JUMPDEST JUMPDEST DUP2 DUP2 LT ISZERO PUSH2 0x2C8 JUMPI PUSH2 0x2BD PUSH0 DUP3 PUSH2 0x292 JUMP JUMPDEST PUSH1 0x1 DUP2 ADD SWAP1 POP PUSH2 0x2AB JUMP JUMPDEST POP POP JUMP JUMPDEST PUSH1 0x1F DUP3 GT ISZERO PUSH2 0x30D JUMPI PUSH2 0x2DE DUP2 PUSH2 0x1AF JUMP JUMPDEST PUSH2 0x2E7 DUP5 PUSH2 0x1C1 JUMP JUMPDEST DUP2 ADD PUSH1 0x20 DUP6 LT ISZERO PUSH2 0x2F6 JUMPI DUP2 SWAP1 POP JUMPDEST PUSH2 0x30A PUSH2 0x302 DUP6 PUSH2 0x1C1 JUMP JUMPDEST DUP4 ADD DUP3 PUSH2 0x2AA JUMP JUMPDEST POP POP JUMPDEST POP POP POP JUMP JUMPDEST PUSH0 DUP3 DUP3 SHR SWAP1 POP SWAP3 SWAP2 POP POP JUMP JUMPDEST PUSH0 PUSH2 0x32D PUSH0 NOT DUP5 PUSH1 0x8 MUL PUSH2 0x312 JUMP JUMPDEST NOT DUP1 DUP4 AND SWAP2 POP POP SWAP3 SWAP2 POP POP JUMP JUMPDEST PUSH0 PUSH2 0x345 DUP4 DUP4 PUSH2 0x31E JUMP JUMPDEST SWAP2 POP DUP3 PUSH1 0x2 MUL DUP3 OR SWAP1 POP SWAP3 SWAP2 POP POP JUMP JUMPDEST PUSH2 0x35E DUP3 PUSH2 0x11B JUMP JUMPDEST PUSH8 0xFFFFFFFFFFFFFFFF DUP2 GT ISZERO PUSH2 0x377 JUMPI PUSH2 0x376 PUSH2 0x125 JUMP JUMPDEST JUMPDEST PUSH2 0x381 DUP3 SLOAD PUSH2 0x17F JUMP JUMPDEST PUSH2 0x38C DUP3 DUP3 DUP6 PUSH2 0x2CC JUMP JUMPDEST PUSH0 PUSH1 0x20 SWAP1 POP PUSH1 0x1F DUP4 GT PUSH1 0x1 DUP2 EQ PUSH2 0x3BD JUMPI PUSH0 DUP5 ISZERO PUSH2 0x3AB JUMPI DUP3 DUP8 ADD MLOAD SWAP1 POP JUMPDEST PUSH2 0x3B5 DUP6 DUP3 PUSH2 0x33A JUMP JUMPDEST DUP7 SSTORE POP PUSH2 0x41C JUMP JUMPDEST PUSH1 0x1F NOT DUP5 AND PUSH2 0x3CB DUP7 PUSH2 0x1AF JUMP JUMPDEST PUSH0 JUMPDEST DUP3 DUP2 LT ISZERO PUSH2 0x3F2 JUMPI DUP5 DUP10 ADD MLOAD DUP3 SSTORE PUSH1 0x1 DUP3 ADD SWAP2 POP PUSH1 0x20 DUP6 ADD SWAP5 POP PUSH1 0x20 DUP2 ADD SWAP1 POP PUSH2 0x3CD JUMP JUMPDEST DUP7 DUP4 LT ISZERO PUSH2 0x40F JUMPI DUP5 DUP10 ADD MLOAD PUSH2 0x40B PUSH1 0x1F DUP10 AND DUP3 PUSH2 0x31E JUMP JUMPDEST DUP4 SSTORE POP JUMPDEST PUSH1 0x1 PUSH1 0x2 DUP9 MUL ADD DUP9 SSTORE POP POP POP JUMPDEST POP POP POP POP POP POP JUMP JUMPDEST PUSH0 DUP1 REVERT JUMPDEST PUSH2 0x431 DUP2 PUSH2 0x22D JUMP JUMPDEST DUP2 EQ PUSH2 0x43B JUMPI PUSH0 DUP1 REVERT JUMPDEST POP JUMP JUMPDEST PUSH0 DUP2 MLOAD SWAP1 POP PUSH2 0x44C DUP2 PUSH2 0x428 JUMP JUMPDEST SWAP3 SWAP2 POP POP JUMP JUMPDEST PUSH0 PUSH1 0x20 DUP3 DUP5 SUB SLT ISZERO PUSH2 0x467 JUMPI PUSH2 0x466 PUSH2 0x424 JUMP JUMPDEST JUMPDEST PUSH0 PUSH2 0x474 DUP5 DUP3 DUP6 ADD PUSH2 0x43E JUMP JUMPDEST SWAP2 POP POP SWAP3 SWAP2 POP POP JUMP JUMPDEST PUSH2 0xF5D DUP1 PUSH2 0x48A PUSH0 CODECOPY PUSH0 RETURN INVALID PUSH1 0x80 PUSH1 0x40 MSTORE CALLVALUE DUP1 ISZERO PUSH2 0xF JUMPI PUSH0 DUP1 REVERT JUMPDEST POP PUSH1 0x4 CALLDATASIZE LT PUSH2 0x86 JUMPI PUSH0 CALLDATALOAD PUSH1 0xE0 SHR DUP1 PUSH4 0xA85C38EF GT PUSH2 0x59 JUMPI DUP1 PUSH4 0xA85C38EF EQ PUSH2 0x139 JUMPI DUP1 PUSH4 0xB67D77C5 EQ PUSH2 0x16A JUMPI DUP1 PUSH4 0xBF15071D EQ PUSH2 0x19A JUMPI DUP1 PUSH4 0xFD1EE54C EQ PUSH2 0x1B9 JUMPI PUSH2 0x86 JUMP JUMPDEST DUP1 PUSH4 0x492BFA18 EQ PUSH2 0x8A JUMPI DUP1 PUSH4 0x4A562471 EQ PUSH2 0xA8 JUMPI DUP1 PUSH4 0x771602F7 EQ PUSH2 0xD9 JUMPI DUP1 PUSH4 0x8B44CEF1 EQ PUSH2 0x109 JUMPI JUMPDEST PUSH0 DUP1 REVERT JUMPDEST PUSH2 0x92 PUSH2 0x1E9 JUMP JUMPDEST PUSH1 0x40 MLOAD PUSH2 0x9F SWAP2 SWAP1 PUSH2 0x8D2 JUMP JUMPDEST PUSH1 0x40 MLOAD DUP1 SWAP2 SUB SWAP1 RETURN JUMPDEST PUSH2 0xC2 PUSH1 0x4 DUP1 CALLDATASIZE SUB DUP2 ADD SWAP1 PUSH2 0xBD SWAP2 SWAP1 PUSH2 0x990 JUMP JUMPDEST PUSH2 0x274 JUMP JUMPDEST PUSH1 0x40 MLOAD PUSH2 0xD0 SWAP3 SWAP2 SWAP1 PUSH2 0x9CE JUMP JUMPDEST PUSH1 0x40 MLOAD DUP1 SWAP2 SUB SWAP1 RETURN JUMPDEST PUSH2 0xF3 PUSH1 0x4 DUP1 CALLDATASIZE SUB DUP2 ADD SWAP1 PUSH2 0xEE SWAP2 SWAP1 PUSH2 0xA03 JUMP JUMPDEST PUSH2 0x3BA JUMP JUMPDEST PUSH1 0x40 MLOAD PUSH2 0x100 SWAP2 SWAP1 PUSH2 0xA50 JUMP JUMPDEST PUSH1 0x40 MLOAD DUP1 SWAP2 SUB SWAP1 RETURN JUMPDEST PUSH2 0x123 PUSH1 0x4 DUP1 CALLDATASIZE SUB DUP2 ADD SWAP1 PUSH2 0x11E SWAP2 SWAP1 PUSH2 0xBA9 JUMP JUMPDEST PUSH2 0x4D5 JUMP JUMPDEST PUSH1 0x40 MLOAD PUSH2 0x130 SWAP2 SWAP1 PUSH2 0xA50 JUMP JUMPDEST PUSH1 0x40 MLOAD DUP1 SWAP2 SUB SWAP1 RETURN JUMPDEST PUSH2 0x153 PUSH1 0x4 DUP1 CALLDATASIZE SUB DUP2 ADD SWAP1 PUSH2 0x14E SWAP2 SWAP1 PUSH2 0xBF0 JUMP JUMPDEST PUSH2 0x538 JUMP JUMPDEST PUSH1 0x40 MLOAD PUSH2 0x161 SWAP3 SWAP2 SWAP1 PUSH2 0x9CE JUMP JUMPDEST PUSH1 0x40 MLOAD DUP1 SWAP2 SUB SWAP1 RETURN JUMPDEST PUSH2 0x184 PUSH1 0x4 DUP1 CALLDATASIZE SUB DUP2 ADD SWAP1 PUSH2 0x17F SWAP2 SWAP1 PUSH2 0xA03 JUMP JUMPDEST PUSH2 0x673 JUMP JUMPDEST PUSH1 0x40 MLOAD PUSH2 0x191 SWAP2 SWAP1 PUSH2 0xA50 JUMP JUMPDEST PUSH1 0x40 MLOAD DUP1 SWAP2 SUB SWAP1 RETURN JUMPDEST PUSH2 0x1A2 PUSH2 0x725 JUMP JUMPDEST PUSH1 0x40 MLOAD PUSH2 0x1B0 SWAP3 SWAP2 SWAP1 PUSH2 0x9CE JUMP JUMPDEST PUSH1 0x40 MLOAD DUP1 SWAP2 SUB SWAP1 RETURN JUMPDEST PUSH2 0x1D3 PUSH1 0x4 DUP1 CALLDATASIZE SUB DUP2 ADD SWAP1 PUSH2 0x1CE SWAP2 SWAP1 PUSH2 0xBF0 JUMP JUMPDEST PUSH2 0x842 JUMP JUMPDEST PUSH1 0x40 MLOAD PUSH2 0x1E0 SWAP2 SWAP1 PUSH2 0xA50 JUMP JUMPDEST PUSH1 0x40 MLOAD DUP1 SWAP2 SUB SWAP1 RETURN JUMPDEST PUSH0 DUP1 SLOAD PUSH2 0x1F5 SWAP1 PUSH2 0xC48 JUMP JUMPDEST DUP1 PUSH1 0x1F ADD PUSH1 0x20 DUP1 SWAP2 DIV MUL PUSH1 0x20 ADD PUSH1 0x40 MLOAD SWAP1 DUP2 ADD PUSH1 0x40 MSTORE DUP1 SWAP3 SWAP2 SWAP1 DUP2 DUP2 MSTORE PUSH1 0x20 ADD DUP3 DUP1 SLOAD PUSH2 0x221 SWAP1 PUSH2 0xC48 JUMP JUMPDEST DUP1 ISZERO PUSH2 0x26C JUMPI DUP1 PUSH1 0x1F LT PUSH2 0x243 JUMPI PUSH2 0x100 DUP1 DUP4 SLOAD DIV MUL DUP4 MSTORE SWAP2 PUSH1 0x20 ADD SWAP2 PUSH2 0x26C JUMP JUMPDEST DUP3 ADD SWAP2 SWAP1 PUSH0 MSTORE PUSH1 0x20 PUSH0 KECCAK256 SWAP1 JUMPDEST DUP2 SLOAD DUP2 MSTORE SWAP1 PUSH1 0x1 ADD SWAP1 PUSH1 0x20 ADD DUP1 DUP4 GT PUSH2 0x24F JUMPI DUP3 SWAP1 SUB PUSH1 0x1F AND DUP3 ADD SWAP2 JUMPDEST POP POP POP POP POP DUP2 JUMP JUMPDEST PUSH1 0x6 PUSH1 0x20 MSTORE DUP2 PUSH0 MSTORE PUSH1 0x40 PUSH0 KECCAK256 DUP2 DUP2 SLOAD DUP2 LT PUSH2 0x28D JUMPI PUSH0 DUP1 REVERT JUMPDEST SWAP1 PUSH0 MSTORE PUSH1 0x20 PUSH0 KECCAK256 SWAP1 PUSH1 0x2 MUL ADD PUSH0 SWAP2 POP SWAP2 POP POP DUP1 PUSH0 ADD DUP1 SLOAD PUSH2 0x2AD SWAP1 PUSH2 0xC48 JUMP JUMPDEST DUP1 PUSH1 0x1F ADD PUSH1 0x20 DUP1 SWAP2 DIV MUL PUSH1 0x20 ADD PUSH1 0x40 MLOAD SWAP1 DUP2 ADD PUSH1 0x40 MSTORE DUP1 SWAP3 SWAP2 SWAP1 DUP2 DUP2 MSTORE PUSH1 0x20 ADD DUP3 DUP1 SLOAD PUSH2 0x2D9 SWAP1 PUSH2 0xC48 JUMP JUMPDEST DUP1 ISZERO PUSH2 0x324 JUMPI DUP1 PUSH1 0x1F LT PUSH2 0x2FB JUMPI PUSH2 0x100 DUP1 DUP4 SLOAD DIV MUL DUP4 MSTORE SWAP2 PUSH1 0x20 ADD SWAP2 PUSH2 0x324 JUMP JUMPDEST DUP3 ADD SWAP2 SWAP1 PUSH0 MSTORE PUSH1 0x20 PUSH0 KECCAK256 SWAP1 JUMPDEST DUP2 SLOAD DUP2 MSTORE SWAP1 PUSH1 0x1 ADD SWAP1 PUSH1 0x20 ADD DUP1 DUP4 GT PUSH2 0x307 JUMPI DUP3 SWAP1 SUB PUSH1 0x1F AND DUP3 ADD SWAP2 JUMPDEST POP POP POP POP POP SWAP1 DUP1 PUSH1 0x1 ADD DUP1 SLOAD PUSH2 0x339 SWAP1 PUSH2 0xC48 JUMP JUMPDEST DUP1 PUSH1 0x1F ADD PUSH1 0x20 DUP1 SWAP2 DIV MUL PUSH1 0x20 ADD PUSH1 0x40 MLOAD SWAP1 DUP2 ADD PUSH1 0x40 MSTORE DUP1 SWAP3 SWAP2 SWAP1 DUP2 DUP2 MSTORE PUSH1 0x20 ADD DUP3 DUP1 SLOAD PUSH2 0x365 SWAP1 PUSH2 0xC48 JUMP JUMPDEST DUP1 ISZERO PUSH2 0x3B0 JUMPI DUP1 PUSH1 0x1F LT PUSH2 0x387 JUMPI PUSH2 0x100 DUP1 DUP4 SLOAD DIV MUL DUP4 MSTORE SWAP2 PUSH1 0x20 ADD SWAP2 PUSH2 0x3B0 JUMP JUMPDEST DUP3 ADD SWAP2 SWAP1 PUSH0 MSTORE PUSH1 0x20 PUSH0 KECCAK256 SWAP1 JUMPDEST DUP2 SLOAD DUP2 MSTORE SWAP1 PUSH1 0x1 ADD SWAP1 PUSH1 0x20 ADD DUP1 DUP4 GT PUSH2 0x393 JUMPI DUP3 SWAP1 SUB PUSH1 0x1F AND DUP3 ADD SWAP2 JUMPDEST POP POP POP POP POP SWAP1 POP DUP3 JUMP JUMPDEST PUSH0 PUSH1 0xA DUP4 GT ISZERO PUSH2 0x4B3 JUMPI PUSH0 PUSH1 0x3 PUSH8 0xFFFFFFFFFFFFFFFF DUP2 GT ISZERO PUSH2 0x3E0 JUMPI PUSH2 0x3DF PUSH2 0xA6D JUMP JUMPDEST JUMPDEST PUSH1 0x40 MLOAD SWAP1 DUP1 DUP3 MSTORE DUP1 PUSH1 0x20 MUL PUSH1 0x20 ADD DUP3 ADD PUSH1 0x40 MSTORE DUP1 ISZERO PUSH2 0x40E JUMPI DUP2 PUSH1 0x20 ADD PUSH1 0x20 DUP3 MUL DUP1 CALLDATASIZE DUP4 CALLDATACOPY DUP1 DUP3 ADD SWAP2 POP POP SWAP1 POP JUMPDEST POP SWAP1 POP PUSH2 0x3E8 DUP2 PUSH0 DUP2 MLOAD DUP2 LT PUSH2 0x427 JUMPI PUSH2 0x426 PUSH2 0xC78 JUMP JUMPDEST JUMPDEST PUSH1 0x20 MUL PUSH1 0x20 ADD ADD DUP2 DUP2 MSTORE POP POP ADDRESS PUSH20 0xFFFFFFFFFFFFFFFFFFFFFFFFFFFFFFFFFFFFFFFF AND PUSH4 0x8B44CEF1 DUP3 PUSH1 0x40 MLOAD DUP3 PUSH4 0xFFFFFFFF AND PUSH1 0xE0 SHL DUP2 MSTORE PUSH1 0x4 ADD PUSH2 0x46C SWAP2 SWAP1 PUSH2 0xD5C JUMP JUMPDEST PUSH1 0x20 PUSH1 0x40 MLOAD DUP1 DUP4 SUB DUP2 DUP7 GAS STATICCALL ISZERO DUP1 ISZERO PUSH2 0x487 JUMPI RETURNDATASIZE PUSH0 DUP1 RETURNDATACOPY RETURNDATASIZE PUSH0 REVERT JUMPDEST POP POP POP POP PUSH1 0x40 MLOAD RETURNDATASIZE PUSH1 0x1F NOT PUSH1 0x1F DUP3 ADD AND DUP3 ADD DUP1 PUSH1 0x40 MSTORE POP DUP2 ADD SWAP1 PUSH2 0x4AB SWAP2 SWAP1 PUSH2 0xD90 JUMP JUMPDEST SWAP2 POP POP PUSH2 0x4CF JUMP JUMPDEST DUP2 DUP4 PUSH1 0x1 SLOAD PUSH2 0x4C2 SWAP2 SWAP1 PUSH2 0xDE8 JUMP JUMPDEST PUSH2 0x4CC SWAP2 SWAP1 PUSH2 0xDE8 JUMP JUMPDEST SWAP1 POP JUMPDEST SWAP3 SWAP2 POP POP JUMP JUMPDEST PUSH0 DUP1 PUSH1 0x7B SWAP1 POP PUSH2 0x7D0 DUP4 PUSH0 DUP2 MLOAD DUP2 LT PUSH2 0x4F1 JUMPI PUSH2 0x4F0 PUSH2 0xC78 JUMP JUMPDEST JUMPDEST PUSH1 0x20 MUL PUSH1 0x20 ADD ADD DUP2 DUP2 MSTORE POP POP DUP3 PUSH0 DUP2 MLOAD DUP2 LT PUSH2 0x510 JUMPI PUSH2 0x50F PUSH2 0xC78 JUMP JUMPDEST JUMPDEST PUSH1 0x20 MUL PUSH1 0x20 ADD ADD MLOAD DUP2 PUSH1 0x1 SLOAD PUSH2 0x526 SWAP2 SWAP1 PUSH2 0xDE8 JUMP JUMPDEST PUSH2 0x530 SWAP2 SWAP1 PUSH2 0xDE8 JUMP JUMPDEST SWAP2 POP POP SWAP2 SWAP1 POP JUMP JUMPDEST PUSH1 0x5 DUP2 DUP2 SLOAD DUP2 LT PUSH2 0x547 JUMPI PUSH0 DUP1 REVERT JUMPDEST SWAP1 PUSH0 MSTORE PUSH1 0x20 PUSH0 KECCAK256 SWAP1 PUSH1 0x2 MUL ADD PUSH0 SWAP2 POP SWAP1 POP DUP1 PUSH0 ADD DUP1 SLOAD PUSH2 0x566 SWAP1 PUSH2 0xC48 JUMP JUMPDEST DUP1 PUSH1 0x1F ADD PUSH1 0x20 DUP1 SWAP2 DIV MUL PUSH1 0x20 ADD PUSH1 0x40 MLOAD SWAP1 DUP2 ADD PUSH1 0x40 MSTORE DUP1 SWAP3 SWAP2 SWAP1 DUP2 DUP2 MSTORE PUSH1 0x20 ADD DUP3 DUP1 SLOAD PUSH2 0x592 SWAP1 PUSH2 0xC48 JUMP JUMPDEST DUP1 ISZERO PUSH2 0x5DD JUMPI DUP1 PUSH1 0x1F LT PUSH2 0x5B4 JUMPI PUSH2 0x100 DUP1 DUP4 SLOAD DIV MUL DUP4 MSTORE SWAP2 PUSH1 0x20 ADD SWAP2 PUSH2 0x5DD JUMP JUMPDEST DUP3 ADD SWAP2 SWAP1 PUSH0 MSTORE PUSH1 0x20 PUSH0 KECCAK256 SWAP1 JUMPDEST DUP2 SLOAD DUP2 MSTORE SWAP1 PUSH1 0x1 ADD SWAP1 PUSH1 0x20 ADD DUP1 DUP4 GT PUSH2 0x5C0 JUMPI DUP3 SWAP1 SUB PUSH1 0x1F AND DUP3 ADD SWAP2 JUMPDEST POP POP POP POP POP SWAP1 DUP1 PUSH1 0x1 ADD DUP1 SLOAD PUSH2 0x5F2 SWAP1 PUSH2 0xC48 JUMP JUMPDEST DUP1 PUSH1 0x1F ADD PUSH1 0x20 DUP1 SWAP2 DIV MUL PUSH1 0x20 ADD PUSH1 0x40 MLOAD SWAP1 DUP2 ADD PUSH1 0x40 MSTORE DUP1 SWAP3 SWAP2 SWAP1 DUP2 DUP2 MSTORE PUSH1 0x20 ADD DUP3 DUP1 SLOAD PUSH2 0x61E SWAP1 PUSH2 0xC48 JUMP JUMPDEST DUP1 ISZERO PUSH2 0x669 JUMPI DUP1 PUSH1 0x1F LT PUSH2 0x640 JUMPI PUSH2 0x100 DUP1 DUP4 SLOAD DIV MUL DUP4 MSTORE SWAP2 PUSH1 0x20 ADD SWAP2 PUSH2 0x669 JUMP JUMPDEST DUP3 ADD SWAP2 SWAP1 PUSH0 MSTORE PUSH1 0x20 PUSH0 KECCAK256 SWAP1 JUMPDEST DUP2 SLOAD DUP2 MSTORE SWAP1 PUSH1 0x1 ADD SWAP1 PUSH1 0x20 ADD DUP1 DUP4 GT PUSH2 0x64C JUMPI DUP3 SWAP1 SUB PUSH1 0x1F AND DUP3 ADD SWAP2 JUMPDEST POP POP POP POP POP SWAP1 POP DUP3 JUMP JUMPDEST PUSH0 PUSH1 0xA DUP4 GT PUSH2 0x6B7 JUMPI PUSH1 0x40 MLOAD PUSH32 0x8C379A000000000000000000000000000000000000000000000000000000000 DUP2 MSTORE PUSH1 0x4 ADD PUSH2 0x6AE SWAP1 PUSH2 0xE65 JUMP JUMPDEST PUSH1 0x40 MLOAD DUP1 SWAP2 SUB SWAP1 REVERT JUMPDEST PUSH1 0x1 DUP3 GT PUSH2 0x6C8 JUMPI PUSH2 0x6C7 PUSH2 0xE83 JUMP JUMPDEST JUMPDEST DUP2 DUP4 LT ISZERO PUSH2 0x711 JUMPI CALLER DUP4 DUP4 PUSH1 0x40 MLOAD PUSH32 0x83F7B88900000000000000000000000000000000000000000000000000000000 DUP2 MSTORE PUSH1 0x4 ADD PUSH2 0x708 SWAP4 SWAP3 SWAP2 SWAP1 PUSH2 0xEBF JUMP JUMPDEST PUSH1 0x40 MLOAD DUP1 SWAP2 SUB SWAP1 REVERT JUMPDEST DUP2 DUP4 PUSH2 0x71D SWAP2 SWAP1 PUSH2 0xEF4 JUMP JUMPDEST SWAP1 POP SWAP3 SWAP2 POP POP JUMP JUMPDEST PUSH1 0x3 DUP1 PUSH0 ADD DUP1 SLOAD PUSH2 0x735 SWAP1 PUSH2 0xC48 JUMP JUMPDEST DUP1 PUSH1 0x1F ADD PUSH1 0x20 DUP1 SWAP2 DIV MUL PUSH1 0x20 ADD PUSH1 0x40 MLOAD SWAP1 DUP2 ADD PUSH1 0x40 MSTORE DUP1 SWAP3 SWAP2 SWAP1 DUP2 DUP2 MSTORE PUSH1 0x20 ADD DUP3 DUP1 SLOAD PUSH2 0x761 SWAP1 PUSH2 0xC48 JUMP JUMPDEST DUP1 ISZERO PUSH2 0x7AC JUMPI DUP1 PUSH1 0x1F LT PUSH2 0x783 JUMPI PUSH2 0x100 DUP1 DUP4 SLOAD DIV MUL DUP4 MSTORE SWAP2 PUSH1 0x20 ADD SWAP2 PUSH2 0x7AC JUMP JUMPDEST DUP3 ADD SWAP2 SWAP1 PUSH0 MSTORE PUSH1 0x20 PUSH0 KECCAK256 SWAP1 JUMPDEST DUP2 SLOAD DUP2 MSTORE SWAP1 PUSH1 0x1 ADD SWAP1 PUSH1 0x20 ADD DUP1 DUP4 GT PUSH2 0x78F JUMPI DUP3 SWAP1 SUB PUSH1 0x1F AND DUP3 ADD SWAP2 JUMPDEST POP POP POP POP POP SWAP1 DUP1 PUSH1 0x1 ADD DUP1 SLOAD PUSH2 0x7C1 SWAP1 PUSH2 0xC48 JUMP JUMPDEST DUP1 PUSH1 0x1F ADD PUSH1 0x20 DUP1 SWAP2 DIV MUL PUSH1 0x20 ADD PUSH1 0x40 MLOAD SWAP1 DUP2 ADD PUSH1 0x40 MSTORE DUP1 SWAP3 SWAP2 SWAP1 DUP2 DUP2 MSTORE PUSH1 0x20 ADD DUP3 DUP1 SLOAD PUSH2 0x7ED SWAP1 PUSH2 0xC48 JUMP JUMPDEST DUP1 ISZERO PUSH2 0x838 JUMPI DUP1 PUSH1 0x1F LT PUSH2 0x80F JUMPI PUSH2 0x100 DUP1 DUP4 SLOAD DIV MUL DUP4 MSTORE SWAP2 PUSH1 0x20 ADD SWAP2 PUSH2 0x838 JUMP JUMPDEST DUP3 ADD SWAP2 SWAP1 PUSH0 MSTORE PUSH1 0x20 PUSH0 KECCAK256 SWAP1 JUMPDEST DUP2 SLOAD DUP2 MSTORE SWAP1 PUSH1 0x1 ADD SWAP1 PUSH1 0x20 ADD DUP1 DUP4 GT PUSH2 0x81B JUMPI DUP3 SWAP1 SUB PUSH1 0x1F AND DUP3 ADD SWAP2 JUMPDEST POP POP POP POP POP SWAP1 POP DUP3 JUMP JUMPDEST PUSH1 0x2 DUP2 DUP2 SLOAD DUP2 LT PUSH2 0x851 JUMPI PUSH0 DUP1 REVERT JUMPDEST SWAP1 PUSH0 MSTORE PUSH1 0x20 PUSH0 KECCAK256 ADD PUSH0 SWAP2 POP SWAP1 POP SLOAD DUP2 JUMP JUMPDEST PUSH0 DUP2 MLOAD SWAP1 POP SWAP2 SWAP1 POP JUMP JUMPDEST PUSH0 DUP3 DUP3 MSTORE PUSH1 0x20 DUP3 ADD SWAP1 POP SWAP3 SWAP2 POP POP JUMP JUMPDEST DUP3 DUP2 DUP4 MCOPY PUSH0 DUP4 DUP4 ADD MSTORE POP POP POP JUMP JUMPDEST PUSH0 PUSH1 0x1F NOT PUSH1 0x1F DUP4 ADD AND SWAP1 POP SWAP2 SWAP1 POP JUMP JUMPDEST PUSH0 PUSH2 0x8A4 DUP3 PUSH2 0x862 JUMP JUMPDEST PUSH2 0x8AE DUP2 DUP6 PUSH2 0x86C JUMP JUMPDEST SWAP4 POP PUSH2 0x8BE DUP2 DUP6 PUSH1 0x20 DUP7 ADD PUSH2 0x87C JUMP JUMPDEST PUSH2 0x8C7 DUP2 PUSH2 0x88A JUMP JUMPDEST DUP5 ADD SWAP2 POP POP SWAP3 SWAP2 POP POP JUMP JUMPDEST PUSH0 PUSH1 0x20 DUP3 ADD SWAP1 POP DUP2 DUP2 SUB PUSH0 DUP4 ADD MSTORE PUSH2 0x8EA DUP2 DUP5 PUSH2 0x89A JUMP JUMPDEST SWAP1 POP SWAP3 SWAP2 POP POP JUMP JUMPDEST PUSH0 PUSH1 0x40 MLOAD SWAP1 POP SWAP1 JUMP JUMPDEST PUSH0 DUP1 REVERT JUMPDEST PUSH0 DUP1 REVERT JUMPDEST PUSH0 PUSH20 0xFFFFFFFFFFFFFFFFFFFFFFFFFFFFFFFFFFFFFFFF DUP3 AND SWAP1 POP SWAP2 SWAP1 POP JUMP JUMPDEST PUSH0 PUSH2 0x92C DUP3 PUSH2 0x903 JUMP JUMPDEST SWAP1 POP SWAP2 SWAP1 POP JUMP JUMPDEST PUSH2 0x93C DUP2 PUSH2 0x922 JUMP JUMPDEST DUP2 EQ PUSH2 0x946 JUMPI PUSH0 DUP1 REVERT JUMPDEST POP JUMP JUMPDEST PUSH0 DUP2 CALLDATALOAD SWAP1 POP PUSH2 0x957 DUP2 PUSH2 0x933 JUMP JUMPDEST SWAP3 SWAP2 POP POP JUMP JUMPDEST PUSH0 DUP2 SWAP1 POP SWAP2 SWAP1 POP JUMP JUMPDEST PUSH2 0x96F DUP2 PUSH2 0x95D JUMP JUMPDEST DUP2 EQ PUSH2 0x979 JUMPI PUSH0 DUP1 REVERT JUMPDEST POP JUMP JUMPDEST PUSH0 DUP2 CALLDATALOAD SWAP1 POP PUSH2 0x98A DUP2 PUSH2 0x966 JUMP JUMPDEST SWAP3 SWAP2 POP POP JUMP JUMPDEST PUSH0 DUP1 PUSH1 0x40 DUP4 DUP6 SUB SLT ISZERO PUSH2 0x9A6 JUMPI PUSH2 0x9A5 PUSH2 0x8FB JUMP JUMPDEST JUMPDEST PUSH0 PUSH2 0x9B3 DUP6 DUP3 DUP7 ADD PUSH2 0x949 JUMP JUMPDEST SWAP3 POP POP PUSH1 0x20 PUSH2 0x9C4 DUP6 DUP3 DUP7 ADD PUSH2 0x97C JUMP JUMPDEST SWAP2 POP POP SWAP3 POP SWAP3 SWAP1 POP JUMP JUMPDEST PUSH0 PUSH1 0x40 DUP3 ADD SWAP1 POP DUP2 DUP2 SUB PUSH0 DUP4 ADD MSTORE PUSH2 0x9E6 DUP2 DUP6 PUSH2 0x89A JUMP JUMPDEST SWAP1 POP DUP2 DUP2 SUB PUSH1 0x20 DUP4 ADD MSTORE PUSH2 0x9FA DUP2 DUP5 PUSH2 0x89A JUMP JUMPDEST SWAP1 POP SWAP4 SWAP3 POP POP POP JUMP JUMPDEST PUSH0 DUP1 PUSH1 0x40 DUP4 DUP6 SUB SLT ISZERO PUSH2 0xA19 JUMPI PUSH2 0xA18 PUSH2 0x8FB JUMP JUMPDEST JUMPDEST PUSH0 PUSH2 0xA26 DUP6 DUP3 DUP7 ADD PUSH2 0x97C JUMP JUMPDEST SWAP3 POP POP PUSH1 0x20 PUSH2 0xA37 DUP6 DUP3 DUP7 ADD PUSH2 0x97C JUMP JUMPDEST SWAP2 POP POP SWAP3 POP SWAP3 SWAP1 POP JUMP JUMPDEST PUSH2 0xA4A DUP2 PUSH2 0x95D JUMP JUMPDEST DUP3 MSTORE POP POP JUMP JUMPDEST PUSH0 PUSH1 0x20 DUP3 ADD SWAP1 POP PUSH2 0xA63 PUSH0 DUP4 ADD DUP5 PUSH2 0xA41 JUMP JUMPDEST SWAP3 SWAP2 POP POP JUMP JUMPDEST PUSH0 DUP1 REVERT JUMPDEST PUSH32 0x4E487B7100000000000000000000000000000000000000000000000000000000 PUSH0 MSTORE PUSH1 0x41 PUSH1 0x4 MSTORE PUSH1 0x24 PUSH0 REVERT JUMPDEST PUSH2 0xAA3 DUP3 PUSH2 0x88A JUMP JUMPDEST DUP2 ADD DUP2 DUP2 LT PUSH8 0xFFFFFFFFFFFFFFFF DUP3 GT OR ISZERO PUSH2 0xAC2 JUMPI PUSH2 0xAC1 PUSH2 0xA6D JUMP JUMPDEST JUMPDEST DUP1 PUSH1 0x40 MSTORE POP POP POP JUMP JUMPDEST PUSH0 PUSH2 0xAD4 PUSH2 0x8F2 JUMP JUMPDEST SWAP1 POP PUSH2 0xAE0 DUP3 DUP3 PUSH2 0xA9A JUMP JUMPDEST SWAP2 SWAP1 POP JUMP JUMPDEST PUSH0 PUSH8 0xFFFFFFFFFFFFFFFF DUP3 GT ISZERO PUSH2 0xAFF JUMPI PUSH2 0xAFE PUSH2 0xA6D JUMP JUMPDEST JUMPDEST PUSH1 0x20 DUP3 MUL SWAP1 POP PUSH1 0x20 DUP2 ADD SWAP1 POP SWAP2 SWAP1 POP JUMP JUMPDEST PUSH0 DUP1 REVERT JUMPDEST PUSH0 PUSH2 0xB26 PUSH2 0xB21 DUP5 PUSH2 0xAE5 JUMP JUMPDEST PUSH2 0xACB JUMP JUMPDEST SWAP1 POP DUP1 DUP4 DUP3 MSTORE PUSH1 0x20 DUP3 ADD SWAP1 POP PUSH1 0x20 DUP5 MUL DUP4 ADD DUP6 DUP2 GT ISZERO PUSH2 0xB49 JUMPI PUSH2 0xB48 PUSH2 0xB10 JUMP JUMPDEST JUMPDEST DUP4 JUMPDEST DUP2 DUP2 LT ISZERO PUSH2 0xB72 JUMPI DUP1 PUSH2 0xB5E DUP9 DUP3 PUSH2 0x97C JUMP JUMPDEST DUP5 MSTORE PUSH1 0x20 DUP5 ADD SWAP4 POP POP PUSH1 0x20 DUP2 ADD SWAP1 POP PUSH2 0xB4B JUMP JUMPDEST POP POP POP SWAP4 SWAP3 POP POP POP JUMP JUMPDEST PUSH0 DUP3 PUSH1 0x1F DUP4 ADD SLT PUSH2 0xB90 JUMPI PUSH2 0xB8F PUSH2 0xA69 JUMP JUMPDEST JUMPDEST DUP2 CALLDATALOAD PUSH2 0xBA0 DUP5 DUP3 PUSH1 0x20 DUP7 ADD PUSH2 0xB14 JUMP JUMPDEST SWAP2 POP POP SWAP3 SWAP2 POP POP JUMP JUMPDEST PUSH0 PUSH1 0x20 DUP3 DUP5 SUB SLT ISZERO PUSH2 0xBBE JUMPI PUSH2 0xBBD PUSH2 0x8FB JUMP JUMPDEST JUMPDEST PUSH0 DUP3 ADD CALLDATALOAD PUSH8 0xFFFFFFFFFFFFFFFF DUP2 GT ISZERO PUSH2 0xBDB JUMPI PUSH2 0xBDA PUSH2 0x8FF JUMP JUMPDEST JUMPDEST PUSH2 0xBE7 DUP5 DUP3 DUP6 ADD PUSH2 0xB7C JUMP JUMPDEST SWAP2 POP POP SWAP3 SWAP2 POP POP JUMP JUMPDEST PUSH0 PUSH1 0x20 DUP3 DUP5 SUB SLT ISZERO PUSH2 0xC05 JUMPI PUSH2 0xC04 PUSH2 0x8FB JUMP JUMPDEST JUMPDEST PUSH0 PUSH2 0xC12 DUP5 DUP3 DUP6 ADD PUSH2 0x97C JUMP JUMPDEST SWAP2 POP POP SWAP3 SWAP2 POP POP JUMP JUMPDEST PUSH32 0x4E487B7100000000000000000000000000000000000000000000000000000000 PUSH0 MSTORE PUSH1 0x22 PUSH1 0x4 MSTORE PUSH1 0x24 PUSH0 REVERT JUMPDEST PUSH0 PUSH1 0x2 DUP3 DIV SWAP1 POP PUSH1 0x1 DUP3 AND DUP1 PUSH2 0xC5F JUMPI PUSH1 0x7F DUP3 AND SWAP2 POP JUMPDEST PUSH1 0x20 DUP3 LT DUP2 SUB PUSH2 0xC72 JUMPI PUSH2 0xC71 PUSH2 0xC1B JUMP JUMPDEST JUMPDEST POP SWAP2 SWAP1 POP JUMP JUMPDEST PUSH32 0x4E487B7100000000000000000000000000000000000000000000000000000000 PUSH0 MSTORE PUSH1 0x32 PUSH1 0x4 MSTORE PUSH1 0x24 PUSH0 REVERT JUMPDEST PUSH0 DUP2 MLOAD SWAP1 POP SWAP2 SWAP1 POP JUMP JUMPDEST PUSH0 DUP3 DUP3 MSTORE PUSH1 0x20 DUP3 ADD SWAP1 POP SWAP3 SWAP2 POP POP JUMP JUMPDEST PUSH0 DUP2 SWAP1 POP PUSH1 0x20 DUP3 ADD SWAP1 POP SWAP2 SWAP1 POP JUMP JUMPDEST PUSH2 0xCD7 DUP2 PUSH2 0x95D JUMP JUMPDEST DUP3 MSTORE POP POP JUMP JUMPDEST PUSH0 PUSH2 0xCE8 DUP4 DUP4 PUSH2 0xCCE JUMP JUMPDEST PUSH1 0x20 DUP4 ADD SWAP1 POP SWAP3 SWAP2 POP POP JUMP JUMPDEST PUSH0 PUSH1 0x20 DUP3 ADD SWAP1 POP SWAP2 SWAP1 POP JUMP JUMPDEST PUSH0 PUSH2 0xD0A DUP3 PUSH2 0xCA5 JUMP JUMPDEST PUSH2 0xD14 DUP2 DUP6 PUSH2 0xCAF JUMP JUMPDEST SWAP4 POP PUSH2 0xD1F DUP4 PUSH2 0xCBF JUMP JUMPDEST DUP1 PUSH0 JUMPDEST DUP4 DUP2 LT ISZERO PUSH2 0xD4F JUMPI DUP2 MLOAD PUSH2 0xD36 DUP9 DUP3 PUSH2 0xCDD JUMP JUMPDEST SWAP8 POP PUSH2 0xD41 DUP4 PUSH2 0xCF4 JUMP JUMPDEST SWAP3 POP POP PUSH1 0x1 DUP2 ADD SWAP1 POP PUSH2 0xD22 JUMP JUMPDEST POP DUP6 SWAP4 POP POP POP POP SWAP3 SWAP2 POP POP JUMP JUMPDEST PUSH0 PUSH1 0x20 DUP3 ADD SWAP1 POP DUP2 DUP2 SUB PUSH0 DUP4 ADD MSTORE PUSH2 0xD74 DUP2 DUP5 PUSH2 0xD00 JUMP JUMPDEST SWAP1 POP SWAP3 SWAP2 POP POP JUMP JUMPDEST PUSH0 DUP2 MLOAD SWAP1 POP PUSH2 0xD8A DUP2 PUSH2 0x966 JUMP JUMPDEST SWAP3 SWAP2 POP POP JUMP JUMPDEST PUSH0 PUSH1 0x20 DUP3 DUP5 SUB SLT ISZERO PUSH2 0xDA5 JUMPI PUSH2 0xDA4 PUSH2 0x8FB JUMP JUMPDEST JUMPDEST PUSH0 PUSH2 0xDB2 DUP5 DUP3 DUP6 ADD PUSH2 0xD7C JUMP JUMPDEST SWAP2 POP POP SWAP3 SWAP2 POP POP JUMP JUMPDEST PUSH32 0x4E487B7100000000000000000000000000000000000000000000000000000000 PUSH0 MSTORE PUSH1 0x11 PUSH1 0x4 MSTORE PUSH1 0x24 PUSH0 REVERT JUMPDEST PUSH0 PUSH2 0xDF2 DUP3 PUSH2 0x95D JUMP JUMPDEST SWAP2 POP PUSH2 0xDFD DUP4 PUSH2 0x95D JUMP JUMPDEST SWAP3 POP DUP3 DUP3 ADD SWAP1 POP DUP1 DUP3 GT ISZERO PUSH2 0xE15 JUMPI PUSH2 0xE14 PUSH2 0xDBB JUMP JUMPDEST JUMPDEST SWAP3 SWAP2 POP POP JUMP JUMPDEST PUSH32 0x61203E2031300000000000000000000000000000000000000000000000000000 PUSH0 DUP3 ADD MSTORE POP JUMP JUMPDEST PUSH0 PUSH2 0xE4F PUSH1 0x6 DUP4 PUSH2 0x86C JUMP JUMPDEST SWAP2 POP PUSH2 0xE5A DUP3 PUSH2 0xE1B JUMP JUMPDEST PUSH1 0x20 DUP3 ADD SWAP1 POP SWAP2 SWAP1 POP JUMP JUMPDEST PUSH0 PUSH1 0x20 DUP3 ADD SWAP1 POP DUP2 DUP2 SUB PUSH0 DUP4 ADD MSTORE PUSH2 0xE7C DUP2 PUSH2 0xE43 JUMP JUMPDEST SWAP1 POP SWAP2 SWAP1 POP JUMP JUMPDEST PUSH32 0x4E487B7100000000000000000000000000000000000000000000000000000000 PUSH0 MSTORE PUSH1 0x1 PUSH1 0x4 MSTORE PUSH1 0x24 PUSH0 REVERT JUMPDEST PUSH2 0xEB9 DUP2 PUSH2 0x922 JUMP JUMPDEST DUP3 MSTORE POP POP JUMP JUMPDEST PUSH0 PUSH1 0x60 DUP3 ADD SWAP1 POP PUSH2 0xED2 PUSH0 DUP4 ADD DUP7 PUSH2 0xEB0 JUMP JUMPDEST PUSH2 0xEDF PUSH1 0x20 DUP4 ADD DUP6 PUSH2 0xA41 JUMP JUMPDEST PUSH2 0xEEC PUSH1 0x40 DUP4 ADD DUP5 PUSH2 0xA41 JUMP JUMPDEST SWAP5 SWAP4 POP POP POP POP JUMP JUMPDEST PUSH0 PUSH2 0xEFE DUP3 PUSH2 0x95D JUMP JUMPDEST SWAP2 POP PUSH2 0xF09 DUP4 PUSH2 0x95D JUMP JUMPDEST SWAP3 POP DUP3 DUP3 SUB SWAP1 POP DUP2 DUP2 GT ISZERO PUSH2 0xF21 JUMPI PUSH2 0xF20 PUSH2 0xDBB JUMP JUMPDEST JUMPDEST SWAP3 SWAP2 POP POP JUMP INVALID LOG2 PUSH5 0x6970667358 0x22 SLT KECCAK256 CHAINID PC DUP2 EQ SWAP2 0xEF 0xC2 SWAP11 0xA6 PUSH26 0x5778B5A0C447EDE49FD8BCB872DBBB7EF05B4F2B25F064736F6C PUSH4 0x4300081A STOP CALLER "
				},
				"gasEstimates": {
					"creation": {
						"codeDepositCost": "786600",
						"executionCost": "infinite",
						"totalCost": "infinite"
					},
					"external": {
						"add(uint256,uint256)": "infinite",
						"foo(uint256[])": "infinite",
						"myString()": "infinite",
						"nums(uint256)": "infinite",
						"order()": "infinite",
						"orders(uint256)": "infinite",
						"ordersByOwner(address,uint256)": "infinite",
						"sub(uint256,uint256)": "infinite"
					}
				},
				"methodIdentifiers": {
					"add(uint256,uint256)": "771602f7",
					"foo(uint256[])": "8b44cef1",
					"myString()": "492bfa18",
					"nums(uint256)": "fd1ee54c",
					"order()": "bf15071d",
					"orders(uint256)": "a85c38ef",
					"ordersByOwner(address,uint256)": "4a562471",
					"sub(uint256,uint256)": "b67d77c5"
				}
			},
			"storageLayout": {
				"storage": [
					{
						"astId": 9,
						"contract": "HelloWorld.sol:HelloWorld",
						"label": "myString",
						"offset": 0,
						"slot": "0",
						"type": "t_string_storage"
					},
					{
						"astId": 11,
						"contract": "HelloWorld.sol:HelloWorld",
						"label": "myUint",
						"offset": 0,
						"slot": "1",
						"type": "t_uint256"
					},
					{
						"astId": 17,
						"contract": "HelloWorld.sol:HelloWorld",
						"label": "nums",
						"offset": 0,
						"slot": "2",
						"type": "t_array(t_uint256)dyn_storage"
					},
					{
						"astId": 20,
						"contract": "HelloWorld.sol:HelloWorld",
						"label": "order",
						"offset": 0,
						"slot": "3",
						"type": "t_struct(Order)6_storage"
					},
					{
						"astId": 24,
						"contract": "HelloWorld.sol:HelloWorld",
						"label": "orders",
						"offset": 0,
						"slot": "5",
						"type": "t_array(t_struct(Order)6_storage)dyn_storage"
					},
					{
						"astId": 30,
						"contract": "HelloWorld.sol:HelloWorld",
						"label": "ordersByOwner",
						"offset": 0,
						"slot": "6",
						"type": "t_mapping(t_address,t_array(t_struct(Order)6_storage)dyn_storage)"
					}
				],
				"types": {
					"t_address": {
						"encoding": "inplace",
						"label": "address",
						"numberOfBytes": "20"
					},
					"t_array(t_struct(Order)6_storage)dyn_storage": {
						"base": "t_struct(Order)6_storage",
						"encoding": "dynamic_array",
						"label": "struct Order[]",
						"numberOfBytes": "32"
					},
					"t_array(t_uint256)dyn_storage": {
						"base": "t_uint256",
						"encoding": "dynamic_array",
						"label": "uint256[]",
						"numberOfBytes": "32"
					},
					"t_mapping(t_address,t_array(t_struct(Order)6_storage)dyn_storage)": {
						"encoding": "mapping",
						"key": "t_address",
						"label": "mapping(address => struct Order[])",
						"numberOfBytes": "32",
						"value": "t_array(t_struct(Order)6_storage)dyn_storage"
					},
					"t_string_storage": {
						"encoding": "bytes",
						"label": "string",
						"numberOfBytes": "32"
					},
					"t_struct(Order)6_storage": {
						"encoding": "inplace",
						"label": "struct Order",
						"members": [
							{
								"astId": 3,
								"contract": "HelloWorld.sol:HelloWorld",
								"label": "name",
								"offset": 0,
								"slot": "0",
								"type": "t_string_storage"
							},
							{
								"astId": 5,
								"contract": "HelloWorld.sol:HelloWorld",
								"label": "creationDate",
								"offset": 0,
								"slot": "1",
								"type": "t_string_storage"
							}
						],
						"numberOfBytes": "64"
					},
					"t_uint256": {
						"encoding": "inplace",
						"label": "uint256",
						"numberOfBytes": "32"
					}
				}
			},
			"userdoc": {
				"kind": "user",
				"methods": {},
				"version": 1
			}
		}
	}
}