{
	"contracts/Tasks.sol": {
		"TodoList": {
			"abi": [
				{
					"anonymous": false,
					"inputs": [
						{
							"indexed": true,
							"internalType": "address",
							"name": "account",
							"type": "address"
						},
						{
							"indexed": false,
							"internalType": "uint256",
							"name": "balance",
							"type": "uint256"
						}
					],
					"name": "Log",
					"type": "event"
				},
				{
					"inputs": [
						{
							"internalType": "string",
							"name": "content",
							"type": "string"
						},
						{
							"internalType": "enum TodoList.Status",
							"name": "status",
							"type": "uint8"
						}
					],
					"name": "create",
					"outputs": [
						{
							"components": [
								{
									"internalType": "uint256",
									"name": "id",
									"type": "uint256"
								},
								{
									"internalType": "string",
									"name": "content",
									"type": "string"
								},
								{
									"internalType": "enum TodoList.Status",
									"name": "status",
									"type": "uint8"
								},
								{
									"internalType": "uint256",
									"name": "createdAt",
									"type": "uint256"
								},
								{
									"internalType": "address",
									"name": "createdBy",
									"type": "address"
								}
							],
							"internalType": "struct TodoList.Task",
							"name": "",
							"type": "tuple"
						}
					],
					"stateMutability": "payable",
					"type": "function"
				},
				{
					"inputs": [],
					"name": "getAll",
					"outputs": [
						{
							"components": [
								{
									"internalType": "uint256",
									"name": "id",
									"type": "uint256"
								},
								{
									"internalType": "string",
									"name": "content",
									"type": "string"
								},
								{
									"internalType": "enum TodoList.Status",
									"name": "status",
									"type": "uint8"
								},
								{
									"internalType": "uint256",
									"name": "createdAt",
									"type": "uint256"
								},
								{
									"internalType": "address",
									"name": "createdBy",
									"type": "address"
								}
							],
							"internalType": "struct TodoList.Task[]",
							"name": "",
							"type": "tuple[]"
						}
					],
					"stateMutability": "view",
					"type": "function"
				},
				{
					"inputs": [
						{
							"internalType": "uint256",
							"name": "id",
							"type": "uint256"
						}
					],
					"name": "remove",
					"outputs": [
						{
							"internalType": "bool",
							"name": "",
							"type": "bool"
						}
					],
					"stateMutability": "nonpayable",
					"type": "function"
				},
				{
					"inputs": [
						{
							"internalType": "uint256",
							"name": "id",
							"type": "uint256"
						},
						{
							"internalType": "string",
							"name": "content",
							"type": "string"
						},
						{
							"internalType": "enum TodoList.Status",
							"name": "status",
							"type": "uint8"
						}
					],
					"name": "update",
					"outputs": [
						{
							"components": [
								{
									"internalType": "uint256",
									"name": "id",
									"type": "uint256"
								},
								{
									"internalType": "string",
									"name": "content",
									"type": "string"
								},
								{
									"internalType": "enum TodoList.Status",
									"name": "status",
									"type": "uint8"
								},
								{
									"internalType": "uint256",
									"name": "createdAt",
									"type": "uint256"
								},
								{
									"internalType": "address",
									"name": "createdBy",
									"type": "address"
								}
							],
							"internalType": "struct TodoList.Task",
							"name": "",
							"type": "tuple"
						}
					],
					"stateMutability": "nonpayable",
					"type": "function"
				}
			],
			"devdoc": {
				"kind": "dev",
				"methods": {},
				"version": 1
			},
			"evm": {
				"assembly": "    /* \"contracts/Tasks.sol\":70:3323  contract TodoList {... */\n  mstore(0x40, 0x80)\n  callvalue\n  dup1\n  iszero\n  tag_1\n  jumpi\n  0x00\n  dup1\n  revert\ntag_1:\n  pop\n  dataSize(sub_0)\n  dup1\n  dataOffset(sub_0)\n  0x00\n  codecopy\n  0x00\n  return\nstop\n\nsub_0: assembly {\n        /* \"contracts/Tasks.sol\":70:3323  contract TodoList {... */\n      mstore(0x40, 0x80)\n      jumpi(tag_1, lt(calldatasize, 0x04))\n      shr(0xe0, calldataload(0x00))\n      dup1\n      0x4cc82215\n      eq\n      tag_2\n      jumpi\n      dup1\n      0x53ed5143\n      eq\n      tag_3\n      jumpi\n      dup1\n      0xda043b9c\n      eq\n      tag_4\n      jumpi\n      dup1\n      0xde8f2e8d\n      eq\n      tag_5\n      jumpi\n    tag_1:\n      0x00\n      dup1\n      revert\n        /* \"contracts/Tasks.sol\":2351:2886  function remove(uint id) external returns (bool) {... */\n    tag_2:\n      callvalue\n      dup1\n      iszero\n      tag_6\n      jumpi\n      0x00\n      dup1\n      revert\n    tag_6:\n      pop\n      tag_7\n      0x04\n      dup1\n      calldatasize\n      sub\n      dup2\n      add\n      swap1\n      tag_8\n      swap2\n      swap1\n      tag_9\n      jump\t// in\n    tag_8:\n      tag_10\n      jump\t// in\n    tag_7:\n      mload(0x40)\n      tag_11\n      swap2\n      swap1\n      tag_12\n      jump\t// in\n    tag_11:\n      mload(0x40)\n      dup1\n      swap2\n      sub\n      swap1\n      return\n        /* \"contracts/Tasks.sol\":2892:3319  function getAll() external view returns (Task[] memory) {... */\n    tag_3:\n      callvalue\n      dup1\n      iszero\n      tag_13\n      jumpi\n      0x00\n      dup1\n      revert\n    tag_13:\n      pop\n      tag_14\n      tag_15\n      jump\t// in\n    tag_14:\n      mload(0x40)\n      tag_16\n      swap2\n      swap1\n      tag_17\n      jump\t// in\n    tag_16:\n      mload(0x40)\n      dup1\n      swap2\n      sub\n      swap1\n      return\n        /* \"contracts/Tasks.sol\":1309:2345  function update(uint id, string calldata content, Status status) external returns (Task memory) {... */\n    tag_4:\n      callvalue\n      dup1\n      iszero\n      tag_18\n      jumpi\n      0x00\n      dup1\n      revert\n    tag_18:\n      pop\n      tag_19\n      0x04\n      dup1\n      calldatasize\n      sub\n      dup2\n      add\n      swap1\n      tag_20\n      swap2\n      swap1\n      tag_21\n      jump\t// in\n    tag_20:\n      tag_22\n      jump\t// in\n    tag_19:\n      mload(0x40)\n      tag_23\n      swap2\n      swap1\n      tag_24\n      jump\t// in\n    tag_23:\n      mload(0x40)\n      dup1\n      swap2\n      sub\n      swap1\n      return\n        /* \"contracts/Tasks.sol\":512:1303  function create(string calldata content, Status status) external payable returns (Task memory) {... */\n    tag_5:\n      tag_25\n      0x04\n      dup1\n      calldatasize\n      sub\n      dup2\n      add\n      swap1\n      tag_26\n      swap2\n      swap1\n      tag_27\n      jump\t// in\n    tag_26:\n      tag_28\n      jump\t// in\n    tag_25:\n      mload(0x40)\n      tag_29\n      swap2\n      swap1\n      tag_24\n      jump\t// in\n    tag_29:\n      mload(0x40)\n      dup1\n      swap2\n      sub\n      swap1\n      return\n        /* \"contracts/Tasks.sol\":2351:2886  function remove(uint id) external returns (bool) {... */\n    tag_10:\n        /* \"contracts/Tasks.sol\":2394:2398  bool */\n      0x00\n        /* \"contracts/Tasks.sol\":2423:2424  0 */\n      dup1\n        /* \"contracts/Tasks.sol\":2418:2420  id */\n      dup3\n        /* \"contracts/Tasks.sol\":2418:2424  id > 0 */\n      gt\n        /* \"contracts/Tasks.sol\":2410:2446  require(id > 0, \"Id must be over 0\") */\n      tag_31\n      jumpi\n      mload(0x40)\n      0x08c379a000000000000000000000000000000000000000000000000000000000\n      dup2\n      mstore\n      0x04\n      add\n      tag_32\n      swap1\n      tag_33\n      jump\t// in\n    tag_32:\n      mload(0x40)\n      dup1\n      swap2\n      sub\n      swap1\n      revert\n    tag_31:\n        /* \"contracts/Tasks.sol\":2457:2473  Task memory task */\n      0x00\n        /* \"contracts/Tasks.sol\":2476:2485  tasksList */\n      dup1\n        /* \"contracts/Tasks.sol\":2476:2489  tasksList[id] */\n      0x00\n        /* \"contracts/Tasks.sol\":2486:2488  id */\n      dup5\n        /* \"contracts/Tasks.sol\":2476:2489  tasksList[id] */\n      dup2\n      mstore\n      0x20\n      add\n      swap1\n      dup2\n      mstore\n      0x20\n      add\n      0x00\n      keccak256\n        /* \"contracts/Tasks.sol\":2457:2489  Task memory task = tasksList[id] */\n      mload(0x40)\n      dup1\n      0xa0\n      add\n      0x40\n      mstore\n      swap1\n      dup2\n      0x00\n      dup3\n      add\n      sload\n      dup2\n      mstore\n      0x20\n      add\n      0x01\n      dup3\n      add\n      dup1\n      sload\n      tag_34\n      swap1\n      tag_35\n      jump\t// in\n    tag_34:\n      dup1\n      0x1f\n      add\n      0x20\n      dup1\n      swap2\n      div\n      mul\n      0x20\n      add\n      mload(0x40)\n      swap1\n      dup2\n      add\n      0x40\n      mstore\n      dup1\n      swap3\n      swap2\n      swap1\n      dup2\n      dup2\n      mstore\n      0x20\n      add\n      dup3\n      dup1\n      sload\n      tag_36\n      swap1\n      tag_35\n      jump\t// in\n    tag_36:\n      dup1\n      iszero\n      tag_37\n      jumpi\n      dup1\n      0x1f\n      lt\n      tag_38\n      jumpi\n      0x0100\n      dup1\n      dup4\n      sload\n      div\n      mul\n      dup4\n      mstore\n      swap2\n      0x20\n      add\n      swap2\n      jump(tag_37)\n    tag_38:\n      dup3\n      add\n      swap2\n      swap1\n      0x00\n      mstore\n      keccak256(0x00, 0x20)\n      swap1\n    tag_39:\n      dup2\n      sload\n      dup2\n      mstore\n      swap1\n      0x01\n      add\n      swap1\n      0x20\n      add\n      dup1\n      dup4\n      gt\n      tag_39\n      jumpi\n      dup3\n      swap1\n      sub\n      0x1f\n      and\n      dup3\n      add\n      swap2\n    tag_37:\n      pop\n      pop\n      pop\n      pop\n      pop\n      dup2\n      mstore\n      0x20\n      add\n      0x02\n      dup3\n      add\n      0x00\n      swap1\n      sload\n      swap1\n      0x0100\n      exp\n      swap1\n      div\n      0xff\n      and\n      0x03\n      dup2\n      gt\n      iszero\n      tag_40\n      jumpi\n      tag_41\n      tag_42\n      jump\t// in\n    tag_41:\n    tag_40:\n      0x03\n      dup2\n      gt\n      iszero\n      tag_43\n      jumpi\n      tag_44\n      tag_42\n      jump\t// in\n    tag_44:\n    tag_43:\n      dup2\n      mstore\n      0x20\n      add\n      0x03\n      dup3\n      add\n      sload\n      dup2\n      mstore\n      0x20\n      add\n      0x04\n      dup3\n      add\n      0x00\n      swap1\n      sload\n      swap1\n      0x0100\n      exp\n      swap1\n      div\n      0xffffffffffffffffffffffffffffffffffffffff\n      and\n      0xffffffffffffffffffffffffffffffffffffffff\n      and\n      0xffffffffffffffffffffffffffffffffffffffff\n      and\n      dup2\n      mstore\n      pop\n      pop\n      swap1\n      pop\n        /* \"contracts/Tasks.sol\":2521:2525  task */\n      dup1\n        /* \"contracts/Tasks.sol\":2521:2535  task.createdBy */\n      0x80\n      add\n      mload\n        /* \"contracts/Tasks.sol\":2507:2535  msg.sender == task.createdBy */\n      0xffffffffffffffffffffffffffffffffffffffff\n      and\n        /* \"contracts/Tasks.sol\":2507:2517  msg.sender */\n      caller\n        /* \"contracts/Tasks.sol\":2507:2535  msg.sender == task.createdBy */\n      0xffffffffffffffffffffffffffffffffffffffff\n      and\n      eq\n        /* \"contracts/Tasks.sol\":2499:2552  require(msg.sender == task.createdBy, \"Unauthorized\") */\n      tag_45\n      jumpi\n      mload(0x40)\n      0x08c379a000000000000000000000000000000000000000000000000000000000\n      dup2\n      mstore\n      0x04\n      add\n      tag_46\n      swap1\n      tag_47\n      jump\t// in\n    tag_46:\n      mload(0x40)\n      dup1\n      swap2\n      sub\n      swap1\n      revert\n    tag_45:\n        /* \"contracts/Tasks.sol\":2578:2579  0 */\n      0x00\n        /* \"contracts/Tasks.sol\":2567:2571  task */\n      dup2\n        /* \"contracts/Tasks.sol\":2567:2574  task.id */\n      0x00\n      add\n      mload\n        /* \"contracts/Tasks.sol\":2567:2579  task.id == 0 */\n      sub\n        /* \"contracts/Tasks.sol\":2563:2633  if (task.id == 0) {... */\n      tag_48\n      jumpi\n        /* \"contracts/Tasks.sol\":2595:2622  revert(\"Task is not found\") */\n      mload(0x40)\n      0x08c379a000000000000000000000000000000000000000000000000000000000\n      dup2\n      mstore\n      0x04\n      add\n      tag_49\n      swap1\n      tag_50\n      jump\t// in\n    tag_49:\n      mload(0x40)\n      dup1\n      swap2\n      sub\n      swap1\n      revert\n        /* \"contracts/Tasks.sol\":2563:2633  if (task.id == 0) {... */\n    tag_48:\n        /* \"contracts/Tasks.sol\":2650:2659  tasksList */\n      0x00\n        /* \"contracts/Tasks.sol\":2650:2663  tasksList[id] */\n      dup1\n        /* \"contracts/Tasks.sol\":2660:2662  id */\n      dup5\n        /* \"contracts/Tasks.sol\":2650:2663  tasksList[id] */\n      dup2\n      mstore\n      0x20\n      add\n      swap1\n      dup2\n      mstore\n      0x20\n      add\n      0x00\n      keccak256\n      0x00\n        /* \"contracts/Tasks.sol\":2643:2663  delete tasksList[id] */\n      dup1\n      dup3\n      add\n      0x00\n      swap1\n      sstore\n      0x01\n      dup3\n      add\n      0x00\n      tag_51\n      swap2\n      swap1\n      tag_52\n      jump\t// in\n    tag_51:\n      0x02\n      dup3\n      add\n      exp(0x0100, 0x00)\n      dup2\n      sload\n      swap1\n      0xff\n      mul\n      not\n      and\n      swap1\n      sstore\n      0x03\n      dup3\n      add\n      0x00\n      swap1\n      sstore\n      0x04\n      dup3\n      add\n      exp(0x0100, 0x00)\n      dup2\n      sload\n      swap1\n      0xffffffffffffffffffffffffffffffffffffffff\n      mul\n      not\n      and\n      swap1\n      sstore\n      pop\n      pop\n        /* \"contracts/Tasks.sol\":2675:2684  bool sent */\n      0x00\n        /* \"contracts/Tasks.sol\":2689:2699  msg.sender */\n      caller\n        /* \"contracts/Tasks.sol\":2689:2704  msg.sender.call */\n      0xffffffffffffffffffffffffffffffffffffffff\n      and\n        /* \"contracts/Tasks.sol\":2712:2722  0.01 ether */\n      0x2386f26fc10000\n        /* \"contracts/Tasks.sol\":2689:2727  msg.sender.call{value: 0.01 ether}(\"\") */\n      mload(0x40)\n      tag_53\n      swap1\n      tag_54\n      jump\t// in\n    tag_53:\n      0x00\n      mload(0x40)\n      dup1\n      dup4\n      sub\n      dup2\n      dup6\n      dup8\n      gas\n      call\n      swap3\n      pop\n      pop\n      pop\n      returndatasize\n      dup1\n      0x00\n      dup2\n      eq\n      tag_57\n      jumpi\n      mload(0x40)\n      swap2\n      pop\n      and(add(returndatasize, 0x3f), not(0x1f))\n      dup3\n      add\n      0x40\n      mstore\n      returndatasize\n      dup3\n      mstore\n      returndatasize\n      0x00\n      0x20\n      dup5\n      add\n      returndatacopy\n      jump(tag_56)\n    tag_57:\n      0x60\n      swap2\n      pop\n    tag_56:\n      pop\n        /* \"contracts/Tasks.sol\":2674:2727  (bool sent,) = msg.sender.call{value: 0.01 ether}(\"\") */\n      pop\n      swap1\n      pop\n        /* \"contracts/Tasks.sol\":2745:2749  sent */\n      dup1\n        /* \"contracts/Tasks.sol\":2737:2750  require(sent) */\n      tag_58\n      jumpi\n      0x00\n      dup1\n      revert\n    tag_58:\n        /* \"contracts/Tasks.sol\":2770:2780  msg.sender */\n      caller\n        /* \"contracts/Tasks.sol\":2766:2801  Log(msg.sender, msg.sender.balance) */\n      0xffffffffffffffffffffffffffffffffffffffff\n      and\n      0xf950957d2407bed19dc99b718b46b4ce6090c05589006dfb86fd22c34865b23e\n        /* \"contracts/Tasks.sol\":2782:2792  msg.sender */\n      caller\n        /* \"contracts/Tasks.sol\":2782:2800  msg.sender.balance */\n      0xffffffffffffffffffffffffffffffffffffffff\n      and\n      balance\n        /* \"contracts/Tasks.sol\":2766:2801  Log(msg.sender, msg.sender.balance) */\n      mload(0x40)\n      tag_59\n      swap2\n      swap1\n      tag_60\n      jump\t// in\n    tag_59:\n      mload(0x40)\n      dup1\n      swap2\n      sub\n      swap1\n      log2\n        /* \"contracts/Tasks.sol\":2828:2832  this */\n      address\n        /* \"contracts/Tasks.sol\":2816:2857  Log(address(this), address(this).balance) */\n      0xffffffffffffffffffffffffffffffffffffffff\n      and\n      0xf950957d2407bed19dc99b718b46b4ce6090c05589006dfb86fd22c34865b23e\n        /* \"contracts/Tasks.sol\":2835:2856  address(this).balance */\n      selfbalance\n        /* \"contracts/Tasks.sol\":2816:2857  Log(address(this), address(this).balance) */\n      mload(0x40)\n      tag_61\n      swap2\n      swap1\n      tag_60\n      jump\t// in\n    tag_61:\n      mload(0x40)\n      dup1\n      swap2\n      sub\n      swap1\n      log2\n        /* \"contracts/Tasks.sol\":2875:2879  true */\n      0x01\n        /* \"contracts/Tasks.sol\":2868:2879  return true */\n      swap3\n      pop\n      pop\n      pop\n        /* \"contracts/Tasks.sol\":2351:2886  function remove(uint id) external returns (bool) {... */\n      swap2\n      swap1\n      pop\n      jump\t// out\n        /* \"contracts/Tasks.sol\":2892:3319  function getAll() external view returns (Task[] memory) {... */\n    tag_15:\n        /* \"contracts/Tasks.sol\":2933:2946  Task[] memory */\n      0x60\n        /* \"contracts/Tasks.sol\":2967:2986  Task[] memory tasks */\n      0x00\n        /* \"contracts/Tasks.sol\":3000:3006  taskId */\n      sload(0x01)\n        /* \"contracts/Tasks.sol\":2989:3007  new Task[](taskId) */\n      0xffffffffffffffff\n      dup2\n      gt\n      iszero\n      tag_63\n      jumpi\n      tag_64\n      tag_65\n      jump\t// in\n    tag_64:\n    tag_63:\n      mload(0x40)\n      swap1\n      dup1\n      dup3\n      mstore\n      dup1\n      0x20\n      mul\n      0x20\n      add\n      dup3\n      add\n      0x40\n      mstore\n      dup1\n      iszero\n      tag_66\n      jumpi\n      dup2\n      0x20\n      add\n    tag_67:\n      tag_68\n      tag_69\n      jump\t// in\n    tag_68:\n      dup2\n      mstore\n      0x20\n      add\n      swap1\n      0x01\n      swap1\n      sub\n      swap1\n      dup2\n      tag_67\n      jumpi\n      swap1\n      pop\n    tag_66:\n      pop\n        /* \"contracts/Tasks.sol\":2967:3007  Task[] memory tasks = new Task[](taskId) */\n      swap1\n      pop\n        /* \"contracts/Tasks.sol\":3017:3023  uint j */\n      0x00\n        /* \"contracts/Tasks.sol\":3043:3049  uint i */\n      dup1\n        /* \"contracts/Tasks.sol\":3038:3289  for (uint i = 0; i <= taskId; i++) {... */\n    tag_70:\n        /* \"contracts/Tasks.sol\":3060:3066  taskId */\n      sload(0x01)\n        /* \"contracts/Tasks.sol\":3055:3056  i */\n      dup2\n        /* \"contracts/Tasks.sol\":3055:3066  i <= taskId */\n      gt\n        /* \"contracts/Tasks.sol\":3038:3289  for (uint i = 0; i <= taskId; i++) {... */\n      tag_71\n      jumpi\n        /* \"contracts/Tasks.sol\":3087:3103  Task memory task */\n      0x00\n        /* \"contracts/Tasks.sol\":3106:3115  tasksList */\n      dup1\n        /* \"contracts/Tasks.sol\":3106:3118  tasksList[i] */\n      0x00\n        /* \"contracts/Tasks.sol\":3116:3117  i */\n      dup4\n        /* \"contracts/Tasks.sol\":3106:3118  tasksList[i] */\n      dup2\n      mstore\n      0x20\n      add\n      swap1\n      dup2\n      mstore\n      0x20\n      add\n      0x00\n      keccak256\n        /* \"contracts/Tasks.sol\":3087:3118  Task memory task = tasksList[i] */\n      mload(0x40)\n      dup1\n      0xa0\n      add\n      0x40\n      mstore\n      swap1\n      dup2\n      0x00\n      dup3\n      add\n      sload\n      dup2\n      mstore\n      0x20\n      add\n      0x01\n      dup3\n      add\n      dup1\n      sload\n      tag_73\n      swap1\n      tag_35\n      jump\t// in\n    tag_73:\n      dup1\n      0x1f\n      add\n      0x20\n      dup1\n      swap2\n      div\n      mul\n      0x20\n      add\n      mload(0x40)\n      swap1\n      dup2\n      add\n      0x40\n      mstore\n      dup1\n      swap3\n      swap2\n      swap1\n      dup2\n      dup2\n      mstore\n      0x20\n      add\n      dup3\n      dup1\n      sload\n      tag_74\n      swap1\n      tag_35\n      jump\t// in\n    tag_74:\n      dup1\n      iszero\n      tag_75\n      jumpi\n      dup1\n      0x1f\n      lt\n      tag_76\n      jumpi\n      0x0100\n      dup1\n      dup4\n      sload\n      div\n      mul\n      dup4\n      mstore\n      swap2\n      0x20\n      add\n      swap2\n      jump(tag_75)\n    tag_76:\n      dup3\n      add\n      swap2\n      swap1\n      0x00\n      mstore\n      keccak256(0x00, 0x20)\n      swap1\n    tag_77:\n      dup2\n      sload\n      dup2\n      mstore\n      swap1\n      0x01\n      add\n      swap1\n      0x20\n      add\n      dup1\n      dup4\n      gt\n      tag_77\n      jumpi\n      dup3\n      swap1\n      sub\n      0x1f\n      and\n      dup3\n      add\n      swap2\n    tag_75:\n      pop\n      pop\n      pop\n      pop\n      pop\n      dup2\n      mstore\n      0x20\n      add\n      0x02\n      dup3\n      add\n      0x00\n      swap1\n      sload\n      swap1\n      0x0100\n      exp\n      swap1\n      div\n      0xff\n      and\n      0x03\n      dup2\n      gt\n      iszero\n      tag_78\n      jumpi\n      tag_79\n      tag_42\n      jump\t// in\n    tag_79:\n    tag_78:\n      0x03\n      dup2\n      gt\n      iszero\n      tag_80\n      jumpi\n      tag_81\n      tag_42\n      jump\t// in\n    tag_81:\n    tag_80:\n      dup2\n      mstore\n      0x20\n      add\n      0x03\n      dup3\n      add\n      sload\n      dup2\n      mstore\n      0x20\n      add\n      0x04\n      dup3\n      add\n      0x00\n      swap1\n      sload\n      swap1\n      0x0100\n      exp\n      swap1\n      div\n      0xffffffffffffffffffffffffffffffffffffffff\n      and\n      0xffffffffffffffffffffffffffffffffffffffff\n      and\n      0xffffffffffffffffffffffffffffffffffffffff\n      and\n      dup2\n      mstore\n      pop\n      pop\n      swap1\n      pop\n        /* \"contracts/Tasks.sol\":3156:3157  0 */\n      0x00\n        /* \"contracts/Tasks.sol\":3145:3149  task */\n      dup2\n        /* \"contracts/Tasks.sol\":3145:3152  task.id */\n      0x00\n      add\n      mload\n        /* \"contracts/Tasks.sol\":3145:3157  task.id == 0 */\n      eq\n        /* \"contracts/Tasks.sol\":3145:3189  task.id == 0 || task.createdBy != msg.sender */\n      dup1\n      tag_82\n      jumpi\n      pop\n        /* \"contracts/Tasks.sol\":3179:3189  msg.sender */\n      caller\n        /* \"contracts/Tasks.sol\":3161:3189  task.createdBy != msg.sender */\n      0xffffffffffffffffffffffffffffffffffffffff\n      and\n        /* \"contracts/Tasks.sol\":3161:3165  task */\n      dup2\n        /* \"contracts/Tasks.sol\":3161:3175  task.createdBy */\n      0x80\n      add\n      mload\n        /* \"contracts/Tasks.sol\":3161:3189  task.createdBy != msg.sender */\n      0xffffffffffffffffffffffffffffffffffffffff\n      and\n      eq\n      iszero\n        /* \"contracts/Tasks.sol\":3145:3189  task.id == 0 || task.createdBy != msg.sender */\n    tag_82:\n        /* \"contracts/Tasks.sol\":3141:3232  if (task.id == 0 || task.createdBy != msg.sender) {... */\n      iszero\n      tag_83\n      jumpi\n        /* \"contracts/Tasks.sol\":3209:3217  continue */\n      pop\n      jump(tag_72)\n        /* \"contracts/Tasks.sol\":3141:3232  if (task.id == 0 || task.createdBy != msg.sender) {... */\n    tag_83:\n        /* \"contracts/Tasks.sol\":3257:3261  task */\n      dup1\n        /* \"contracts/Tasks.sol\":3246:3251  tasks */\n      dup5\n        /* \"contracts/Tasks.sol\":3252:3253  j */\n      dup5\n        /* \"contracts/Tasks.sol\":3246:3254  tasks[j] */\n      dup2\n      mload\n      dup2\n      lt\n      tag_84\n      jumpi\n      tag_85\n      tag_86\n      jump\t// in\n    tag_85:\n    tag_84:\n      0x20\n      mul\n      0x20\n      add\n      add\n        /* \"contracts/Tasks.sol\":3246:3261  tasks[j] = task */\n      dup2\n      swap1\n      mstore\n      pop\n        /* \"contracts/Tasks.sol\":3275:3278  j++ */\n      dup3\n      dup1\n      tag_87\n      swap1\n      tag_88\n      jump\t// in\n    tag_87:\n      swap4\n      pop\n      pop\n        /* \"contracts/Tasks.sol\":3073:3289  {... */\n      pop\n        /* \"contracts/Tasks.sol\":3038:3289  for (uint i = 0; i <= taskId; i++) {... */\n    tag_72:\n        /* \"contracts/Tasks.sol\":3068:3071  i++ */\n      dup1\n      dup1\n      tag_89\n      swap1\n      tag_88\n      jump\t// in\n    tag_89:\n      swap2\n      pop\n      pop\n        /* \"contracts/Tasks.sol\":3038:3289  for (uint i = 0; i <= taskId; i++) {... */\n      jump(tag_70)\n    tag_71:\n      pop\n        /* \"contracts/Tasks.sol\":3307:3312  tasks */\n      dup2\n        /* \"contracts/Tasks.sol\":3300:3312  return tasks */\n      swap3\n      pop\n      pop\n      pop\n        /* \"contracts/Tasks.sol\":2892:3319  function getAll() external view returns (Task[] memory) {... */\n      swap1\n      jump\t// out\n        /* \"contracts/Tasks.sol\":1309:2345  function update(uint id, string calldata content, Status status) external returns (Task memory) {... */\n    tag_22:\n        /* \"contracts/Tasks.sol\":1392:1403  Task memory */\n      tag_90\n      tag_69\n      jump\t// in\n    tag_90:\n        /* \"contracts/Tasks.sol\":1428:1429  0 */\n      0x00\n        /* \"contracts/Tasks.sol\":1423:1425  id */\n      dup6\n        /* \"contracts/Tasks.sol\":1423:1429  id > 0 */\n      gt\n        /* \"contracts/Tasks.sol\":1415:1451  require(id > 0, \"Id must be over 0\") */\n      tag_92\n      jumpi\n      mload(0x40)\n      0x08c379a000000000000000000000000000000000000000000000000000000000\n      dup2\n      mstore\n      0x04\n      add\n      tag_93\n      swap1\n      tag_33\n      jump\t// in\n    tag_93:\n      mload(0x40)\n      dup1\n      swap2\n      sub\n      swap1\n      revert\n    tag_92:\n        /* \"contracts/Tasks.sol\":1493:1494  0 */\n      0x00\n        /* \"contracts/Tasks.sol\":1475:1482  content */\n      dup5\n      dup5\n        /* \"contracts/Tasks.sol\":1469:1490  bytes(content).length */\n      swap1\n      pop\n        /* \"contracts/Tasks.sol\":1469:1494  bytes(content).length > 0 */\n      gt\n        /* \"contracts/Tasks.sol\":1461:1524  require(bytes(content).length > 0, \"Content must not be empty\") */\n      tag_94\n      jumpi\n      mload(0x40)\n      0x08c379a000000000000000000000000000000000000000000000000000000000\n      dup2\n      mstore\n      0x04\n      add\n      tag_95\n      swap1\n      tag_96\n      jump\t// in\n    tag_95:\n      mload(0x40)\n      dup1\n      swap2\n      sub\n      swap1\n      revert\n    tag_94:\n        /* \"contracts/Tasks.sol\":1552:1563  Status.NONE */\n      0x00\n        /* \"contracts/Tasks.sol\":1542:1563  status != Status.NONE */\n      0x03\n      dup2\n      gt\n      iszero\n      tag_97\n      jumpi\n      tag_98\n      tag_42\n      jump\t// in\n    tag_98:\n    tag_97:\n        /* \"contracts/Tasks.sol\":1542:1548  status */\n      dup3\n        /* \"contracts/Tasks.sol\":1542:1563  status != Status.NONE */\n      0x03\n      dup2\n      gt\n      iszero\n      tag_99\n      jumpi\n      tag_100\n      tag_42\n      jump\t// in\n    tag_100:\n    tag_99:\n      sub\n        /* \"contracts/Tasks.sol\":1534:1602  require(status != Status.NONE, \"Status must be TODO, DOING or DONE\") */\n      tag_101\n      jumpi\n      mload(0x40)\n      0x08c379a000000000000000000000000000000000000000000000000000000000\n      dup2\n      mstore\n      0x04\n      add\n      tag_102\n      swap1\n      tag_103\n      jump\t// in\n    tag_102:\n      mload(0x40)\n      dup1\n      swap2\n      sub\n      swap1\n      revert\n    tag_101:\n        /* \"contracts/Tasks.sol\":1861:1877  Task memory task */\n      0x00\n        /* \"contracts/Tasks.sol\":1880:1889  tasksList */\n      dup1\n        /* \"contracts/Tasks.sol\":1880:1893  tasksList[id] */\n      0x00\n        /* \"contracts/Tasks.sol\":1890:1892  id */\n      dup8\n        /* \"contracts/Tasks.sol\":1880:1893  tasksList[id] */\n      dup2\n      mstore\n      0x20\n      add\n      swap1\n      dup2\n      mstore\n      0x20\n      add\n      0x00\n      keccak256\n        /* \"contracts/Tasks.sol\":1861:1893  Task memory task = tasksList[id] */\n      mload(0x40)\n      dup1\n      0xa0\n      add\n      0x40\n      mstore\n      swap1\n      dup2\n      0x00\n      dup3\n      add\n      sload\n      dup2\n      mstore\n      0x20\n      add\n      0x01\n      dup3\n      add\n      dup1\n      sload\n      tag_104\n      swap1\n      tag_35\n      jump\t// in\n    tag_104:\n      dup1\n      0x1f\n      add\n      0x20\n      dup1\n      swap2\n      div\n      mul\n      0x20\n      add\n      mload(0x40)\n      swap1\n      dup2\n      add\n      0x40\n      mstore\n      dup1\n      swap3\n      swap2\n      swap1\n      dup2\n      dup2\n      mstore\n      0x20\n      add\n      dup3\n      dup1\n      sload\n      tag_105\n      swap1\n      tag_35\n      jump\t// in\n    tag_105:\n      dup1\n      iszero\n      tag_106\n      jumpi\n      dup1\n      0x1f\n      lt\n      tag_107\n      jumpi\n      0x0100\n      dup1\n      dup4\n      sload\n      div\n      mul\n      dup4\n      mstore\n      swap2\n      0x20\n      add\n      swap2\n      jump(tag_106)\n    tag_107:\n      dup3\n      add\n      swap2\n      swap1\n      0x00\n      mstore\n      keccak256(0x00, 0x20)\n      swap1\n    tag_108:\n      dup2\n      sload\n      dup2\n      mstore\n      swap1\n      0x01\n      add\n      swap1\n      0x20\n      add\n      dup1\n      dup4\n      gt\n      tag_108\n      jumpi\n      dup3\n      swap1\n      sub\n      0x1f\n      and\n      dup3\n      add\n      swap2\n    tag_106:\n      pop\n      pop\n      pop\n      pop\n      pop\n      dup2\n      mstore\n      0x20\n      add\n      0x02\n      dup3\n      add\n      0x00\n      swap1\n      sload\n      swap1\n      0x0100\n      exp\n      swap1\n      div\n      0xff\n      and\n      0x03\n      dup2\n      gt\n      iszero\n      tag_109\n      jumpi\n      tag_110\n      tag_42\n      jump\t// in\n    tag_110:\n    tag_109:\n      0x03\n      dup2\n      gt\n      iszero\n      tag_111\n      jumpi\n      tag_112\n      tag_42\n      jump\t// in\n    tag_112:\n    tag_111:\n      dup2\n      mstore\n      0x20\n      add\n      0x03\n      dup3\n      add\n      sload\n      dup2\n      mstore\n      0x20\n      add\n      0x04\n      dup3\n      add\n      0x00\n      swap1\n      sload\n      swap1\n      0x0100\n      exp\n      swap1\n      div\n      0xffffffffffffffffffffffffffffffffffffffff\n      and\n      0xffffffffffffffffffffffffffffffffffffffff\n      and\n      0xffffffffffffffffffffffffffffffffffffffff\n      and\n      dup2\n      mstore\n      pop\n      pop\n      swap1\n      pop\n        /* \"contracts/Tasks.sol\":1925:1929  task */\n      dup1\n        /* \"contracts/Tasks.sol\":1925:1939  task.createdBy */\n      0x80\n      add\n      mload\n        /* \"contracts/Tasks.sol\":1911:1939  msg.sender == task.createdBy */\n      0xffffffffffffffffffffffffffffffffffffffff\n      and\n        /* \"contracts/Tasks.sol\":1911:1921  msg.sender */\n      caller\n        /* \"contracts/Tasks.sol\":1911:1939  msg.sender == task.createdBy */\n      0xffffffffffffffffffffffffffffffffffffffff\n      and\n      eq\n        /* \"contracts/Tasks.sol\":1903:1956  require(msg.sender == task.createdBy, \"Unauthorized\") */\n      tag_113\n      jumpi\n      mload(0x40)\n      0x08c379a000000000000000000000000000000000000000000000000000000000\n      dup2\n      mstore\n      0x04\n      add\n      tag_114\n      swap1\n      tag_47\n      jump\t// in\n    tag_114:\n      mload(0x40)\n      dup1\n      swap2\n      sub\n      swap1\n      revert\n    tag_113:\n        /* \"contracts/Tasks.sol\":1982:1983  0 */\n      0x00\n        /* \"contracts/Tasks.sol\":1971:1975  task */\n      dup2\n        /* \"contracts/Tasks.sol\":1971:1978  task.id */\n      0x00\n      add\n      mload\n        /* \"contracts/Tasks.sol\":1971:1983  task.id == 0 */\n      sub\n        /* \"contracts/Tasks.sol\":1967:2037  if (task.id == 0) {... */\n      tag_115\n      jumpi\n        /* \"contracts/Tasks.sol\":1999:2026  revert(\"Task is not found\") */\n      mload(0x40)\n      0x08c379a000000000000000000000000000000000000000000000000000000000\n      dup2\n      mstore\n      0x04\n      add\n      tag_116\n      swap1\n      tag_50\n      jump\t// in\n    tag_116:\n      mload(0x40)\n      dup1\n      swap2\n      sub\n      swap1\n      revert\n        /* \"contracts/Tasks.sol\":1967:2037  if (task.id == 0) {... */\n    tag_115:\n        /* \"contracts/Tasks.sol\":2054:2281  Task(... */\n      mload(0x40)\n      dup1\n      0xa0\n      add\n      0x40\n      mstore\n      dup1\n        /* \"contracts/Tasks.sol\":2094:2098  task */\n      dup3\n        /* \"contracts/Tasks.sol\":2094:2101  task.id */\n      0x00\n      add\n      mload\n        /* \"contracts/Tasks.sol\":2054:2281  Task(... */\n      dup2\n      mstore\n      0x20\n      add\n        /* \"contracts/Tasks.sol\":2129:2136  content */\n      dup7\n      dup7\n        /* \"contracts/Tasks.sol\":2054:2281  Task(... */\n      dup1\n      dup1\n      0x1f\n      add\n      0x20\n      dup1\n      swap2\n      div\n      mul\n      0x20\n      add\n      mload(0x40)\n      swap1\n      dup2\n      add\n      0x40\n      mstore\n      dup1\n      swap4\n      swap3\n      swap2\n      swap1\n      dup2\n      dup2\n      mstore\n      0x20\n      add\n      dup4\n      dup4\n      dup1\n      dup3\n      dup5\n      calldatacopy\n      0x00\n      dup2\n      dup5\n      add\n      mstore\n      not(0x1f)\n      0x1f\n      dup3\n      add\n      and\n      swap1\n      pop\n      dup1\n      dup4\n      add\n      swap3\n      pop\n      pop\n      pop\n      pop\n      pop\n      pop\n      pop\n      dup2\n      mstore\n      0x20\n      add\n        /* \"contracts/Tasks.sol\":2163:2169  status */\n      dup5\n        /* \"contracts/Tasks.sol\":2054:2281  Task(... */\n      0x03\n      dup2\n      gt\n      iszero\n      tag_117\n      jumpi\n      tag_118\n      tag_42\n      jump\t// in\n    tag_118:\n    tag_117:\n      dup2\n      mstore\n      0x20\n      add\n        /* \"contracts/Tasks.sol\":2199:2203  task */\n      dup3\n        /* \"contracts/Tasks.sol\":2199:2213  task.createdAt */\n      0x60\n      add\n      mload\n        /* \"contracts/Tasks.sol\":2054:2281  Task(... */\n      dup2\n      mstore\n      0x20\n      add\n        /* \"contracts/Tasks.sol\":2243:2247  task */\n      dup3\n        /* \"contracts/Tasks.sol\":2243:2257  task.createdBy */\n      0x80\n      add\n      mload\n        /* \"contracts/Tasks.sol\":2054:2281  Task(... */\n      0xffffffffffffffffffffffffffffffffffffffff\n      and\n      dup2\n      mstore\n      pop\n        /* \"contracts/Tasks.sol\":2047:2281  task = Task(... */\n      swap1\n      pop\n        /* \"contracts/Tasks.sol\":2312:2316  task */\n      dup1\n        /* \"contracts/Tasks.sol\":2291:2300  tasksList */\n      0x00\n        /* \"contracts/Tasks.sol\":2291:2309  tasksList[task.id] */\n      dup1\n        /* \"contracts/Tasks.sol\":2301:2305  task */\n      dup4\n        /* \"contracts/Tasks.sol\":2301:2308  task.id */\n      0x00\n      add\n      mload\n        /* \"contracts/Tasks.sol\":2291:2309  tasksList[task.id] */\n      dup2\n      mstore\n      0x20\n      add\n      swap1\n      dup2\n      mstore\n      0x20\n      add\n      0x00\n      keccak256\n        /* \"contracts/Tasks.sol\":2291:2316  tasksList[task.id] = task */\n      0x00\n      dup3\n      add\n      mload\n      dup2\n      0x00\n      add\n      sstore\n      0x20\n      dup3\n      add\n      mload\n      dup2\n      0x01\n      add\n      swap1\n      dup2\n      tag_119\n      swap2\n      swap1\n      tag_120\n      jump\t// in\n    tag_119:\n      pop\n      0x40\n      dup3\n      add\n      mload\n      dup2\n      0x02\n      add\n      exp(0x0100, 0x00)\n      dup2\n      sload\n      dup2\n      0xff\n      mul\n      not\n      and\n      swap1\n      dup4\n      0x03\n      dup2\n      gt\n      iszero\n      tag_121\n      jumpi\n      tag_122\n      tag_42\n      jump\t// in\n    tag_122:\n    tag_121:\n      mul\n      or\n      swap1\n      sstore\n      pop\n      0x60\n      dup3\n      add\n      mload\n      dup2\n      0x03\n      add\n      sstore\n      0x80\n      dup3\n      add\n      mload\n      dup2\n      0x04\n      add\n      exp(0x0100, 0x00)\n      dup2\n      sload\n      dup2\n      0xffffffffffffffffffffffffffffffffffffffff\n      mul\n      not\n      and\n      swap1\n      dup4\n      0xffffffffffffffffffffffffffffffffffffffff\n      and\n      mul\n      or\n      swap1\n      sstore\n      pop\n      swap1\n      pop\n      pop\n        /* \"contracts/Tasks.sol\":2334:2338  task */\n      dup1\n        /* \"contracts/Tasks.sol\":2327:2338  return task */\n      swap2\n      pop\n      pop\n        /* \"contracts/Tasks.sol\":1309:2345  function update(uint id, string calldata content, Status status) external returns (Task memory) {... */\n      swap5\n      swap4\n      pop\n      pop\n      pop\n      pop\n      jump\t// out\n        /* \"contracts/Tasks.sol\":512:1303  function create(string calldata content, Status status) external payable returns (Task memory) {... */\n    tag_28:\n        /* \"contracts/Tasks.sol\":594:605  Task memory */\n      tag_123\n      tag_69\n      jump\t// in\n    tag_123:\n        /* \"contracts/Tasks.sol\":638:648  0.01 ether */\n      0x2386f26fc10000\n        /* \"contracts/Tasks.sol\":625:634  msg.value */\n      callvalue\n        /* \"contracts/Tasks.sol\":625:648  msg.value == 0.01 ether */\n      eq\n        /* \"contracts/Tasks.sol\":617:677  require(msg.value == 0.01 ether, \"You must send 0.01 ether\") */\n      tag_125\n      jumpi\n      mload(0x40)\n      0x08c379a000000000000000000000000000000000000000000000000000000000\n      dup2\n      mstore\n      0x04\n      add\n      tag_126\n      swap1\n      tag_127\n      jump\t// in\n    tag_126:\n      mload(0x40)\n      dup1\n      swap2\n      sub\n      swap1\n      revert\n    tag_125:\n        /* \"contracts/Tasks.sol\":719:720  0 */\n      0x00\n        /* \"contracts/Tasks.sol\":701:708  content */\n      dup5\n      dup5\n        /* \"contracts/Tasks.sol\":695:716  bytes(content).length */\n      swap1\n      pop\n        /* \"contracts/Tasks.sol\":695:720  bytes(content).length > 0 */\n      gt\n        /* \"contracts/Tasks.sol\":687:750  require(bytes(content).length > 0, \"Content must not be empty\") */\n      tag_128\n      jumpi\n      mload(0x40)\n      0x08c379a000000000000000000000000000000000000000000000000000000000\n      dup2\n      mstore\n      0x04\n      add\n      tag_129\n      swap1\n      tag_96\n      jump\t// in\n    tag_129:\n      mload(0x40)\n      dup1\n      swap2\n      sub\n      swap1\n      revert\n    tag_128:\n        /* \"contracts/Tasks.sol\":778:789  Status.NONE */\n      0x00\n        /* \"contracts/Tasks.sol\":768:789  status != Status.NONE */\n      0x03\n      dup2\n      gt\n      iszero\n      tag_130\n      jumpi\n      tag_131\n      tag_42\n      jump\t// in\n    tag_131:\n    tag_130:\n        /* \"contracts/Tasks.sol\":768:774  status */\n      dup3\n        /* \"contracts/Tasks.sol\":768:789  status != Status.NONE */\n      0x03\n      dup2\n      gt\n      iszero\n      tag_132\n      jumpi\n      tag_133\n      tag_42\n      jump\t// in\n    tag_133:\n    tag_132:\n      sub\n        /* \"contracts/Tasks.sol\":760:828  require(status != Status.NONE, \"Status must be TODO, DOING or DONE\") */\n      tag_134\n      jumpi\n      mload(0x40)\n      0x08c379a000000000000000000000000000000000000000000000000000000000\n      dup2\n      mstore\n      0x04\n      add\n      tag_135\n      swap1\n      tag_103\n      jump\t// in\n    tag_135:\n      mload(0x40)\n      dup1\n      swap2\n      sub\n      swap1\n      revert\n    tag_134:\n        /* \"contracts/Tasks.sol\":849:850  1 */\n      0x01\n        /* \"contracts/Tasks.sol\":839:845  taskId */\n      dup1\n      0x00\n        /* \"contracts/Tasks.sol\":839:850  taskId += 1 */\n      dup3\n      dup3\n      sload\n      tag_136\n      swap2\n      swap1\n      tag_137\n      jump\t// in\n    tag_136:\n      swap3\n      pop\n      pop\n      dup2\n      swap1\n      sstore\n      pop\n        /* \"contracts/Tasks.sol\":880:896  Task memory task */\n      0x00\n        /* \"contracts/Tasks.sol\":899:1124  Task(... */\n      mload(0x40)\n      dup1\n      0xa0\n      add\n      0x40\n      mstore\n      dup1\n        /* \"contracts/Tasks.sol\":940:946  taskId */\n      sload(0x01)\n        /* \"contracts/Tasks.sol\":899:1124  Task(... */\n      dup2\n      mstore\n      0x20\n      add\n        /* \"contracts/Tasks.sol\":974:981  content */\n      dup7\n      dup7\n        /* \"contracts/Tasks.sol\":899:1124  Task(... */\n      dup1\n      dup1\n      0x1f\n      add\n      0x20\n      dup1\n      swap2\n      div\n      mul\n      0x20\n      add\n      mload(0x40)\n      swap1\n      dup2\n      add\n      0x40\n      mstore\n      dup1\n      swap4\n      swap3\n      swap2\n      swap1\n      dup2\n      dup2\n      mstore\n      0x20\n      add\n      dup4\n      dup4\n      dup1\n      dup3\n      dup5\n      calldatacopy\n      0x00\n      dup2\n      dup5\n      add\n      mstore\n      not(0x1f)\n      0x1f\n      dup3\n      add\n      and\n      swap1\n      pop\n      dup1\n      dup4\n      add\n      swap3\n      pop\n      pop\n      pop\n      pop\n      pop\n      pop\n      pop\n      dup2\n      mstore\n      0x20\n      add\n        /* \"contracts/Tasks.sol\":1008:1014  status */\n      dup5\n        /* \"contracts/Tasks.sol\":899:1124  Task(... */\n      0x03\n      dup2\n      gt\n      iszero\n      tag_138\n      jumpi\n      tag_139\n      tag_42\n      jump\t// in\n    tag_139:\n    tag_138:\n      dup2\n      mstore\n      0x20\n      add\n        /* \"contracts/Tasks.sol\":1044:1059  block.timestamp */\n      timestamp\n        /* \"contracts/Tasks.sol\":899:1124  Task(... */\n      dup2\n      mstore\n      0x20\n      add\n        /* \"contracts/Tasks.sol\":1089:1099  msg.sender */\n      caller\n        /* \"contracts/Tasks.sol\":899:1124  Task(... */\n      0xffffffffffffffffffffffffffffffffffffffff\n      and\n      dup2\n      mstore\n      pop\n        /* \"contracts/Tasks.sol\":880:1124  Task memory task = Task(... */\n      swap1\n      pop\n        /* \"contracts/Tasks.sol\":1154:1158  task */\n      dup1\n        /* \"contracts/Tasks.sol\":1134:1143  tasksList */\n      0x00\n        /* \"contracts/Tasks.sol\":1134:1151  tasksList[taskId] */\n      dup1\n        /* \"contracts/Tasks.sol\":1144:1150  taskId */\n      sload(0x01)\n        /* \"contracts/Tasks.sol\":1134:1151  tasksList[taskId] */\n      dup2\n      mstore\n      0x20\n      add\n      swap1\n      dup2\n      mstore\n      0x20\n      add\n      0x00\n      keccak256\n        /* \"contracts/Tasks.sol\":1134:1158  tasksList[taskId] = task */\n      0x00\n      dup3\n      add\n      mload\n      dup2\n      0x00\n      add\n      sstore\n      0x20\n      dup3\n      add\n      mload\n      dup2\n      0x01\n      add\n      swap1\n      dup2\n      tag_140\n      swap2\n      swap1\n      tag_120\n      jump\t// in\n    tag_140:\n      pop\n      0x40\n      dup3\n      add\n      mload\n      dup2\n      0x02\n      add\n      exp(0x0100, 0x00)\n      dup2\n      sload\n      dup2\n      0xff\n      mul\n      not\n      and\n      swap1\n      dup4\n      0x03\n      dup2\n      gt\n      iszero\n      tag_141\n      jumpi\n      tag_142\n      tag_42\n      jump\t// in\n    tag_142:\n    tag_141:\n      mul\n      or\n      swap1\n      sstore\n      pop\n      0x60\n      dup3\n      add\n      mload\n      dup2\n      0x03\n      add\n      sstore\n      0x80\n      dup3\n      add\n      mload\n      dup2\n      0x04\n      add\n      exp(0x0100, 0x00)\n      dup2\n      sload\n      dup2\n      0xffffffffffffffffffffffffffffffffffffffff\n      mul\n      not\n      and\n      swap1\n      dup4\n      0xffffffffffffffffffffffffffffffffffffffff\n      and\n      mul\n      or\n      swap1\n      sstore\n      pop\n      swap1\n      pop\n      pop\n        /* \"contracts/Tasks.sol\":1178:1188  msg.sender */\n      caller\n        /* \"contracts/Tasks.sol\":1174:1209  Log(msg.sender, msg.sender.balance) */\n      0xffffffffffffffffffffffffffffffffffffffff\n      and\n      0xf950957d2407bed19dc99b718b46b4ce6090c05589006dfb86fd22c34865b23e\n        /* \"contracts/Tasks.sol\":1190:1200  msg.sender */\n      caller\n        /* \"contracts/Tasks.sol\":1190:1208  msg.sender.balance */\n      0xffffffffffffffffffffffffffffffffffffffff\n      and\n      balance\n        /* \"contracts/Tasks.sol\":1174:1209  Log(msg.sender, msg.sender.balance) */\n      mload(0x40)\n      tag_143\n      swap2\n      swap1\n      tag_60\n      jump\t// in\n    tag_143:\n      mload(0x40)\n      dup1\n      swap2\n      sub\n      swap1\n      log2\n        /* \"contracts/Tasks.sol\":1236:1240  this */\n      address\n        /* \"contracts/Tasks.sol\":1224:1265  Log(address(this), address(this).balance) */\n      0xffffffffffffffffffffffffffffffffffffffff\n      and\n      0xf950957d2407bed19dc99b718b46b4ce6090c05589006dfb86fd22c34865b23e\n        /* \"contracts/Tasks.sol\":1243:1264  address(this).balance */\n      selfbalance\n        /* \"contracts/Tasks.sol\":1224:1265  Log(address(this), address(this).balance) */\n      mload(0x40)\n      tag_144\n      swap2\n      swap1\n      tag_60\n      jump\t// in\n    tag_144:\n      mload(0x40)\n      dup1\n      swap2\n      sub\n      swap1\n      log2\n        /* \"contracts/Tasks.sol\":1292:1296  task */\n      dup1\n        /* \"contracts/Tasks.sol\":1285:1296  return task */\n      swap2\n      pop\n      pop\n        /* \"contracts/Tasks.sol\":512:1303  function create(string calldata content, Status status) external payable returns (Task memory) {... */\n      swap4\n      swap3\n      pop\n      pop\n      pop\n      jump\t// out\n    tag_52:\n      pop\n      dup1\n      sload\n      tag_145\n      swap1\n      tag_35\n      jump\t// in\n    tag_145:\n      0x00\n      dup3\n      sstore\n      dup1\n      0x1f\n      lt\n      tag_147\n      jumpi\n      pop\n      jump(tag_146)\n    tag_147:\n      0x1f\n      add\n      0x20\n      swap1\n      div\n      swap1\n      0x00\n      mstore\n      keccak256(0x00, 0x20)\n      swap1\n      dup2\n      add\n      swap1\n      tag_148\n      swap2\n      swap1\n      tag_149\n      jump\t// in\n    tag_148:\n    tag_146:\n      pop\n      jump\t// out\n    tag_69:\n      mload(0x40)\n      dup1\n      0xa0\n      add\n      0x40\n      mstore\n      dup1\n      0x00\n      dup2\n      mstore\n      0x20\n      add\n      0x60\n      dup2\n      mstore\n      0x20\n      add\n      0x00\n      0x03\n      dup2\n      gt\n      iszero\n      tag_150\n      jumpi\n      tag_151\n      tag_42\n      jump\t// in\n    tag_151:\n    tag_150:\n      dup2\n      mstore\n      0x20\n      add\n      0x00\n      dup2\n      mstore\n      0x20\n      add\n      and(0xffffffffffffffffffffffffffffffffffffffff, 0x00)\n      dup2\n      mstore\n      pop\n      swap1\n      jump\t// out\n    tag_149:\n    tag_152:\n      dup1\n      dup3\n      gt\n      iszero\n      tag_153\n      jumpi\n      0x00\n      dup2\n      0x00\n      swap1\n      sstore\n      pop\n      0x01\n      add\n      jump(tag_152)\n    tag_153:\n      pop\n      swap1\n      jump\t// out\n        /* \"#utility.yul\":88:205   */\n    tag_155:\n        /* \"#utility.yul\":197:198   */\n      0x00\n        /* \"#utility.yul\":194:195   */\n      dup1\n        /* \"#utility.yul\":187:199   */\n      revert\n        /* \"#utility.yul\":211:328   */\n    tag_156:\n        /* \"#utility.yul\":320:321   */\n      0x00\n        /* \"#utility.yul\":317:318   */\n      dup1\n        /* \"#utility.yul\":310:322   */\n      revert\n        /* \"#utility.yul\":334:411   */\n    tag_157:\n        /* \"#utility.yul\":371:378   */\n      0x00\n        /* \"#utility.yul\":400:405   */\n      dup2\n        /* \"#utility.yul\":389:405   */\n      swap1\n      pop\n        /* \"#utility.yul\":334:411   */\n      swap2\n      swap1\n      pop\n      jump\t// out\n        /* \"#utility.yul\":417:539   */\n    tag_158:\n        /* \"#utility.yul\":490:514   */\n      tag_229\n        /* \"#utility.yul\":508:513   */\n      dup2\n        /* \"#utility.yul\":490:514   */\n      tag_157\n      jump\t// in\n    tag_229:\n        /* \"#utility.yul\":483:488   */\n      dup2\n        /* \"#utility.yul\":480:515   */\n      eq\n        /* \"#utility.yul\":470:533   */\n      tag_230\n      jumpi\n        /* \"#utility.yul\":529:530   */\n      0x00\n        /* \"#utility.yul\":526:527   */\n      dup1\n        /* \"#utility.yul\":519:531   */\n      revert\n        /* \"#utility.yul\":470:533   */\n    tag_230:\n        /* \"#utility.yul\":417:539   */\n      pop\n      jump\t// out\n        /* \"#utility.yul\":545:684   */\n    tag_159:\n        /* \"#utility.yul\":591:596   */\n      0x00\n        /* \"#utility.yul\":629:635   */\n      dup2\n        /* \"#utility.yul\":616:636   */\n      calldataload\n        /* \"#utility.yul\":607:636   */\n      swap1\n      pop\n        /* \"#utility.yul\":645:678   */\n      tag_232\n        /* \"#utility.yul\":672:677   */\n      dup2\n        /* \"#utility.yul\":645:678   */\n      tag_158\n      jump\t// in\n    tag_232:\n        /* \"#utility.yul\":545:684   */\n      swap3\n      swap2\n      pop\n      pop\n      jump\t// out\n        /* \"#utility.yul\":690:1019   */\n    tag_9:\n        /* \"#utility.yul\":749:755   */\n      0x00\n        /* \"#utility.yul\":798:800   */\n      0x20\n        /* \"#utility.yul\":786:795   */\n      dup3\n        /* \"#utility.yul\":777:784   */\n      dup5\n        /* \"#utility.yul\":773:796   */\n      sub\n        /* \"#utility.yul\":769:801   */\n      slt\n        /* \"#utility.yul\":766:885   */\n      iszero\n      tag_234\n      jumpi\n        /* \"#utility.yul\":804:883   */\n      tag_235\n      tag_155\n      jump\t// in\n    tag_235:\n        /* \"#utility.yul\":766:885   */\n    tag_234:\n        /* \"#utility.yul\":924:925   */\n      0x00\n        /* \"#utility.yul\":949:1002   */\n      tag_236\n        /* \"#utility.yul\":994:1001   */\n      dup5\n        /* \"#utility.yul\":985:991   */\n      dup3\n        /* \"#utility.yul\":974:983   */\n      dup6\n        /* \"#utility.yul\":970:992   */\n      add\n        /* \"#utility.yul\":949:1002   */\n      tag_159\n      jump\t// in\n    tag_236:\n        /* \"#utility.yul\":939:1002   */\n      swap2\n      pop\n        /* \"#utility.yul\":895:1012   */\n      pop\n        /* \"#utility.yul\":690:1019   */\n      swap3\n      swap2\n      pop\n      pop\n      jump\t// out\n        /* \"#utility.yul\":1025:1115   */\n    tag_160:\n        /* \"#utility.yul\":1059:1066   */\n      0x00\n        /* \"#utility.yul\":1102:1107   */\n      dup2\n        /* \"#utility.yul\":1095:1108   */\n      iszero\n        /* \"#utility.yul\":1088:1109   */\n      iszero\n        /* \"#utility.yul\":1077:1109   */\n      swap1\n      pop\n        /* \"#utility.yul\":1025:1115   */\n      swap2\n      swap1\n      pop\n      jump\t// out\n        /* \"#utility.yul\":1121:1230   */\n    tag_161:\n        /* \"#utility.yul\":1202:1223   */\n      tag_239\n        /* \"#utility.yul\":1217:1222   */\n      dup2\n        /* \"#utility.yul\":1202:1223   */\n      tag_160\n      jump\t// in\n    tag_239:\n        /* \"#utility.yul\":1197:1200   */\n      dup3\n        /* \"#utility.yul\":1190:1224   */\n      mstore\n        /* \"#utility.yul\":1121:1230   */\n      pop\n      pop\n      jump\t// out\n        /* \"#utility.yul\":1236:1446   */\n    tag_12:\n        /* \"#utility.yul\":1323:1327   */\n      0x00\n        /* \"#utility.yul\":1361:1363   */\n      0x20\n        /* \"#utility.yul\":1350:1359   */\n      dup3\n        /* \"#utility.yul\":1346:1364   */\n      add\n        /* \"#utility.yul\":1338:1364   */\n      swap1\n      pop\n        /* \"#utility.yul\":1374:1439   */\n      tag_241\n        /* \"#utility.yul\":1436:1437   */\n      0x00\n        /* \"#utility.yul\":1425:1434   */\n      dup4\n        /* \"#utility.yul\":1421:1438   */\n      add\n        /* \"#utility.yul\":1412:1418   */\n      dup5\n        /* \"#utility.yul\":1374:1439   */\n      tag_161\n      jump\t// in\n    tag_241:\n        /* \"#utility.yul\":1236:1446   */\n      swap3\n      swap2\n      pop\n      pop\n      jump\t// out\n        /* \"#utility.yul\":1452:1586   */\n    tag_162:\n        /* \"#utility.yul\":1539:1545   */\n      0x00\n        /* \"#utility.yul\":1573:1578   */\n      dup2\n        /* \"#utility.yul\":1567:1579   */\n      mload\n        /* \"#utility.yul\":1557:1579   */\n      swap1\n      pop\n        /* \"#utility.yul\":1452:1586   */\n      swap2\n      swap1\n      pop\n      jump\t// out\n        /* \"#utility.yul\":1592:1796   */\n    tag_163:\n        /* \"#utility.yul\":1711:1722   */\n      0x00\n        /* \"#utility.yul\":1745:1751   */\n      dup3\n        /* \"#utility.yul\":1740:1743   */\n      dup3\n        /* \"#utility.yul\":1733:1752   */\n      mstore\n        /* \"#utility.yul\":1785:1789   */\n      0x20\n        /* \"#utility.yul\":1780:1783   */\n      dup3\n        /* \"#utility.yul\":1776:1790   */\n      add\n        /* \"#utility.yul\":1761:1790   */\n      swap1\n      pop\n        /* \"#utility.yul\":1592:1796   */\n      swap3\n      swap2\n      pop\n      pop\n      jump\t// out\n        /* \"#utility.yul\":1802:1954   */\n    tag_164:\n        /* \"#utility.yul\":1889:1893   */\n      0x00\n        /* \"#utility.yul\":1912:1915   */\n      dup2\n        /* \"#utility.yul\":1904:1915   */\n      swap1\n      pop\n        /* \"#utility.yul\":1942:1946   */\n      0x20\n        /* \"#utility.yul\":1937:1940   */\n      dup3\n        /* \"#utility.yul\":1933:1947   */\n      add\n        /* \"#utility.yul\":1925:1947   */\n      swap1\n      pop\n        /* \"#utility.yul\":1802:1954   */\n      swap2\n      swap1\n      pop\n      jump\t// out\n        /* \"#utility.yul\":1960:2068   */\n    tag_165:\n        /* \"#utility.yul\":2037:2061   */\n      tag_246\n        /* \"#utility.yul\":2055:2060   */\n      dup2\n        /* \"#utility.yul\":2037:2061   */\n      tag_157\n      jump\t// in\n    tag_246:\n        /* \"#utility.yul\":2032:2035   */\n      dup3\n        /* \"#utility.yul\":2025:2062   */\n      mstore\n        /* \"#utility.yul\":1960:2068   */\n      pop\n      pop\n      jump\t// out\n        /* \"#utility.yul\":2074:2173   */\n    tag_166:\n        /* \"#utility.yul\":2126:2132   */\n      0x00\n        /* \"#utility.yul\":2160:2165   */\n      dup2\n        /* \"#utility.yul\":2154:2166   */\n      mload\n        /* \"#utility.yul\":2144:2166   */\n      swap1\n      pop\n        /* \"#utility.yul\":2074:2173   */\n      swap2\n      swap1\n      pop\n      jump\t// out\n        /* \"#utility.yul\":2179:2338   */\n    tag_167:\n        /* \"#utility.yul\":2253:2264   */\n      0x00\n        /* \"#utility.yul\":2287:2293   */\n      dup3\n        /* \"#utility.yul\":2282:2285   */\n      dup3\n        /* \"#utility.yul\":2275:2294   */\n      mstore\n        /* \"#utility.yul\":2327:2331   */\n      0x20\n        /* \"#utility.yul\":2322:2325   */\n      dup3\n        /* \"#utility.yul\":2318:2332   */\n      add\n        /* \"#utility.yul\":2303:2332   */\n      swap1\n      pop\n        /* \"#utility.yul\":2179:2338   */\n      swap3\n      swap2\n      pop\n      pop\n      jump\t// out\n        /* \"#utility.yul\":2344:2483   */\n    tag_168:\n        /* \"#utility.yul\":2433:2439   */\n      dup3\n        /* \"#utility.yul\":2428:2431   */\n      dup2\n        /* \"#utility.yul\":2423:2426   */\n      dup4\n        /* \"#utility.yul\":2417:2440   */\n      mcopy\n        /* \"#utility.yul\":2474:2475   */\n      0x00\n        /* \"#utility.yul\":2465:2471   */\n      dup4\n        /* \"#utility.yul\":2460:2463   */\n      dup4\n        /* \"#utility.yul\":2456:2472   */\n      add\n        /* \"#utility.yul\":2449:2476   */\n      mstore\n        /* \"#utility.yul\":2344:2483   */\n      pop\n      pop\n      pop\n      jump\t// out\n        /* \"#utility.yul\":2489:2591   */\n    tag_169:\n        /* \"#utility.yul\":2530:2536   */\n      0x00\n        /* \"#utility.yul\":2581:2583   */\n      0x1f\n        /* \"#utility.yul\":2577:2584   */\n      not\n        /* \"#utility.yul\":2572:2574   */\n      0x1f\n        /* \"#utility.yul\":2565:2570   */\n      dup4\n        /* \"#utility.yul\":2561:2575   */\n      add\n        /* \"#utility.yul\":2557:2585   */\n      and\n        /* \"#utility.yul\":2547:2585   */\n      swap1\n      pop\n        /* \"#utility.yul\":2489:2591   */\n      swap2\n      swap1\n      pop\n      jump\t// out\n        /* \"#utility.yul\":2597:2954   */\n    tag_170:\n        /* \"#utility.yul\":2675:2678   */\n      0x00\n        /* \"#utility.yul\":2703:2742   */\n      tag_252\n        /* \"#utility.yul\":2736:2741   */\n      dup3\n        /* \"#utility.yul\":2703:2742   */\n      tag_166\n      jump\t// in\n    tag_252:\n        /* \"#utility.yul\":2758:2819   */\n      tag_253\n        /* \"#utility.yul\":2812:2818   */\n      dup2\n        /* \"#utility.yul\":2807:2810   */\n      dup6\n        /* \"#utility.yul\":2758:2819   */\n      tag_167\n      jump\t// in\n    tag_253:\n        /* \"#utility.yul\":2751:2819   */\n      swap4\n      pop\n        /* \"#utility.yul\":2828:2893   */\n      tag_254\n        /* \"#utility.yul\":2886:2892   */\n      dup2\n        /* \"#utility.yul\":2881:2884   */\n      dup6\n        /* \"#utility.yul\":2874:2878   */\n      0x20\n        /* \"#utility.yul\":2867:2872   */\n      dup7\n        /* \"#utility.yul\":2863:2879   */\n      add\n        /* \"#utility.yul\":2828:2893   */\n      tag_168\n      jump\t// in\n    tag_254:\n        /* \"#utility.yul\":2918:2947   */\n      tag_255\n        /* \"#utility.yul\":2940:2946   */\n      dup2\n        /* \"#utility.yul\":2918:2947   */\n      tag_169\n      jump\t// in\n    tag_255:\n        /* \"#utility.yul\":2913:2916   */\n      dup5\n        /* \"#utility.yul\":2909:2948   */\n      add\n        /* \"#utility.yul\":2902:2948   */\n      swap2\n      pop\n        /* \"#utility.yul\":2679:2954   */\n      pop\n        /* \"#utility.yul\":2597:2954   */\n      swap3\n      swap2\n      pop\n      pop\n      jump\t// out\n        /* \"#utility.yul\":2960:3140   */\n    tag_42:\n        /* \"#utility.yul\":3008:3085   */\n      0x4e487b7100000000000000000000000000000000000000000000000000000000\n        /* \"#utility.yul\":3005:3006   */\n      0x00\n        /* \"#utility.yul\":2998:3086   */\n      mstore\n        /* \"#utility.yul\":3105:3109   */\n      0x21\n        /* \"#utility.yul\":3102:3103   */\n      0x04\n        /* \"#utility.yul\":3095:3110   */\n      mstore\n        /* \"#utility.yul\":3129:3133   */\n      0x24\n        /* \"#utility.yul\":3126:3127   */\n      0x00\n        /* \"#utility.yul\":3119:3134   */\n      revert\n        /* \"#utility.yul\":3146:3260   */\n    tag_171:\n        /* \"#utility.yul\":3228:3229   */\n      0x04\n        /* \"#utility.yul\":3221:3226   */\n      dup2\n        /* \"#utility.yul\":3218:3230   */\n      lt\n        /* \"#utility.yul\":3208:3254   */\n      tag_258\n      jumpi\n        /* \"#utility.yul\":3234:3252   */\n      tag_259\n      tag_42\n      jump\t// in\n    tag_259:\n        /* \"#utility.yul\":3208:3254   */\n    tag_258:\n        /* \"#utility.yul\":3146:3260   */\n      pop\n      jump\t// out\n        /* \"#utility.yul\":3266:3395   */\n    tag_172:\n        /* \"#utility.yul\":3312:3319   */\n      0x00\n        /* \"#utility.yul\":3341:3346   */\n      dup2\n        /* \"#utility.yul\":3330:3346   */\n      swap1\n      pop\n        /* \"#utility.yul\":3347:3389   */\n      tag_261\n        /* \"#utility.yul\":3383:3388   */\n      dup3\n        /* \"#utility.yul\":3347:3389   */\n      tag_171\n      jump\t// in\n    tag_261:\n        /* \"#utility.yul\":3266:3395   */\n      swap2\n      swap1\n      pop\n      jump\t// out\n        /* \"#utility.yul\":3401:3530   */\n    tag_173:\n        /* \"#utility.yul\":3458:3467   */\n      0x00\n        /* \"#utility.yul\":3491:3524   */\n      tag_263\n        /* \"#utility.yul\":3518:3523   */\n      dup3\n        /* \"#utility.yul\":3491:3524   */\n      tag_172\n      jump\t// in\n    tag_263:\n        /* \"#utility.yul\":3478:3524   */\n      swap1\n      pop\n        /* \"#utility.yul\":3401:3530   */\n      swap2\n      swap1\n      pop\n      jump\t// out\n        /* \"#utility.yul\":3536:3671   */\n    tag_174:\n        /* \"#utility.yul\":3620:3664   */\n      tag_265\n        /* \"#utility.yul\":3658:3663   */\n      dup2\n        /* \"#utility.yul\":3620:3664   */\n      tag_173\n      jump\t// in\n    tag_265:\n        /* \"#utility.yul\":3615:3618   */\n      dup3\n        /* \"#utility.yul\":3608:3665   */\n      mstore\n        /* \"#utility.yul\":3536:3671   */\n      pop\n      pop\n      jump\t// out\n        /* \"#utility.yul\":3677:3803   */\n    tag_175:\n        /* \"#utility.yul\":3714:3721   */\n      0x00\n        /* \"#utility.yul\":3754:3796   */\n      0xffffffffffffffffffffffffffffffffffffffff\n        /* \"#utility.yul\":3747:3752   */\n      dup3\n        /* \"#utility.yul\":3743:3797   */\n      and\n        /* \"#utility.yul\":3732:3797   */\n      swap1\n      pop\n        /* \"#utility.yul\":3677:3803   */\n      swap2\n      swap1\n      pop\n      jump\t// out\n        /* \"#utility.yul\":3809:3905   */\n    tag_176:\n        /* \"#utility.yul\":3846:3853   */\n      0x00\n        /* \"#utility.yul\":3875:3899   */\n      tag_268\n        /* \"#utility.yul\":3893:3898   */\n      dup3\n        /* \"#utility.yul\":3875:3899   */\n      tag_175\n      jump\t// in\n    tag_268:\n        /* \"#utility.yul\":3864:3899   */\n      swap1\n      pop\n        /* \"#utility.yul\":3809:3905   */\n      swap2\n      swap1\n      pop\n      jump\t// out\n        /* \"#utility.yul\":3911:4019   */\n    tag_177:\n        /* \"#utility.yul\":3988:4012   */\n      tag_270\n        /* \"#utility.yul\":4006:4011   */\n      dup2\n        /* \"#utility.yul\":3988:4012   */\n      tag_176\n      jump\t// in\n    tag_270:\n        /* \"#utility.yul\":3983:3986   */\n      dup3\n        /* \"#utility.yul\":3976:4013   */\n      mstore\n        /* \"#utility.yul\":3911:4019   */\n      pop\n      pop\n      jump\t// out\n        /* \"#utility.yul\":4077:5205   */\n    tag_178:\n        /* \"#utility.yul\":4176:4179   */\n      0x00\n        /* \"#utility.yul\":4212:4216   */\n      0xa0\n        /* \"#utility.yul\":4207:4210   */\n      dup4\n        /* \"#utility.yul\":4203:4217   */\n      add\n        /* \"#utility.yul\":4297:4301   */\n      0x00\n        /* \"#utility.yul\":4290:4295   */\n      dup4\n        /* \"#utility.yul\":4286:4302   */\n      add\n        /* \"#utility.yul\":4280:4303   */\n      mload\n        /* \"#utility.yul\":4316:4379   */\n      tag_272\n        /* \"#utility.yul\":4373:4377   */\n      0x00\n        /* \"#utility.yul\":4368:4371   */\n      dup7\n        /* \"#utility.yul\":4364:4378   */\n      add\n        /* \"#utility.yul\":4350:4362   */\n      dup3\n        /* \"#utility.yul\":4316:4379   */\n      tag_165\n      jump\t// in\n    tag_272:\n        /* \"#utility.yul\":4227:4389   */\n      pop\n        /* \"#utility.yul\":4474:4478   */\n      0x20\n        /* \"#utility.yul\":4467:4472   */\n      dup4\n        /* \"#utility.yul\":4463:4479   */\n      add\n        /* \"#utility.yul\":4457:4480   */\n      mload\n        /* \"#utility.yul\":4527:4530   */\n      dup5\n        /* \"#utility.yul\":4521:4525   */\n      dup3\n        /* \"#utility.yul\":4517:4531   */\n      sub\n        /* \"#utility.yul\":4510:4514   */\n      0x20\n        /* \"#utility.yul\":4505:4508   */\n      dup7\n        /* \"#utility.yul\":4501:4515   */\n      add\n        /* \"#utility.yul\":4494:4532   */\n      mstore\n        /* \"#utility.yul\":4553:4626   */\n      tag_273\n        /* \"#utility.yul\":4621:4625   */\n      dup3\n        /* \"#utility.yul\":4607:4619   */\n      dup3\n        /* \"#utility.yul\":4553:4626   */\n      tag_170\n      jump\t// in\n    tag_273:\n        /* \"#utility.yul\":4545:4626   */\n      swap2\n      pop\n        /* \"#utility.yul\":4399:4637   */\n      pop\n        /* \"#utility.yul\":4721:4725   */\n      0x40\n        /* \"#utility.yul\":4714:4719   */\n      dup4\n        /* \"#utility.yul\":4710:4726   */\n      add\n        /* \"#utility.yul\":4704:4727   */\n      mload\n        /* \"#utility.yul\":4740:4810   */\n      tag_274\n        /* \"#utility.yul\":4804:4808   */\n      0x40\n        /* \"#utility.yul\":4799:4802   */\n      dup7\n        /* \"#utility.yul\":4795:4809   */\n      add\n        /* \"#utility.yul\":4781:4793   */\n      dup3\n        /* \"#utility.yul\":4740:4810   */\n      tag_174\n      jump\t// in\n    tag_274:\n        /* \"#utility.yul\":4647:4820   */\n      pop\n        /* \"#utility.yul\":4907:4911   */\n      0x60\n        /* \"#utility.yul\":4900:4905   */\n      dup4\n        /* \"#utility.yul\":4896:4912   */\n      add\n        /* \"#utility.yul\":4890:4913   */\n      mload\n        /* \"#utility.yul\":4926:4989   */\n      tag_275\n        /* \"#utility.yul\":4983:4987   */\n      0x60\n        /* \"#utility.yul\":4978:4981   */\n      dup7\n        /* \"#utility.yul\":4974:4988   */\n      add\n        /* \"#utility.yul\":4960:4972   */\n      dup3\n        /* \"#utility.yul\":4926:4989   */\n      tag_165\n      jump\t// in\n    tag_275:\n        /* \"#utility.yul\":4830:4999   */\n      pop\n        /* \"#utility.yul\":5086:5090   */\n      0x80\n        /* \"#utility.yul\":5079:5084   */\n      dup4\n        /* \"#utility.yul\":5075:5091   */\n      add\n        /* \"#utility.yul\":5069:5092   */\n      mload\n        /* \"#utility.yul\":5105:5168   */\n      tag_276\n        /* \"#utility.yul\":5162:5166   */\n      0x80\n        /* \"#utility.yul\":5157:5160   */\n      dup7\n        /* \"#utility.yul\":5153:5167   */\n      add\n        /* \"#utility.yul\":5139:5151   */\n      dup3\n        /* \"#utility.yul\":5105:5168   */\n      tag_177\n      jump\t// in\n    tag_276:\n        /* \"#utility.yul\":5009:5178   */\n      pop\n        /* \"#utility.yul\":5195:5199   */\n      dup1\n        /* \"#utility.yul\":5188:5199   */\n      swap2\n      pop\n        /* \"#utility.yul\":4181:5205   */\n      pop\n        /* \"#utility.yul\":4077:5205   */\n      swap3\n      swap2\n      pop\n      pop\n      jump\t// out\n        /* \"#utility.yul\":5211:5447   */\n    tag_179:\n        /* \"#utility.yul\":5320:5330   */\n      0x00\n        /* \"#utility.yul\":5355:5441   */\n      tag_278\n        /* \"#utility.yul\":5437:5440   */\n      dup4\n        /* \"#utility.yul\":5429:5435   */\n      dup4\n        /* \"#utility.yul\":5355:5441   */\n      tag_178\n      jump\t// in\n    tag_278:\n        /* \"#utility.yul\":5341:5441   */\n      swap1\n      pop\n        /* \"#utility.yul\":5211:5447   */\n      swap3\n      swap2\n      pop\n      pop\n      jump\t// out\n        /* \"#utility.yul\":5453:5586   */\n    tag_180:\n        /* \"#utility.yul\":5543:5547   */\n      0x00\n        /* \"#utility.yul\":5575:5579   */\n      0x20\n        /* \"#utility.yul\":5570:5573   */\n      dup3\n        /* \"#utility.yul\":5566:5580   */\n      add\n        /* \"#utility.yul\":5558:5580   */\n      swap1\n      pop\n        /* \"#utility.yul\":5453:5586   */\n      swap2\n      swap1\n      pop\n      jump\t// out\n        /* \"#utility.yul\":5648:6719   */\n    tag_181:\n        /* \"#utility.yul\":5807:5810   */\n      0x00\n        /* \"#utility.yul\":5836:5910   */\n      tag_281\n        /* \"#utility.yul\":5904:5909   */\n      dup3\n        /* \"#utility.yul\":5836:5910   */\n      tag_162\n      jump\t// in\n    tag_281:\n        /* \"#utility.yul\":5926:6032   */\n      tag_282\n        /* \"#utility.yul\":6025:6031   */\n      dup2\n        /* \"#utility.yul\":6020:6023   */\n      dup6\n        /* \"#utility.yul\":5926:6032   */\n      tag_163\n      jump\t// in\n    tag_282:\n        /* \"#utility.yul\":5919:6032   */\n      swap4\n      pop\n        /* \"#utility.yul\":6058:6061   */\n      dup4\n        /* \"#utility.yul\":6103:6107   */\n      0x20\n        /* \"#utility.yul\":6095:6101   */\n      dup3\n        /* \"#utility.yul\":6091:6108   */\n      mul\n        /* \"#utility.yul\":6086:6089   */\n      dup6\n        /* \"#utility.yul\":6082:6109   */\n      add\n        /* \"#utility.yul\":6133:6209   */\n      tag_283\n        /* \"#utility.yul\":6203:6208   */\n      dup6\n        /* \"#utility.yul\":6133:6209   */\n      tag_164\n      jump\t// in\n    tag_283:\n        /* \"#utility.yul\":6232:6239   */\n      dup1\n        /* \"#utility.yul\":6263:6264   */\n      0x00\n        /* \"#utility.yul\":6248:6674   */\n    tag_284:\n        /* \"#utility.yul\":6273:6279   */\n      dup6\n        /* \"#utility.yul\":6270:6271   */\n      dup2\n        /* \"#utility.yul\":6267:6280   */\n      lt\n        /* \"#utility.yul\":6248:6674   */\n      iszero\n      tag_286\n      jumpi\n        /* \"#utility.yul\":6344:6353   */\n      dup5\n        /* \"#utility.yul\":6338:6342   */\n      dup5\n        /* \"#utility.yul\":6334:6354   */\n      sub\n        /* \"#utility.yul\":6329:6332   */\n      dup10\n        /* \"#utility.yul\":6322:6355   */\n      mstore\n        /* \"#utility.yul\":6395:6401   */\n      dup2\n        /* \"#utility.yul\":6389:6402   */\n      mload\n        /* \"#utility.yul\":6423:6527   */\n      tag_287\n        /* \"#utility.yul\":6522:6526   */\n      dup6\n        /* \"#utility.yul\":6507:6520   */\n      dup3\n        /* \"#utility.yul\":6423:6527   */\n      tag_179\n      jump\t// in\n    tag_287:\n        /* \"#utility.yul\":6415:6527   */\n      swap5\n      pop\n        /* \"#utility.yul\":6550:6630   */\n      tag_288\n        /* \"#utility.yul\":6623:6629   */\n      dup4\n        /* \"#utility.yul\":6550:6630   */\n      tag_180\n      jump\t// in\n    tag_288:\n        /* \"#utility.yul\":6540:6630   */\n      swap3\n      pop\n        /* \"#utility.yul\":6659:6663   */\n      0x20\n        /* \"#utility.yul\":6654:6657   */\n      dup11\n        /* \"#utility.yul\":6650:6664   */\n      add\n        /* \"#utility.yul\":6643:6664   */\n      swap10\n      pop\n        /* \"#utility.yul\":6308:6674   */\n      pop\n        /* \"#utility.yul\":6295:6296   */\n      0x01\n        /* \"#utility.yul\":6292:6293   */\n      dup2\n        /* \"#utility.yul\":6288:6297   */\n      add\n        /* \"#utility.yul\":6283:6297   */\n      swap1\n      pop\n        /* \"#utility.yul\":6248:6674   */\n      jump(tag_284)\n    tag_286:\n        /* \"#utility.yul\":6252:6266   */\n      pop\n        /* \"#utility.yul\":6690:6694   */\n      dup3\n        /* \"#utility.yul\":6683:6694   */\n      swap8\n      pop\n        /* \"#utility.yul\":6710:6713   */\n      dup8\n        /* \"#utility.yul\":6703:6713   */\n      swap6\n      pop\n        /* \"#utility.yul\":5812:6719   */\n      pop\n      pop\n      pop\n      pop\n      pop\n        /* \"#utility.yul\":5648:6719   */\n      swap3\n      swap2\n      pop\n      pop\n      jump\t// out\n        /* \"#utility.yul\":6725:7178   */\n    tag_17:\n        /* \"#utility.yul\":6908:6912   */\n      0x00\n        /* \"#utility.yul\":6946:6948   */\n      0x20\n        /* \"#utility.yul\":6935:6944   */\n      dup3\n        /* \"#utility.yul\":6931:6949   */\n      add\n        /* \"#utility.yul\":6923:6949   */\n      swap1\n      pop\n        /* \"#utility.yul\":6995:7004   */\n      dup2\n        /* \"#utility.yul\":6989:6993   */\n      dup2\n        /* \"#utility.yul\":6985:7005   */\n      sub\n        /* \"#utility.yul\":6981:6982   */\n      0x00\n        /* \"#utility.yul\":6970:6979   */\n      dup4\n        /* \"#utility.yul\":6966:6983   */\n      add\n        /* \"#utility.yul\":6959:7006   */\n      mstore\n        /* \"#utility.yul\":7023:7171   */\n      tag_290\n        /* \"#utility.yul\":7166:7170   */\n      dup2\n        /* \"#utility.yul\":7157:7163   */\n      dup5\n        /* \"#utility.yul\":7023:7171   */\n      tag_181\n      jump\t// in\n    tag_290:\n        /* \"#utility.yul\":7015:7171   */\n      swap1\n      pop\n        /* \"#utility.yul\":6725:7178   */\n      swap3\n      swap2\n      pop\n      pop\n      jump\t// out\n        /* \"#utility.yul\":7184:7301   */\n    tag_182:\n        /* \"#utility.yul\":7293:7294   */\n      0x00\n        /* \"#utility.yul\":7290:7291   */\n      dup1\n        /* \"#utility.yul\":7283:7295   */\n      revert\n        /* \"#utility.yul\":7307:7424   */\n    tag_183:\n        /* \"#utility.yul\":7416:7417   */\n      0x00\n        /* \"#utility.yul\":7413:7414   */\n      dup1\n        /* \"#utility.yul\":7406:7418   */\n      revert\n        /* \"#utility.yul\":7430:7547   */\n    tag_184:\n        /* \"#utility.yul\":7539:7540   */\n      0x00\n        /* \"#utility.yul\":7536:7537   */\n      dup1\n        /* \"#utility.yul\":7529:7541   */\n      revert\n        /* \"#utility.yul\":7567:8120   */\n    tag_185:\n        /* \"#utility.yul\":7625:7633   */\n      0x00\n        /* \"#utility.yul\":7635:7641   */\n      dup1\n        /* \"#utility.yul\":7685:7688   */\n      dup4\n        /* \"#utility.yul\":7678:7682   */\n      0x1f\n        /* \"#utility.yul\":7670:7676   */\n      dup5\n        /* \"#utility.yul\":7666:7683   */\n      add\n        /* \"#utility.yul\":7662:7689   */\n      slt\n        /* \"#utility.yul\":7652:7774   */\n      tag_295\n      jumpi\n        /* \"#utility.yul\":7693:7772   */\n      tag_296\n      tag_182\n      jump\t// in\n    tag_296:\n        /* \"#utility.yul\":7652:7774   */\n    tag_295:\n        /* \"#utility.yul\":7806:7812   */\n      dup3\n        /* \"#utility.yul\":7793:7813   */\n      calldataload\n        /* \"#utility.yul\":7783:7813   */\n      swap1\n      pop\n        /* \"#utility.yul\":7836:7854   */\n      0xffffffffffffffff\n        /* \"#utility.yul\":7828:7834   */\n      dup2\n        /* \"#utility.yul\":7825:7855   */\n      gt\n        /* \"#utility.yul\":7822:7939   */\n      iszero\n      tag_297\n      jumpi\n        /* \"#utility.yul\":7858:7937   */\n      tag_298\n      tag_183\n      jump\t// in\n    tag_298:\n        /* \"#utility.yul\":7822:7939   */\n    tag_297:\n        /* \"#utility.yul\":7972:7976   */\n      0x20\n        /* \"#utility.yul\":7964:7970   */\n      dup4\n        /* \"#utility.yul\":7960:7977   */\n      add\n        /* \"#utility.yul\":7948:7977   */\n      swap2\n      pop\n        /* \"#utility.yul\":8026:8029   */\n      dup4\n        /* \"#utility.yul\":8018:8022   */\n      0x01\n        /* \"#utility.yul\":8010:8016   */\n      dup3\n        /* \"#utility.yul\":8006:8023   */\n      mul\n        /* \"#utility.yul\":7996:8004   */\n      dup4\n        /* \"#utility.yul\":7992:8024   */\n      add\n        /* \"#utility.yul\":7989:8030   */\n      gt\n        /* \"#utility.yul\":7986:8114   */\n      iszero\n      tag_299\n      jumpi\n        /* \"#utility.yul\":8033:8112   */\n      tag_300\n      tag_184\n      jump\t// in\n    tag_300:\n        /* \"#utility.yul\":7986:8114   */\n    tag_299:\n        /* \"#utility.yul\":7567:8120   */\n      swap3\n      pop\n      swap3\n      swap1\n      pop\n      jump\t// out\n        /* \"#utility.yul\":8126:8234   */\n    tag_186:\n        /* \"#utility.yul\":8208:8209   */\n      0x04\n        /* \"#utility.yul\":8201:8206   */\n      dup2\n        /* \"#utility.yul\":8198:8210   */\n      lt\n        /* \"#utility.yul\":8188:8228   */\n      tag_302\n      jumpi\n        /* \"#utility.yul\":8224:8225   */\n      0x00\n        /* \"#utility.yul\":8221:8222   */\n      dup1\n        /* \"#utility.yul\":8214:8226   */\n      revert\n        /* \"#utility.yul\":8188:8228   */\n    tag_302:\n        /* \"#utility.yul\":8126:8234   */\n      pop\n      jump\t// out\n        /* \"#utility.yul\":8240:8397   */\n    tag_187:\n        /* \"#utility.yul\":8295:8300   */\n      0x00\n        /* \"#utility.yul\":8333:8339   */\n      dup2\n        /* \"#utility.yul\":8320:8340   */\n      calldataload\n        /* \"#utility.yul\":8311:8340   */\n      swap1\n      pop\n        /* \"#utility.yul\":8349:8391   */\n      tag_304\n        /* \"#utility.yul\":8385:8390   */\n      dup2\n        /* \"#utility.yul\":8349:8391   */\n      tag_186\n      jump\t// in\n    tag_304:\n        /* \"#utility.yul\":8240:8397   */\n      swap3\n      swap2\n      pop\n      pop\n      jump\t// out\n        /* \"#utility.yul\":8403:9240   */\n    tag_21:\n        /* \"#utility.yul\":8501:8507   */\n      0x00\n        /* \"#utility.yul\":8509:8515   */\n      dup1\n        /* \"#utility.yul\":8517:8523   */\n      0x00\n        /* \"#utility.yul\":8525:8531   */\n      dup1\n        /* \"#utility.yul\":8574:8576   */\n      0x60\n        /* \"#utility.yul\":8562:8571   */\n      dup6\n        /* \"#utility.yul\":8553:8560   */\n      dup8\n        /* \"#utility.yul\":8549:8572   */\n      sub\n        /* \"#utility.yul\":8545:8577   */\n      slt\n        /* \"#utility.yul\":8542:8661   */\n      iszero\n      tag_306\n      jumpi\n        /* \"#utility.yul\":8580:8659   */\n      tag_307\n      tag_155\n      jump\t// in\n    tag_307:\n        /* \"#utility.yul\":8542:8661   */\n    tag_306:\n        /* \"#utility.yul\":8700:8701   */\n      0x00\n        /* \"#utility.yul\":8725:8778   */\n      tag_308\n        /* \"#utility.yul\":8770:8777   */\n      dup8\n        /* \"#utility.yul\":8761:8767   */\n      dup3\n        /* \"#utility.yul\":8750:8759   */\n      dup9\n        /* \"#utility.yul\":8746:8768   */\n      add\n        /* \"#utility.yul\":8725:8778   */\n      tag_159\n      jump\t// in\n    tag_308:\n        /* \"#utility.yul\":8715:8778   */\n      swap5\n      pop\n        /* \"#utility.yul\":8671:8788   */\n      pop\n        /* \"#utility.yul\":8855:8857   */\n      0x20\n        /* \"#utility.yul\":8844:8853   */\n      dup6\n        /* \"#utility.yul\":8840:8858   */\n      add\n        /* \"#utility.yul\":8827:8859   */\n      calldataload\n        /* \"#utility.yul\":8886:8904   */\n      0xffffffffffffffff\n        /* \"#utility.yul\":8878:8884   */\n      dup2\n        /* \"#utility.yul\":8875:8905   */\n      gt\n        /* \"#utility.yul\":8872:8989   */\n      iszero\n      tag_309\n      jumpi\n        /* \"#utility.yul\":8908:8987   */\n      tag_310\n      tag_156\n      jump\t// in\n    tag_310:\n        /* \"#utility.yul\":8872:8989   */\n    tag_309:\n        /* \"#utility.yul\":9021:9086   */\n      tag_311\n        /* \"#utility.yul\":9078:9085   */\n      dup8\n        /* \"#utility.yul\":9069:9075   */\n      dup3\n        /* \"#utility.yul\":9058:9067   */\n      dup9\n        /* \"#utility.yul\":9054:9076   */\n      add\n        /* \"#utility.yul\":9021:9086   */\n      tag_185\n      jump\t// in\n    tag_311:\n        /* \"#utility.yul\":9003:9086   */\n      swap4\n      pop\n      swap4\n      pop\n        /* \"#utility.yul\":8798:9096   */\n      pop\n        /* \"#utility.yul\":9135:9137   */\n      0x40\n        /* \"#utility.yul\":9161:9223   */\n      tag_312\n        /* \"#utility.yul\":9215:9222   */\n      dup8\n        /* \"#utility.yul\":9206:9212   */\n      dup3\n        /* \"#utility.yul\":9195:9204   */\n      dup9\n        /* \"#utility.yul\":9191:9213   */\n      add\n        /* \"#utility.yul\":9161:9223   */\n      tag_187\n      jump\t// in\n    tag_312:\n        /* \"#utility.yul\":9151:9223   */\n      swap2\n      pop\n        /* \"#utility.yul\":9106:9233   */\n      pop\n        /* \"#utility.yul\":8403:9240   */\n      swap3\n      swap6\n      swap2\n      swap5\n      pop\n      swap3\n      pop\n      jump\t// out\n        /* \"#utility.yul\":9298:10436   */\n    tag_188:\n        /* \"#utility.yul\":9407:9410   */\n      0x00\n        /* \"#utility.yul\":9443:9447   */\n      0xa0\n        /* \"#utility.yul\":9438:9441   */\n      dup4\n        /* \"#utility.yul\":9434:9448   */\n      add\n        /* \"#utility.yul\":9528:9532   */\n      0x00\n        /* \"#utility.yul\":9521:9526   */\n      dup4\n        /* \"#utility.yul\":9517:9533   */\n      add\n        /* \"#utility.yul\":9511:9534   */\n      mload\n        /* \"#utility.yul\":9547:9610   */\n      tag_314\n        /* \"#utility.yul\":9604:9608   */\n      0x00\n        /* \"#utility.yul\":9599:9602   */\n      dup7\n        /* \"#utility.yul\":9595:9609   */\n      add\n        /* \"#utility.yul\":9581:9593   */\n      dup3\n        /* \"#utility.yul\":9547:9610   */\n      tag_165\n      jump\t// in\n    tag_314:\n        /* \"#utility.yul\":9458:9620   */\n      pop\n        /* \"#utility.yul\":9705:9709   */\n      0x20\n        /* \"#utility.yul\":9698:9703   */\n      dup4\n        /* \"#utility.yul\":9694:9710   */\n      add\n        /* \"#utility.yul\":9688:9711   */\n      mload\n        /* \"#utility.yul\":9758:9761   */\n      dup5\n        /* \"#utility.yul\":9752:9756   */\n      dup3\n        /* \"#utility.yul\":9748:9762   */\n      sub\n        /* \"#utility.yul\":9741:9745   */\n      0x20\n        /* \"#utility.yul\":9736:9739   */\n      dup7\n        /* \"#utility.yul\":9732:9746   */\n      add\n        /* \"#utility.yul\":9725:9763   */\n      mstore\n        /* \"#utility.yul\":9784:9857   */\n      tag_315\n        /* \"#utility.yul\":9852:9856   */\n      dup3\n        /* \"#utility.yul\":9838:9850   */\n      dup3\n        /* \"#utility.yul\":9784:9857   */\n      tag_170\n      jump\t// in\n    tag_315:\n        /* \"#utility.yul\":9776:9857   */\n      swap2\n      pop\n        /* \"#utility.yul\":9630:9868   */\n      pop\n        /* \"#utility.yul\":9952:9956   */\n      0x40\n        /* \"#utility.yul\":9945:9950   */\n      dup4\n        /* \"#utility.yul\":9941:9957   */\n      add\n        /* \"#utility.yul\":9935:9958   */\n      mload\n        /* \"#utility.yul\":9971:10041   */\n      tag_316\n        /* \"#utility.yul\":10035:10039   */\n      0x40\n        /* \"#utility.yul\":10030:10033   */\n      dup7\n        /* \"#utility.yul\":10026:10040   */\n      add\n        /* \"#utility.yul\":10012:10024   */\n      dup3\n        /* \"#utility.yul\":9971:10041   */\n      tag_174\n      jump\t// in\n    tag_316:\n        /* \"#utility.yul\":9878:10051   */\n      pop\n        /* \"#utility.yul\":10138:10142   */\n      0x60\n        /* \"#utility.yul\":10131:10136   */\n      dup4\n        /* \"#utility.yul\":10127:10143   */\n      add\n        /* \"#utility.yul\":10121:10144   */\n      mload\n        /* \"#utility.yul\":10157:10220   */\n      tag_317\n        /* \"#utility.yul\":10214:10218   */\n      0x60\n        /* \"#utility.yul\":10209:10212   */\n      dup7\n        /* \"#utility.yul\":10205:10219   */\n      add\n        /* \"#utility.yul\":10191:10203   */\n      dup3\n        /* \"#utility.yul\":10157:10220   */\n      tag_165\n      jump\t// in\n    tag_317:\n        /* \"#utility.yul\":10061:10230   */\n      pop\n        /* \"#utility.yul\":10317:10321   */\n      0x80\n        /* \"#utility.yul\":10310:10315   */\n      dup4\n        /* \"#utility.yul\":10306:10322   */\n      add\n        /* \"#utility.yul\":10300:10323   */\n      mload\n        /* \"#utility.yul\":10336:10399   */\n      tag_318\n        /* \"#utility.yul\":10393:10397   */\n      0x80\n        /* \"#utility.yul\":10388:10391   */\n      dup7\n        /* \"#utility.yul\":10384:10398   */\n      add\n        /* \"#utility.yul\":10370:10382   */\n      dup3\n        /* \"#utility.yul\":10336:10399   */\n      tag_177\n      jump\t// in\n    tag_318:\n        /* \"#utility.yul\":10240:10409   */\n      pop\n        /* \"#utility.yul\":10426:10430   */\n      dup1\n        /* \"#utility.yul\":10419:10430   */\n      swap2\n      pop\n        /* \"#utility.yul\":9412:10436   */\n      pop\n        /* \"#utility.yul\":9298:10436   */\n      swap3\n      swap2\n      pop\n      pop\n      jump\t// out\n        /* \"#utility.yul\":10442:10795   */\n    tag_24:\n        /* \"#utility.yul\":10575:10579   */\n      0x00\n        /* \"#utility.yul\":10613:10615   */\n      0x20\n        /* \"#utility.yul\":10602:10611   */\n      dup3\n        /* \"#utility.yul\":10598:10616   */\n      add\n        /* \"#utility.yul\":10590:10616   */\n      swap1\n      pop\n        /* \"#utility.yul\":10662:10671   */\n      dup2\n        /* \"#utility.yul\":10656:10660   */\n      dup2\n        /* \"#utility.yul\":10652:10672   */\n      sub\n        /* \"#utility.yul\":10648:10649   */\n      0x00\n        /* \"#utility.yul\":10637:10646   */\n      dup4\n        /* \"#utility.yul\":10633:10650   */\n      add\n        /* \"#utility.yul\":10626:10673   */\n      mstore\n        /* \"#utility.yul\":10690:10788   */\n      tag_320\n        /* \"#utility.yul\":10783:10787   */\n      dup2\n        /* \"#utility.yul\":10774:10780   */\n      dup5\n        /* \"#utility.yul\":10690:10788   */\n      tag_188\n      jump\t// in\n    tag_320:\n        /* \"#utility.yul\":10682:10788   */\n      swap1\n      pop\n        /* \"#utility.yul\":10442:10795   */\n      swap3\n      swap2\n      pop\n      pop\n      jump\t// out\n        /* \"#utility.yul\":10801:11493   */\n    tag_27:\n        /* \"#utility.yul\":10890:10896   */\n      0x00\n        /* \"#utility.yul\":10898:10904   */\n      dup1\n        /* \"#utility.yul\":10906:10912   */\n      0x00\n        /* \"#utility.yul\":10955:10957   */\n      0x40\n        /* \"#utility.yul\":10943:10952   */\n      dup5\n        /* \"#utility.yul\":10934:10941   */\n      dup7\n        /* \"#utility.yul\":10930:10953   */\n      sub\n        /* \"#utility.yul\":10926:10958   */\n      slt\n        /* \"#utility.yul\":10923:11042   */\n      iszero\n      tag_322\n      jumpi\n        /* \"#utility.yul\":10961:11040   */\n      tag_323\n      tag_155\n      jump\t// in\n    tag_323:\n        /* \"#utility.yul\":10923:11042   */\n    tag_322:\n        /* \"#utility.yul\":11109:11110   */\n      0x00\n        /* \"#utility.yul\":11098:11107   */\n      dup5\n        /* \"#utility.yul\":11094:11111   */\n      add\n        /* \"#utility.yul\":11081:11112   */\n      calldataload\n        /* \"#utility.yul\":11139:11157   */\n      0xffffffffffffffff\n        /* \"#utility.yul\":11131:11137   */\n      dup2\n        /* \"#utility.yul\":11128:11158   */\n      gt\n        /* \"#utility.yul\":11125:11242   */\n      iszero\n      tag_324\n      jumpi\n        /* \"#utility.yul\":11161:11240   */\n      tag_325\n      tag_156\n      jump\t// in\n    tag_325:\n        /* \"#utility.yul\":11125:11242   */\n    tag_324:\n        /* \"#utility.yul\":11274:11339   */\n      tag_326\n        /* \"#utility.yul\":11331:11338   */\n      dup7\n        /* \"#utility.yul\":11322:11328   */\n      dup3\n        /* \"#utility.yul\":11311:11320   */\n      dup8\n        /* \"#utility.yul\":11307:11329   */\n      add\n        /* \"#utility.yul\":11274:11339   */\n      tag_185\n      jump\t// in\n    tag_326:\n        /* \"#utility.yul\":11256:11339   */\n      swap4\n      pop\n      swap4\n      pop\n        /* \"#utility.yul\":11052:11349   */\n      pop\n        /* \"#utility.yul\":11388:11390   */\n      0x20\n        /* \"#utility.yul\":11414:11476   */\n      tag_327\n        /* \"#utility.yul\":11468:11475   */\n      dup7\n        /* \"#utility.yul\":11459:11465   */\n      dup3\n        /* \"#utility.yul\":11448:11457   */\n      dup8\n        /* \"#utility.yul\":11444:11466   */\n      add\n        /* \"#utility.yul\":11414:11476   */\n      tag_187\n      jump\t// in\n    tag_327:\n        /* \"#utility.yul\":11404:11476   */\n      swap2\n      pop\n        /* \"#utility.yul\":11359:11486   */\n      pop\n        /* \"#utility.yul\":10801:11493   */\n      swap3\n      pop\n      swap3\n      pop\n      swap3\n      jump\t// out\n        /* \"#utility.yul\":11499:11668   */\n    tag_189:\n        /* \"#utility.yul\":11583:11594   */\n      0x00\n        /* \"#utility.yul\":11617:11623   */\n      dup3\n        /* \"#utility.yul\":11612:11615   */\n      dup3\n        /* \"#utility.yul\":11605:11624   */\n      mstore\n        /* \"#utility.yul\":11657:11661   */\n      0x20\n        /* \"#utility.yul\":11652:11655   */\n      dup3\n        /* \"#utility.yul\":11648:11662   */\n      add\n        /* \"#utility.yul\":11633:11662   */\n      swap1\n      pop\n        /* \"#utility.yul\":11499:11668   */\n      swap3\n      swap2\n      pop\n      pop\n      jump\t// out\n        /* \"#utility.yul\":11674:11841   */\n    tag_190:\n        /* \"#utility.yul\":11814:11833   */\n      0x4964206d757374206265206f7665722030000000000000000000000000000000\n        /* \"#utility.yul\":11810:11811   */\n      0x00\n        /* \"#utility.yul\":11802:11808   */\n      dup3\n        /* \"#utility.yul\":11798:11812   */\n      add\n        /* \"#utility.yul\":11791:11834   */\n      mstore\n        /* \"#utility.yul\":11674:11841   */\n      pop\n      jump\t// out\n        /* \"#utility.yul\":11847:12213   */\n    tag_191:\n        /* \"#utility.yul\":11989:11992   */\n      0x00\n        /* \"#utility.yul\":12010:12077   */\n      tag_331\n        /* \"#utility.yul\":12074:12076   */\n      0x11\n        /* \"#utility.yul\":12069:12072   */\n      dup4\n        /* \"#utility.yul\":12010:12077   */\n      tag_189\n      jump\t// in\n    tag_331:\n        /* \"#utility.yul\":12003:12077   */\n      swap2\n      pop\n        /* \"#utility.yul\":12086:12179   */\n      tag_332\n        /* \"#utility.yul\":12175:12178   */\n      dup3\n        /* \"#utility.yul\":12086:12179   */\n      tag_190\n      jump\t// in\n    tag_332:\n        /* \"#utility.yul\":12204:12206   */\n      0x20\n        /* \"#utility.yul\":12199:12202   */\n      dup3\n        /* \"#utility.yul\":12195:12207   */\n      add\n        /* \"#utility.yul\":12188:12207   */\n      swap1\n      pop\n        /* \"#utility.yul\":11847:12213   */\n      swap2\n      swap1\n      pop\n      jump\t// out\n        /* \"#utility.yul\":12219:12638   */\n    tag_33:\n        /* \"#utility.yul\":12385:12389   */\n      0x00\n        /* \"#utility.yul\":12423:12425   */\n      0x20\n        /* \"#utility.yul\":12412:12421   */\n      dup3\n        /* \"#utility.yul\":12408:12426   */\n      add\n        /* \"#utility.yul\":12400:12426   */\n      swap1\n      pop\n        /* \"#utility.yul\":12472:12481   */\n      dup2\n        /* \"#utility.yul\":12466:12470   */\n      dup2\n        /* \"#utility.yul\":12462:12482   */\n      sub\n        /* \"#utility.yul\":12458:12459   */\n      0x00\n        /* \"#utility.yul\":12447:12456   */\n      dup4\n        /* \"#utility.yul\":12443:12460   */\n      add\n        /* \"#utility.yul\":12436:12483   */\n      mstore\n        /* \"#utility.yul\":12500:12631   */\n      tag_334\n        /* \"#utility.yul\":12626:12630   */\n      dup2\n        /* \"#utility.yul\":12500:12631   */\n      tag_191\n      jump\t// in\n    tag_334:\n        /* \"#utility.yul\":12492:12631   */\n      swap1\n      pop\n        /* \"#utility.yul\":12219:12638   */\n      swap2\n      swap1\n      pop\n      jump\t// out\n        /* \"#utility.yul\":12644:12824   */\n    tag_192:\n        /* \"#utility.yul\":12692:12769   */\n      0x4e487b7100000000000000000000000000000000000000000000000000000000\n        /* \"#utility.yul\":12689:12690   */\n      0x00\n        /* \"#utility.yul\":12682:12770   */\n      mstore\n        /* \"#utility.yul\":12789:12793   */\n      0x22\n        /* \"#utility.yul\":12786:12787   */\n      0x04\n        /* \"#utility.yul\":12779:12794   */\n      mstore\n        /* \"#utility.yul\":12813:12817   */\n      0x24\n        /* \"#utility.yul\":12810:12811   */\n      0x00\n        /* \"#utility.yul\":12803:12818   */\n      revert\n        /* \"#utility.yul\":12830:13150   */\n    tag_35:\n        /* \"#utility.yul\":12874:12880   */\n      0x00\n        /* \"#utility.yul\":12911:12912   */\n      0x02\n        /* \"#utility.yul\":12905:12909   */\n      dup3\n        /* \"#utility.yul\":12901:12913   */\n      div\n        /* \"#utility.yul\":12891:12913   */\n      swap1\n      pop\n        /* \"#utility.yul\":12958:12959   */\n      0x01\n        /* \"#utility.yul\":12952:12956   */\n      dup3\n        /* \"#utility.yul\":12948:12960   */\n      and\n        /* \"#utility.yul\":12979:12997   */\n      dup1\n        /* \"#utility.yul\":12969:13050   */\n      tag_337\n      jumpi\n        /* \"#utility.yul\":13035:13039   */\n      0x7f\n        /* \"#utility.yul\":13027:13033   */\n      dup3\n        /* \"#utility.yul\":13023:13040   */\n      and\n        /* \"#utility.yul\":13013:13040   */\n      swap2\n      pop\n        /* \"#utility.yul\":12969:13050   */\n    tag_337:\n        /* \"#utility.yul\":13097:13099   */\n      0x20\n        /* \"#utility.yul\":13089:13095   */\n      dup3\n        /* \"#utility.yul\":13086:13100   */\n      lt\n        /* \"#utility.yul\":13066:13084   */\n      dup2\n        /* \"#utility.yul\":13063:13101   */\n      sub\n        /* \"#utility.yul\":13060:13144   */\n      tag_338\n      jumpi\n        /* \"#utility.yul\":13116:13134   */\n      tag_339\n      tag_192\n      jump\t// in\n    tag_339:\n        /* \"#utility.yul\":13060:13144   */\n    tag_338:\n        /* \"#utility.yul\":12881:13150   */\n      pop\n        /* \"#utility.yul\":12830:13150   */\n      swap2\n      swap1\n      pop\n      jump\t// out\n        /* \"#utility.yul\":13156:13318   */\n    tag_193:\n        /* \"#utility.yul\":13296:13310   */\n      0x556e617574686f72697a65640000000000000000000000000000000000000000\n        /* \"#utility.yul\":13292:13293   */\n      0x00\n        /* \"#utility.yul\":13284:13290   */\n      dup3\n        /* \"#utility.yul\":13280:13294   */\n      add\n        /* \"#utility.yul\":13273:13311   */\n      mstore\n        /* \"#utility.yul\":13156:13318   */\n      pop\n      jump\t// out\n        /* \"#utility.yul\":13324:13690   */\n    tag_194:\n        /* \"#utility.yul\":13466:13469   */\n      0x00\n        /* \"#utility.yul\":13487:13554   */\n      tag_342\n        /* \"#utility.yul\":13551:13553   */\n      0x0c\n        /* \"#utility.yul\":13546:13549   */\n      dup4\n        /* \"#utility.yul\":13487:13554   */\n      tag_189\n      jump\t// in\n    tag_342:\n        /* \"#utility.yul\":13480:13554   */\n      swap2\n      pop\n        /* \"#utility.yul\":13563:13656   */\n      tag_343\n        /* \"#utility.yul\":13652:13655   */\n      dup3\n        /* \"#utility.yul\":13563:13656   */\n      tag_193\n      jump\t// in\n    tag_343:\n        /* \"#utility.yul\":13681:13683   */\n      0x20\n        /* \"#utility.yul\":13676:13679   */\n      dup3\n        /* \"#utility.yul\":13672:13684   */\n      add\n        /* \"#utility.yul\":13665:13684   */\n      swap1\n      pop\n        /* \"#utility.yul\":13324:13690   */\n      swap2\n      swap1\n      pop\n      jump\t// out\n        /* \"#utility.yul\":13696:14115   */\n    tag_47:\n        /* \"#utility.yul\":13862:13866   */\n      0x00\n        /* \"#utility.yul\":13900:13902   */\n      0x20\n        /* \"#utility.yul\":13889:13898   */\n      dup3\n        /* \"#utility.yul\":13885:13903   */\n      add\n        /* \"#utility.yul\":13877:13903   */\n      swap1\n      pop\n        /* \"#utility.yul\":13949:13958   */\n      dup2\n        /* \"#utility.yul\":13943:13947   */\n      dup2\n        /* \"#utility.yul\":13939:13959   */\n      sub\n        /* \"#utility.yul\":13935:13936   */\n      0x00\n        /* \"#utility.yul\":13924:13933   */\n      dup4\n        /* \"#utility.yul\":13920:13937   */\n      add\n        /* \"#utility.yul\":13913:13960   */\n      mstore\n        /* \"#utility.yul\":13977:14108   */\n      tag_345\n        /* \"#utility.yul\":14103:14107   */\n      dup2\n        /* \"#utility.yul\":13977:14108   */\n      tag_194\n      jump\t// in\n    tag_345:\n        /* \"#utility.yul\":13969:14108   */\n      swap1\n      pop\n        /* \"#utility.yul\":13696:14115   */\n      swap2\n      swap1\n      pop\n      jump\t// out\n        /* \"#utility.yul\":14121:14288   */\n    tag_195:\n        /* \"#utility.yul\":14261:14280   */\n      0x5461736b206973206e6f7420666f756e64000000000000000000000000000000\n        /* \"#utility.yul\":14257:14258   */\n      0x00\n        /* \"#utility.yul\":14249:14255   */\n      dup3\n        /* \"#utility.yul\":14245:14259   */\n      add\n        /* \"#utility.yul\":14238:14281   */\n      mstore\n        /* \"#utility.yul\":14121:14288   */\n      pop\n      jump\t// out\n        /* \"#utility.yul\":14294:14660   */\n    tag_196:\n        /* \"#utility.yul\":14436:14439   */\n      0x00\n        /* \"#utility.yul\":14457:14524   */\n      tag_348\n        /* \"#utility.yul\":14521:14523   */\n      0x11\n        /* \"#utility.yul\":14516:14519   */\n      dup4\n        /* \"#utility.yul\":14457:14524   */\n      tag_189\n      jump\t// in\n    tag_348:\n        /* \"#utility.yul\":14450:14524   */\n      swap2\n      pop\n        /* \"#utility.yul\":14533:14626   */\n      tag_349\n        /* \"#utility.yul\":14622:14625   */\n      dup3\n        /* \"#utility.yul\":14533:14626   */\n      tag_195\n      jump\t// in\n    tag_349:\n        /* \"#utility.yul\":14651:14653   */\n      0x20\n        /* \"#utility.yul\":14646:14649   */\n      dup3\n        /* \"#utility.yul\":14642:14654   */\n      add\n        /* \"#utility.yul\":14635:14654   */\n      swap1\n      pop\n        /* \"#utility.yul\":14294:14660   */\n      swap2\n      swap1\n      pop\n      jump\t// out\n        /* \"#utility.yul\":14666:15085   */\n    tag_50:\n        /* \"#utility.yul\":14832:14836   */\n      0x00\n        /* \"#utility.yul\":14870:14872   */\n      0x20\n        /* \"#utility.yul\":14859:14868   */\n      dup3\n        /* \"#utility.yul\":14855:14873   */\n      add\n        /* \"#utility.yul\":14847:14873   */\n      swap1\n      pop\n        /* \"#utility.yul\":14919:14928   */\n      dup2\n        /* \"#utility.yul\":14913:14917   */\n      dup2\n        /* \"#utility.yul\":14909:14929   */\n      sub\n        /* \"#utility.yul\":14905:14906   */\n      0x00\n        /* \"#utility.yul\":14894:14903   */\n      dup4\n        /* \"#utility.yul\":14890:14907   */\n      add\n        /* \"#utility.yul\":14883:14930   */\n      mstore\n        /* \"#utility.yul\":14947:15078   */\n      tag_351\n        /* \"#utility.yul\":15073:15077   */\n      dup2\n        /* \"#utility.yul\":14947:15078   */\n      tag_196\n      jump\t// in\n    tag_351:\n        /* \"#utility.yul\":14939:15078   */\n      swap1\n      pop\n        /* \"#utility.yul\":14666:15085   */\n      swap2\n      swap1\n      pop\n      jump\t// out\n        /* \"#utility.yul\":15091:15238   */\n    tag_197:\n        /* \"#utility.yul\":15192:15203   */\n      0x00\n        /* \"#utility.yul\":15229:15232   */\n      dup2\n        /* \"#utility.yul\":15214:15232   */\n      swap1\n      pop\n        /* \"#utility.yul\":15091:15238   */\n      swap3\n      swap2\n      pop\n      pop\n      jump\t// out\n        /* \"#utility.yul\":15244:15358   */\n    tag_198:\n      pop\n      jump\t// out\n        /* \"#utility.yul\":15364:15762   */\n    tag_199:\n        /* \"#utility.yul\":15523:15526   */\n      0x00\n        /* \"#utility.yul\":15544:15627   */\n      tag_355\n        /* \"#utility.yul\":15625:15626   */\n      0x00\n        /* \"#utility.yul\":15620:15623   */\n      dup4\n        /* \"#utility.yul\":15544:15627   */\n      tag_197\n      jump\t// in\n    tag_355:\n        /* \"#utility.yul\":15537:15627   */\n      swap2\n      pop\n        /* \"#utility.yul\":15636:15729   */\n      tag_356\n        /* \"#utility.yul\":15725:15728   */\n      dup3\n        /* \"#utility.yul\":15636:15729   */\n      tag_198\n      jump\t// in\n    tag_356:\n        /* \"#utility.yul\":15754:15755   */\n      0x00\n        /* \"#utility.yul\":15749:15752   */\n      dup3\n        /* \"#utility.yul\":15745:15756   */\n      add\n        /* \"#utility.yul\":15738:15756   */\n      swap1\n      pop\n        /* \"#utility.yul\":15364:15762   */\n      swap2\n      swap1\n      pop\n      jump\t// out\n        /* \"#utility.yul\":15768:16147   */\n    tag_54:\n        /* \"#utility.yul\":15952:15955   */\n      0x00\n        /* \"#utility.yul\":15974:16121   */\n      tag_358\n        /* \"#utility.yul\":16117:16120   */\n      dup3\n        /* \"#utility.yul\":15974:16121   */\n      tag_199\n      jump\t// in\n    tag_358:\n        /* \"#utility.yul\":15967:16121   */\n      swap2\n      pop\n        /* \"#utility.yul\":16138:16141   */\n      dup2\n        /* \"#utility.yul\":16131:16141   */\n      swap1\n      pop\n        /* \"#utility.yul\":15768:16147   */\n      swap2\n      swap1\n      pop\n      jump\t// out\n        /* \"#utility.yul\":16153:16271   */\n    tag_200:\n        /* \"#utility.yul\":16240:16264   */\n      tag_360\n        /* \"#utility.yul\":16258:16263   */\n      dup2\n        /* \"#utility.yul\":16240:16264   */\n      tag_157\n      jump\t// in\n    tag_360:\n        /* \"#utility.yul\":16235:16238   */\n      dup3\n        /* \"#utility.yul\":16228:16265   */\n      mstore\n        /* \"#utility.yul\":16153:16271   */\n      pop\n      pop\n      jump\t// out\n        /* \"#utility.yul\":16277:16499   */\n    tag_60:\n        /* \"#utility.yul\":16370:16374   */\n      0x00\n        /* \"#utility.yul\":16408:16410   */\n      0x20\n        /* \"#utility.yul\":16397:16406   */\n      dup3\n        /* \"#utility.yul\":16393:16411   */\n      add\n        /* \"#utility.yul\":16385:16411   */\n      swap1\n      pop\n        /* \"#utility.yul\":16421:16492   */\n      tag_362\n        /* \"#utility.yul\":16489:16490   */\n      0x00\n        /* \"#utility.yul\":16478:16487   */\n      dup4\n        /* \"#utility.yul\":16474:16491   */\n      add\n        /* \"#utility.yul\":16465:16471   */\n      dup5\n        /* \"#utility.yul\":16421:16492   */\n      tag_200\n      jump\t// in\n    tag_362:\n        /* \"#utility.yul\":16277:16499   */\n      swap3\n      swap2\n      pop\n      pop\n      jump\t// out\n        /* \"#utility.yul\":16505:16685   */\n    tag_65:\n        /* \"#utility.yul\":16553:16630   */\n      0x4e487b7100000000000000000000000000000000000000000000000000000000\n        /* \"#utility.yul\":16550:16551   */\n      0x00\n        /* \"#utility.yul\":16543:16631   */\n      mstore\n        /* \"#utility.yul\":16650:16654   */\n      0x41\n        /* \"#utility.yul\":16647:16648   */\n      0x04\n        /* \"#utility.yul\":16640:16655   */\n      mstore\n        /* \"#utility.yul\":16674:16678   */\n      0x24\n        /* \"#utility.yul\":16671:16672   */\n      0x00\n        /* \"#utility.yul\":16664:16679   */\n      revert\n        /* \"#utility.yul\":16691:16871   */\n    tag_86:\n        /* \"#utility.yul\":16739:16816   */\n      0x4e487b7100000000000000000000000000000000000000000000000000000000\n        /* \"#utility.yul\":16736:16737   */\n      0x00\n        /* \"#utility.yul\":16729:16817   */\n      mstore\n        /* \"#utility.yul\":16836:16840   */\n      0x32\n        /* \"#utility.yul\":16833:16834   */\n      0x04\n        /* \"#utility.yul\":16826:16841   */\n      mstore\n        /* \"#utility.yul\":16860:16864   */\n      0x24\n        /* \"#utility.yul\":16857:16858   */\n      0x00\n        /* \"#utility.yul\":16850:16865   */\n      revert\n        /* \"#utility.yul\":16877:17057   */\n    tag_201:\n        /* \"#utility.yul\":16925:17002   */\n      0x4e487b7100000000000000000000000000000000000000000000000000000000\n        /* \"#utility.yul\":16922:16923   */\n      0x00\n        /* \"#utility.yul\":16915:17003   */\n      mstore\n        /* \"#utility.yul\":17022:17026   */\n      0x11\n        /* \"#utility.yul\":17019:17020   */\n      0x04\n        /* \"#utility.yul\":17012:17027   */\n      mstore\n        /* \"#utility.yul\":17046:17050   */\n      0x24\n        /* \"#utility.yul\":17043:17044   */\n      0x00\n        /* \"#utility.yul\":17036:17051   */\n      revert\n        /* \"#utility.yul\":17063:17296   */\n    tag_88:\n        /* \"#utility.yul\":17102:17105   */\n      0x00\n        /* \"#utility.yul\":17125:17149   */\n      tag_367\n        /* \"#utility.yul\":17143:17148   */\n      dup3\n        /* \"#utility.yul\":17125:17149   */\n      tag_157\n      jump\t// in\n    tag_367:\n        /* \"#utility.yul\":17116:17149   */\n      swap2\n      pop\n        /* \"#utility.yul\":17171:17237   */\n      0xffffffffffffffffffffffffffffffffffffffffffffffffffffffffffffffff\n        /* \"#utility.yul\":17164:17169   */\n      dup3\n        /* \"#utility.yul\":17161:17238   */\n      sub\n        /* \"#utility.yul\":17158:17261   */\n      tag_368\n      jumpi\n        /* \"#utility.yul\":17241:17259   */\n      tag_369\n      tag_201\n      jump\t// in\n    tag_369:\n        /* \"#utility.yul\":17158:17261   */\n    tag_368:\n        /* \"#utility.yul\":17288:17289   */\n      0x01\n        /* \"#utility.yul\":17281:17286   */\n      dup3\n        /* \"#utility.yul\":17277:17290   */\n      add\n        /* \"#utility.yul\":17270:17290   */\n      swap1\n      pop\n        /* \"#utility.yul\":17063:17296   */\n      swap2\n      swap1\n      pop\n      jump\t// out\n        /* \"#utility.yul\":17302:17477   */\n    tag_202:\n        /* \"#utility.yul\":17442:17469   */\n      0x436f6e74656e74206d757374206e6f7420626520656d70747900000000000000\n        /* \"#utility.yul\":17438:17439   */\n      0x00\n        /* \"#utility.yul\":17430:17436   */\n      dup3\n        /* \"#utility.yul\":17426:17440   */\n      add\n        /* \"#utility.yul\":17419:17470   */\n      mstore\n        /* \"#utility.yul\":17302:17477   */\n      pop\n      jump\t// out\n        /* \"#utility.yul\":17483:17849   */\n    tag_203:\n        /* \"#utility.yul\":17625:17628   */\n      0x00\n        /* \"#utility.yul\":17646:17713   */\n      tag_372\n        /* \"#utility.yul\":17710:17712   */\n      0x19\n        /* \"#utility.yul\":17705:17708   */\n      dup4\n        /* \"#utility.yul\":17646:17713   */\n      tag_189\n      jump\t// in\n    tag_372:\n        /* \"#utility.yul\":17639:17713   */\n      swap2\n      pop\n        /* \"#utility.yul\":17722:17815   */\n      tag_373\n        /* \"#utility.yul\":17811:17814   */\n      dup3\n        /* \"#utility.yul\":17722:17815   */\n      tag_202\n      jump\t// in\n    tag_373:\n        /* \"#utility.yul\":17840:17842   */\n      0x20\n        /* \"#utility.yul\":17835:17838   */\n      dup3\n        /* \"#utility.yul\":17831:17843   */\n      add\n        /* \"#utility.yul\":17824:17843   */\n      swap1\n      pop\n        /* \"#utility.yul\":17483:17849   */\n      swap2\n      swap1\n      pop\n      jump\t// out\n        /* \"#utility.yul\":17855:18274   */\n    tag_96:\n        /* \"#utility.yul\":18021:18025   */\n      0x00\n        /* \"#utility.yul\":18059:18061   */\n      0x20\n        /* \"#utility.yul\":18048:18057   */\n      dup3\n        /* \"#utility.yul\":18044:18062   */\n      add\n        /* \"#utility.yul\":18036:18062   */\n      swap1\n      pop\n        /* \"#utility.yul\":18108:18117   */\n      dup2\n        /* \"#utility.yul\":18102:18106   */\n      dup2\n        /* \"#utility.yul\":18098:18118   */\n      sub\n        /* \"#utility.yul\":18094:18095   */\n      0x00\n        /* \"#utility.yul\":18083:18092   */\n      dup4\n        /* \"#utility.yul\":18079:18096   */\n      add\n        /* \"#utility.yul\":18072:18119   */\n      mstore\n        /* \"#utility.yul\":18136:18267   */\n      tag_375\n        /* \"#utility.yul\":18262:18266   */\n      dup2\n        /* \"#utility.yul\":18136:18267   */\n      tag_203\n      jump\t// in\n    tag_375:\n        /* \"#utility.yul\":18128:18267   */\n      swap1\n      pop\n        /* \"#utility.yul\":17855:18274   */\n      swap2\n      swap1\n      pop\n      jump\t// out\n        /* \"#utility.yul\":18280:18501   */\n    tag_204:\n        /* \"#utility.yul\":18420:18454   */\n      0x537461747573206d75737420626520544f444f2c20444f494e47206f7220444f\n        /* \"#utility.yul\":18416:18417   */\n      0x00\n        /* \"#utility.yul\":18408:18414   */\n      dup3\n        /* \"#utility.yul\":18404:18418   */\n      add\n        /* \"#utility.yul\":18397:18455   */\n      mstore\n        /* \"#utility.yul\":18489:18493   */\n      0x4e45000000000000000000000000000000000000000000000000000000000000\n        /* \"#utility.yul\":18484:18486   */\n      0x20\n        /* \"#utility.yul\":18476:18482   */\n      dup3\n        /* \"#utility.yul\":18472:18487   */\n      add\n        /* \"#utility.yul\":18465:18494   */\n      mstore\n        /* \"#utility.yul\":18280:18501   */\n      pop\n      jump\t// out\n        /* \"#utility.yul\":18507:18873   */\n    tag_205:\n        /* \"#utility.yul\":18649:18652   */\n      0x00\n        /* \"#utility.yul\":18670:18737   */\n      tag_378\n        /* \"#utility.yul\":18734:18736   */\n      0x22\n        /* \"#utility.yul\":18729:18732   */\n      dup4\n        /* \"#utility.yul\":18670:18737   */\n      tag_189\n      jump\t// in\n    tag_378:\n        /* \"#utility.yul\":18663:18737   */\n      swap2\n      pop\n        /* \"#utility.yul\":18746:18839   */\n      tag_379\n        /* \"#utility.yul\":18835:18838   */\n      dup3\n        /* \"#utility.yul\":18746:18839   */\n      tag_204\n      jump\t// in\n    tag_379:\n        /* \"#utility.yul\":18864:18866   */\n      0x40\n        /* \"#utility.yul\":18859:18862   */\n      dup3\n        /* \"#utility.yul\":18855:18867   */\n      add\n        /* \"#utility.yul\":18848:18867   */\n      swap1\n      pop\n        /* \"#utility.yul\":18507:18873   */\n      swap2\n      swap1\n      pop\n      jump\t// out\n        /* \"#utility.yul\":18879:19298   */\n    tag_103:\n        /* \"#utility.yul\":19045:19049   */\n      0x00\n        /* \"#utility.yul\":19083:19085   */\n      0x20\n        /* \"#utility.yul\":19072:19081   */\n      dup3\n        /* \"#utility.yul\":19068:19086   */\n      add\n        /* \"#utility.yul\":19060:19086   */\n      swap1\n      pop\n        /* \"#utility.yul\":19132:19141   */\n      dup2\n        /* \"#utility.yul\":19126:19130   */\n      dup2\n        /* \"#utility.yul\":19122:19142   */\n      sub\n        /* \"#utility.yul\":19118:19119   */\n      0x00\n        /* \"#utility.yul\":19107:19116   */\n      dup4\n        /* \"#utility.yul\":19103:19120   */\n      add\n        /* \"#utility.yul\":19096:19143   */\n      mstore\n        /* \"#utility.yul\":19160:19291   */\n      tag_381\n        /* \"#utility.yul\":19286:19290   */\n      dup2\n        /* \"#utility.yul\":19160:19291   */\n      tag_205\n      jump\t// in\n    tag_381:\n        /* \"#utility.yul\":19152:19291   */\n      swap1\n      pop\n        /* \"#utility.yul\":18879:19298   */\n      swap2\n      swap1\n      pop\n      jump\t// out\n        /* \"#utility.yul\":19304:19445   */\n    tag_206:\n        /* \"#utility.yul\":19353:19357   */\n      0x00\n        /* \"#utility.yul\":19376:19379   */\n      dup2\n        /* \"#utility.yul\":19368:19379   */\n      swap1\n      pop\n        /* \"#utility.yul\":19399:19402   */\n      dup2\n        /* \"#utility.yul\":19396:19397   */\n      0x00\n        /* \"#utility.yul\":19389:19403   */\n      mstore\n        /* \"#utility.yul\":19433:19437   */\n      0x20\n        /* \"#utility.yul\":19430:19431   */\n      0x00\n        /* \"#utility.yul\":19420:19438   */\n      keccak256\n        /* \"#utility.yul\":19412:19438   */\n      swap1\n      pop\n        /* \"#utility.yul\":19304:19445   */\n      swap2\n      swap1\n      pop\n      jump\t// out\n        /* \"#utility.yul\":19451:19544   */\n    tag_207:\n        /* \"#utility.yul\":19488:19494   */\n      0x00\n        /* \"#utility.yul\":19535:19537   */\n      0x20\n        /* \"#utility.yul\":19530:19532   */\n      0x1f\n        /* \"#utility.yul\":19523:19528   */\n      dup4\n        /* \"#utility.yul\":19519:19533   */\n      add\n        /* \"#utility.yul\":19515:19538   */\n      div\n        /* \"#utility.yul\":19505:19538   */\n      swap1\n      pop\n        /* \"#utility.yul\":19451:19544   */\n      swap2\n      swap1\n      pop\n      jump\t// out\n        /* \"#utility.yul\":19550:19657   */\n    tag_208:\n        /* \"#utility.yul\":19594:19602   */\n      0x00\n        /* \"#utility.yul\":19644:19649   */\n      dup3\n        /* \"#utility.yul\":19638:19642   */\n      dup3\n        /* \"#utility.yul\":19634:19650   */\n      shl\n        /* \"#utility.yul\":19613:19650   */\n      swap1\n      pop\n        /* \"#utility.yul\":19550:19657   */\n      swap3\n      swap2\n      pop\n      pop\n      jump\t// out\n        /* \"#utility.yul\":19663:20056   */\n    tag_209:\n        /* \"#utility.yul\":19732:19738   */\n      0x00\n        /* \"#utility.yul\":19782:19783   */\n      0x08\n        /* \"#utility.yul\":19770:19780   */\n      dup4\n        /* \"#utility.yul\":19766:19784   */\n      mul\n        /* \"#utility.yul\":19805:19902   */\n      tag_386\n        /* \"#utility.yul\":19835:19901   */\n      0xffffffffffffffffffffffffffffffffffffffffffffffffffffffffffffffff\n        /* \"#utility.yul\":19824:19833   */\n      dup3\n        /* \"#utility.yul\":19805:19902   */\n      tag_208\n      jump\t// in\n    tag_386:\n        /* \"#utility.yul\":19923:19962   */\n      tag_387\n        /* \"#utility.yul\":19953:19961   */\n      dup7\n        /* \"#utility.yul\":19942:19951   */\n      dup4\n        /* \"#utility.yul\":19923:19962   */\n      tag_208\n      jump\t// in\n    tag_387:\n        /* \"#utility.yul\":19911:19962   */\n      swap6\n      pop\n        /* \"#utility.yul\":19995:19999   */\n      dup1\n        /* \"#utility.yul\":19991:20000   */\n      not\n        /* \"#utility.yul\":19984:19989   */\n      dup5\n        /* \"#utility.yul\":19980:20001   */\n      and\n        /* \"#utility.yul\":19971:20001   */\n      swap4\n      pop\n        /* \"#utility.yul\":20044:20048   */\n      dup1\n        /* \"#utility.yul\":20034:20042   */\n      dup7\n        /* \"#utility.yul\":20030:20049   */\n      and\n        /* \"#utility.yul\":20023:20028   */\n      dup5\n        /* \"#utility.yul\":20020:20050   */\n      or\n        /* \"#utility.yul\":20010:20050   */\n      swap3\n      pop\n        /* \"#utility.yul\":19739:20056   */\n      pop\n      pop\n        /* \"#utility.yul\":19663:20056   */\n      swap4\n      swap3\n      pop\n      pop\n      pop\n      jump\t// out\n        /* \"#utility.yul\":20062:20122   */\n    tag_210:\n        /* \"#utility.yul\":20090:20093   */\n      0x00\n        /* \"#utility.yul\":20111:20116   */\n      dup2\n        /* \"#utility.yul\":20104:20116   */\n      swap1\n      pop\n        /* \"#utility.yul\":20062:20122   */\n      swap2\n      swap1\n      pop\n      jump\t// out\n        /* \"#utility.yul\":20128:20270   */\n    tag_211:\n        /* \"#utility.yul\":20178:20187   */\n      0x00\n        /* \"#utility.yul\":20211:20264   */\n      tag_390\n        /* \"#utility.yul\":20229:20263   */\n      tag_391\n        /* \"#utility.yul\":20238:20262   */\n      tag_392\n        /* \"#utility.yul\":20256:20261   */\n      dup5\n        /* \"#utility.yul\":20238:20262   */\n      tag_157\n      jump\t// in\n    tag_392:\n        /* \"#utility.yul\":20229:20263   */\n      tag_210\n      jump\t// in\n    tag_391:\n        /* \"#utility.yul\":20211:20264   */\n      tag_157\n      jump\t// in\n    tag_390:\n        /* \"#utility.yul\":20198:20264   */\n      swap1\n      pop\n        /* \"#utility.yul\":20128:20270   */\n      swap2\n      swap1\n      pop\n      jump\t// out\n        /* \"#utility.yul\":20276:20351   */\n    tag_212:\n        /* \"#utility.yul\":20319:20322   */\n      0x00\n        /* \"#utility.yul\":20340:20345   */\n      dup2\n        /* \"#utility.yul\":20333:20345   */\n      swap1\n      pop\n        /* \"#utility.yul\":20276:20351   */\n      swap2\n      swap1\n      pop\n      jump\t// out\n        /* \"#utility.yul\":20357:20626   */\n    tag_213:\n        /* \"#utility.yul\":20467:20506   */\n      tag_395\n        /* \"#utility.yul\":20498:20505   */\n      dup4\n        /* \"#utility.yul\":20467:20506   */\n      tag_211\n      jump\t// in\n    tag_395:\n        /* \"#utility.yul\":20528:20619   */\n      tag_396\n        /* \"#utility.yul\":20577:20618   */\n      tag_397\n        /* \"#utility.yul\":20601:20617   */\n      dup3\n        /* \"#utility.yul\":20577:20618   */\n      tag_212\n      jump\t// in\n    tag_397:\n        /* \"#utility.yul\":20569:20575   */\n      dup5\n        /* \"#utility.yul\":20562:20566   */\n      dup5\n        /* \"#utility.yul\":20556:20567   */\n      sload\n        /* \"#utility.yul\":20528:20619   */\n      tag_209\n      jump\t// in\n    tag_396:\n        /* \"#utility.yul\":20522:20526   */\n      dup3\n        /* \"#utility.yul\":20515:20620   */\n      sstore\n        /* \"#utility.yul\":20433:20626   */\n      pop\n        /* \"#utility.yul\":20357:20626   */\n      pop\n      pop\n      pop\n      jump\t// out\n        /* \"#utility.yul\":20632:20705   */\n    tag_214:\n        /* \"#utility.yul\":20677:20680   */\n      0x00\n        /* \"#utility.yul\":20632:20705   */\n      swap1\n      jump\t// out\n        /* \"#utility.yul\":20711:20900   */\n    tag_215:\n        /* \"#utility.yul\":20788:20820   */\n      tag_400\n      tag_214\n      jump\t// in\n    tag_400:\n        /* \"#utility.yul\":20829:20894   */\n      tag_401\n        /* \"#utility.yul\":20887:20893   */\n      dup2\n        /* \"#utility.yul\":20879:20885   */\n      dup5\n        /* \"#utility.yul\":20873:20877   */\n      dup5\n        /* \"#utility.yul\":20829:20894   */\n      tag_213\n      jump\t// in\n    tag_401:\n        /* \"#utility.yul\":20764:20900   */\n      pop\n        /* \"#utility.yul\":20711:20900   */\n      pop\n      pop\n      jump\t// out\n        /* \"#utility.yul\":20906:21092   */\n    tag_216:\n        /* \"#utility.yul\":20966:21086   */\n    tag_403:\n        /* \"#utility.yul\":20983:20986   */\n      dup2\n        /* \"#utility.yul\":20976:20981   */\n      dup2\n        /* \"#utility.yul\":20973:20987   */\n      lt\n        /* \"#utility.yul\":20966:21086   */\n      iszero\n      tag_405\n      jumpi\n        /* \"#utility.yul\":21037:21076   */\n      tag_406\n        /* \"#utility.yul\":21074:21075   */\n      0x00\n        /* \"#utility.yul\":21067:21072   */\n      dup3\n        /* \"#utility.yul\":21037:21076   */\n      tag_215\n      jump\t// in\n    tag_406:\n        /* \"#utility.yul\":21010:21011   */\n      0x01\n        /* \"#utility.yul\":21003:21008   */\n      dup2\n        /* \"#utility.yul\":20999:21012   */\n      add\n        /* \"#utility.yul\":20990:21012   */\n      swap1\n      pop\n        /* \"#utility.yul\":20966:21086   */\n      jump(tag_403)\n    tag_405:\n        /* \"#utility.yul\":20906:21092   */\n      pop\n      pop\n      jump\t// out\n        /* \"#utility.yul\":21098:21641   */\n    tag_217:\n        /* \"#utility.yul\":21199:21201   */\n      0x1f\n        /* \"#utility.yul\":21194:21197   */\n      dup3\n        /* \"#utility.yul\":21191:21202   */\n      gt\n        /* \"#utility.yul\":21188:21634   */\n      iszero\n      tag_408\n      jumpi\n        /* \"#utility.yul\":21233:21271   */\n      tag_409\n        /* \"#utility.yul\":21265:21270   */\n      dup2\n        /* \"#utility.yul\":21233:21271   */\n      tag_206\n      jump\t// in\n    tag_409:\n        /* \"#utility.yul\":21317:21346   */\n      tag_410\n        /* \"#utility.yul\":21335:21345   */\n      dup5\n        /* \"#utility.yul\":21317:21346   */\n      tag_207\n      jump\t// in\n    tag_410:\n        /* \"#utility.yul\":21307:21315   */\n      dup2\n        /* \"#utility.yul\":21303:21347   */\n      add\n        /* \"#utility.yul\":21500:21502   */\n      0x20\n        /* \"#utility.yul\":21488:21498   */\n      dup6\n        /* \"#utility.yul\":21485:21503   */\n      lt\n        /* \"#utility.yul\":21482:21531   */\n      iszero\n      tag_411\n      jumpi\n        /* \"#utility.yul\":21521:21529   */\n      dup2\n        /* \"#utility.yul\":21506:21529   */\n      swap1\n      pop\n        /* \"#utility.yul\":21482:21531   */\n    tag_411:\n        /* \"#utility.yul\":21544:21624   */\n      tag_412\n        /* \"#utility.yul\":21600:21622   */\n      tag_413\n        /* \"#utility.yul\":21618:21621   */\n      dup6\n        /* \"#utility.yul\":21600:21622   */\n      tag_207\n      jump\t// in\n    tag_413:\n        /* \"#utility.yul\":21590:21598   */\n      dup4\n        /* \"#utility.yul\":21586:21623   */\n      add\n        /* \"#utility.yul\":21573:21584   */\n      dup3\n        /* \"#utility.yul\":21544:21624   */\n      tag_216\n      jump\t// in\n    tag_412:\n        /* \"#utility.yul\":21203:21634   */\n      pop\n      pop\n        /* \"#utility.yul\":21188:21634   */\n    tag_408:\n        /* \"#utility.yul\":21098:21641   */\n      pop\n      pop\n      pop\n      jump\t// out\n        /* \"#utility.yul\":21647:21764   */\n    tag_218:\n        /* \"#utility.yul\":21701:21709   */\n      0x00\n        /* \"#utility.yul\":21751:21756   */\n      dup3\n        /* \"#utility.yul\":21745:21749   */\n      dup3\n        /* \"#utility.yul\":21741:21757   */\n      shr\n        /* \"#utility.yul\":21720:21757   */\n      swap1\n      pop\n        /* \"#utility.yul\":21647:21764   */\n      swap3\n      swap2\n      pop\n      pop\n      jump\t// out\n        /* \"#utility.yul\":21770:21939   */\n    tag_219:\n        /* \"#utility.yul\":21814:21820   */\n      0x00\n        /* \"#utility.yul\":21847:21898   */\n      tag_416\n        /* \"#utility.yul\":21895:21896   */\n      0x00\n        /* \"#utility.yul\":21891:21897   */\n      not\n        /* \"#utility.yul\":21883:21888   */\n      dup5\n        /* \"#utility.yul\":21880:21881   */\n      0x08\n        /* \"#utility.yul\":21876:21889   */\n      mul\n        /* \"#utility.yul\":21847:21898   */\n      tag_218\n      jump\t// in\n    tag_416:\n        /* \"#utility.yul\":21843:21899   */\n      not\n        /* \"#utility.yul\":21928:21932   */\n      dup1\n        /* \"#utility.yul\":21922:21926   */\n      dup4\n        /* \"#utility.yul\":21918:21933   */\n      and\n        /* \"#utility.yul\":21908:21933   */\n      swap2\n      pop\n        /* \"#utility.yul\":21821:21939   */\n      pop\n        /* \"#utility.yul\":21770:21939   */\n      swap3\n      swap2\n      pop\n      pop\n      jump\t// out\n        /* \"#utility.yul\":21944:22239   */\n    tag_220:\n        /* \"#utility.yul\":22020:22024   */\n      0x00\n        /* \"#utility.yul\":22166:22195   */\n      tag_418\n        /* \"#utility.yul\":22191:22194   */\n      dup4\n        /* \"#utility.yul\":22185:22189   */\n      dup4\n        /* \"#utility.yul\":22166:22195   */\n      tag_219\n      jump\t// in\n    tag_418:\n        /* \"#utility.yul\":22158:22195   */\n      swap2\n      pop\n        /* \"#utility.yul\":22228:22231   */\n      dup3\n        /* \"#utility.yul\":22225:22226   */\n      0x02\n        /* \"#utility.yul\":22221:22232   */\n      mul\n        /* \"#utility.yul\":22215:22219   */\n      dup3\n        /* \"#utility.yul\":22212:22233   */\n      or\n        /* \"#utility.yul\":22204:22233   */\n      swap1\n      pop\n        /* \"#utility.yul\":21944:22239   */\n      swap3\n      swap2\n      pop\n      pop\n      jump\t// out\n        /* \"#utility.yul\":22244:23639   */\n    tag_120:\n        /* \"#utility.yul\":22361:22398   */\n      tag_420\n        /* \"#utility.yul\":22394:22397   */\n      dup3\n        /* \"#utility.yul\":22361:22398   */\n      tag_166\n      jump\t// in\n    tag_420:\n        /* \"#utility.yul\":22463:22481   */\n      0xffffffffffffffff\n        /* \"#utility.yul\":22455:22461   */\n      dup2\n        /* \"#utility.yul\":22452:22482   */\n      gt\n        /* \"#utility.yul\":22449:22505   */\n      iszero\n      tag_421\n      jumpi\n        /* \"#utility.yul\":22485:22503   */\n      tag_422\n      tag_65\n      jump\t// in\n    tag_422:\n        /* \"#utility.yul\":22449:22505   */\n    tag_421:\n        /* \"#utility.yul\":22529:22567   */\n      tag_423\n        /* \"#utility.yul\":22561:22565   */\n      dup3\n        /* \"#utility.yul\":22555:22566   */\n      sload\n        /* \"#utility.yul\":22529:22567   */\n      tag_35\n      jump\t// in\n    tag_423:\n        /* \"#utility.yul\":22614:22681   */\n      tag_424\n        /* \"#utility.yul\":22674:22680   */\n      dup3\n        /* \"#utility.yul\":22666:22672   */\n      dup3\n        /* \"#utility.yul\":22660:22664   */\n      dup6\n        /* \"#utility.yul\":22614:22681   */\n      tag_217\n      jump\t// in\n    tag_424:\n        /* \"#utility.yul\":22708:22709   */\n      0x00\n        /* \"#utility.yul\":22732:22736   */\n      0x20\n        /* \"#utility.yul\":22719:22736   */\n      swap1\n      pop\n        /* \"#utility.yul\":22764:22766   */\n      0x1f\n        /* \"#utility.yul\":22756:22762   */\n      dup4\n        /* \"#utility.yul\":22753:22767   */\n      gt\n        /* \"#utility.yul\":22781:22782   */\n      0x01\n        /* \"#utility.yul\":22776:23394   */\n      dup2\n      eq\n      tag_426\n      jumpi\n        /* \"#utility.yul\":23438:23439   */\n      0x00\n        /* \"#utility.yul\":23455:23461   */\n      dup5\n        /* \"#utility.yul\":23452:23529   */\n      iszero\n      tag_427\n      jumpi\n        /* \"#utility.yul\":23504:23513   */\n      dup3\n        /* \"#utility.yul\":23499:23502   */\n      dup8\n        /* \"#utility.yul\":23495:23514   */\n      add\n        /* \"#utility.yul\":23489:23515   */\n      mload\n        /* \"#utility.yul\":23480:23515   */\n      swap1\n      pop\n        /* \"#utility.yul\":23452:23529   */\n    tag_427:\n        /* \"#utility.yul\":23555:23622   */\n      tag_428\n        /* \"#utility.yul\":23615:23621   */\n      dup6\n        /* \"#utility.yul\":23608:23613   */\n      dup3\n        /* \"#utility.yul\":23555:23622   */\n      tag_220\n      jump\t// in\n    tag_428:\n        /* \"#utility.yul\":23549:23553   */\n      dup7\n        /* \"#utility.yul\":23542:23623   */\n      sstore\n        /* \"#utility.yul\":23411:23633   */\n      pop\n        /* \"#utility.yul\":22746:23633   */\n      jump(tag_425)\n        /* \"#utility.yul\":22776:23394   */\n    tag_426:\n        /* \"#utility.yul\":22828:22832   */\n      0x1f\n        /* \"#utility.yul\":22824:22833   */\n      not\n        /* \"#utility.yul\":22816:22822   */\n      dup5\n        /* \"#utility.yul\":22812:22834   */\n      and\n        /* \"#utility.yul\":22862:22899   */\n      tag_429\n        /* \"#utility.yul\":22894:22898   */\n      dup7\n        /* \"#utility.yul\":22862:22899   */\n      tag_206\n      jump\t// in\n    tag_429:\n        /* \"#utility.yul\":22921:22922   */\n      0x00\n        /* \"#utility.yul\":22935:23143   */\n    tag_430:\n        /* \"#utility.yul\":22949:22956   */\n      dup3\n        /* \"#utility.yul\":22946:22947   */\n      dup2\n        /* \"#utility.yul\":22943:22957   */\n      lt\n        /* \"#utility.yul\":22935:23143   */\n      iszero\n      tag_432\n      jumpi\n        /* \"#utility.yul\":23028:23037   */\n      dup5\n        /* \"#utility.yul\":23023:23026   */\n      dup10\n        /* \"#utility.yul\":23019:23038   */\n      add\n        /* \"#utility.yul\":23013:23039   */\n      mload\n        /* \"#utility.yul\":23005:23011   */\n      dup3\n        /* \"#utility.yul\":22998:23040   */\n      sstore\n        /* \"#utility.yul\":23079:23080   */\n      0x01\n        /* \"#utility.yul\":23071:23077   */\n      dup3\n        /* \"#utility.yul\":23067:23081   */\n      add\n        /* \"#utility.yul\":23057:23081   */\n      swap2\n      pop\n        /* \"#utility.yul\":23126:23128   */\n      0x20\n        /* \"#utility.yul\":23115:23124   */\n      dup6\n        /* \"#utility.yul\":23111:23129   */\n      add\n        /* \"#utility.yul\":23098:23129   */\n      swap5\n      pop\n        /* \"#utility.yul\":22972:22976   */\n      0x20\n        /* \"#utility.yul\":22969:22970   */\n      dup2\n        /* \"#utility.yul\":22965:22977   */\n      add\n        /* \"#utility.yul\":22960:22977   */\n      swap1\n      pop\n        /* \"#utility.yul\":22935:23143   */\n      jump(tag_430)\n    tag_432:\n        /* \"#utility.yul\":23171:23177   */\n      dup7\n        /* \"#utility.yul\":23162:23169   */\n      dup4\n        /* \"#utility.yul\":23159:23178   */\n      lt\n        /* \"#utility.yul\":23156:23335   */\n      iszero\n      tag_433\n      jumpi\n        /* \"#utility.yul\":23229:23238   */\n      dup5\n        /* \"#utility.yul\":23224:23227   */\n      dup10\n        /* \"#utility.yul\":23220:23239   */\n      add\n        /* \"#utility.yul\":23214:23240   */\n      mload\n        /* \"#utility.yul\":23272:23320   */\n      tag_434\n        /* \"#utility.yul\":23314:23318   */\n      0x1f\n        /* \"#utility.yul\":23306:23312   */\n      dup10\n        /* \"#utility.yul\":23302:23319   */\n      and\n        /* \"#utility.yul\":23291:23300   */\n      dup3\n        /* \"#utility.yul\":23272:23320   */\n      tag_219\n      jump\t// in\n    tag_434:\n        /* \"#utility.yul\":23264:23270   */\n      dup4\n        /* \"#utility.yul\":23257:23321   */\n      sstore\n        /* \"#utility.yul\":23179:23335   */\n      pop\n        /* \"#utility.yul\":23156:23335   */\n    tag_433:\n        /* \"#utility.yul\":23381:23382   */\n      0x01\n        /* \"#utility.yul\":23377:23378   */\n      0x02\n        /* \"#utility.yul\":23369:23375   */\n      dup9\n        /* \"#utility.yul\":23365:23379   */\n      mul\n        /* \"#utility.yul\":23361:23383   */\n      add\n        /* \"#utility.yul\":23355:23359   */\n      dup9\n        /* \"#utility.yul\":23348:23384   */\n      sstore\n        /* \"#utility.yul\":22783:23394   */\n      pop\n      pop\n      pop\n        /* \"#utility.yul\":22746:23633   */\n    tag_425:\n      pop\n        /* \"#utility.yul\":22336:23639   */\n      pop\n      pop\n      pop\n        /* \"#utility.yul\":22244:23639   */\n      pop\n      pop\n      jump\t// out\n        /* \"#utility.yul\":23645:23819   */\n    tag_221:\n        /* \"#utility.yul\":23785:23811   */\n      0x596f75206d7573742073656e6420302e30312065746865720000000000000000\n        /* \"#utility.yul\":23781:23782   */\n      0x00\n        /* \"#utility.yul\":23773:23779   */\n      dup3\n        /* \"#utility.yul\":23769:23783   */\n      add\n        /* \"#utility.yul\":23762:23812   */\n      mstore\n        /* \"#utility.yul\":23645:23819   */\n      pop\n      jump\t// out\n        /* \"#utility.yul\":23825:24191   */\n    tag_222:\n        /* \"#utility.yul\":23967:23970   */\n      0x00\n        /* \"#utility.yul\":23988:24055   */\n      tag_437\n        /* \"#utility.yul\":24052:24054   */\n      0x18\n        /* \"#utility.yul\":24047:24050   */\n      dup4\n        /* \"#utility.yul\":23988:24055   */\n      tag_189\n      jump\t// in\n    tag_437:\n        /* \"#utility.yul\":23981:24055   */\n      swap2\n      pop\n        /* \"#utility.yul\":24064:24157   */\n      tag_438\n        /* \"#utility.yul\":24153:24156   */\n      dup3\n        /* \"#utility.yul\":24064:24157   */\n      tag_221\n      jump\t// in\n    tag_438:\n        /* \"#utility.yul\":24182:24184   */\n      0x20\n        /* \"#utility.yul\":24177:24180   */\n      dup3\n        /* \"#utility.yul\":24173:24185   */\n      add\n        /* \"#utility.yul\":24166:24185   */\n      swap1\n      pop\n        /* \"#utility.yul\":23825:24191   */\n      swap2\n      swap1\n      pop\n      jump\t// out\n        /* \"#utility.yul\":24197:24616   */\n    tag_127:\n        /* \"#utility.yul\":24363:24367   */\n      0x00\n        /* \"#utility.yul\":24401:24403   */\n      0x20\n        /* \"#utility.yul\":24390:24399   */\n      dup3\n        /* \"#utility.yul\":24386:24404   */\n      add\n        /* \"#utility.yul\":24378:24404   */\n      swap1\n      pop\n        /* \"#utility.yul\":24450:24459   */\n      dup2\n        /* \"#utility.yul\":24444:24448   */\n      dup2\n        /* \"#utility.yul\":24440:24460   */\n      sub\n        /* \"#utility.yul\":24436:24437   */\n      0x00\n        /* \"#utility.yul\":24425:24434   */\n      dup4\n        /* \"#utility.yul\":24421:24438   */\n      add\n        /* \"#utility.yul\":24414:24461   */\n      mstore\n        /* \"#utility.yul\":24478:24609   */\n      tag_440\n        /* \"#utility.yul\":24604:24608   */\n      dup2\n        /* \"#utility.yul\":24478:24609   */\n      tag_222\n      jump\t// in\n    tag_440:\n        /* \"#utility.yul\":24470:24609   */\n      swap1\n      pop\n        /* \"#utility.yul\":24197:24616   */\n      swap2\n      swap1\n      pop\n      jump\t// out\n        /* \"#utility.yul\":24622:24813   */\n    tag_137:\n        /* \"#utility.yul\":24662:24665   */\n      0x00\n        /* \"#utility.yul\":24681:24701   */\n      tag_442\n        /* \"#utility.yul\":24699:24700   */\n      dup3\n        /* \"#utility.yul\":24681:24701   */\n      tag_157\n      jump\t// in\n    tag_442:\n        /* \"#utility.yul\":24676:24701   */\n      swap2\n      pop\n        /* \"#utility.yul\":24715:24735   */\n      tag_443\n        /* \"#utility.yul\":24733:24734   */\n      dup4\n        /* \"#utility.yul\":24715:24735   */\n      tag_157\n      jump\t// in\n    tag_443:\n        /* \"#utility.yul\":24710:24735   */\n      swap3\n      pop\n        /* \"#utility.yul\":24758:24759   */\n      dup3\n        /* \"#utility.yul\":24755:24756   */\n      dup3\n        /* \"#utility.yul\":24751:24760   */\n      add\n        /* \"#utility.yul\":24744:24760   */\n      swap1\n      pop\n        /* \"#utility.yul\":24779:24782   */\n      dup1\n        /* \"#utility.yul\":24776:24777   */\n      dup3\n        /* \"#utility.yul\":24773:24783   */\n      gt\n        /* \"#utility.yul\":24770:24806   */\n      iszero\n      tag_444\n      jumpi\n        /* \"#utility.yul\":24786:24804   */\n      tag_445\n      tag_201\n      jump\t// in\n    tag_445:\n        /* \"#utility.yul\":24770:24806   */\n    tag_444:\n        /* \"#utility.yul\":24622:24813   */\n      swap3\n      swap2\n      pop\n      pop\n      jump\t// out\n\n    auxdata: 0xa2646970667358221220f1c251fec63e3af206afa0d1d88bc92b30ad623ea1dbff8116c08298cc3de6cd64736f6c634300081a0033\n}\n",
				"bytecode": {
					"linkReferences": {},
					"object": "6080604052348015600e575f80fd5b50611b788061001c5f395ff3fe60806040526004361061003e575f3560e01c80634cc822151461004257806353ed51431461007e578063da043b9c146100a8578063de8f2e8d146100e4575b5f80fd5b34801561004d575f80fd5b5061006860048036038101906100639190610fa7565b610114565b6040516100759190610fec565b60405180910390f35b348015610089575f80fd5b506100926104fc565b60405161009f9190611264565b60405180910390f35b3480156100b3575f80fd5b506100ce60048036038101906100c99190611308565b61074a565b6040516100db91906113ec565b60405180910390f35b6100fe60048036038101906100f9919061140c565b610ba5565b60405161010b91906113ec565b60405180910390f35b5f808211610157576040517f08c379a000000000000000000000000000000000000000000000000000000000815260040161014e906114c3565b60405180910390fd5b5f805f8481526020019081526020015f206040518060a00160405290815f820154815260200160018201805461018c9061150e565b80601f01602080910402602001604051908101604052809291908181526020018280546101b89061150e565b80156102035780601f106101da57610100808354040283529160200191610203565b820191905f5260205f20905b8154815290600101906020018083116101e657829003601f168201915b50505050508152602001600282015f9054906101000a900460ff1660038111156102305761022f6110ad565b5b6003811115610242576102416110ad565b5b815260200160038201548152602001600482015f9054906101000a900473ffffffffffffffffffffffffffffffffffffffff1673ffffffffffffffffffffffffffffffffffffffff1673ffffffffffffffffffffffffffffffffffffffff16815250509050806080015173ffffffffffffffffffffffffffffffffffffffff163373ffffffffffffffffffffffffffffffffffffffff1614610319576040517f08c379a000000000000000000000000000000000000000000000000000000000815260040161031090611588565b60405180910390fd5b5f815f01510361035e576040517f08c379a0000000000000000000000000000000000000000000000000000000008152600401610355906115f0565b60405180910390fd5b5f808481526020019081526020015f205f8082015f9055600182015f6103849190610ec1565b600282015f6101000a81549060ff0219169055600382015f9055600482015f6101000a81549073ffffffffffffffffffffffffffffffffffffffff021916905550505f3373ffffffffffffffffffffffffffffffffffffffff16662386f26fc100006040516103f29061163b565b5f6040518083038185875af1925050503d805f811461042c576040519150601f19603f3d011682016040523d82523d5f602084013e610431565b606091505b505090508061043e575f80fd5b3373ffffffffffffffffffffffffffffffffffffffff167ff950957d2407bed19dc99b718b46b4ce6090c05589006dfb86fd22c34865b23e3373ffffffffffffffffffffffffffffffffffffffff163160405161049b919061165e565b60405180910390a23073ffffffffffffffffffffffffffffffffffffffff167ff950957d2407bed19dc99b718b46b4ce6090c05589006dfb86fd22c34865b23e476040516104e9919061165e565b60405180910390a2600192505050919050565b60605f60015467ffffffffffffffff81111561051b5761051a611677565b5b60405190808252806020026020018201604052801561055457816020015b610541610efe565b8152602001906001900390816105395790505b5090505f805b6001548111610741575f805f8381526020019081526020015f206040518060a00160405290815f82015481526020016001820180546105989061150e565b80601f01602080910402602001604051908101604052809291908181526020018280546105c49061150e565b801561060f5780601f106105e65761010080835404028352916020019161060f565b820191905f5260205f20905b8154815290600101906020018083116105f257829003601f168201915b50505050508152602001600282015f9054906101000a900460ff16600381111561063c5761063b6110ad565b5b600381111561064e5761064d6110ad565b5b815260200160038201548152602001600482015f9054906101000a900473ffffffffffffffffffffffffffffffffffffffff1673ffffffffffffffffffffffffffffffffffffffff1673ffffffffffffffffffffffffffffffffffffffff168152505090505f815f015114806106f457503373ffffffffffffffffffffffffffffffffffffffff16816080015173ffffffffffffffffffffffffffffffffffffffff1614155b156106ff575061072e565b80848481518110610713576107126116a4565b5b60200260200101819052508280610729906116fe565b935050505b8080610739906116fe565b91505061055a565b50819250505090565b610752610efe565b5f8511610794576040517f08c379a000000000000000000000000000000000000000000000000000000000815260040161078b906114c3565b60405180910390fd5b5f84849050116107d9576040517f08c379a00000000000000000000000000000000000000000000000000000000081526004016107d09061178f565b60405180910390fd5b5f60038111156107ec576107eb6110ad565b5b8260038111156107ff576107fe6110ad565b5b0361083f576040517f08c379a00000000000000000000000000000000000000000000000000000000081526004016108369061181d565b60405180910390fd5b5f805f8781526020019081526020015f206040518060a00160405290815f82015481526020016001820180546108749061150e565b80601f01602080910402602001604051908101604052809291908181526020018280546108a09061150e565b80156108eb5780601f106108c2576101008083540402835291602001916108eb565b820191905f5260205f20905b8154815290600101906020018083116108ce57829003601f168201915b50505050508152602001600282015f9054906101000a900460ff166003811115610918576109176110ad565b5b600381111561092a576109296110ad565b5b815260200160038201548152602001600482015f9054906101000a900473ffffffffffffffffffffffffffffffffffffffff1673ffffffffffffffffffffffffffffffffffffffff1673ffffffffffffffffffffffffffffffffffffffff16815250509050806080015173ffffffffffffffffffffffffffffffffffffffff163373ffffffffffffffffffffffffffffffffffffffff1614610a01576040517f08c379a00000000000000000000000000000000000000000000000000000000081526004016109f890611588565b60405180910390fd5b5f815f015103610a46576040517f08c379a0000000000000000000000000000000000000000000000000000000008152600401610a3d906115f0565b60405180910390fd5b6040518060a00160405280825f0151815260200186868080601f0160208091040260200160405190810160405280939291908181526020018383808284375f81840152601f19601f820116905080830192505050505050508152602001846003811115610ab657610ab56110ad565b5b815260200182606001518152602001826080015173ffffffffffffffffffffffffffffffffffffffff168152509050805f80835f015181526020019081526020015f205f820151815f01556020820151816001019081610b1691906119d8565b506040820151816002015f6101000a81548160ff02191690836003811115610b4157610b406110ad565b5b0217905550606082015181600301556080820151816004015f6101000a81548173ffffffffffffffffffffffffffffffffffffffff021916908373ffffffffffffffffffffffffffffffffffffffff16021790555090505080915050949350505050565b610bad610efe565b662386f26fc100003414610bf6576040517f08c379a0000000000000000000000000000000000000000000000000000000008152600401610bed90611af1565b60405180910390fd5b5f8484905011610c3b576040517f08c379a0000000000000000000000000000000000000000000000000000000008152600401610c329061178f565b60405180910390fd5b5f6003811115610c4e57610c4d6110ad565b5b826003811115610c6157610c606110ad565b5b03610ca1576040517f08c379a0000000000000000000000000000000000000000000000000000000008152600401610c989061181d565b60405180910390fd5b6001805f828254610cb29190611b0f565b925050819055505f6040518060a00160405280600154815260200186868080601f0160208091040260200160405190810160405280939291908181526020018383808284375f81840152601f19601f820116905080830192505050505050508152602001846003811115610d2957610d286110ad565b5b81526020014281526020013373ffffffffffffffffffffffffffffffffffffffff168152509050805f8060015481526020019081526020015f205f820151815f01556020820151816001019081610d8091906119d8565b506040820151816002015f6101000a81548160ff02191690836003811115610dab57610daa6110ad565b5b0217905550606082015181600301556080820151816004015f6101000a81548173ffffffffffffffffffffffffffffffffffffffff021916908373ffffffffffffffffffffffffffffffffffffffff1602179055509050503373ffffffffffffffffffffffffffffffffffffffff167ff950957d2407bed19dc99b718b46b4ce6090c05589006dfb86fd22c34865b23e3373ffffffffffffffffffffffffffffffffffffffff1631604051610e60919061165e565b60405180910390a23073ffffffffffffffffffffffffffffffffffffffff167ff950957d2407bed19dc99b718b46b4ce6090c05589006dfb86fd22c34865b23e47604051610eae919061165e565b60405180910390a2809150509392505050565b508054610ecd9061150e565b5f825580601f10610ede5750610efb565b601f0160209004905f5260205f2090810190610efa9190610f51565b5b50565b6040518060a001604052805f8152602001606081526020015f6003811115610f2957610f286110ad565b5b81526020015f81526020015f73ffffffffffffffffffffffffffffffffffffffff1681525090565b5b80821115610f68575f815f905550600101610f52565b5090565b5f80fd5b5f80fd5b5f819050919050565b610f8681610f74565b8114610f90575f80fd5b50565b5f81359050610fa181610f7d565b92915050565b5f60208284031215610fbc57610fbb610f6c565b5b5f610fc984828501610f93565b91505092915050565b5f8115159050919050565b610fe681610fd2565b82525050565b5f602082019050610fff5f830184610fdd565b92915050565b5f81519050919050565b5f82825260208201905092915050565b5f819050602082019050919050565b61103781610f74565b82525050565b5f81519050919050565b5f82825260208201905092915050565b8281835e5f83830152505050565b5f601f19601f8301169050919050565b5f61107f8261103d565b6110898185611047565b9350611099818560208601611057565b6110a281611065565b840191505092915050565b7f4e487b71000000000000000000000000000000000000000000000000000000005f52602160045260245ffd5b600481106110eb576110ea6110ad565b5b50565b5f8190506110fb826110da565b919050565b5f61110a826110ee565b9050919050565b61111a81611100565b82525050565b5f73ffffffffffffffffffffffffffffffffffffffff82169050919050565b5f61114982611120565b9050919050565b6111598161113f565b82525050565b5f60a083015f8301516111745f86018261102e565b506020830151848203602086015261118c8282611075565b91505060408301516111a16040860182611111565b5060608301516111b4606086018261102e565b5060808301516111c76080860182611150565b508091505092915050565b5f6111dd838361115f565b905092915050565b5f602082019050919050565b5f6111fb82611005565b611205818561100f565b9350836020820285016112178561101f565b805f5b85811015611252578484038952815161123385826111d2565b945061123e836111e5565b925060208a0199505060018101905061121a565b50829750879550505050505092915050565b5f6020820190508181035f83015261127c81846111f1565b905092915050565b5f80fd5b5f80fd5b5f80fd5b5f8083601f8401126112a5576112a4611284565b5b8235905067ffffffffffffffff8111156112c2576112c1611288565b5b6020830191508360018202830111156112de576112dd61128c565b5b9250929050565b600481106112f1575f80fd5b50565b5f81359050611302816112e5565b92915050565b5f805f80606085870312156113205761131f610f6c565b5b5f61132d87828801610f93565b945050602085013567ffffffffffffffff81111561134e5761134d610f70565b5b61135a87828801611290565b9350935050604061136d878288016112f4565b91505092959194509250565b5f60a083015f83015161138e5f86018261102e565b50602083015184820360208601526113a68282611075565b91505060408301516113bb6040860182611111565b5060608301516113ce606086018261102e565b5060808301516113e16080860182611150565b508091505092915050565b5f6020820190508181035f8301526114048184611379565b905092915050565b5f805f6040848603121561142357611422610f6c565b5b5f84013567ffffffffffffffff8111156114405761143f610f70565b5b61144c86828701611290565b9350935050602061145f868287016112f4565b9150509250925092565b5f82825260208201905092915050565b7f4964206d757374206265206f76657220300000000000000000000000000000005f82015250565b5f6114ad601183611469565b91506114b882611479565b602082019050919050565b5f6020820190508181035f8301526114da816114a1565b9050919050565b7f4e487b71000000000000000000000000000000000000000000000000000000005f52602260045260245ffd5b5f600282049050600182168061152557607f821691505b602082108103611538576115376114e1565b5b50919050565b7f556e617574686f72697a656400000000000000000000000000000000000000005f82015250565b5f611572600c83611469565b915061157d8261153e565b602082019050919050565b5f6020820190508181035f83015261159f81611566565b9050919050565b7f5461736b206973206e6f7420666f756e640000000000000000000000000000005f82015250565b5f6115da601183611469565b91506115e5826115a6565b602082019050919050565b5f6020820190508181035f830152611607816115ce565b9050919050565b5f81905092915050565b50565b5f6116265f8361160e565b915061163182611618565b5f82019050919050565b5f6116458261161b565b9150819050919050565b61165881610f74565b82525050565b5f6020820190506116715f83018461164f565b92915050565b7f4e487b71000000000000000000000000000000000000000000000000000000005f52604160045260245ffd5b7f4e487b71000000000000000000000000000000000000000000000000000000005f52603260045260245ffd5b7f4e487b71000000000000000000000000000000000000000000000000000000005f52601160045260245ffd5b5f61170882610f74565b91507fffffffffffffffffffffffffffffffffffffffffffffffffffffffffffffffff820361173a576117396116d1565b5b600182019050919050565b7f436f6e74656e74206d757374206e6f7420626520656d707479000000000000005f82015250565b5f611779601983611469565b915061178482611745565b602082019050919050565b5f6020820190508181035f8301526117a68161176d565b9050919050565b7f537461747573206d75737420626520544f444f2c20444f494e47206f7220444f5f8201527f4e45000000000000000000000000000000000000000000000000000000000000602082015250565b5f611807602283611469565b9150611812826117ad565b604082019050919050565b5f6020820190508181035f830152611834816117fb565b9050919050565b5f819050815f5260205f209050919050565b5f6020601f8301049050919050565b5f82821b905092915050565b5f600883026118977fffffffffffffffffffffffffffffffffffffffffffffffffffffffffffffffff8261185c565b6118a1868361185c565b95508019841693508086168417925050509392505050565b5f819050919050565b5f6118dc6118d76118d284610f74565b6118b9565b610f74565b9050919050565b5f819050919050565b6118f5836118c2565b611909611901826118e3565b848454611868565b825550505050565b5f90565b61191d611911565b6119288184846118ec565b505050565b5b8181101561194b576119405f82611915565b60018101905061192e565b5050565b601f821115611990576119618161183b565b61196a8461184d565b81016020851015611979578190505b61198d6119858561184d565b83018261192d565b50505b505050565b5f82821c905092915050565b5f6119b05f1984600802611995565b1980831691505092915050565b5f6119c883836119a1565b9150826002028217905092915050565b6119e18261103d565b67ffffffffffffffff8111156119fa576119f9611677565b5b611a04825461150e565b611a0f82828561194f565b5f60209050601f831160018114611a40575f8415611a2e578287015190505b611a3885826119bd565b865550611a9f565b601f198416611a4e8661183b565b5f5b82811015611a7557848901518255600182019150602085019450602081019050611a50565b86831015611a925784890151611a8e601f8916826119a1565b8355505b6001600288020188555050505b505050505050565b7f596f75206d7573742073656e6420302e303120657468657200000000000000005f82015250565b5f611adb601883611469565b9150611ae682611aa7565b602082019050919050565b5f6020820190508181035f830152611b0881611acf565b9050919050565b5f611b1982610f74565b9150611b2483610f74565b9250828201905080821115611b3c57611b3b6116d1565b5b9291505056fea2646970667358221220f1c251fec63e3af206afa0d1d88bc92b30ad623ea1dbff8116c08298cc3de6cd64736f6c634300081a0033",
					"opcodes": "PUSH1 0x80 PUSH1 0x40 MSTORE CALLVALUE DUP1 ISZERO PUSH1 0xE JUMPI PUSH0 DUP1 REVERT JUMPDEST POP PUSH2 0x1B78 DUP1 PUSH2 0x1C PUSH0 CODECOPY PUSH0 RETURN INVALID PUSH1 0x80 PUSH1 0x40 MSTORE PUSH1 0x4 CALLDATASIZE LT PUSH2 0x3E JUMPI PUSH0 CALLDATALOAD PUSH1 0xE0 SHR DUP1 PUSH4 0x4CC82215 EQ PUSH2 0x42 JUMPI DUP1 PUSH4 0x53ED5143 EQ PUSH2 0x7E JUMPI DUP1 PUSH4 0xDA043B9C EQ PUSH2 0xA8 JUMPI DUP1 PUSH4 0xDE8F2E8D EQ PUSH2 0xE4 JUMPI JUMPDEST PUSH0 DUP1 REVERT JUMPDEST CALLVALUE DUP1 ISZERO PUSH2 0x4D JUMPI PUSH0 DUP1 REVERT JUMPDEST POP PUSH2 0x68 PUSH1 0x4 DUP1 CALLDATASIZE SUB DUP2 ADD SWAP1 PUSH2 0x63 SWAP2 SWAP1 PUSH2 0xFA7 JUMP JUMPDEST PUSH2 0x114 JUMP JUMPDEST PUSH1 0x40 MLOAD PUSH2 0x75 SWAP2 SWAP1 PUSH2 0xFEC JUMP JUMPDEST PUSH1 0x40 MLOAD DUP1 SWAP2 SUB SWAP1 RETURN JUMPDEST CALLVALUE DUP1 ISZERO PUSH2 0x89 JUMPI PUSH0 DUP1 REVERT JUMPDEST POP PUSH2 0x92 PUSH2 0x4FC JUMP JUMPDEST PUSH1 0x40 MLOAD PUSH2 0x9F SWAP2 SWAP1 PUSH2 0x1264 JUMP JUMPDEST PUSH1 0x40 MLOAD DUP1 SWAP2 SUB SWAP1 RETURN JUMPDEST CALLVALUE DUP1 ISZERO PUSH2 0xB3 JUMPI PUSH0 DUP1 REVERT JUMPDEST POP PUSH2 0xCE PUSH1 0x4 DUP1 CALLDATASIZE SUB DUP2 ADD SWAP1 PUSH2 0xC9 SWAP2 SWAP1 PUSH2 0x1308 JUMP JUMPDEST PUSH2 0x74A JUMP JUMPDEST PUSH1 0x40 MLOAD PUSH2 0xDB SWAP2 SWAP1 PUSH2 0x13EC JUMP JUMPDEST PUSH1 0x40 MLOAD DUP1 SWAP2 SUB SWAP1 RETURN JUMPDEST PUSH2 0xFE PUSH1 0x4 DUP1 CALLDATASIZE SUB DUP2 ADD SWAP1 PUSH2 0xF9 SWAP2 SWAP1 PUSH2 0x140C JUMP JUMPDEST PUSH2 0xBA5 JUMP JUMPDEST PUSH1 0x40 MLOAD PUSH2 0x10B SWAP2 SWAP1 PUSH2 0x13EC JUMP JUMPDEST PUSH1 0x40 MLOAD DUP1 SWAP2 SUB SWAP1 RETURN JUMPDEST PUSH0 DUP1 DUP3 GT PUSH2 0x157 JUMPI PUSH1 0x40 MLOAD PUSH32 0x8C379A000000000000000000000000000000000000000000000000000000000 DUP2 MSTORE PUSH1 0x4 ADD PUSH2 0x14E SWAP1 PUSH2 0x14C3 JUMP JUMPDEST PUSH1 0x40 MLOAD DUP1 SWAP2 SUB SWAP1 REVERT JUMPDEST PUSH0 DUP1 PUSH0 DUP5 DUP2 MSTORE PUSH1 0x20 ADD SWAP1 DUP2 MSTORE PUSH1 0x20 ADD PUSH0 KECCAK256 PUSH1 0x40 MLOAD DUP1 PUSH1 0xA0 ADD PUSH1 0x40 MSTORE SWAP1 DUP2 PUSH0 DUP3 ADD SLOAD DUP2 MSTORE PUSH1 0x20 ADD PUSH1 0x1 DUP3 ADD DUP1 SLOAD PUSH2 0x18C SWAP1 PUSH2 0x150E JUMP JUMPDEST DUP1 PUSH1 0x1F ADD PUSH1 0x20 DUP1 SWAP2 DIV MUL PUSH1 0x20 ADD PUSH1 0x40 MLOAD SWAP1 DUP2 ADD PUSH1 0x40 MSTORE DUP1 SWAP3 SWAP2 SWAP1 DUP2 DUP2 MSTORE PUSH1 0x20 ADD DUP3 DUP1 SLOAD PUSH2 0x1B8 SWAP1 PUSH2 0x150E JUMP JUMPDEST DUP1 ISZERO PUSH2 0x203 JUMPI DUP1 PUSH1 0x1F LT PUSH2 0x1DA JUMPI PUSH2 0x100 DUP1 DUP4 SLOAD DIV MUL DUP4 MSTORE SWAP2 PUSH1 0x20 ADD SWAP2 PUSH2 0x203 JUMP JUMPDEST DUP3 ADD SWAP2 SWAP1 PUSH0 MSTORE PUSH1 0x20 PUSH0 KECCAK256 SWAP1 JUMPDEST DUP2 SLOAD DUP2 MSTORE SWAP1 PUSH1 0x1 ADD SWAP1 PUSH1 0x20 ADD DUP1 DUP4 GT PUSH2 0x1E6 JUMPI DUP3 SWAP1 SUB PUSH1 0x1F AND DUP3 ADD SWAP2 JUMPDEST POP POP POP POP POP DUP2 MSTORE PUSH1 0x20 ADD PUSH1 0x2 DUP3 ADD PUSH0 SWAP1 SLOAD SWAP1 PUSH2 0x100 EXP SWAP1 DIV PUSH1 0xFF AND PUSH1 0x3 DUP2 GT ISZERO PUSH2 0x230 JUMPI PUSH2 0x22F PUSH2 0x10AD JUMP JUMPDEST JUMPDEST PUSH1 0x3 DUP2 GT ISZERO PUSH2 0x242 JUMPI PUSH2 0x241 PUSH2 0x10AD JUMP JUMPDEST JUMPDEST DUP2 MSTORE PUSH1 0x20 ADD PUSH1 0x3 DUP3 ADD SLOAD DUP2 MSTORE PUSH1 0x20 ADD PUSH1 0x4 DUP3 ADD PUSH0 SWAP1 SLOAD SWAP1 PUSH2 0x100 EXP SWAP1 DIV PUSH20 0xFFFFFFFFFFFFFFFFFFFFFFFFFFFFFFFFFFFFFFFF AND PUSH20 0xFFFFFFFFFFFFFFFFFFFFFFFFFFFFFFFFFFFFFFFF AND PUSH20 0xFFFFFFFFFFFFFFFFFFFFFFFFFFFFFFFFFFFFFFFF AND DUP2 MSTORE POP POP SWAP1 POP DUP1 PUSH1 0x80 ADD MLOAD PUSH20 0xFFFFFFFFFFFFFFFFFFFFFFFFFFFFFFFFFFFFFFFF AND CALLER PUSH20 0xFFFFFFFFFFFFFFFFFFFFFFFFFFFFFFFFFFFFFFFF AND EQ PUSH2 0x319 JUMPI PUSH1 0x40 MLOAD PUSH32 0x8C379A000000000000000000000000000000000000000000000000000000000 DUP2 MSTORE PUSH1 0x4 ADD PUSH2 0x310 SWAP1 PUSH2 0x1588 JUMP JUMPDEST PUSH1 0x40 MLOAD DUP1 SWAP2 SUB SWAP1 REVERT JUMPDEST PUSH0 DUP2 PUSH0 ADD MLOAD SUB PUSH2 0x35E JUMPI PUSH1 0x40 MLOAD PUSH32 0x8C379A000000000000000000000000000000000000000000000000000000000 DUP2 MSTORE PUSH1 0x4 ADD PUSH2 0x355 SWAP1 PUSH2 0x15F0 JUMP JUMPDEST PUSH1 0x40 MLOAD DUP1 SWAP2 SUB SWAP1 REVERT JUMPDEST PUSH0 DUP1 DUP5 DUP2 MSTORE PUSH1 0x20 ADD SWAP1 DUP2 MSTORE PUSH1 0x20 ADD PUSH0 KECCAK256 PUSH0 DUP1 DUP3 ADD PUSH0 SWAP1 SSTORE PUSH1 0x1 DUP3 ADD PUSH0 PUSH2 0x384 SWAP2 SWAP1 PUSH2 0xEC1 JUMP JUMPDEST PUSH1 0x2 DUP3 ADD PUSH0 PUSH2 0x100 EXP DUP2 SLOAD SWAP1 PUSH1 0xFF MUL NOT AND SWAP1 SSTORE PUSH1 0x3 DUP3 ADD PUSH0 SWAP1 SSTORE PUSH1 0x4 DUP3 ADD PUSH0 PUSH2 0x100 EXP DUP2 SLOAD SWAP1 PUSH20 0xFFFFFFFFFFFFFFFFFFFFFFFFFFFFFFFFFFFFFFFF MUL NOT AND SWAP1 SSTORE POP POP PUSH0 CALLER PUSH20 0xFFFFFFFFFFFFFFFFFFFFFFFFFFFFFFFFFFFFFFFF AND PUSH7 0x2386F26FC10000 PUSH1 0x40 MLOAD PUSH2 0x3F2 SWAP1 PUSH2 0x163B JUMP JUMPDEST PUSH0 PUSH1 0x40 MLOAD DUP1 DUP4 SUB DUP2 DUP6 DUP8 GAS CALL SWAP3 POP POP POP RETURNDATASIZE DUP1 PUSH0 DUP2 EQ PUSH2 0x42C JUMPI PUSH1 0x40 MLOAD SWAP2 POP PUSH1 0x1F NOT PUSH1 0x3F RETURNDATASIZE ADD AND DUP3 ADD PUSH1 0x40 MSTORE RETURNDATASIZE DUP3 MSTORE RETURNDATASIZE PUSH0 PUSH1 0x20 DUP5 ADD RETURNDATACOPY PUSH2 0x431 JUMP JUMPDEST PUSH1 0x60 SWAP2 POP JUMPDEST POP POP SWAP1 POP DUP1 PUSH2 0x43E JUMPI PUSH0 DUP1 REVERT JUMPDEST CALLER PUSH20 0xFFFFFFFFFFFFFFFFFFFFFFFFFFFFFFFFFFFFFFFF AND PUSH32 0xF950957D2407BED19DC99B718B46B4CE6090C05589006DFB86FD22C34865B23E CALLER PUSH20 0xFFFFFFFFFFFFFFFFFFFFFFFFFFFFFFFFFFFFFFFF AND BALANCE PUSH1 0x40 MLOAD PUSH2 0x49B SWAP2 SWAP1 PUSH2 0x165E JUMP JUMPDEST PUSH1 0x40 MLOAD DUP1 SWAP2 SUB SWAP1 LOG2 ADDRESS PUSH20 0xFFFFFFFFFFFFFFFFFFFFFFFFFFFFFFFFFFFFFFFF AND PUSH32 0xF950957D2407BED19DC99B718B46B4CE6090C05589006DFB86FD22C34865B23E SELFBALANCE PUSH1 0x40 MLOAD PUSH2 0x4E9 SWAP2 SWAP1 PUSH2 0x165E JUMP JUMPDEST PUSH1 0x40 MLOAD DUP1 SWAP2 SUB SWAP1 LOG2 PUSH1 0x1 SWAP3 POP POP POP SWAP2 SWAP1 POP JUMP JUMPDEST PUSH1 0x60 PUSH0 PUSH1 0x1 SLOAD PUSH8 0xFFFFFFFFFFFFFFFF DUP2 GT ISZERO PUSH2 0x51B JUMPI PUSH2 0x51A PUSH2 0x1677 JUMP JUMPDEST JUMPDEST PUSH1 0x40 MLOAD SWAP1 DUP1 DUP3 MSTORE DUP1 PUSH1 0x20 MUL PUSH1 0x20 ADD DUP3 ADD PUSH1 0x40 MSTORE DUP1 ISZERO PUSH2 0x554 JUMPI DUP2 PUSH1 0x20 ADD JUMPDEST PUSH2 0x541 PUSH2 0xEFE JUMP JUMPDEST DUP2 MSTORE PUSH1 0x20 ADD SWAP1 PUSH1 0x1 SWAP1 SUB SWAP1 DUP2 PUSH2 0x539 JUMPI SWAP1 POP JUMPDEST POP SWAP1 POP PUSH0 DUP1 JUMPDEST PUSH1 0x1 SLOAD DUP2 GT PUSH2 0x741 JUMPI PUSH0 DUP1 PUSH0 DUP4 DUP2 MSTORE PUSH1 0x20 ADD SWAP1 DUP2 MSTORE PUSH1 0x20 ADD PUSH0 KECCAK256 PUSH1 0x40 MLOAD DUP1 PUSH1 0xA0 ADD PUSH1 0x40 MSTORE SWAP1 DUP2 PUSH0 DUP3 ADD SLOAD DUP2 MSTORE PUSH1 0x20 ADD PUSH1 0x1 DUP3 ADD DUP1 SLOAD PUSH2 0x598 SWAP1 PUSH2 0x150E JUMP JUMPDEST DUP1 PUSH1 0x1F ADD PUSH1 0x20 DUP1 SWAP2 DIV MUL PUSH1 0x20 ADD PUSH1 0x40 MLOAD SWAP1 DUP2 ADD PUSH1 0x40 MSTORE DUP1 SWAP3 SWAP2 SWAP1 DUP2 DUP2 MSTORE PUSH1 0x20 ADD DUP3 DUP1 SLOAD PUSH2 0x5C4 SWAP1 PUSH2 0x150E JUMP JUMPDEST DUP1 ISZERO PUSH2 0x60F JUMPI DUP1 PUSH1 0x1F LT PUSH2 0x5E6 JUMPI PUSH2 0x100 DUP1 DUP4 SLOAD DIV MUL DUP4 MSTORE SWAP2 PUSH1 0x20 ADD SWAP2 PUSH2 0x60F JUMP JUMPDEST DUP3 ADD SWAP2 SWAP1 PUSH0 MSTORE PUSH1 0x20 PUSH0 KECCAK256 SWAP1 JUMPDEST DUP2 SLOAD DUP2 MSTORE SWAP1 PUSH1 0x1 ADD SWAP1 PUSH1 0x20 ADD DUP1 DUP4 GT PUSH2 0x5F2 JUMPI DUP3 SWAP1 SUB PUSH1 0x1F AND DUP3 ADD SWAP2 JUMPDEST POP POP POP POP POP DUP2 MSTORE PUSH1 0x20 ADD PUSH1 0x2 DUP3 ADD PUSH0 SWAP1 SLOAD SWAP1 PUSH2 0x100 EXP SWAP1 DIV PUSH1 0xFF AND PUSH1 0x3 DUP2 GT ISZERO PUSH2 0x63C JUMPI PUSH2 0x63B PUSH2 0x10AD JUMP JUMPDEST JUMPDEST PUSH1 0x3 DUP2 GT ISZERO PUSH2 0x64E JUMPI PUSH2 0x64D PUSH2 0x10AD JUMP JUMPDEST JUMPDEST DUP2 MSTORE PUSH1 0x20 ADD PUSH1 0x3 DUP3 ADD SLOAD DUP2 MSTORE PUSH1 0x20 ADD PUSH1 0x4 DUP3 ADD PUSH0 SWAP1 SLOAD SWAP1 PUSH2 0x100 EXP SWAP1 DIV PUSH20 0xFFFFFFFFFFFFFFFFFFFFFFFFFFFFFFFFFFFFFFFF AND PUSH20 0xFFFFFFFFFFFFFFFFFFFFFFFFFFFFFFFFFFFFFFFF AND PUSH20 0xFFFFFFFFFFFFFFFFFFFFFFFFFFFFFFFFFFFFFFFF AND DUP2 MSTORE POP POP SWAP1 POP PUSH0 DUP2 PUSH0 ADD MLOAD EQ DUP1 PUSH2 0x6F4 JUMPI POP CALLER PUSH20 0xFFFFFFFFFFFFFFFFFFFFFFFFFFFFFFFFFFFFFFFF AND DUP2 PUSH1 0x80 ADD MLOAD PUSH20 0xFFFFFFFFFFFFFFFFFFFFFFFFFFFFFFFFFFFFFFFF AND EQ ISZERO JUMPDEST ISZERO PUSH2 0x6FF JUMPI POP PUSH2 0x72E JUMP JUMPDEST DUP1 DUP5 DUP5 DUP2 MLOAD DUP2 LT PUSH2 0x713 JUMPI PUSH2 0x712 PUSH2 0x16A4 JUMP JUMPDEST JUMPDEST PUSH1 0x20 MUL PUSH1 0x20 ADD ADD DUP2 SWAP1 MSTORE POP DUP3 DUP1 PUSH2 0x729 SWAP1 PUSH2 0x16FE JUMP JUMPDEST SWAP4 POP POP POP JUMPDEST DUP1 DUP1 PUSH2 0x739 SWAP1 PUSH2 0x16FE JUMP JUMPDEST SWAP2 POP POP PUSH2 0x55A JUMP JUMPDEST POP DUP2 SWAP3 POP POP POP SWAP1 JUMP JUMPDEST PUSH2 0x752 PUSH2 0xEFE JUMP JUMPDEST PUSH0 DUP6 GT PUSH2 0x794 JUMPI PUSH1 0x40 MLOAD PUSH32 0x8C379A000000000000000000000000000000000000000000000000000000000 DUP2 MSTORE PUSH1 0x4 ADD PUSH2 0x78B SWAP1 PUSH2 0x14C3 JUMP JUMPDEST PUSH1 0x40 MLOAD DUP1 SWAP2 SUB SWAP1 REVERT JUMPDEST PUSH0 DUP5 DUP5 SWAP1 POP GT PUSH2 0x7D9 JUMPI PUSH1 0x40 MLOAD PUSH32 0x8C379A000000000000000000000000000000000000000000000000000000000 DUP2 MSTORE PUSH1 0x4 ADD PUSH2 0x7D0 SWAP1 PUSH2 0x178F JUMP JUMPDEST PUSH1 0x40 MLOAD DUP1 SWAP2 SUB SWAP1 REVERT JUMPDEST PUSH0 PUSH1 0x3 DUP2 GT ISZERO PUSH2 0x7EC JUMPI PUSH2 0x7EB PUSH2 0x10AD JUMP JUMPDEST JUMPDEST DUP3 PUSH1 0x3 DUP2 GT ISZERO PUSH2 0x7FF JUMPI PUSH2 0x7FE PUSH2 0x10AD JUMP JUMPDEST JUMPDEST SUB PUSH2 0x83F JUMPI PUSH1 0x40 MLOAD PUSH32 0x8C379A000000000000000000000000000000000000000000000000000000000 DUP2 MSTORE PUSH1 0x4 ADD PUSH2 0x836 SWAP1 PUSH2 0x181D JUMP JUMPDEST PUSH1 0x40 MLOAD DUP1 SWAP2 SUB SWAP1 REVERT JUMPDEST PUSH0 DUP1 PUSH0 DUP8 DUP2 MSTORE PUSH1 0x20 ADD SWAP1 DUP2 MSTORE PUSH1 0x20 ADD PUSH0 KECCAK256 PUSH1 0x40 MLOAD DUP1 PUSH1 0xA0 ADD PUSH1 0x40 MSTORE SWAP1 DUP2 PUSH0 DUP3 ADD SLOAD DUP2 MSTORE PUSH1 0x20 ADD PUSH1 0x1 DUP3 ADD DUP1 SLOAD PUSH2 0x874 SWAP1 PUSH2 0x150E JUMP JUMPDEST DUP1 PUSH1 0x1F ADD PUSH1 0x20 DUP1 SWAP2 DIV MUL PUSH1 0x20 ADD PUSH1 0x40 MLOAD SWAP1 DUP2 ADD PUSH1 0x40 MSTORE DUP1 SWAP3 SWAP2 SWAP1 DUP2 DUP2 MSTORE PUSH1 0x20 ADD DUP3 DUP1 SLOAD PUSH2 0x8A0 SWAP1 PUSH2 0x150E JUMP JUMPDEST DUP1 ISZERO PUSH2 0x8EB JUMPI DUP1 PUSH1 0x1F LT PUSH2 0x8C2 JUMPI PUSH2 0x100 DUP1 DUP4 SLOAD DIV MUL DUP4 MSTORE SWAP2 PUSH1 0x20 ADD SWAP2 PUSH2 0x8EB JUMP JUMPDEST DUP3 ADD SWAP2 SWAP1 PUSH0 MSTORE PUSH1 0x20 PUSH0 KECCAK256 SWAP1 JUMPDEST DUP2 SLOAD DUP2 MSTORE SWAP1 PUSH1 0x1 ADD SWAP1 PUSH1 0x20 ADD DUP1 DUP4 GT PUSH2 0x8CE JUMPI DUP3 SWAP1 SUB PUSH1 0x1F AND DUP3 ADD SWAP2 JUMPDEST POP POP POP POP POP DUP2 MSTORE PUSH1 0x20 ADD PUSH1 0x2 DUP3 ADD PUSH0 SWAP1 SLOAD SWAP1 PUSH2 0x100 EXP SWAP1 DIV PUSH1 0xFF AND PUSH1 0x3 DUP2 GT ISZERO PUSH2 0x918 JUMPI PUSH2 0x917 PUSH2 0x10AD JUMP JUMPDEST JUMPDEST PUSH1 0x3 DUP2 GT ISZERO PUSH2 0x92A JUMPI PUSH2 0x929 PUSH2 0x10AD JUMP JUMPDEST JUMPDEST DUP2 MSTORE PUSH1 0x20 ADD PUSH1 0x3 DUP3 ADD SLOAD DUP2 MSTORE PUSH1 0x20 ADD PUSH1 0x4 DUP3 ADD PUSH0 SWAP1 SLOAD SWAP1 PUSH2 0x100 EXP SWAP1 DIV PUSH20 0xFFFFFFFFFFFFFFFFFFFFFFFFFFFFFFFFFFFFFFFF AND PUSH20 0xFFFFFFFFFFFFFFFFFFFFFFFFFFFFFFFFFFFFFFFF AND PUSH20 0xFFFFFFFFFFFFFFFFFFFFFFFFFFFFFFFFFFFFFFFF AND DUP2 MSTORE POP POP SWAP1 POP DUP1 PUSH1 0x80 ADD MLOAD PUSH20 0xFFFFFFFFFFFFFFFFFFFFFFFFFFFFFFFFFFFFFFFF AND CALLER PUSH20 0xFFFFFFFFFFFFFFFFFFFFFFFFFFFFFFFFFFFFFFFF AND EQ PUSH2 0xA01 JUMPI PUSH1 0x40 MLOAD PUSH32 0x8C379A000000000000000000000000000000000000000000000000000000000 DUP2 MSTORE PUSH1 0x4 ADD PUSH2 0x9F8 SWAP1 PUSH2 0x1588 JUMP JUMPDEST PUSH1 0x40 MLOAD DUP1 SWAP2 SUB SWAP1 REVERT JUMPDEST PUSH0 DUP2 PUSH0 ADD MLOAD SUB PUSH2 0xA46 JUMPI PUSH1 0x40 MLOAD PUSH32 0x8C379A000000000000000000000000000000000000000000000000000000000 DUP2 MSTORE PUSH1 0x4 ADD PUSH2 0xA3D SWAP1 PUSH2 0x15F0 JUMP JUMPDEST PUSH1 0x40 MLOAD DUP1 SWAP2 SUB SWAP1 REVERT JUMPDEST PUSH1 0x40 MLOAD DUP1 PUSH1 0xA0 ADD PUSH1 0x40 MSTORE DUP1 DUP3 PUSH0 ADD MLOAD DUP2 MSTORE PUSH1 0x20 ADD DUP7 DUP7 DUP1 DUP1 PUSH1 0x1F ADD PUSH1 0x20 DUP1 SWAP2 DIV MUL PUSH1 0x20 ADD PUSH1 0x40 MLOAD SWAP1 DUP2 ADD PUSH1 0x40 MSTORE DUP1 SWAP4 SWAP3 SWAP2 SWAP1 DUP2 DUP2 MSTORE PUSH1 0x20 ADD DUP4 DUP4 DUP1 DUP3 DUP5 CALLDATACOPY PUSH0 DUP2 DUP5 ADD MSTORE PUSH1 0x1F NOT PUSH1 0x1F DUP3 ADD AND SWAP1 POP DUP1 DUP4 ADD SWAP3 POP POP POP POP POP POP POP DUP2 MSTORE PUSH1 0x20 ADD DUP5 PUSH1 0x3 DUP2 GT ISZERO PUSH2 0xAB6 JUMPI PUSH2 0xAB5 PUSH2 0x10AD JUMP JUMPDEST JUMPDEST DUP2 MSTORE PUSH1 0x20 ADD DUP3 PUSH1 0x60 ADD MLOAD DUP2 MSTORE PUSH1 0x20 ADD DUP3 PUSH1 0x80 ADD MLOAD PUSH20 0xFFFFFFFFFFFFFFFFFFFFFFFFFFFFFFFFFFFFFFFF AND DUP2 MSTORE POP SWAP1 POP DUP1 PUSH0 DUP1 DUP4 PUSH0 ADD MLOAD DUP2 MSTORE PUSH1 0x20 ADD SWAP1 DUP2 MSTORE PUSH1 0x20 ADD PUSH0 KECCAK256 PUSH0 DUP3 ADD MLOAD DUP2 PUSH0 ADD SSTORE PUSH1 0x20 DUP3 ADD MLOAD DUP2 PUSH1 0x1 ADD SWAP1 DUP2 PUSH2 0xB16 SWAP2 SWAP1 PUSH2 0x19D8 JUMP JUMPDEST POP PUSH1 0x40 DUP3 ADD MLOAD DUP2 PUSH1 0x2 ADD PUSH0 PUSH2 0x100 EXP DUP2 SLOAD DUP2 PUSH1 0xFF MUL NOT AND SWAP1 DUP4 PUSH1 0x3 DUP2 GT ISZERO PUSH2 0xB41 JUMPI PUSH2 0xB40 PUSH2 0x10AD JUMP JUMPDEST JUMPDEST MUL OR SWAP1 SSTORE POP PUSH1 0x60 DUP3 ADD MLOAD DUP2 PUSH1 0x3 ADD SSTORE PUSH1 0x80 DUP3 ADD MLOAD DUP2 PUSH1 0x4 ADD PUSH0 PUSH2 0x100 EXP DUP2 SLOAD DUP2 PUSH20 0xFFFFFFFFFFFFFFFFFFFFFFFFFFFFFFFFFFFFFFFF MUL NOT AND SWAP1 DUP4 PUSH20 0xFFFFFFFFFFFFFFFFFFFFFFFFFFFFFFFFFFFFFFFF AND MUL OR SWAP1 SSTORE POP SWAP1 POP POP DUP1 SWAP2 POP POP SWAP5 SWAP4 POP POP POP POP JUMP JUMPDEST PUSH2 0xBAD PUSH2 0xEFE JUMP JUMPDEST PUSH7 0x2386F26FC10000 CALLVALUE EQ PUSH2 0xBF6 JUMPI PUSH1 0x40 MLOAD PUSH32 0x8C379A000000000000000000000000000000000000000000000000000000000 DUP2 MSTORE PUSH1 0x4 ADD PUSH2 0xBED SWAP1 PUSH2 0x1AF1 JUMP JUMPDEST PUSH1 0x40 MLOAD DUP1 SWAP2 SUB SWAP1 REVERT JUMPDEST PUSH0 DUP5 DUP5 SWAP1 POP GT PUSH2 0xC3B JUMPI PUSH1 0x40 MLOAD PUSH32 0x8C379A000000000000000000000000000000000000000000000000000000000 DUP2 MSTORE PUSH1 0x4 ADD PUSH2 0xC32 SWAP1 PUSH2 0x178F JUMP JUMPDEST PUSH1 0x40 MLOAD DUP1 SWAP2 SUB SWAP1 REVERT JUMPDEST PUSH0 PUSH1 0x3 DUP2 GT ISZERO PUSH2 0xC4E JUMPI PUSH2 0xC4D PUSH2 0x10AD JUMP JUMPDEST JUMPDEST DUP3 PUSH1 0x3 DUP2 GT ISZERO PUSH2 0xC61 JUMPI PUSH2 0xC60 PUSH2 0x10AD JUMP JUMPDEST JUMPDEST SUB PUSH2 0xCA1 JUMPI PUSH1 0x40 MLOAD PUSH32 0x8C379A000000000000000000000000000000000000000000000000000000000 DUP2 MSTORE PUSH1 0x4 ADD PUSH2 0xC98 SWAP1 PUSH2 0x181D JUMP JUMPDEST PUSH1 0x40 MLOAD DUP1 SWAP2 SUB SWAP1 REVERT JUMPDEST PUSH1 0x1 DUP1 PUSH0 DUP3 DUP3 SLOAD PUSH2 0xCB2 SWAP2 SWAP1 PUSH2 0x1B0F JUMP JUMPDEST SWAP3 POP POP DUP2 SWAP1 SSTORE POP PUSH0 PUSH1 0x40 MLOAD DUP1 PUSH1 0xA0 ADD PUSH1 0x40 MSTORE DUP1 PUSH1 0x1 SLOAD DUP2 MSTORE PUSH1 0x20 ADD DUP7 DUP7 DUP1 DUP1 PUSH1 0x1F ADD PUSH1 0x20 DUP1 SWAP2 DIV MUL PUSH1 0x20 ADD PUSH1 0x40 MLOAD SWAP1 DUP2 ADD PUSH1 0x40 MSTORE DUP1 SWAP4 SWAP3 SWAP2 SWAP1 DUP2 DUP2 MSTORE PUSH1 0x20 ADD DUP4 DUP4 DUP1 DUP3 DUP5 CALLDATACOPY PUSH0 DUP2 DUP5 ADD MSTORE PUSH1 0x1F NOT PUSH1 0x1F DUP3 ADD AND SWAP1 POP DUP1 DUP4 ADD SWAP3 POP POP POP POP POP POP POP DUP2 MSTORE PUSH1 0x20 ADD DUP5 PUSH1 0x3 DUP2 GT ISZERO PUSH2 0xD29 JUMPI PUSH2 0xD28 PUSH2 0x10AD JUMP JUMPDEST JUMPDEST DUP2 MSTORE PUSH1 0x20 ADD TIMESTAMP DUP2 MSTORE PUSH1 0x20 ADD CALLER PUSH20 0xFFFFFFFFFFFFFFFFFFFFFFFFFFFFFFFFFFFFFFFF AND DUP2 MSTORE POP SWAP1 POP DUP1 PUSH0 DUP1 PUSH1 0x1 SLOAD DUP2 MSTORE PUSH1 0x20 ADD SWAP1 DUP2 MSTORE PUSH1 0x20 ADD PUSH0 KECCAK256 PUSH0 DUP3 ADD MLOAD DUP2 PUSH0 ADD SSTORE PUSH1 0x20 DUP3 ADD MLOAD DUP2 PUSH1 0x1 ADD SWAP1 DUP2 PUSH2 0xD80 SWAP2 SWAP1 PUSH2 0x19D8 JUMP JUMPDEST POP PUSH1 0x40 DUP3 ADD MLOAD DUP2 PUSH1 0x2 ADD PUSH0 PUSH2 0x100 EXP DUP2 SLOAD DUP2 PUSH1 0xFF MUL NOT AND SWAP1 DUP4 PUSH1 0x3 DUP2 GT ISZERO PUSH2 0xDAB JUMPI PUSH2 0xDAA PUSH2 0x10AD JUMP JUMPDEST JUMPDEST MUL OR SWAP1 SSTORE POP PUSH1 0x60 DUP3 ADD MLOAD DUP2 PUSH1 0x3 ADD SSTORE PUSH1 0x80 DUP3 ADD MLOAD DUP2 PUSH1 0x4 ADD PUSH0 PUSH2 0x100 EXP DUP2 SLOAD DUP2 PUSH20 0xFFFFFFFFFFFFFFFFFFFFFFFFFFFFFFFFFFFFFFFF MUL NOT AND SWAP1 DUP4 PUSH20 0xFFFFFFFFFFFFFFFFFFFFFFFFFFFFFFFFFFFFFFFF AND MUL OR SWAP1 SSTORE POP SWAP1 POP POP CALLER PUSH20 0xFFFFFFFFFFFFFFFFFFFFFFFFFFFFFFFFFFFFFFFF AND PUSH32 0xF950957D2407BED19DC99B718B46B4CE6090C05589006DFB86FD22C34865B23E CALLER PUSH20 0xFFFFFFFFFFFFFFFFFFFFFFFFFFFFFFFFFFFFFFFF AND BALANCE PUSH1 0x40 MLOAD PUSH2 0xE60 SWAP2 SWAP1 PUSH2 0x165E JUMP JUMPDEST PUSH1 0x40 MLOAD DUP1 SWAP2 SUB SWAP1 LOG2 ADDRESS PUSH20 0xFFFFFFFFFFFFFFFFFFFFFFFFFFFFFFFFFFFFFFFF AND PUSH32 0xF950957D2407BED19DC99B718B46B4CE6090C05589006DFB86FD22C34865B23E SELFBALANCE PUSH1 0x40 MLOAD PUSH2 0xEAE SWAP2 SWAP1 PUSH2 0x165E JUMP JUMPDEST PUSH1 0x40 MLOAD DUP1 SWAP2 SUB SWAP1 LOG2 DUP1 SWAP2 POP POP SWAP4 SWAP3 POP POP POP JUMP JUMPDEST POP DUP1 SLOAD PUSH2 0xECD SWAP1 PUSH2 0x150E JUMP JUMPDEST PUSH0 DUP3 SSTORE DUP1 PUSH1 0x1F LT PUSH2 0xEDE JUMPI POP PUSH2 0xEFB JUMP JUMPDEST PUSH1 0x1F ADD PUSH1 0x20 SWAP1 DIV SWAP1 PUSH0 MSTORE PUSH1 0x20 PUSH0 KECCAK256 SWAP1 DUP2 ADD SWAP1 PUSH2 0xEFA SWAP2 SWAP1 PUSH2 0xF51 JUMP JUMPDEST JUMPDEST POP JUMP JUMPDEST PUSH1 0x40 MLOAD DUP1 PUSH1 0xA0 ADD PUSH1 0x40 MSTORE DUP1 PUSH0 DUP2 MSTORE PUSH1 0x20 ADD PUSH1 0x60 DUP2 MSTORE PUSH1 0x20 ADD PUSH0 PUSH1 0x3 DUP2 GT ISZERO PUSH2 0xF29 JUMPI PUSH2 0xF28 PUSH2 0x10AD JUMP JUMPDEST JUMPDEST DUP2 MSTORE PUSH1 0x20 ADD PUSH0 DUP2 MSTORE PUSH1 0x20 ADD PUSH0 PUSH20 0xFFFFFFFFFFFFFFFFFFFFFFFFFFFFFFFFFFFFFFFF AND DUP2 MSTORE POP SWAP1 JUMP JUMPDEST JUMPDEST DUP1 DUP3 GT ISZERO PUSH2 0xF68 JUMPI PUSH0 DUP2 PUSH0 SWAP1 SSTORE POP PUSH1 0x1 ADD PUSH2 0xF52 JUMP JUMPDEST POP SWAP1 JUMP JUMPDEST PUSH0 DUP1 REVERT JUMPDEST PUSH0 DUP1 REVERT JUMPDEST PUSH0 DUP2 SWAP1 POP SWAP2 SWAP1 POP JUMP JUMPDEST PUSH2 0xF86 DUP2 PUSH2 0xF74 JUMP JUMPDEST DUP2 EQ PUSH2 0xF90 JUMPI PUSH0 DUP1 REVERT JUMPDEST POP JUMP JUMPDEST PUSH0 DUP2 CALLDATALOAD SWAP1 POP PUSH2 0xFA1 DUP2 PUSH2 0xF7D JUMP JUMPDEST SWAP3 SWAP2 POP POP JUMP JUMPDEST PUSH0 PUSH1 0x20 DUP3 DUP5 SUB SLT ISZERO PUSH2 0xFBC JUMPI PUSH2 0xFBB PUSH2 0xF6C JUMP JUMPDEST JUMPDEST PUSH0 PUSH2 0xFC9 DUP5 DUP3 DUP6 ADD PUSH2 0xF93 JUMP JUMPDEST SWAP2 POP POP SWAP3 SWAP2 POP POP JUMP JUMPDEST PUSH0 DUP2 ISZERO ISZERO SWAP1 POP SWAP2 SWAP1 POP JUMP JUMPDEST PUSH2 0xFE6 DUP2 PUSH2 0xFD2 JUMP JUMPDEST DUP3 MSTORE POP POP JUMP JUMPDEST PUSH0 PUSH1 0x20 DUP3 ADD SWAP1 POP PUSH2 0xFFF PUSH0 DUP4 ADD DUP5 PUSH2 0xFDD JUMP JUMPDEST SWAP3 SWAP2 POP POP JUMP JUMPDEST PUSH0 DUP2 MLOAD SWAP1 POP SWAP2 SWAP1 POP JUMP JUMPDEST PUSH0 DUP3 DUP3 MSTORE PUSH1 0x20 DUP3 ADD SWAP1 POP SWAP3 SWAP2 POP POP JUMP JUMPDEST PUSH0 DUP2 SWAP1 POP PUSH1 0x20 DUP3 ADD SWAP1 POP SWAP2 SWAP1 POP JUMP JUMPDEST PUSH2 0x1037 DUP2 PUSH2 0xF74 JUMP JUMPDEST DUP3 MSTORE POP POP JUMP JUMPDEST PUSH0 DUP2 MLOAD SWAP1 POP SWAP2 SWAP1 POP JUMP JUMPDEST PUSH0 DUP3 DUP3 MSTORE PUSH1 0x20 DUP3 ADD SWAP1 POP SWAP3 SWAP2 POP POP JUMP JUMPDEST DUP3 DUP2 DUP4 MCOPY PUSH0 DUP4 DUP4 ADD MSTORE POP POP POP JUMP JUMPDEST PUSH0 PUSH1 0x1F NOT PUSH1 0x1F DUP4 ADD AND SWAP1 POP SWAP2 SWAP1 POP JUMP JUMPDEST PUSH0 PUSH2 0x107F DUP3 PUSH2 0x103D JUMP JUMPDEST PUSH2 0x1089 DUP2 DUP6 PUSH2 0x1047 JUMP JUMPDEST SWAP4 POP PUSH2 0x1099 DUP2 DUP6 PUSH1 0x20 DUP7 ADD PUSH2 0x1057 JUMP JUMPDEST PUSH2 0x10A2 DUP2 PUSH2 0x1065 JUMP JUMPDEST DUP5 ADD SWAP2 POP POP SWAP3 SWAP2 POP POP JUMP JUMPDEST PUSH32 0x4E487B7100000000000000000000000000000000000000000000000000000000 PUSH0 MSTORE PUSH1 0x21 PUSH1 0x4 MSTORE PUSH1 0x24 PUSH0 REVERT JUMPDEST PUSH1 0x4 DUP2 LT PUSH2 0x10EB JUMPI PUSH2 0x10EA PUSH2 0x10AD JUMP JUMPDEST JUMPDEST POP JUMP JUMPDEST PUSH0 DUP2 SWAP1 POP PUSH2 0x10FB DUP3 PUSH2 0x10DA JUMP JUMPDEST SWAP2 SWAP1 POP JUMP JUMPDEST PUSH0 PUSH2 0x110A DUP3 PUSH2 0x10EE JUMP JUMPDEST SWAP1 POP SWAP2 SWAP1 POP JUMP JUMPDEST PUSH2 0x111A DUP2 PUSH2 0x1100 JUMP JUMPDEST DUP3 MSTORE POP POP JUMP JUMPDEST PUSH0 PUSH20 0xFFFFFFFFFFFFFFFFFFFFFFFFFFFFFFFFFFFFFFFF DUP3 AND SWAP1 POP SWAP2 SWAP1 POP JUMP JUMPDEST PUSH0 PUSH2 0x1149 DUP3 PUSH2 0x1120 JUMP JUMPDEST SWAP1 POP SWAP2 SWAP1 POP JUMP JUMPDEST PUSH2 0x1159 DUP2 PUSH2 0x113F JUMP JUMPDEST DUP3 MSTORE POP POP JUMP JUMPDEST PUSH0 PUSH1 0xA0 DUP4 ADD PUSH0 DUP4 ADD MLOAD PUSH2 0x1174 PUSH0 DUP7 ADD DUP3 PUSH2 0x102E JUMP JUMPDEST POP PUSH1 0x20 DUP4 ADD MLOAD DUP5 DUP3 SUB PUSH1 0x20 DUP7 ADD MSTORE PUSH2 0x118C DUP3 DUP3 PUSH2 0x1075 JUMP JUMPDEST SWAP2 POP POP PUSH1 0x40 DUP4 ADD MLOAD PUSH2 0x11A1 PUSH1 0x40 DUP7 ADD DUP3 PUSH2 0x1111 JUMP JUMPDEST POP PUSH1 0x60 DUP4 ADD MLOAD PUSH2 0x11B4 PUSH1 0x60 DUP7 ADD DUP3 PUSH2 0x102E JUMP JUMPDEST POP PUSH1 0x80 DUP4 ADD MLOAD PUSH2 0x11C7 PUSH1 0x80 DUP7 ADD DUP3 PUSH2 0x1150 JUMP JUMPDEST POP DUP1 SWAP2 POP POP SWAP3 SWAP2 POP POP JUMP JUMPDEST PUSH0 PUSH2 0x11DD DUP4 DUP4 PUSH2 0x115F JUMP JUMPDEST SWAP1 POP SWAP3 SWAP2 POP POP JUMP JUMPDEST PUSH0 PUSH1 0x20 DUP3 ADD SWAP1 POP SWAP2 SWAP1 POP JUMP JUMPDEST PUSH0 PUSH2 0x11FB DUP3 PUSH2 0x1005 JUMP JUMPDEST PUSH2 0x1205 DUP2 DUP6 PUSH2 0x100F JUMP JUMPDEST SWAP4 POP DUP4 PUSH1 0x20 DUP3 MUL DUP6 ADD PUSH2 0x1217 DUP6 PUSH2 0x101F JUMP JUMPDEST DUP1 PUSH0 JUMPDEST DUP6 DUP2 LT ISZERO PUSH2 0x1252 JUMPI DUP5 DUP5 SUB DUP10 MSTORE DUP2 MLOAD PUSH2 0x1233 DUP6 DUP3 PUSH2 0x11D2 JUMP JUMPDEST SWAP5 POP PUSH2 0x123E DUP4 PUSH2 0x11E5 JUMP JUMPDEST SWAP3 POP PUSH1 0x20 DUP11 ADD SWAP10 POP POP PUSH1 0x1 DUP2 ADD SWAP1 POP PUSH2 0x121A JUMP JUMPDEST POP DUP3 SWAP8 POP DUP8 SWAP6 POP POP POP POP POP POP SWAP3 SWAP2 POP POP JUMP JUMPDEST PUSH0 PUSH1 0x20 DUP3 ADD SWAP1 POP DUP2 DUP2 SUB PUSH0 DUP4 ADD MSTORE PUSH2 0x127C DUP2 DUP5 PUSH2 0x11F1 JUMP JUMPDEST SWAP1 POP SWAP3 SWAP2 POP POP JUMP JUMPDEST PUSH0 DUP1 REVERT JUMPDEST PUSH0 DUP1 REVERT JUMPDEST PUSH0 DUP1 REVERT JUMPDEST PUSH0 DUP1 DUP4 PUSH1 0x1F DUP5 ADD SLT PUSH2 0x12A5 JUMPI PUSH2 0x12A4 PUSH2 0x1284 JUMP JUMPDEST JUMPDEST DUP3 CALLDATALOAD SWAP1 POP PUSH8 0xFFFFFFFFFFFFFFFF DUP2 GT ISZERO PUSH2 0x12C2 JUMPI PUSH2 0x12C1 PUSH2 0x1288 JUMP JUMPDEST JUMPDEST PUSH1 0x20 DUP4 ADD SWAP2 POP DUP4 PUSH1 0x1 DUP3 MUL DUP4 ADD GT ISZERO PUSH2 0x12DE JUMPI PUSH2 0x12DD PUSH2 0x128C JUMP JUMPDEST JUMPDEST SWAP3 POP SWAP3 SWAP1 POP JUMP JUMPDEST PUSH1 0x4 DUP2 LT PUSH2 0x12F1 JUMPI PUSH0 DUP1 REVERT JUMPDEST POP JUMP JUMPDEST PUSH0 DUP2 CALLDATALOAD SWAP1 POP PUSH2 0x1302 DUP2 PUSH2 0x12E5 JUMP JUMPDEST SWAP3 SWAP2 POP POP JUMP JUMPDEST PUSH0 DUP1 PUSH0 DUP1 PUSH1 0x60 DUP6 DUP8 SUB SLT ISZERO PUSH2 0x1320 JUMPI PUSH2 0x131F PUSH2 0xF6C JUMP JUMPDEST JUMPDEST PUSH0 PUSH2 0x132D DUP8 DUP3 DUP9 ADD PUSH2 0xF93 JUMP JUMPDEST SWAP5 POP POP PUSH1 0x20 DUP6 ADD CALLDATALOAD PUSH8 0xFFFFFFFFFFFFFFFF DUP2 GT ISZERO PUSH2 0x134E JUMPI PUSH2 0x134D PUSH2 0xF70 JUMP JUMPDEST JUMPDEST PUSH2 0x135A DUP8 DUP3 DUP9 ADD PUSH2 0x1290 JUMP JUMPDEST SWAP4 POP SWAP4 POP POP PUSH1 0x40 PUSH2 0x136D DUP8 DUP3 DUP9 ADD PUSH2 0x12F4 JUMP JUMPDEST SWAP2 POP POP SWAP3 SWAP6 SWAP2 SWAP5 POP SWAP3 POP JUMP JUMPDEST PUSH0 PUSH1 0xA0 DUP4 ADD PUSH0 DUP4 ADD MLOAD PUSH2 0x138E PUSH0 DUP7 ADD DUP3 PUSH2 0x102E JUMP JUMPDEST POP PUSH1 0x20 DUP4 ADD MLOAD DUP5 DUP3 SUB PUSH1 0x20 DUP7 ADD MSTORE PUSH2 0x13A6 DUP3 DUP3 PUSH2 0x1075 JUMP JUMPDEST SWAP2 POP POP PUSH1 0x40 DUP4 ADD MLOAD PUSH2 0x13BB PUSH1 0x40 DUP7 ADD DUP3 PUSH2 0x1111 JUMP JUMPDEST POP PUSH1 0x60 DUP4 ADD MLOAD PUSH2 0x13CE PUSH1 0x60 DUP7 ADD DUP3 PUSH2 0x102E JUMP JUMPDEST POP PUSH1 0x80 DUP4 ADD MLOAD PUSH2 0x13E1 PUSH1 0x80 DUP7 ADD DUP3 PUSH2 0x1150 JUMP JUMPDEST POP DUP1 SWAP2 POP POP SWAP3 SWAP2 POP POP JUMP JUMPDEST PUSH0 PUSH1 0x20 DUP3 ADD SWAP1 POP DUP2 DUP2 SUB PUSH0 DUP4 ADD MSTORE PUSH2 0x1404 DUP2 DUP5 PUSH2 0x1379 JUMP JUMPDEST SWAP1 POP SWAP3 SWAP2 POP POP JUMP JUMPDEST PUSH0 DUP1 PUSH0 PUSH1 0x40 DUP5 DUP7 SUB SLT ISZERO PUSH2 0x1423 JUMPI PUSH2 0x1422 PUSH2 0xF6C JUMP JUMPDEST JUMPDEST PUSH0 DUP5 ADD CALLDATALOAD PUSH8 0xFFFFFFFFFFFFFFFF DUP2 GT ISZERO PUSH2 0x1440 JUMPI PUSH2 0x143F PUSH2 0xF70 JUMP JUMPDEST JUMPDEST PUSH2 0x144C DUP7 DUP3 DUP8 ADD PUSH2 0x1290 JUMP JUMPDEST SWAP4 POP SWAP4 POP POP PUSH1 0x20 PUSH2 0x145F DUP7 DUP3 DUP8 ADD PUSH2 0x12F4 JUMP JUMPDEST SWAP2 POP POP SWAP3 POP SWAP3 POP SWAP3 JUMP JUMPDEST PUSH0 DUP3 DUP3 MSTORE PUSH1 0x20 DUP3 ADD SWAP1 POP SWAP3 SWAP2 POP POP JUMP JUMPDEST PUSH32 0x4964206D757374206265206F7665722030000000000000000000000000000000 PUSH0 DUP3 ADD MSTORE POP JUMP JUMPDEST PUSH0 PUSH2 0x14AD PUSH1 0x11 DUP4 PUSH2 0x1469 JUMP JUMPDEST SWAP2 POP PUSH2 0x14B8 DUP3 PUSH2 0x1479 JUMP JUMPDEST PUSH1 0x20 DUP3 ADD SWAP1 POP SWAP2 SWAP1 POP JUMP JUMPDEST PUSH0 PUSH1 0x20 DUP3 ADD SWAP1 POP DUP2 DUP2 SUB PUSH0 DUP4 ADD MSTORE PUSH2 0x14DA DUP2 PUSH2 0x14A1 JUMP JUMPDEST SWAP1 POP SWAP2 SWAP1 POP JUMP JUMPDEST PUSH32 0x4E487B7100000000000000000000000000000000000000000000000000000000 PUSH0 MSTORE PUSH1 0x22 PUSH1 0x4 MSTORE PUSH1 0x24 PUSH0 REVERT JUMPDEST PUSH0 PUSH1 0x2 DUP3 DIV SWAP1 POP PUSH1 0x1 DUP3 AND DUP1 PUSH2 0x1525 JUMPI PUSH1 0x7F DUP3 AND SWAP2 POP JUMPDEST PUSH1 0x20 DUP3 LT DUP2 SUB PUSH2 0x1538 JUMPI PUSH2 0x1537 PUSH2 0x14E1 JUMP JUMPDEST JUMPDEST POP SWAP2 SWAP1 POP JUMP JUMPDEST PUSH32 0x556E617574686F72697A65640000000000000000000000000000000000000000 PUSH0 DUP3 ADD MSTORE POP JUMP JUMPDEST PUSH0 PUSH2 0x1572 PUSH1 0xC DUP4 PUSH2 0x1469 JUMP JUMPDEST SWAP2 POP PUSH2 0x157D DUP3 PUSH2 0x153E JUMP JUMPDEST PUSH1 0x20 DUP3 ADD SWAP1 POP SWAP2 SWAP1 POP JUMP JUMPDEST PUSH0 PUSH1 0x20 DUP3 ADD SWAP1 POP DUP2 DUP2 SUB PUSH0 DUP4 ADD MSTORE PUSH2 0x159F DUP2 PUSH2 0x1566 JUMP JUMPDEST SWAP1 POP SWAP2 SWAP1 POP JUMP JUMPDEST PUSH32 0x5461736B206973206E6F7420666F756E64000000000000000000000000000000 PUSH0 DUP3 ADD MSTORE POP JUMP JUMPDEST PUSH0 PUSH2 0x15DA PUSH1 0x11 DUP4 PUSH2 0x1469 JUMP JUMPDEST SWAP2 POP PUSH2 0x15E5 DUP3 PUSH2 0x15A6 JUMP JUMPDEST PUSH1 0x20 DUP3 ADD SWAP1 POP SWAP2 SWAP1 POP JUMP JUMPDEST PUSH0 PUSH1 0x20 DUP3 ADD SWAP1 POP DUP2 DUP2 SUB PUSH0 DUP4 ADD MSTORE PUSH2 0x1607 DUP2 PUSH2 0x15CE JUMP JUMPDEST SWAP1 POP SWAP2 SWAP1 POP JUMP JUMPDEST PUSH0 DUP2 SWAP1 POP SWAP3 SWAP2 POP POP JUMP JUMPDEST POP JUMP JUMPDEST PUSH0 PUSH2 0x1626 PUSH0 DUP4 PUSH2 0x160E JUMP JUMPDEST SWAP2 POP PUSH2 0x1631 DUP3 PUSH2 0x1618 JUMP JUMPDEST PUSH0 DUP3 ADD SWAP1 POP SWAP2 SWAP1 POP JUMP JUMPDEST PUSH0 PUSH2 0x1645 DUP3 PUSH2 0x161B JUMP JUMPDEST SWAP2 POP DUP2 SWAP1 POP SWAP2 SWAP1 POP JUMP JUMPDEST PUSH2 0x1658 DUP2 PUSH2 0xF74 JUMP JUMPDEST DUP3 MSTORE POP POP JUMP JUMPDEST PUSH0 PUSH1 0x20 DUP3 ADD SWAP1 POP PUSH2 0x1671 PUSH0 DUP4 ADD DUP5 PUSH2 0x164F JUMP JUMPDEST SWAP3 SWAP2 POP POP JUMP JUMPDEST PUSH32 0x4E487B7100000000000000000000000000000000000000000000000000000000 PUSH0 MSTORE PUSH1 0x41 PUSH1 0x4 MSTORE PUSH1 0x24 PUSH0 REVERT JUMPDEST PUSH32 0x4E487B7100000000000000000000000000000000000000000000000000000000 PUSH0 MSTORE PUSH1 0x32 PUSH1 0x4 MSTORE PUSH1 0x24 PUSH0 REVERT JUMPDEST PUSH32 0x4E487B7100000000000000000000000000000000000000000000000000000000 PUSH0 MSTORE PUSH1 0x11 PUSH1 0x4 MSTORE PUSH1 0x24 PUSH0 REVERT JUMPDEST PUSH0 PUSH2 0x1708 DUP3 PUSH2 0xF74 JUMP JUMPDEST SWAP2 POP PUSH32 0xFFFFFFFFFFFFFFFFFFFFFFFFFFFFFFFFFFFFFFFFFFFFFFFFFFFFFFFFFFFFFFFF DUP3 SUB PUSH2 0x173A JUMPI PUSH2 0x1739 PUSH2 0x16D1 JUMP JUMPDEST JUMPDEST PUSH1 0x1 DUP3 ADD SWAP1 POP SWAP2 SWAP1 POP JUMP JUMPDEST PUSH32 0x436F6E74656E74206D757374206E6F7420626520656D70747900000000000000 PUSH0 DUP3 ADD MSTORE POP JUMP JUMPDEST PUSH0 PUSH2 0x1779 PUSH1 0x19 DUP4 PUSH2 0x1469 JUMP JUMPDEST SWAP2 POP PUSH2 0x1784 DUP3 PUSH2 0x1745 JUMP JUMPDEST PUSH1 0x20 DUP3 ADD SWAP1 POP SWAP2 SWAP1 POP JUMP JUMPDEST PUSH0 PUSH1 0x20 DUP3 ADD SWAP1 POP DUP2 DUP2 SUB PUSH0 DUP4 ADD MSTORE PUSH2 0x17A6 DUP2 PUSH2 0x176D JUMP JUMPDEST SWAP1 POP SWAP2 SWAP1 POP JUMP JUMPDEST PUSH32 0x537461747573206D75737420626520544F444F2C20444F494E47206F7220444F PUSH0 DUP3 ADD MSTORE PUSH32 0x4E45000000000000000000000000000000000000000000000000000000000000 PUSH1 0x20 DUP3 ADD MSTORE POP JUMP JUMPDEST PUSH0 PUSH2 0x1807 PUSH1 0x22 DUP4 PUSH2 0x1469 JUMP JUMPDEST SWAP2 POP PUSH2 0x1812 DUP3 PUSH2 0x17AD JUMP JUMPDEST PUSH1 0x40 DUP3 ADD SWAP1 POP SWAP2 SWAP1 POP JUMP JUMPDEST PUSH0 PUSH1 0x20 DUP3 ADD SWAP1 POP DUP2 DUP2 SUB PUSH0 DUP4 ADD MSTORE PUSH2 0x1834 DUP2 PUSH2 0x17FB JUMP JUMPDEST SWAP1 POP SWAP2 SWAP1 POP JUMP JUMPDEST PUSH0 DUP2 SWAP1 POP DUP2 PUSH0 MSTORE PUSH1 0x20 PUSH0 KECCAK256 SWAP1 POP SWAP2 SWAP1 POP JUMP JUMPDEST PUSH0 PUSH1 0x20 PUSH1 0x1F DUP4 ADD DIV SWAP1 POP SWAP2 SWAP1 POP JUMP JUMPDEST PUSH0 DUP3 DUP3 SHL SWAP1 POP SWAP3 SWAP2 POP POP JUMP JUMPDEST PUSH0 PUSH1 0x8 DUP4 MUL PUSH2 0x1897 PUSH32 0xFFFFFFFFFFFFFFFFFFFFFFFFFFFFFFFFFFFFFFFFFFFFFFFFFFFFFFFFFFFFFFFF DUP3 PUSH2 0x185C JUMP JUMPDEST PUSH2 0x18A1 DUP7 DUP4 PUSH2 0x185C JUMP JUMPDEST SWAP6 POP DUP1 NOT DUP5 AND SWAP4 POP DUP1 DUP7 AND DUP5 OR SWAP3 POP POP POP SWAP4 SWAP3 POP POP POP JUMP JUMPDEST PUSH0 DUP2 SWAP1 POP SWAP2 SWAP1 POP JUMP JUMPDEST PUSH0 PUSH2 0x18DC PUSH2 0x18D7 PUSH2 0x18D2 DUP5 PUSH2 0xF74 JUMP JUMPDEST PUSH2 0x18B9 JUMP JUMPDEST PUSH2 0xF74 JUMP JUMPDEST SWAP1 POP SWAP2 SWAP1 POP JUMP JUMPDEST PUSH0 DUP2 SWAP1 POP SWAP2 SWAP1 POP JUMP JUMPDEST PUSH2 0x18F5 DUP4 PUSH2 0x18C2 JUMP JUMPDEST PUSH2 0x1909 PUSH2 0x1901 DUP3 PUSH2 0x18E3 JUMP JUMPDEST DUP5 DUP5 SLOAD PUSH2 0x1868 JUMP JUMPDEST DUP3 SSTORE POP POP POP POP JUMP JUMPDEST PUSH0 SWAP1 JUMP JUMPDEST PUSH2 0x191D PUSH2 0x1911 JUMP JUMPDEST PUSH2 0x1928 DUP2 DUP5 DUP5 PUSH2 0x18EC JUMP JUMPDEST POP POP POP JUMP JUMPDEST JUMPDEST DUP2 DUP2 LT ISZERO PUSH2 0x194B JUMPI PUSH2 0x1940 PUSH0 DUP3 PUSH2 0x1915 JUMP JUMPDEST PUSH1 0x1 DUP2 ADD SWAP1 POP PUSH2 0x192E JUMP JUMPDEST POP POP JUMP JUMPDEST PUSH1 0x1F DUP3 GT ISZERO PUSH2 0x1990 JUMPI PUSH2 0x1961 DUP2 PUSH2 0x183B JUMP JUMPDEST PUSH2 0x196A DUP5 PUSH2 0x184D JUMP JUMPDEST DUP2 ADD PUSH1 0x20 DUP6 LT ISZERO PUSH2 0x1979 JUMPI DUP2 SWAP1 POP JUMPDEST PUSH2 0x198D PUSH2 0x1985 DUP6 PUSH2 0x184D JUMP JUMPDEST DUP4 ADD DUP3 PUSH2 0x192D JUMP JUMPDEST POP POP JUMPDEST POP POP POP JUMP JUMPDEST PUSH0 DUP3 DUP3 SHR SWAP1 POP SWAP3 SWAP2 POP POP JUMP JUMPDEST PUSH0 PUSH2 0x19B0 PUSH0 NOT DUP5 PUSH1 0x8 MUL PUSH2 0x1995 JUMP JUMPDEST NOT DUP1 DUP4 AND SWAP2 POP POP SWAP3 SWAP2 POP POP JUMP JUMPDEST PUSH0 PUSH2 0x19C8 DUP4 DUP4 PUSH2 0x19A1 JUMP JUMPDEST SWAP2 POP DUP3 PUSH1 0x2 MUL DUP3 OR SWAP1 POP SWAP3 SWAP2 POP POP JUMP JUMPDEST PUSH2 0x19E1 DUP3 PUSH2 0x103D JUMP JUMPDEST PUSH8 0xFFFFFFFFFFFFFFFF DUP2 GT ISZERO PUSH2 0x19FA JUMPI PUSH2 0x19F9 PUSH2 0x1677 JUMP JUMPDEST JUMPDEST PUSH2 0x1A04 DUP3 SLOAD PUSH2 0x150E JUMP JUMPDEST PUSH2 0x1A0F DUP3 DUP3 DUP6 PUSH2 0x194F JUMP JUMPDEST PUSH0 PUSH1 0x20 SWAP1 POP PUSH1 0x1F DUP4 GT PUSH1 0x1 DUP2 EQ PUSH2 0x1A40 JUMPI PUSH0 DUP5 ISZERO PUSH2 0x1A2E JUMPI DUP3 DUP8 ADD MLOAD SWAP1 POP JUMPDEST PUSH2 0x1A38 DUP6 DUP3 PUSH2 0x19BD JUMP JUMPDEST DUP7 SSTORE POP PUSH2 0x1A9F JUMP JUMPDEST PUSH1 0x1F NOT DUP5 AND PUSH2 0x1A4E DUP7 PUSH2 0x183B JUMP JUMPDEST PUSH0 JUMPDEST DUP3 DUP2 LT ISZERO PUSH2 0x1A75 JUMPI DUP5 DUP10 ADD MLOAD DUP3 SSTORE PUSH1 0x1 DUP3 ADD SWAP2 POP PUSH1 0x20 DUP6 ADD SWAP5 POP PUSH1 0x20 DUP2 ADD SWAP1 POP PUSH2 0x1A50 JUMP JUMPDEST DUP7 DUP4 LT ISZERO PUSH2 0x1A92 JUMPI DUP5 DUP10 ADD MLOAD PUSH2 0x1A8E PUSH1 0x1F DUP10 AND DUP3 PUSH2 0x19A1 JUMP JUMPDEST DUP4 SSTORE POP JUMPDEST PUSH1 0x1 PUSH1 0x2 DUP9 MUL ADD DUP9 SSTORE POP POP POP JUMPDEST POP POP POP POP POP POP JUMP JUMPDEST PUSH32 0x596F75206D7573742073656E6420302E30312065746865720000000000000000 PUSH0 DUP3 ADD MSTORE POP JUMP JUMPDEST PUSH0 PUSH2 0x1ADB PUSH1 0x18 DUP4 PUSH2 0x1469 JUMP JUMPDEST SWAP2 POP PUSH2 0x1AE6 DUP3 PUSH2 0x1AA7 JUMP JUMPDEST PUSH1 0x20 DUP3 ADD SWAP1 POP SWAP2 SWAP1 POP JUMP JUMPDEST PUSH0 PUSH1 0x20 DUP3 ADD SWAP1 POP DUP2 DUP2 SUB PUSH0 DUP4 ADD MSTORE PUSH2 0x1B08 DUP2 PUSH2 0x1ACF JUMP JUMPDEST SWAP1 POP SWAP2 SWAP1 POP JUMP JUMPDEST PUSH0 PUSH2 0x1B19 DUP3 PUSH2 0xF74 JUMP JUMPDEST SWAP2 POP PUSH2 0x1B24 DUP4 PUSH2 0xF74 JUMP JUMPDEST SWAP3 POP DUP3 DUP3 ADD SWAP1 POP DUP1 DUP3 GT ISZERO PUSH2 0x1B3C JUMPI PUSH2 0x1B3B PUSH2 0x16D1 JUMP JUMPDEST JUMPDEST SWAP3 SWAP2 POP POP JUMP INVALID LOG2 PUSH5 0x6970667358 0x22 SLT KECCAK256 CALL 0xC2 MLOAD INVALID 0xC6 RETURNDATACOPY GASPRICE CALLCODE MOD 0xAF LOG0 0xD1 0xD8 DUP12 0xC9 0x2B ADDRESS 0xAD PUSH3 0x3EA1DB SELFDESTRUCT DUP2 AND 0xC0 DUP3 SWAP9 0xCC RETURNDATASIZE 0xE6 0xCD PUSH5 0x736F6C6343 STOP ADDMOD BYTE STOP CALLER "
				},
				"gasEstimates": {
					"creation": {
						"codeDepositCost": "1406400",
						"executionCost": "1463",
						"totalCost": "1407863"
					},
					"external": {
						"create(string,uint8)": "infinite",
						"getAll()": "infinite",
						"remove(uint256)": "infinite",
						"update(uint256,string,uint8)": "infinite"
					}
				},
				"methodIdentifiers": {
					"create(string,uint8)": "de8f2e8d",
					"getAll()": "53ed5143",
					"remove(uint256)": "4cc82215",
					"update(uint256,string,uint8)": "da043b9c"
				}
			},
			"storageLayout": {
				"storage": [
					{
						"astId": 29,
						"contract": "contracts/Tasks.sol:TodoList",
						"label": "tasksList",
						"offset": 0,
						"slot": "0",
						"type": "t_mapping(t_uint256,t_struct(Task)24_storage)"
					},
					{
						"astId": 31,
						"contract": "contracts/Tasks.sol:TodoList",
						"label": "taskId",
						"offset": 0,
						"slot": "1",
						"type": "t_uint256"
					}
				],
				"types": {
					"t_address": {
						"encoding": "inplace",
						"label": "address",
						"numberOfBytes": "20"
					},
					"t_enum(Status)12": {
						"encoding": "inplace",
						"label": "enum TodoList.Status",
						"numberOfBytes": "1"
					},
					"t_mapping(t_uint256,t_struct(Task)24_storage)": {
						"encoding": "mapping",
						"key": "t_uint256",
						"label": "mapping(uint256 => struct TodoList.Task)",
						"numberOfBytes": "32",
						"value": "t_struct(Task)24_storage"
					},
					"t_string_storage": {
						"encoding": "bytes",
						"label": "string",
						"numberOfBytes": "32"
					},
					"t_struct(Task)24_storage": {
						"encoding": "inplace",
						"label": "struct TodoList.Task",
						"members": [
							{
								"astId": 14,
								"contract": "contracts/Tasks.sol:TodoList",
								"label": "id",
								"offset": 0,
								"slot": "0",
								"type": "t_uint256"
							},
							{
								"astId": 16,
								"contract": "contracts/Tasks.sol:TodoList",
								"label": "content",
								"offset": 0,
								"slot": "1",
								"type": "t_string_storage"
							},
							{
								"astId": 19,
								"contract": "contracts/Tasks.sol:TodoList",
								"label": "status",
								"offset": 0,
								"slot": "2",
								"type": "t_enum(Status)12"
							},
							{
								"astId": 21,
								"contract": "contracts/Tasks.sol:TodoList",
								"label": "createdAt",
								"offset": 0,
								"slot": "3",
								"type": "t_uint256"
							},
							{
								"astId": 23,
								"contract": "contracts/Tasks.sol:TodoList",
								"label": "createdBy",
								"offset": 0,
								"slot": "4",
								"type": "t_address"
							}
						],
						"numberOfBytes": "160"
					},
					"t_uint256": {
						"encoding": "inplace",
						"label": "uint256",
						"numberOfBytes": "32"
					}
				}
			},
			"userdoc": {
				"kind": "user",
				"methods": {},
				"version": 1
			}
		}
	}
}